:0200000460009A
:100000004643464200000156000000000103030081
:1000100000000000000000000000000000000000E0
:1000200000000000000000000000000000000000D0
:1000300000000000000000000000000000000000C0
:1000400000000000010408000000000000000000A3
:100050000000800000000000000000000000000020
:100060000000000000000000000000000000000090
:100070000000000000000000000000000000000080
:10008000EB04180A063204260000000000000000FD
:10009000050404240000000000000000000000002F
:1000A0000000000000000000000000000000000050
:1000B0000604000000000000000000000000000036
:1000C0000000000000000000000000000000000030
:1000D00020041808000000000000000000000000DC
:1000E0000000000000000000000000000000000010
:1000F0000000000000000000000000000000000000
:10010000D8041808000000000000000000000000F3
:100110000204180804200000000000000000000095
:1001200000000000000000000000000000000000CF
:10013000600400000000000000000000000000005B
:1001400000000000000000000000000000000000AF
:10015000000000000000000000000000000000009F
:10016000000000000000000000000000000000008F
:10017000000000000000000000000000000000007F
:10018000000000000000000000000000000000006F
:10019000000000000000000000000000000000005F
:1001A000000000000000000000000000000000004F
:1001B000000000000000000000000000000000003F
:1001C000000100000010000001000000000000001D
:1001D000000001000000000000000000000000001E
:1001E000000000000000000000000000000000000F
:1001F00000000000000000000000000000000000FF
:10020000FFFFFFFFFFFFFFFFFFFFFFFFFFFFFFFFFE
:10021000FFFFFFFFFFFFFFFFFFFFFFFFFFFFFFFFEE
:10100000D10020434D1600600000000000000000E9
:10101000201000600010006000BC006000000000B4
:101020000000006000C8000000000000FFFFFFFF9C
:10103000FFFFFFFFFFFFFFFFFFFFFFFFFFFFFFFFC0
:10104000FFFFFFFFFFFFFFFFFFFFFFFFFFFFFFFFB0
:10105000FFFFFFFFFFFFFFFFFFFFFFFFFFFFFFFFA0
:10106000FFFFFFFFFFFFFFFFFFFFFFFFFFFFFFFF90
:10140000814205D051F8043B40F8043B8242F9D8B0
:10141000704700BF044A05494FF0000342F8043BFF
:101420009142FBD8704700BFC02E0020003A002038
:101430002DE98848BFF34F8F00BF00BF00BF00BF3A
:1014400000F042F9684B0822C3F8542100BF00BFE6
:1014500000BF00BF00BF00BF00BF00BF00BF00BF94
:1014600000BF00BF00BF00BF00BF00BF5F4A6049B0
:101470006048FFF7C5FF604A60496148FFF7C0FF59
:10148000604CFFF7C7FF4FF470004FF0E0210023DE
:101490005D4AC1F8880D44F823200133B02BFAD1FE
:1014A0005A4B80215A4A03F8011B9342FBD14FF05B
:1014B000E0254D4E4FF08039DFF884B1DFF884A18C
:1014C0004FF0FF31C5F8084D0027C6F80491C6F863
:1014D00000B1C6F8F490C6F8F0A0D5F8243DDFF8C6
:1014E000688143F4E0234B4AC5F8243DD8F81C300A
:1014F00023F07F0343F04003C8F81C30D8F82430B1
:1015000023F07F0343F04003C8F824309166D1668E
:101510001167516700F0E0F83F4B4049A363404B2F
:10152000E36363236B610323AF612B613D4BC5F81C
:10153000203DD5F8FC3D43F08073C5F8FC3D3A4BA7
:101540001A6842F001021A605B680B6000F00EFB43
:10155000C6F804913548C6F800B1C6F8F490C6F84C
:10156000F0A000F02DFDD8F86C10314B314A41F459
:101570004051C8F86C101F60C3F80871C3F81871A7
:10158000C3F82871C3F83871936BDB0708D442F6AF
:101590001563294951651365936B43F00103936308
:1015A000244A264C936843F00113936000F01CF921
:1015B00000F060F800F014FD00F006FB00F086F883
:1015C0002368132BFCD900F097FB2368B3F5967FB3
:1015D000FBD300F07FF800F07BF800F0FDFC00F09A
:1015E000F7FC30BFFDE700BF00800D40A0680000A1
:1015F0000422006000000000C02E0020A88A0060C5
:1016000000000020002C0020B551000000E400E0A4
:10161000A0E400E000C00A40C96000009839002042
:10162000CD60000000002020001000E00046C32331
:101630000040084000400D400000C0569C3900208A
:101640001B1018200C0D111300C00F40054B4FF458
:101650002A01054A05485A641864054A9963954663
:10166000FFF7E6FE00C00A40ABAAAAAA07002000C6
:1016700000800720104BA020104AD96E41F4403161
:1016800010B4D96640F23764D96E41F44071D9661E
:1016900054649064936C1B06FCD4094A40F2376191
:1016A000A02351649364936C13F08003FBD1054A2B
:1016B00013705DF8044B704700C00F4000400C40B1
:1016C00000800C40C1390020704700BF704700BF48
:1016D000704700BF00BF704710B44FF0E0230021F7
:1016E00010243148C3F8941DC3F89C4D1124C3F84D
:1016F000A00D2E48C3F89C4D1224C3F8A00D2C4811
:10170000C3F89C4D2B4AC3F8A00D2B4C42F0150298
:101710002A48C3F89C4DC3F8A00D294C2948C3F8AA
:101720009C4DC3F8A00D284CC3F89C2D2748284A8F
:10173000C3F8A04DC3F89C0DC3F8A02D02F5A0225C
:10174000244C0C322448C3F89C4DC3F8A02D234AE6
:10175000C3F89C0D224CC3F8A02D02F14062C3F8DF
:101760009C4D2048C3F8A02D0C32C3F89C0DC3F843
:10177000A02D00BF00BF00BF00BF00BF0122C3F803
:10178000942DBFF34F8FBFF36F8FC3F8501FBFF37C
:101790004F8FBFF36F8FD3F8142D5DF8044B42F4D5
:1017A0004032C3F8142D70473F0000102500080791
:1017B00009001000003A0020130020002100020759
:1017C0001400002025000813090000101600202036
:1017D00027000B1317000040180000602F000B07B4
:1017E000190000701A000080F0B5B84B1822B84EEE
:1017F0000120B84F83B0C3F85C62B749C3F8607288
:10180000B64DC3F86462A6F53046B54CC3F86862BD
:10181000C3F86C52C3F87052C3F87452C3F87852CC
:1018200048F20C75DA661A675A679A67DA67C3F87E
:101830008020C3F88420C3F88820C1F82C03A94A6B
:10184000C1F83003C1F83403C1F83803C1F83C03D0
:10185000C1F85003A169A44B0A40A448A44913430A
:10186000A44AA361D4F8843043F00C03C4F8843054
:101870004FF0FF34036843F00203036003682B401A
:101880004FF400551A439C4B026044608A689B4C9D
:1018900013409B4A43F000538360C36823F07803EE
:1018A000C360036A134023430362036A1340954AEB
:1018B0002343954C43628262C2620022D1F8B83061
:1018C00023F03F0343F00103C0F8B830D1F8BC3037
:1018D0008E4923F03F0343F00103C0F8BC3040F2CF
:1018E0000563026105660467C0F880304566446799
:1018F0000224C0F88430036823F00203036081618E
:10190000834B8449C46143F8042B8B42FBD1774A53
:10191000136843F001031360136813F00103FBD154
:101920007A48022140F2F564906140F29940D16119
:1019300040F26641C2F8004242F20144C2F810127D
:101940007549C2F82002C2F8301240F2354173489E
:10195000C2F83442C2F84012714CC2F8500242F24E
:1019600001207049C2F854120121C2F86042C2F845
:1019700064025E48C2F8A030C2F8A430C2F8B010C9
:101980004369DA07FCD5012300244FF4803257491C
:101990004361C0F8A040C0F8A420C0F8B0304B6943
:1019A000DB07FCD5012300244FF400304F4A4B6184
:1019B000C1F8A040C1F8A400C1F8B0305369DF07F6
:1019C000FCD501230024584848495361C2F8A0407F
:1019D000C2F8A400C2F8B0304B69DE07FCD5D1F8DC
:1019E000003145F60D5221209BB24861934265D1EA
:1019F00000244FF4802201233C48C1F8A040C1F8E4
:101A0000A420C1F8B0304369DD07FCD501234FF4B1
:101A100000040021354A4361C0F8A040C0F8A4107A
:101A2000C0F8B0305369DC07FCD501234FF4000443
:101A30004FF480302D495361C2F8A040C2F8A40091
:101A4000C2F8B0304B69D807FCD501234FF400042D
:101A50004FF40030254A4B61C1F8A040C1F8A40002
:101A6000C1F8B0305369D907FCD501234FF4000405
:101A70002D481E495361C2F8A040C2F8A400C2F824
:101A8000B0304B69DA07FCD5D1F8003145F60D527C
:101A900021209BB24861934250D008254FF40004A6
:101AA00022490020224B234A009015705A1A012324
:101AB0002148224400F098FA03B0F0BD1E4B0022EA
:101AC000C3E90022C3E9022203B0F0BD00801F4039
:101AD000F9B00100F910010000841F40F970010005
:101AE00000C00F40FFFCFF1F000300A000402A4081
:101AF00000802A401200FFFFFF37F70040000080FF
:101B000000FFF07CFF000F8363000200F05AF05AE0
:101B100000422A4000432A409F041830EB06180A6E
:101B20003806180A0632012604000300000000707F
:101B300000000070C33900205C3700204FF400041F
:101B40004FF4802201230848C1F8A040C1F8A42026
:101B5000C1F8B0304369DB07FCD5012310254FF0F5
:101B6000807443619CE700BF00402A40F0B4154AEE
:101B700040274FF480314FF480564FF400554FF416
:101B8000404443F24200136913F0020F0ED113F4E4
:101B9000005F0FD013F4805F0ED0002BF3DA13F444
:101BA000803F0BD15B060BD5F0BC7047946151614F
:101BB0009061E8E75561E6E75661E4E79161E2E7A5
:101BC0005761E0E700800D403F4A03203F49F3EEB4
:101BD000095AD2F880304FF0000C9FED3D6A23F097
:101BE00001039FED3C5A30B4C2F88030C2F8900037
:101BF000D1F8E010384DCBB2384C39482B6007EEA5
:101C0000903A0B0DC1F30B21F8EEE77A06EE903A0D
:101C100007EE101A334BB8EEC77A2160F8EEE66A89
:101C2000314937EEC66A37EEC55A76EEC76A77EEA7
:101C3000E57A26EE266AC3ED006A25EE265AD2F82A
:101C4000803067EEA64AC0ED007AC6EE275A2748D4
:101C500085EE276AC4EEA76A75EE875AFCEEE55A50
:101C600036EE076A15EE904ABCEEC66A43EA0453A4
:101C700076EE877AC2F8803016EE103AD2F89041AC
:101C8000FCEEE77A01EA0341214317EE903AC2F8ED
:101C90009011C3F30B03D2F890110B431449C2F80F
:101CA0009031D2F8803043F00203C2F88030114BFB
:101CB00080F840C0C1F840314FF0E023012230BC31
:101CC000C3F80821704700BF00810D4000441F4049
:101CD0000000AA420000B442883900208439002064
:101CE0008C390020903900200000FF0F00E400E054
:101CF000002C002041530000314B40F6617210B5BA
:101D0000C3F8202140F2044400F076F92D4A2E4910
:101D1000D2F880302D4843F00303C2F880302C4BBA
:101D2000C1F8604102681A4203D1D1F8A8319A077C
:101D30001BD0254A4FF00041244B5963D2F8403163
:101D400043F00203C2F84031D2F840319B07FBD484
:101D50004FF400304FF0E0211C4B4FF00042C1F82F
:101D60008C0219209A6300F02FF9184A4FF0804036
:101D7000154C002190630A20164B11604FF420721D
:101D8000C4F8A801184600F033F94FF48002034666
:101D90004FF4810040F243111860C4F858311A64BE
:101DA0000D4B0E4AC4F84811C3F804224FF0E0224C
:101DB0004FF400310123C2F80C11C4F8403110BDBA
:101DC00000800D4000C00F4000002E4000900D40EC
:101DD000001C1E0000000020002C002029550000DF
:101DE00008B50E4B1B6E9B0700D4FBBE72B60C4BA6
:101DF00000200C4AC3F8400103F160430A49A3F5EF
:101E00005F2311649D46BFF34F8F4FF400130748C3
:101E1000074ADB6902609B68984700BF00441F4087
:101E200000002E4000C00A40030020000080202057
:101E3000000012EB43690A4A03EB011010B4037A65
:101E4000084C02EB0313D3E901321460C2681A6034
:101E500003690BB142691A605DF8044B704700BF1B
:101E60005805002061F801004369027E03EB02126D
:101E700092F808C08C451CD01A7AFF2A19D09142DA
:101E800010B5044616D01A7EFF2A06D00121D3E9E8
:101E9000002312681A4201D1217610BD064B05229B
:101EA000204603EB0C135B681A60FFF7C3FF217633
:101EB000F3E770470021EAE75805002043690A4A22
:101EC00003EB011010B490F82830084C02EB031318
:101ED000D3E901321460C26A1A60036B0BB1426B22
:101EE0001A605DF8044B70475805002061F8010046
:101EF0004369427E03EB021292F828C08C451ED043
:101F000093F82820FF2A1AD0914210B5044617D022
:101F100093F83820FF2A06D00121D3E90023126864
:101F20001A4201D1617610BD064B0522204603EB13
:101F30000C135B681A60FFF7C1FF6176F3E7704727
:101F40000021EAE758050020164942698B6B23F40B
:101F50007C0343F4802370B58B630446124DD2E9B1
:101F600000130A681A4303690A60022200211A61F9
:101F70000E4A19619A6401225A629D624FF430350B
:101F8000DD624FF001159E6C1E6519629D651A6138
:101F9000017EFFF74FFF617E2046BDE87040FFF7EE
:101FA0008DBF00BF00C00F40B80B05053B37281997
:101FB000F8B500BFF8BC08BC9E46704700000000A2
:101FC0005FF800F0854A00005FF800F0754D0000F2
:101FD0005FF800F00D5000005FF800F0416800006D
:101FE0005FF800F0696100005FF800F0CD6200006A
:101FF0005FF800F09D6700005FF800F0955C00005E
:0C20000005010000290100006D35000002
:10200C001603550053004200200053006500720077
:10201C00690061006C000000180354006500650045
:10202C006E00730079006400750069006E006F002B
:10203C000403090409026200030100C032080B000A
:10204C000202020100090400000102020100052441
:10205C0000100105240101010424020605240600D8
:10206C00010705820310001009040100020A000098
:10207C000007050302400000070584024000000928
:10208C0004020002FF6AFF000705810240000107FD
:10209C00050102400001000009026200030100C0BA
:1020AC0032080B00020202010009040000010202C6
:1020BC00010005240010010524010101042402067D
:1020CC000524060001070582031000050904010020
:1020DC00020A000000070503020002000705840243
:1020EC000002000904020002FF6AC7000705810212
:1020FC000002010705010200020100000A060002AD
:10210C00EF0201400100000080C00F4000000003FE
:10211C001900000010000000E8841F4001000000BE
:10212C00FF000000FF0000000000000000000000A5
:10213C001800000010000000E4841F4001000000A3
:10214C00FF000000FF000000000000000000000085
:10215C001F0000000D67000070C00F40000C000055
:10216C001100000011000000E0841F40020000007C
:10217C002C00000012000000E0841F400100000051
:10218C001000000011000000DC841F400200000061
:10219C002D00000012000000DC841F400100000034
:1021AC001E0000000167000070C00F40C00000005E
:1021BC001200000013000000D0841F40010000003A
:1021CC00FF000000FF000000000000000000000005
:1021DC001300000013000000CC841F40010000001D
:1021EC00FF000000FF0000000000000000000000E5
:0821FC001C000000F566000064
:1022040000000000000000000000000000000000CA
:1022140000000000000000000000000000000000BA
:10222400F8B54FF084439D695A6915400DD0254F88
:1022340001269D6195FAA5F4B4FA84F457F8243084
:1022440006FA04F49847A543F4D11F4B9D695A69D3
:1022540015400DD01D4F01269D6195FAA5F4B4FAE1
:1022640084F457F8243006FA04F49847A543F4D1CB
:10227400174B9D695A6915400DD0164F01269D6173
:1022840095FAA5F4B4FA84F457F8243006FA04F461
:102294009847A543F4D1104B9D695A6915400DD058
:1022A4000E4F01269D6195FAA5F4B4FA84F457F80B
:1022B400243006FA04F49847A543F4D1BFF34F8FB2
:1022C400F8BD00BF2426002000400042A4260020C0
:1022D400008000422427002000C00042A4270020E0
:1022E4000548064B1B1AD90F01EBA301491002D074
:1022F400034B03B118477047C02E0020C02E0020A6
:102304000000000008B5054B1BB105490548AFF3B3
:102314000080BDE80840FFF7E3BF00BF00000000F5
:102324002C38002000C80060044BFF204FF0FF3120
:1023340000221860C3E90212704700BF88300020F1
:1023440000207047704700BF38B500F10805D0F889
:10235400B4300446284698474FF6FD73984201D995
:10236400012038BD0346B4F8BA20B4F8B8102846A2
:1023740003F0FAFE94F89030032BF1D8DFE803F071
:10238400140E0802B4F8BA301B1AA4F8BA30E7E7FE
:10239400B4F8B8301B1AA4F8B830E1E7B4F8BA308E
:1023A4001844A4F8BA00DBE7B4F8B8301844A4F829
:1023B400B800D5E72DE9F047002A4ED004460D4673
:1023C4008F180026DFF89C9000F108084FF6FD7A7C
:1023D40003E00120AF42064420D0236815F8011B16
:1023E4001B684B4515D1D4F8B43040469847504546
:1023F400EFD80346B4F8BA20B4F8B810404603F056
:10240400B3FE94F89030032BE3D8DFE803F01F18F1
:10241400110A20469847AF420644DED13046BDE853
:10242400F087B4F8BA301B1A0120A4F8BA30D1E707
:10243400B4F8B8301B1A0120A4F8B830CAE7B4F8CD
:10244400BA301844A4F8BA000120C3E7B4F8B8308D
:102454001844A4F8B8000120BCE716463046BDE88D
:10246400F08700BF49010000214B1A68D2E900102F
:10247400D3680968006810B41842946801EA04013A
:102484002ED0137C03F00303D9B943F00803990851
:10249400013B11740D2B0BD8DFE803F00D071C076B
:1024A4000A160D0D160A071C070D5369013B5361EB
:1024B4005DF8044B704753695DF8044B0133536175
:1024C400704743F00403E0E753695DF8044B023BB3
:1024D4005361704753695DF8044B0233536170478D
:1024E400137C03F003030029D1D043F00403CEE7A7
:1024F400C8300020214B5A68D2E90010D36809681B
:10250400006810B41842946801EA04012ED0137CC8
:1025140003F00303D9B943F008039908013B11748C
:102524000D2B0BD8DFE803F00D071C070A160D0D61
:10253400160A071C070D5369013B53615DF8044BF0
:10254400704753695DF8044B01335361704743F09E
:102554000403E0E753695DF8044B023B53617047A1
:1025640053695DF8044B023353617047137C03F0E5
:1025740003030029D1D043F00403CEE7C830002080
:10258400214B9A68D2E90010D3680968006810B436
:102594001842946801EA04012ED0137C03F003036B
:1025A400D9B943F008039908013B11740D2B0BD8DA
:1025B400DFE803F00D071C070A160D0D160A071CA9
:1025C400070D5369013B53615DF8044B7047536930
:1025D4005DF8044B01335361704743F00403E0E7B3
:1025E40053695DF8044B023B5361704753695DF8CE
:1025F400044B023353617047137C03F00303002937
:10260400D1D043F00403CEE7C8300020214BDA6870
:10261400D2E90010D3680968006810B418429468BD
:1026240001EA04012ED0137C03F00303D9B943F06B
:1026340008039908013B11740D2B0BD8DFE803F054
:102644000D071C070A160D0D160A071C070D536902
:10265400013B53615DF8044B704753695DF8044BCB
:1026640001335361704743F00403E0E753695DF8B5
:10267400044B023B5361704753695DF8044B0233CA
:1026840053617047137C03F003030029D1D043F056
:102694000403CEE7C8300020214B1A69D2E90010A8
:1026A400D3680968006810B41842946801EA040108
:1026B4002ED0137C03F00303D9B943F0080399081F
:1026C400013B11740D2B0BD8DFE803F00D071C0739
:1026D4000A160D0D160A071C070D5369013B5361B9
:1026E4005DF8044B704753695DF8044B0133536143
:1026F400704743F00403E0E753695DF8044B023B81
:102704005361704753695DF8044B0233536170475A
:10271400137C03F003030029D1D043F00403CEE774
:10272400C8300020214B5A69D2E90010D3680968E7
:10273400006810B41842946801EA04012ED0137C96
:1027440003F00303D9B943F008039908013B11745A
:102754000D2B0BD8DFE803F00D071C070A160D0D2F
:10276400160A071C070D5369013B53615DF8044BBE
:10277400704753695DF8044B01335361704743F06C
:102784000403E0E753695DF8044B023B536170476F
:1027940053695DF8044B023353617047137C03F0B3
:1027A40003030029D1D043F00403CEE7C83000204E
:1027B400214B9A69D2E90010D3680968006810B403
:1027C4001842946801EA04012ED0137C03F0030339
:1027D400D9B943F008039908013B11740D2B0BD8A8
:1027E400DFE803F00D071C070A160D0D160A071C77
:1027F400070D5369013B53615DF8044B70475369FE
:102804005DF8044B01335361704743F00403E0E780
:1028140053695DF8044B023B5361704753695DF89B
:10282400044B023353617047137C03F00303002904
:10283400D1D043F00403CEE7C8300020214BDA693D
:10284400D2E90010D3680968006810B4184294688B
:1028540001EA04012ED0137C03F00303D9B943F039
:1028640008039908013B11740D2B0BD8DFE803F022
:102874000D071C070A160D0D160A071C070D5369D0
:10288400013B53615DF8044B704753695DF8044B99
:1028940001335361704743F00403E0E753695DF883
:1028A400044B023B5361704753695DF8044B023398
:1028B40053617047137C03F003030029D1D043F024
:1028C4000403CEE7C8300020214B1A6AD2E9001075
:1028D400D3680968006810B41842946801EA0401D6
:1028E4002ED0137C03F00303D9B943F008039908ED
:1028F400013B11740D2B0BD8DFE803F00D071C0707
:102904000A160D0D160A071C070D5369013B536186
:102914005DF8044B704753695DF8044B0133536110
:10292400704743F00403E0E753695DF8044B023B4E
:102934005361704753695DF8044B02335361704728
:10294400137C03F003030029D1D043F00403CEE742
:10295400C8300020224BD3F8A420D2E90010D36859
:102964000968006810B41842946801EA04012ED082
:10297400137C03F00303D9B943F008039908013B1E
:1029840011740D2B0BD8DFE803F00D071C070A1692
:102994000D0D160A071C070D5369013B53615DF8C1
:1029A400044B704753695DF8044B0133536170471E
:1029B40043F00403E0E753695DF8044B023B5361C1
:1029C400704753695DF8044B023353617047137CBD
:1029D40003F003030029D1D043F00403CEE700BF82
:1029E400C8300020224BD3F8A820D2E90010D368C5
:1029F4000968006810B41842946801EA04012ED0F2
:102A0400137C03F00303D9B943F008039908013B8D
:102A140011740D2B0BD8DFE803F00D071C070A1601
:102A24000D0D160A071C070D5369013B53615DF830
:102A3400044B704753695DF8044B0133536170478D
:102A440043F00403E0E753695DF8044B023B536130
:102A5400704753695DF8044B023353617047137C2C
:102A640003F003030029D1D043F00403CEE700BFF1
:102A7400C8300020224BD3F8AC20D2E90010D36830
:102A84000968006810B41842946801EA04012ED061
:102A9400137C03F00303D9B943F008039908013BFD
:102AA40011740D2B0BD8DFE803F00D071C070A1671
:102AB4000D0D160A071C070D5369013B53615DF8A0
:102AC400044B704753695DF8044B013353617047FD
:102AD40043F00403E0E753695DF8044B023B5361A0
:102AE400704753695DF8044B023353617047137C9C
:102AF40003F003030029D1D043F00403CEE700BF61
:102B0400C8300020224BD3F8B020D2E90010D3689B
:102B14000968006810B41842946801EA04012ED0D0
:102B2400137C03F00303D9B943F008039908013B6C
:102B340011740D2B0BD8DFE803F00D071C070A16E0
:102B44000D0D160A071C070D5369013B53615DF80F
:102B5400044B704753695DF8044B0133536170476C
:102B640043F00403E0E753695DF8044B023B53610F
:102B7400704753695DF8044B023353617047137C0B
:102B840003F003030029D1D043F00403CEE700BFD0
:102B9400C8300020224BD3F8B420D2E90010D36807
:102BA4000968006810B41842946801EA04012ED040
:102BB400137C03F00303D9B943F008039908013BDC
:102BC40011740D2B0BD8DFE803F00D071C070A1650
:102BD4000D0D160A071C070D5369013B53615DF87F
:102BE400044B704753695DF8044B013353617047DC
:102BF40043F00403E0E753695DF8044B023B53617F
:102C0400704753695DF8044B023353617047137C7A
:102C140003F003030029D1D043F00403CEE700BF3F
:102C2400C8300020224BD3F8B820D2E90010D36872
:102C34000968006810B41842946801EA04012ED0AF
:102C4400137C03F00303D9B943F008039908013B4B
:102C540011740D2B0BD8DFE803F00D071C070A16BF
:102C64000D0D160A071C070D5369013B53615DF8EE
:102C7400044B704753695DF8044B0133536170474B
:102C840043F00403E0E753695DF8044B023B5361EE
:102C9400704753695DF8044B023353617047137CEA
:102CA40003F003030029D1D043F00403CEE700BFAF
:102CB400C8300020224BD3F8BC20D2E90010D368DE
:102CC4000968006810B41842946801EA04012ED01F
:102CD400137C03F00303D9B943F008039908013BBB
:102CE40011740D2B0BD8DFE803F00D071C070A162F
:102CF4000D0D160A071C070D5369013B53615DF85E
:102D0400044B704753695DF8044B013353617047BA
:102D140043F00403E0E753695DF8044B023B53615D
:102D2400704753695DF8044B023353617047137C59
:102D340003F003030029D1D043F00403CEE700BF1E
:102D4400C8300020224BD3F8C020D2E90010D36849
:102D54000968006810B41842946801EA04012ED08E
:102D6400137C03F00303D9B943F008039908013B2A
:102D740011740D2B0BD8DFE803F00D071C070A169E
:102D84000D0D160A071C070D5369013B53615DF8CD
:102D9400044B704753695DF8044B0133536170472A
:102DA40043F00403E0E753695DF8044B023B5361CD
:102DB400704753695DF8044B023353617047137CC9
:102DC40003F003030029D1D043F00403CEE700BF8E
:102DD400C8300020224BD3F8C420D2E90010D368B5
:102DE4000968006810B41842946801EA04012ED0FE
:102DF400137C03F00303D9B943F008039908013B9A
:102E040011740D2B0BD8DFE803F00D071C070A160D
:102E14000D0D160A071C070D5369013B53615DF83C
:102E2400044B704753695DF8044B01335361704799
:102E340043F00403E0E753695DF8044B023B53613C
:102E4400704753695DF8044B023353617047137C38
:102E540003F003030029D1D043F00403CEE700BFFD
:102E6400C8300020224BD3F8C820D2E90010D36820
:102E74000968006810B41842946801EA04012ED06D
:102E8400137C03F00303D9B943F008039908013B09
:102E940011740D2B0BD8DFE803F00D071C070A167D
:102EA4000D0D160A071C070D5369013B53615DF8AC
:102EB400044B704753695DF8044B01335361704709
:102EC40043F00403E0E753695DF8044B023B5361AC
:102ED400704753695DF8044B023353617047137CA8
:102EE40003F003030029D1D043F00403CEE700BF6D
:102EF400C8300020224BD3F8CC20D2E90010D3688C
:102F04000968006810B41842946801EA04012ED0DC
:102F1400137C03F00303D9B943F008039908013B78
:102F240011740D2B0BD8DFE803F00D071C070A16EC
:102F34000D0D160A071C070D5369013B53615DF81B
:102F4400044B704753695DF8044B01335361704778
:102F540043F00403E0E753695DF8044B023B53611B
:102F6400704753695DF8044B023353617047137C17
:102F740003F003030029D1D043F00403CEE700BFDC
:102F8400C8300020224BD3F8D020D2E90010D368F7
:102F94000968006810B41842946801EA04012ED04C
:102FA400137C03F00303D9B943F008039908013BE8
:102FB40011740D2B0BD8DFE803F00D071C070A165C
:102FC4000D0D160A071C070D5369013B53615DF88B
:102FD400044B704753695DF8044B013353617047E8
:102FE40043F00403E0E753695DF8044B023B53618B
:102FF400704753695DF8044B023353617047137C87
:1030040003F003030029D1D043F00403CEE700BF4B
:10301400C8300020224BD3F8D420D2E90010D36862
:103024000968006810B41842946801EA04012ED0BB
:10303400137C03F00303D9B943F008039908013B57
:1030440011740D2B0BD8DFE803F00D071C070A16CB
:103054000D0D160A071C070D5369013B53615DF8FA
:10306400044B704753695DF8044B01335361704757
:1030740043F00403E0E753695DF8044B023B5361FA
:10308400704753695DF8044B023353617047137CF6
:1030940003F003030029D1D043F00403CEE700BFBB
:1030A400C8300020224BD3F8D820D2E90010D368CE
:1030B4000968006810B41842946801EA04012ED02B
:1030C400137C03F00303D9B943F008039908013BC7
:1030D40011740D2B0BD8DFE803F00D071C070A163B
:1030E4000D0D160A071C070D5369013B53615DF86A
:1030F400044B704753695DF8044B013353617047C7
:1031040043F00403E0E753695DF8044B023B536169
:10311400704753695DF8044B023353617047137C65
:1031240003F003030029D1D043F00403CEE700BF2A
:10313400C8300020214B5A6AD2E90010D3680968CC
:10314400006810B41842946801EA04012ED0137C7C
:1031540003F00303D9B943F008039908013B117440
:103164000D2B0BD8DFE803F00D071C070A160D0D15
:10317400160A071C070D5369013B53615DF8044BA4
:10318400704753695DF8044B01335361704743F052
:103194000403E0E753695DF8044B023B5361704755
:1031A40053695DF8044B023353617047137C03F099
:1031B40003030029D1D043F00403CEE7C830002034
:1031C400214B9A6AD2E90010D3680968006810B4E8
:1031D4001842946801EA04012ED0137C03F003031F
:1031E400D9B943F008039908013B11740D2B0BD88E
:1031F400DFE803F00D071C070A160D0D160A071C5D
:10320400070D5369013B53615DF8044B70475369E3
:103214005DF8044B01335361704743F00403E0E766
:1032240053695DF8044B023B5361704753695DF881
:10323400044B023353617047137C03F003030029EA
:10324400D1D043F00403CEE7C8300020214BDA6A22
:10325400D2E90010D3680968006810B41842946871
:1032640001EA04012ED0137C03F00303D9B943F01F
:1032740008039908013B11740D2B0BD8DFE803F008
:103284000D071C070A160D0D160A071C070D5369B6
:10329400013B53615DF8044B704753695DF8044B7F
:1032A40001335361704743F00403E0E753695DF869
:1032B400044B023B5361704753695DF8044B02337E
:1032C40053617047137C03F003030029D1D043F00A
:1032D4000403CEE7C8300020214B1A6BD2E900105A
:1032E400D3680968006810B41842946801EA0401BC
:1032F4002ED0137C03F00303D9B943F008039908D3
:10330400013B11740D2B0BD8DFE803F00D071C07EC
:103314000A160D0D160A071C070D5369013B53616C
:103324005DF8044B704753695DF8044B01335361F6
:10333400704743F00403E0E753695DF8044B023B34
:103344005361704753695DF8044B0233536170470E
:10335400137C03F003030029D1D043F00403CEE728
:10336400C8300020214B5A6BD2E90010D368096899
:10337400006810B41842946801EA04012ED0137C4A
:1033840003F00303D9B943F008039908013B11740E
:103394000D2B0BD8DFE803F00D071C070A160D0DE3
:1033A400160A071C070D5369013B53615DF8044B72
:1033B400704753695DF8044B01335361704743F020
:1033C4000403E0E753695DF8044B023B5361704723
:1033D40053695DF8044B023353617047137C03F067
:1033E40003030029D1D043F00403CEE7C830002002
:1033F400214B9A6BD2E90010D3680968006810B4B5
:103404001842946801EA04012ED0137C03F00303EC
:10341400D9B943F008039908013B11740D2B0BD85B
:10342400DFE803F00D071C070A160D0D160A071C2A
:10343400070D5369013B53615DF8044B70475369B1
:103444005DF8044B01335361704743F00403E0E734
:1034540053695DF8044B023B5361704753695DF84F
:10346400044B023353617047137C03F003030029B8
:10347400D1D043F00403CEE7C8300020214BDA6BEF
:10348400D2E90010D3680968006810B4184294683F
:1034940001EA04012ED0137C03F00303D9B943F0ED
:1034A40008039908013B11740D2B0BD8DFE803F0D6
:1034B4000D071C070A160D0D160A071C070D536984
:1034C400013B53615DF8044B704753695DF8044B4D
:1034D40001335361704743F00403E0E753695DF837
:1034E400044B023B5361704753695DF8044B02334C
:1034F40053617047137C03F003030029D1D043F0D8
:103504000403CEE7C8300020214B1A6CD2E9001026
:10351400D3680968006810B41842946801EA040189
:103524002ED0137C03F00303D9B943F008039908A0
:10353400013B11740D2B0BD8DFE803F00D071C07BA
:103544000A160D0D160A071C070D5369013B53613A
:103554005DF8044B704753695DF8044B01335361C4
:10356400704743F00403E0E753695DF8044B023B02
:103574005361704753695DF8044B023353617047DC
:10358400137C03F003030029D1D043F00403CEE7F6
:10359400C8300020214B5A6CD2E90010D368096866
:1035A400006810B41842946801EA04012ED0137C18
:1035B40003F00303D9B943F008039908013B1174DC
:1035C4000D2B0BD8DFE803F00D071C070A160D0DB1
:1035D400160A071C070D5369013B53615DF8044B40
:1035E400704753695DF8044B01335361704743F0EE
:1035F4000403E0E753695DF8044B023B53617047F1
:1036040053695DF8044B023353617047137C03F034
:1036140003030029D1D043F00403CEE7C8300020CF
:10362400214B9A6CD2E90010D3680968006810B481
:103634001842946801EA04012ED0137C03F00303BA
:10364400D9B943F008039908013B11740D2B0BD829
:10365400DFE803F00D071C070A160D0D160A071CF8
:10366400070D5369013B53615DF8044B704753697F
:103674005DF8044B01335361704743F00403E0E702
:1036840053695DF8044B023B5361704753695DF81D
:10369400044B023353617047137C03F00303002986
:1036A400D1D043F00403CEE7C8300020214BDA6CBC
:1036B400D2E90010D3680968006810B4184294680D
:1036C40001EA04012ED0137C03F00303D9B943F0BB
:1036D40008039908013B11740D2B0BD8DFE803F0A4
:1036E4000D071C070A160D0D160A071C070D536952
:1036F400013B53615DF8044B704753695DF8044B1B
:1037040001335361704743F00403E0E753695DF804
:10371400044B023B5361704753695DF8044B023319
:1037240053617047137C03F003030029D1D043F0A5
:103734000403CEE7C8300020214B1A6DD2E90010F3
:10374400D3680968006810B41842946801EA040157
:103754002ED0137C03F00303D9B943F0080399086E
:10376400013B11740D2B0BD8DFE803F00D071C0788
:103774000A160D0D160A071C070D5369013B536108
:103784005DF8044B704753695DF8044B0133536192
:10379400704743F00403E0E753695DF8044B023BD0
:1037A4005361704753695DF8044B023353617047AA
:1037B400137C03F003030029D1D043F00403CEE7C4
:1037C400C8300020214B5A6DD2E90010D368096833
:1037D400006810B41842946801EA04012ED0137CE6
:1037E40003F00303D9B943F008039908013B1174AA
:1037F4000D2B0BD8DFE803F00D071C070A160D0D7F
:10380400160A071C070D5369013B53615DF8044B0D
:10381400704753695DF8044B01335361704743F0BB
:103824000403E0E753695DF8044B023B53617047BE
:1038340053695DF8044B023353617047137C03F002
:1038440003030029D1D043F00403CEE7C83000209D
:10385400214B9A6DD2E90010D3680968006810B44E
:103864001842946801EA04012ED0137C03F0030388
:10387400D9B943F008039908013B11740D2B0BD8F7
:10388400DFE803F00D071C070A160D0D160A071CC6
:10389400070D5369013B53615DF8044B704753694D
:1038A4005DF8044B01335361704743F00403E0E7D0
:1038B40053695DF8044B023B5361704753695DF8EB
:1038C400044B023353617047137C03F00303002954
:1038D400D1D043F00403CEE7C8300020214BDA6D89
:1038E400D2E90010D3680968006810B418429468DB
:1038F40001EA04012ED0137C03F00303D9B943F089
:1039040008039908013B11740D2B0BD8DFE803F071
:103914000D071C070A160D0D160A071C070D53691F
:10392400013B53615DF8044B704753695DF8044BE8
:1039340001335361704743F00403E0E753695DF8D2
:10394400044B023B5361704753695DF8044B0233E7
:1039540053617047137C03F003030029D1D043F073
:103964000403CEE7C8300020214B1A6ED2E90010C0
:10397400D3680968006810B41842946801EA040125
:103984002ED0137C03F00303D9B943F0080399083C
:10399400013B11740D2B0BD8DFE803F00D071C0756
:1039A4000A160D0D160A071C070D5369013B5361D6
:1039B4005DF8044B704753695DF8044B0133536160
:1039C400704743F00403E0E753695DF8044B023B9E
:1039D4005361704753695DF8044B02335361704778
:1039E400137C03F003030029D1D043F00403CEE792
:1039F400C8300020214B5A6ED2E90010D368096800
:103A0400006810B41842946801EA04012ED0137CB3
:103A140003F00303D9B943F008039908013B117477
:103A24000D2B0BD8DFE803F00D071C070A160D0D4C
:103A3400160A071C070D5369013B53615DF8044BDB
:103A4400704753695DF8044B01335361704743F089
:103A54000403E0E753695DF8044B023B536170478C
:103A640053695DF8044B023353617047137C03F0D0
:103A740003030029D1D043F00403CEE7C83000206B
:103A8400214B9A6ED2E90010D3680968006810B41B
:103A94001842946801EA04012ED0137C03F0030356
:103AA400D9B943F008039908013B11740D2B0BD8C5
:103AB400DFE803F00D071C070A160D0D160A071C94
:103AC400070D5369013B53615DF8044B704753691B
:103AD4005DF8044B01335361704743F00403E0E79E
:103AE40053695DF8044B023B5361704753695DF8B9
:103AF400044B023353617047137C03F00303002922
:103B0400D1D043F00403CEE7C8300020214BDA6E55
:103B1400D2E90010D3680968006810B418429468A8
:103B240001EA04012ED0137C03F00303D9B943F056
:103B340008039908013B11740D2B0BD8DFE803F03F
:103B44000D071C070A160D0D160A071C070D5369ED
:103B5400013B53615DF8044B704753695DF8044BB6
:103B640001335361704743F00403E0E753695DF8A0
:103B7400044B023B5361704753695DF8044B0233B5
:103B840053617047137C03F003030029D1D043F041
:103B94000403CEE7C8300020214B1A6FD2E900108D
:103BA400D3680968006810B41842946801EA0401F3
:103BB4002ED0137C03F00303D9B943F0080399080A
:103BC400013B11740D2B0BD8DFE803F00D071C0724
:103BD4000A160D0D160A071C070D5369013B5361A4
:103BE4005DF8044B704753695DF8044B013353612E
:103BF400704743F00403E0E753695DF8044B023B6C
:103C04005361704753695DF8044B02335361704745
:103C1400137C03F003030029D1D043F00403CEE75F
:103C2400C8300020214B5A6FD2E90010D3680968CC
:103C3400006810B41842946801EA04012ED0137C81
:103C440003F00303D9B943F008039908013B117445
:103C54000D2B0BD8DFE803F00D071C070A160D0D1A
:103C6400160A071C070D5369013B53615DF8044BA9
:103C7400704753695DF8044B01335361704743F057
:103C84000403E0E753695DF8044B023B536170475A
:103C940053695DF8044B023353617047137C03F09E
:103CA40003030029D1D043F00403CEE7C830002039
:103CB400214B9A6FD2E90010D3680968006810B4E8
:103CC4001842946801EA04012ED0137C03F0030324
:103CD400D9B943F008039908013B11740D2B0BD893
:103CE400DFE803F00D071C070A160D0D160A071C62
:103CF400070D5369013B53615DF8044B70475369E9
:103D04005DF8044B01335361704743F00403E0E76B
:103D140053695DF8044B023B5361704753695DF886
:103D2400044B023353617047137C03F003030029EF
:103D3400D1D043F00403CEE7C8300020214BDA6F22
:103D4400D2E90010D3680968006810B41842946876
:103D540001EA04012ED0137C03F00303D9B943F024
:103D640008039908013B11740D2B0BD8DFE803F00D
:103D74000D071C070A160D0D160A071C070D5369BB
:103D8400013B53615DF8044B704753695DF8044B84
:103D940001335361704743F00403E0E753695DF86E
:103DA400044B023B5361704753695DF8044B023383
:103DB40053617047137C03F003030029D1D043F00F
:103DC4000403CEE7C8300020224BD3F88020D2E988
:103DD4000010D3680968006810B41842946801EAB6
:103DE40004012ED0137C03F00303D9B943F0080374
:103DF4009908013B11740D2B0BD8DFE803F00D0774
:103E04001C070A160D0D160A071C070D5369013B02
:103E140053615DF8044B704753695DF8044B0133FB
:103E24005361704743F00403E0E753695DF8044BC2
:103E3400023B5361704753695DF8044B023353618D
:103E44007047137C03F003030029D1D043F004032B
:103E5400CEE700BFC8300020224BD3F88420D2E93B
:103E64000010D3680968006810B41842946801EA25
:103E740004012ED0137C03F00303D9B943F00803E3
:103E84009908013B11740D2B0BD8DFE803F00D07E3
:103E94001C070A160D0D160A071C070D5369013B72
:103EA40053615DF8044B704753695DF8044B01336B
:103EB4005361704743F00403E0E753695DF8044B32
:103EC400023B5361704753695DF8044B02335361FD
:103ED4007047137C03F003030029D1D043F004039B
:103EE400CEE700BFC8300020224BD3F88820D2E9A7
:103EF4000010D3680968006810B41842946801EA95
:103F040004012ED0137C03F00303D9B943F0080352
:103F14009908013B11740D2B0BD8DFE803F00D0752
:103F24001C070A160D0D160A071C070D5369013BE1
:103F340053615DF8044B704753695DF8044B0133DA
:103F44005361704743F00403E0E753695DF8044BA1
:103F5400023B5361704753695DF8044B023353616C
:103F64007047137C03F003030029D1D043F004030A
:103F7400CEE700BFC8300020224BD3F88C20D2E912
:103F84000010D3680968006810B41842946801EA04
:103F940004012ED0137C03F00303D9B943F00803C2
:103FA4009908013B11740D2B0BD8DFE803F00D07C2
:103FB4001C070A160D0D160A071C070D5369013B51
:103FC40053615DF8044B704753695DF8044B01334A
:103FD4005361704743F00403E0E753695DF8044B11
:103FE400023B5361704753695DF8044B02335361DC
:103FF4007047137C03F003030029D1D043F004037A
:10400400CEE700BFC8300020224BD3F89020D2E97D
:104014000010D3680968006810B41842946801EA73
:1040240004012ED0137C03F00303D9B943F0080331
:104034009908013B11740D2B0BD8DFE803F00D0731
:104044001C070A160D0D160A071C070D5369013BC0
:1040540053615DF8044B704753695DF8044B0133B9
:104064005361704743F00403E0E753695DF8044B80
:10407400023B5361704753695DF8044B023353614B
:104084007047137C03F003030029D1D043F00403E9
:10409400CEE700BFC8300020224BD3F89420D2E9E9
:1040A4000010D3680968006810B41842946801EAE3
:1040B40004012ED0137C03F00303D9B943F00803A1
:1040C4009908013B11740D2B0BD8DFE803F00D07A1
:1040D4001C070A160D0D160A071C070D5369013B30
:1040E40053615DF8044B704753695DF8044B013329
:1040F4005361704743F00403E0E753695DF8044BF0
:10410400023B5361704753695DF8044B02335361BA
:104114007047137C03F003030029D1D043F0040358
:10412400CEE700BFC8300020224BD3F89820D2E954
:104134000010D3680968006810B41842946801EA52
:1041440004012ED0137C03F00303D9B943F0080310
:104154009908013B11740D2B0BD8DFE803F00D0710
:104164001C070A160D0D160A071C070D5369013B9F
:1041740053615DF8044B704753695DF8044B013398
:104184005361704743F00403E0E753695DF8044B5F
:10419400023B5361704753695DF8044B023353612A
:1041A4007047137C03F003030029D1D043F00403C8
:1041B400CEE700BFC8300020224BD3F89C20D2E9C0
:1041C4000010D3680968006810B41842946801EAC2
:1041D40004012ED0137C03F00303D9B943F0080380
:1041E4009908013B11740D2B0BD8DFE803F00D0780
:1041F4001C070A160D0D160A071C070D5369013B0F
:1042040053615DF8044B704753695DF8044B013307
:104214005361704743F00403E0E753695DF8044BCE
:10422400023B5361704753695DF8044B0233536199
:104234007047137C03F003030029D1D043F0040337
:10424400CEE700BFC8300020224BD3F8A020D2E92B
:104254000010D3680968006810B41842946801EA31
:1042640004012ED0137C03F00303D9B943F00803EF
:104274009908013B11740D2B0BD8DFE803F00D07EF
:104284001C070A160D0D160A071C070D5369013B7E
:1042940053615DF8044B704753695DF8044B013377
:1042A4005361704743F00403E0E753695DF8044B3E
:1042B400023B5361704753695DF8044B0233536109
:1042C4007047137C03F003030029D1D043F00403A7
:1042D400CEE700BFC8300020F0B504461E460023D8
:1042E40083B0083015466360C4F8B8300D4B9DF8B0
:1042F400207023600C4B0191C4F8B430009002F09C
:10430400CBF90A4B019900982360094A094B01F043
:1043140065FC00983B463246294601F005FB2046E1
:1043240003B0F0BD24050020894400000C050020E2
:1043340039370000D93500000B4610B5362800F295
:104344009782DFE810F08C02820279027002670221
:104354005E0255024C0243023A02310228021F0255
:10436400BF01B601AD01A4019B0192018901800145
:1043740077016E0165015C0153014A014101380175
:104384002F0126011D0113010901FF00F500EB00B7
:10439400E100D700CD00C300B900AF00A5009B0029
:1043A400910087007D00730069005F0055004B0099
:1043B40041003700C84C0422C8493620C4F8D8301C
:1043C40002F0A2FE012010BDC34C0422C4493520D2
:1043D400C4F8D43002F098FE012010BDBE4C042273
:1043E400C0493420C4F8D03002F08EFE012010BD44
:1043F400B94C0422BC493320C4F8CC3002F084FE0A
:10440400012010BDB44C0422B8493220C4F8C8308D
:1044140002F07AFE012010BDAF4C0422B4493120D1
:10442400C4F8C43002F070FE012010BDAA4C04226E
:10443400B0493020C4F8C03002F066FE012010BD3F
:10444400A54C0422AC492F20C4F8BC3002F05CFE19
:10445400012010BDA04C0422A8492E20C4F8B83075
:1044640002F052FE012010BD9B4C0422A4492D20D1
:10447400C4F8B43002F048FE012010BD964C04226A
:10448400A0492C20C4F8B03002F03EFE012010BD3B
:10449400914C04229C492B20C4F8AC3002F034FE29
:1044A400012010BD8C4C042298492A20C4F8A8305D
:1044B40002F02AFE012010BD874C042294492920D1
:1044C400C4F8A43002F020FE012010BD824C042266
:1044D40090492820C4F8A03002F016FE012010BD37
:1044E4007D4C04228C492720C4F89C3002F00CFE39
:1044F400012010BD784C042288492620C4F8983045
:1045040002F002FE012010BD734C042284492520D0
:10451400C4F8943002F0F8FD012010BD6E4C042262
:1045240080492420C4F8903002F0EEFD012010BD33
:10453400694C04227C492320C4F88C3002F0E4FD49
:10454400012010BD644C042278492220C4F888302C
:1045540002F0DAFD012010BD5F4C042274492120D1
:10456400C4F8843002F0D0FD012010BD5A4C04225E
:1045740070492020C4F8803002F0C6FD012010BD2F
:10458400554C04226C491F20E36702F0BDFD012055
:1045940010BD514C042269491E20A36702F0B4FDEA
:1045A400012010BD4C4C042265491D20636702F0B4
:1045B400ABFD012010BD484C042262491C20236736
:1045C40002F0A2FD012010BD434C04225E491B20D1
:1045D400E36602F099FD012010BD3F4C04225B49C3
:1045E4001A20A36602F090FD012010BD3A4C04226B
:1045F40057491920636602F087FD012010BD364C2F
:10460400042254491820236602F07EFD012010BDC7
:10461400314C042250491720E36502F075FD012056
:1046240010BD2D4C04224D491620A36502F06CFDEB
:10463400012010BD284C042249491520636502F06D
:1046440063FD012010BD244C042246491420236537
:1046540002F05AFD012010BD1F4C042242491320D0
:10466400E36402F051FD012010BD1B4C04223F49BC
:104674001220A36402F048FD012010BD164C042250
:104684003B491120636402F03FFD012010BD124C30
:10469400042238491020236402F036FD012010BDA5
:1046A4000D4C042234490F20E36302F02DFD012058
:1046B40010BD094C042231490E20A36302F024FDED
:1046C400012010BD044C04222D490D20636302F027
:1046D4001BFD012010BD00BFC8300020A50E000046
:1046E400150E0000850D0000F50C0000650C00009F
:1046F400D50B0000450B0000B50A0000250A000098
:10470400950900000509000075080000E507000090
:104714005507000049200000B91F0000291F0000B0
:10472400991E0000091E0000791D0000E91C00000C
:10473400591C0000C91B00003D1B0000B11A0000F9
:10474400251A0000991900000D19000081180000B5
:10475400F517000069170000DD160000511600006F
:10476400C515000039150000AD1400002114000027
:1047740095130000091300007D120000F1110000E0
:10478400651100003B4C04223B490C20236302F0DA
:10479400BBFC012010BD374C042238490B20E362D6
:1047A40002F0B2FC012010BD324C042234490A202C
:1047B400A36202F0A9FC012010BD2E4C0422314951
:1047C4000920636202F0A0FC012010BD294C0422E0
:1047D4002D490820236202F097FC012010BD254CCE
:1047E40004222A490720E36102F08EFC012010BD57
:1047F400204C042226490620A36102F085FC0120F6
:1048040010BD1C4C042223490520636102F07CFC8A
:10481400012010BD0422174C1F491046236102F0E9
:1048240073FC012010BD134C04221C490320E360D7
:1048340002F06AFC012010BD0E4C0422184902202B
:10484400A36002F061FC012010BD04460948042263
:1048540014494360012002F057FC204610BD054C6A
:10486400042211490020236002F04EFC012010BDF7
:10487400002010BDC8300020D91000004D100000E9
:10488400C10F0000350F0000C90600003D060000FE
:10489400B105000025050000990400000D04000086
:1048A40081030000F5020000690200002DE9F041D7
:1048B4000F46164604460221384602F0EBFB02215D
:1048C400304602F0E7FB224B3A0122483101DFF87F
:1048D4008CC053F8028003EB0712C4F80080D2F8AE
:1048E4000CE003EB061259580023C4F808E0D26820
:1048F4006361194BE26045681B686160ACFB033C73
:104904004FF4FA634FEA9C4C03FB0CFC43685B1BBB
:104914009C45FBD8D8F80030384609681EEA030FD6
:1049240014BF012300230A42214618BF43F00203A7
:104934002374FFF701FD0346214630462376FFF733
:10494400FBFC227E0346204613442376BDE8F08117
:1049540058050020001000E04422002083DE1B43A1
:1049640010B5274801F0C4F82649254801F07CFC1D
:10497400254B0F221421224801F066FC234C80238E
:10498400122200211E4801F027FD21491C4801F094
:104994006BFC20681F4923221F4B002818BF0B46BD
:1049A4000521174801F050FC20681C492F221C4B9C
:1049B400012818BF0B460521114801F045FC246865
:1049C40018483B22184B0521022C18BF03460C48FB
:1049D40001F03AFC0A4801F097F8144801F088F80D
:1049E4001349124801F040FC124B282214210F48AD
:1049F40001F02AFC0D48BDE8104001F085B800BF65
:104A0400A0380020EC110020880300202838002062
:104A14003009002034030020280300205003002024
:104A2400400300207403002060030020743700203A
:104A3400041800209803002010B5124C204601F001
:104A440057F82046104901F00FFC104B0A220021B0
:104A5400204601F0F9FB0E4B19220021204601F0FB
:104A6400F3FB0C4B28220021204601F0EDFB2046ED
:104A7400094B3C22002101F0E7FB2046BDE8104031
:104A840001F042B8A038002030090020E4020020E0
:104A9400F402002004030020180300202DE9F04F45
:104AA400272089B002F096F8AD4A1368C31A002B88
:104AB400B8BF5B42082B00F3D982AA4B1A7E012AA5
:104AC40040F20B8372B65E6962B6A74B1A7E012A66
:104AD40040F23D8372B65F6962B6A44B1A7E012A26
:104AE40040F2228372B6D3F8148062B6A04B1A7EC9
:104AF400012A40F2058372B6D3F8149062B69D4B36
:104B04001A68B24240F016819B4B1A68BA4240F0D0
:104B14008A819A4B1A68424540F01F82984B1A6862
:104B24004A4540F0C581974BDFF894B20493964B05
:104B3400ABF1080A069300230593944B0026182032
:104B44009DF814501C460793F1B20136C0B2691A9D
:104B540018BF012102F062FA052E02D054F8040FA6
:104B6400F2E78B4B59688B4B1A688B4BA3FB0232D1
:104B7400920C02EB8202D200854B5B685B1A9A426C
:104B8400FAD8069BDFF83C9202930923DDF81080E3
:104B940003939DF80C0002F06BFAB0FA80F518F854
:104BA400013F04466D09AB427ED058464FF6FD7670
:104BB40000F09EFF7949584601F056FB784A794B3C
:104BC40000215846002C18BF13460F2201F03CFB6D
:104BD400754C4FF4F0135021271DCAF8B83003E088
:104BE400A7421FD014F8011FDAF8B430584698478A
:104BF400B042F5D80346BAF8BA20BAF8B810584605
:104C040001F0B2FA9AF89030032BE9D8DFE803F008
:104C14003E383202BAF8BA30A742A3EB0003AAF82E
:104C2400BA30DFD10399504601F0C8FF5F4C4FF40E
:104C340034134321E71C4FF6FD76CAF8B83003E07D
:104C4400BC4229D014F8011FDAF8B430584698470A
:104C5400B042F5D80346BAF8BA20BAF8B8105846A4
:104C640001F082FA9AF89030032BE9D8DFE803F0D8
:104C74003A342E28BAF8B8301B1AAAF8B830AFE77D
:104C8400BAF8BA300344AAF8BA30A9E7BAF8B83087
:104C94000344AAF8B830A3E7029B5046196801F010
:104CA4008DFF584600F030FF029B88F80050043313
:104CB40002933F4B99451BD059F8043F039368E78F
:104CC400BAF8BA301B1AAAF8BA30B9E7BAF8B83049
:104CD4001B1AAAF8B830B3E7BAF8BA300344AAF8F2
:104CE400BA30ADE7BAF8B8300344AAF8B830A7E749
:104CF400049A059B0E3201330492069A052B059300
:104D040002F1380206927FF418AF079D18200121A2
:104D140005F11004C0B202F081F9AC4207D055F895
:104D2400040F0121C0B202F079F9AC42F7D109B005
:104D3400BDE8F08F1F4C4FF6FD7B1E6004F10800A8
:104D44001D4D00F0D5FE1D4904F1080004F1080AC8
:104D540001F08AFA4FF420134521C4F8B83038E042
:104D640008260020DC360020F83600201437002006
:104D740030370020602800206428002068280020A4
:104D84006C28002047380020D8030020F0040020BD
:104D9400001000E04422002083DE1B433009002081
:104DA400A002002094020020D4020020DC02002093
:104DB400D403002098380020B402002004180020F6
:104DC400A0380020A0030020A04BAB421FD015F850
:104DD400011FD4F8B430504698475845F4D80346D8
:104DE400B4F8BA20B4F8B810504601F0BDF994F8FC
:104DF4009030032BE8D8DFE803F0554F4902B4F8AC
:104E0400BA301B1AA4F8BA30904BAB42DFD131460A
:104E14008F4801F0D3FE8F4800F076FE8E4B1A685F
:104E2400BA423FF476AE8A4C4FF6FD7B1F6004F124
:104E340008008A4D00F05CFE894904F1080005F180
:104E4400060A01F011FA4FF42013452104F1080673
:104E5400C4F8B83004E0554500F0DD8015F8011FB2
:104E6400D4F8B430304698475845F4D80346B4F8DB
:104E7400BA20B4F8B810304601F076F994F89030BE
:104E8400032BE8D8DFE803F0DBD5CFBEB4F8B830A5
:104E94001B1AA4F8B83097E7B4F8BA300344A4F85E
:104EA400BA3091E7B4F8B8300344A4F8B8308BE7CB
:104EB400674C4FF6FD77C3F8009004F10800694D84
:104EC40000F016FE664904F1080005F1060801F039
:104ED400CBF94FF42013452104F10806C4F8B83087
:104EE40003E045451FD015F8011FD4F8B43030460F
:104EF4009847B842F5D80346B4F8BA20B4F8B810C5
:104F0400304601F031F994F89030032BE9D8DFE80A
:104F140003F01E181202B4F8BA304545A3EB00039F
:104F2400A4F8BA30DFD14946494801F047FE494860
:104F340000F0EAFDF7E5B4F8B8301B1AA4F8B8306D
:104F4400CFE7B4F8BA301844A4F8BA00C9E7B4F803
:104F5400B8301844A4F8B800C3E73D4C4FF6FD77C9
:104F6400C3F8008004F108003F4D00F0C1FD3C4946
:104F740004F1080005F1060A01F076F94FF4201354
:104F8400452104F10806C4F8B83003E0AA451FD04F
:104F940015F8011FD4F8B43030469847B842F5D814
:104FA4000346B4F8BA20B4F8B810304601F0DCF87F
:104FB40094F89030032BE9D8DFE803F01E181202AE
:104FC400B4F8BA30AA45A3EB0003A4F8BA30DFD191
:104FD40041461F4801F0F2FD1E4800F095FD9DE595
:104FE400B4F8B8301B1AA4F8B830CFE7B4F8BA3024
:104FF4001844A4F8BA00C9E7B4F8B8301844A4F8BF
:10500400B800C3E7B4F8BA305545A3EB0003A4F8DD
:10501400BA307FF423AF39460D4801F0CFFD0D4877
:1050240000F072FD75E5B4F8B8301B1AA4F8B83076
:1050340011E7B4F8BA300344A4F8BA300BE7B4F873
:10504400B8300344A4F8B83005E700BFBA02002022
:1050540098380020A038002064280020BC020020DA
:1050640004180020CC020020C40200200446C448D6
:10507400146000F03DFDC349C14801F0F5F8C24B8E
:105084000F220021BE4801F0DFF8142080231E22E5
:1050940000210090BA4800F0B7FCBC49E201142496
:1050A400B74802F2FF12009481FB0231D317002AA1
:1050B40011444FF01E02C3EB61234FF00001B8BF4F
:1050C40003F1FF339BB200F079FCAD4800F01CFD06
:1050D400AF4B1A7E012A3FF6F5AC72B6D3E9001045
:1050E400D3E90242096800682140104242D01A7C88
:1050F40002F0030209B142F0040242F008023FE068
:1051040072B61A6811685A6810689A681140DA68A9
:10511400104200F0B3801A7C02F0030209B142F09D
:10512400040242F00802AFE072B619689A6809688E
:1051340011405A681068DA68104273D01A7C02F081
:10514400030209B142F0040242F0080270E072B6B0
:10515400D3E900109A68096800681140DA681042BF
:1051640034D01A7C02F0030209B142F0040242F086
:10517400080231E01A7C02F0030209B142F0040291
:105184009108013A5E6919740D2A3FF69DAC01A19C
:1051940051F822F0213100001931000041310000A2
:1051A40019310000C9280000393100002131000004
:1051B4002131000039310000C928000019310000F4
:1051C4004131000019310000213100001A7C02F045
:1051D400030209B142F004029108013A5F691974AB
:1051E4000D2A3FF679AC01A151F822F011310000EB
:1051F400093100003131000009310000D9280000D4
:105204002931000011310000113100002931000062
:10521400D9280000093100003131000009310000B3
:10522400113100001A7C02F0030209B142F00402B9
:105234009108013A19740D2A3FF655AC01A151F8B1
:1052440022F000BFFB300000ED300000733100009D
:10525400ED300000E728000065310000FB3000005D
:10526400FB30000065310000E7280000ED3000004D
:1052740073310000ED300000FB3000001A7C02F0B6
:10528400030209B142F004029108013A19740D2A8B
:105294003FF632AC01A151F822F000BFE13000002A
:1052A400D530000057310000D5300000F928000047
:1052B40049310000E1300000E130000049310000D4
:1052C400F9280000D530000057310000D530000027
:1052D400E13000005A6902F1FF39C3F814900DE47B
:1052E4005A6902F10109C3F8149007E45A6902F1FA
:1052F400FF38C3F81480FFF7F8BB5A6902F10108BC
:10530400C3F81480FFF7F1BB013F5F61FFF7E4BB13
:1053140001375F61FFF7E0BB013E5E61FFF7D4BB7D
:1053240001365E61FFF7D0BB023F5F61FFF7D4BB7C
:1053340002375F61FFF7D0BB023E5E61FFF7C4BB7B
:1053440002365E61FFF7C0BB5A69A2F10209C3F8D5
:105354001490FFF7D3BB5A6902F10209C3F8149001
:10536400FFF7CCBB5A69A2F10208C3F81480FFF717
:10537400BCBB5A6902F10208C3F81480FFF7B5BB3D
:1053840074370020FC0C0020A802002003082080B1
:10539400DC3600202DE9F043364D83B0364C40F224
:1053A400EE28364FDFF8E8902E6802F0FFFE2378EF
:1053B4005BB33B78DB0728D52B68D9F800209B1A10
:1053C4000E2B22D92E4C2720002101F063FE04F17C
:1053D4003405092001E054F8040FC0B2022101F0A1
:1053E40059FEAC42F7D1274C182004F11005C0B285
:1053F4000121019001F04EFE0121019801F00EFE01
:10540400AC420FD054F8040FF1E72B6822789B1BB1
:105414002AB1B3F5FA6FD5D802F0C8FEC5E7434503
:10542400FAD9CFE7184D7823184C85F82C3005F1BC
:10543400080001F039FB05F1080000F0BFFB002172
:1054440005F1080001F03AFB7A2304F1080084F81E
:105454002C3001F029FB04F1080000F0AFFB00211F
:1054640004F1080001F02AFB03B0BDE8F043FFF7A4
:1054740077BA00BF9C390020CB390020CA390020FC
:10548400A0030020F00400206C370020983800208E
:10549400AC3900202DE9F84FA44B1B78002B43D0E6
:1054A400022B04D0012B00F0BA80BDE8F88FDFF89E
:1054B400B49218274FF00008DFF8ACA29C4D9D4E23
:1054C400FFB20021384601F0A9FD71689A4BDAF861
:1054D4000020A3FB0232920C02EB8202920073685A
:1054E4005B1A9A42FBD8954C092303E0A54211D0DC
:1054F40054F8043F5FFA83FB584601F0B9FD0028D5
:10550400F4D1584601F0B4FD0028FAD0A5424FF07A
:105514000108EDD13846012101F080FD884B4B454F
:105524006FD059F8047FCBE7864A137E012B7AD9D2
:1055340072B6536962B6002B834AB8BF033311684D
:105544009B1099420ED081480168B4BF013101F12A
:10555400FF31022960DC0029B8BF02210160136019
:10556400FFF7FEF9DFF8FC9118274FF00008DFF889
:10557400F8A16F4D6F4EFFB20021384601F04EFD89
:1055840071686D4BDAF80020A3FB0232920C02EB37
:105594008202920073685B1A9A42FBD8674C092313
:1055A40003E0A54211D054F8043F5FFA83FB584648
:1055B40001F05EFD0028F4D1584601F059FD0028A1
:1055C400FAD0A5424FF00108EDD13846012101F08F
:1055D40025FD5B4B4B4502D059F8047FCBE7B8F16E
:1055E400000F3FF462AF594B1B687BB3012B7DD096
:1055F400022B7FF45AAF4D4A1370BDE8F84FFFF702
:105604001BBAB8F1000F3FF450AF0023474A1370A0
:10561400BDE8F84FFFF7A4B9002101609FE7BDE89A
:10562400F84FFFF73BBA72B6D2E9001093680968E5
:1056340000681940D36818421CD0137C03F003039C
:1056440009B143F0040343F0080319E0404800F0B3
:105654004FFA404B1E220A213D4800F0F5FD3C481C
:1056640000F052FA4FF47A7001F084FCBDE8F84F70
:10567400FFF776B9137C03F0030309B143F0040385
:105684009908013B11740D2B3FF653AF01A151F85A
:1056940023F000BFD5340000CD340000E534000011
:1056A400CD34000033330000DD340000D534000075
:1056B400D5340000DD34000033330000CD34000065
:1056C400E5340000CD340000D53400005369013BBB
:1056D40053612FE75369013353612BE75369023B4D
:1056E400536127E753690233536123E70F4A1A488A
:1056F400137000F0FDF9194B1E220021164800F02A
:10570400A3FD154800F000FA114800F0F1F9144B1C
:105714001E2200210E4800F097FD0D4800F0F4F918
:105724004FF47A70BDE8F84F01F024BCC239002070
:10573400D4030020001000E083DE1B43A0030020FC
:1057440000050020143700204438002028380020A9
:10575400A0380020C808002074370020D808002092
:10576400E8080020F00400204422002030B506227E
:1057740083B005211148FFF799F81E221D21104816
:10578400FF24FFF793F80F4D20221F210E48FFF747
:105794008DF81B221A210D48FFF788F8234622466C
:1057A400294600940A48FEF797FD234622462946D7
:1057B40000940848FEF790FD03B030BDDC360020AD
:1057C400F836002024090020143700203037002048
:1057D4006C37002098380020A1F1280330B5054625
:1057E40083B0252B28D8DFE803F052652424136BFB
:1057F4002727272727272727272727272727272735
:1058040027272727272727272727272727273F3FF4
:105814004249003A424B434C18BF012248681B6876
:10582400A4FB03439B0C03FB02F24B681B1A9A4232
:10583400FBD8012003B030BD3F295AD901F03F0302
:10584400E81890F82C00FF28F3D011F0300F5CD04A
:10585400102B5ED001F00CFC03460120003B18BF66
:10586400012385F82730E5E70192002A43D101F0AE
:105874003F0401212C4494F82C0001F00BFC019A04
:1058840094F82C00114601F0C9FB0120D2E72B3516
:10589400012405E00F2A26D801F0FCFB0134E4B210
:1058A40015F8013F621E0121FF2B1846F2D1162C78
:1058B400F4D1BEE7104601F05DFB012003B030BD1A
:1058C400174C032A1549174B4868226834BF05242E
:1058D4000224A3FB0232920C04FB02F24B681B1A53
:1058E4009A42FBD8A5E7022101F0D4FB162CD5D1AE
:1058F4009FE700209EE701F03F0302212B4493F829
:105904002C0001F0C7FB012094E7114601F086FB4F
:105914008FE7019002F04AFC01989BE7001000E039
:105924004422002083DE1B4380F8371080F838209F
:1059340080F83930704700BFA1F1140C38B5044623
:10594400BCF10C0F08D8DFE80CF015070709220F8B
:105954000707070707070D00002038BD194615483B
:1059640002F030FE012038BD0121124802F0ECFEA5
:10597400012038BD83692BB903680F4A5B7B02FBA6
:1059840003F383610B4803F07FF8012038BD094D10
:105994008169284602F0C0FF94F82420012302F014
:1059A400FE02184685F8303185F8A52085F82F3198
:1059B40038BD00BF48220020A08601002DE9F04335
:1059C40083B01F46CB188046BDF8289014469BB27E
:1059D4000E4602EB0905ADB2009500F005FD80B15D
:1059E400B9F1000F0DD04FF00009224601343B46B7
:1059F4003146A4B24046CDF8009000F077FCA542B1
:105A0400F3D103B0BDE8F0832DE9F04385B0CF189E
:105A14001E468046BDF83090BFB20D46144602EBD8
:105A240009039BB200933B4600F0DEFC10B905B0BD
:105A3400BDE8F083002322462946404600933346BE
:105A440000F054FCB9F1010FF1D9A9F10209621C6B
:105A54001FFA89F492B24CB90024334629464046D1
:105A64000C9405B0BDE8F04300F040BC4FF00109D0
:105A7400234629464046CDF80090039200F036FCB8
:105A8400791E039A2346404689B2CDF8009000F06F
:105A94002DFC039A224492B2DEE700BF03682DE98D
:105AA400F043064683B090F85090002490F851508B
:105AB40093F8118000E033681B7C2A46F76C0021C0
:105AC40004FB03FC0134304601354FEACC0CE4B24C
:105AD4001FFA8CFCEDB2BC44CDF800C000F0C8FF46
:105AE400A14501D9A845E6D803B0BDE8F08300BFBD
:105AF4000268002190F85030127CC06C12FB03F253
:105B0400D20002F04BBF00BF10B50446FFF7C6FF3A
:105B14002046BDE8104000F0DBBF00BF836C10B529
:105B2400044680F851101B689847A36C20465B68B4
:105B3400BDE81040184700BF10B590F8AB300446DC
:105B44002BB920460021BDE81040FFF7E7BF0268EB
:105B5400002190F85030127CC06C12FB03F2D2008A
:105B640002F01CFF20460021BDE81040FFF7D6BF1D
:105B740038B50446FFF792FF94F8515094F850302A
:105B840022681D44517CEDB2A94211D994F8AB109E
:105B940029B920462946FFF7C1FF012038BD127CF0
:105BA4000021E06C12FB03F2D20002F0F7FEF0E7F2
:105BB400204600F08DFF002038BD00BF10B504461C
:105BC400FFF7BAFF2046FFF7D3FF0028FAD10146BA
:105BD4002046BDE81040FFF7A1BF00BF30B51C460A
:105BE40085B0134605460A4A00940C46094900F05C
:105BF40081FF0DF10F0000F099FF074B01469DF85E
:105C04000F202846009400F017FD05B030BD00BFFA
:105C14000D460000C5470000454200004218435CA1
:105C2400507800EB032080B2704700BF002070471B
:105C340038B50D46044611212B78284623706B781D
:105C44006370AB78A370EB78E3702B7923716B7975
:105C54006371AB79A371EB79E3712B7A23726B7A5D
:105C64006372AB7AA372EB7AE3722B7B23736B7B45
:105C74006373AB7BA373EB7BE3732B7C2374FFF71E
:105C8400CDFF0346132128466382FFF7C7FF03466F
:105C940015212846A382FFF7C1FFE08238BD00BF6B
:105CA400012B05D0022B09D02BB1411A88B27047C1
:105CB400014488B27047024490B27047821A90B28D
:105CC400704700BF012B05D0022B09D02BB1024431
:105CD40090B27047821A90B27047014488B27047FC
:105CE400411A88B2704700BF2DE9F04F87B00446CF
:105CF4000E4690F8807090F881B005920FE094F809
:105D04008510002949D0F319AE420BF1010BA3EB26
:105D14000A033AD35FFA8BFB002703F0FF0694F8DB
:105D240082A04FFA87FC31464FFA8BF9AAEB07059C
:105D340094F888304A46B4F87C00EDB2B4F87E801A
:105D4400CDF80CC0AE4228BF294604916146FFF746
:105D5400B9FF02460399404690464A46FFF7A0FF22
:105D6400059902460029CAD00093414694F886C09A
:105D74002046049B0BF1010B84F8AAC000F0B6FA8C
:105D8400F319AE42A3EB0A03C4D23E4484F88190D3
:105D940084F8806007B0BDE8F08F0093414694F822
:105DA4008700049B84F8AA00204600F09FFAAAE723
:105DB4002DE9F04F044690F89000002385B00728A1
:105DC400A16784F884300D7840F24E81A0F1080375
:105DD4000131DBB2A1674FF0FF3294F8916084F88F
:105DE4008430824025EA0205F2186DB2D2B284F8FA
:105DF4008250072A087840FA03F000F22781C3B2E0
:105E04004FF0FF3084F88420B04094F8926023EA85
:105E1400000394F8AA0084F88600B0FA80F04FFAE0
:105E240083F9400984F8839084F88700B0180F78C8
:105E3400C0B21741072800F2F6805FFA87FE94F893
:105E440093C084F884000CEB00020F78D2B20741AF
:105E5400072A00F2D880F8B294F894A084F8842039
:105E64000AEB020891F800B05FFA88F84BFA02FBDB
:105E7400B8F1070F00F2B8805FFA8BF74FF0FF32EA
:105E840084F884800121002D0AEB020802FA0AFA40
:105E94005FFA88F827EA0A0701FA08F8A7EB080767
:105EA4004FFA87FB40F39C800CEB020802FA0CFCCF
:105EB400B240013E20EA0C0C5FFA88F02EEA020E92
:105EC400F6B201FA00F2B4F87C00B140D21A94F8A8
:105ED4008830AEEB0101A2EB0C0249B252B202913E
:105EE4000392FFF7EFFEA4F87C000646B4F87E00A8
:105EF400DDE90212FFF7D4FE0246A4F87E00032B6C
:105F040000F2EC80DFE803F0B2B8C102C5F101038E
:105F1400411C034489B29AB206EB09039BB2009177
:105F24002046314600F060FA002859D0002294F847
:105F340084304FF0FF38A4F8802094F88E50A16F7D
:105F4400EA180878D2B21841072A00F2B880C6B21B
:105F540094F88F0008FA05F584F88420831891F8E2
:105F640000C026EA0506DBB24CFA02FC072B00F25D
:105F740099805FFA8CF508FA00F084F8843025EAF9
:105F84000005314620460022FFF7AEFE01222946D5
:105F94002046FFF7A9FE94F88420A76F531CC2F192
:105FA40008003978A2F1070EDBB207F1010A1141AA
:105FB400C0B2072BCAB207D9C4F878A05FFA8EF32F
:105FC4007A7882400A43D2B2D20784F88430D8D493
:105FD40094F981204A45B0DB94F8863084F8AA30DD
:105FE400584605B0BDE8F08F4F1CC2F10802A8F175
:105FF4000808D2B2A7674F785FFA88F8974047EA53
:106004000B07FFB23AE701F10108C0F10800083AB2
:10601400C0B2C4F878804978D2B201FA00F041469F
:106024003843C0B218E701F1010CC2F10802083884
:10603400D2B2C4F878C091F801E0C0B261460EFA59
:1060440002FE4EEA070E5FFA8EFEF8E64F1CC3F11D
:106054000803083ADBB2A7674978D2B201FA03F31E
:1060640039460343DBB2CBE60346B4E6731900EBCF
:1060740009019BB289B252E74119C9F10100731CAD
:10608400304489B29BB286B249E7C5F10101C9F136
:106094000100731C314410449BB28EB2511C82B275
:1060A40089B23CE74D1CC2F10802083BD2B2A56795
:1060B4004D78DBB2954045EA0C05EDB25BE701F1A2
:1060C400010CC3F10803083ADBB2C4F878C04E7877
:1060D400D2B261469E400643F6B239E701463346E2
:1060E4001DE700BF70B5FF29046F0D4604F11704C6
:1060F4000ED8602930D9B0F8A0301C44607830B193
:106104002378AB422ED0044460780028F8D170BDC7
:10611400B0F8A2301C44264600213046FFF77EFD2D
:106124000346022130461C44FFF778FD854206F100
:106134000406F1D8208840BA80B20028E7D085420E
:1061440008D0A3781C44208840BA80B20028DED04E
:106154008542F6D1E01C70BD4029D5D9B0F89E30F7
:106164001C44D1E7A01C70BD70B50E46194690F8CA
:10617400883082B004461546032B09D8DFE803F0C3
:10618400251E0217436F01919847281A019985B279
:106194002046A4F87C60A4F87E50FFF7A3FF20B14A
:1061A40001462046FFF704FE80B202B070BD436F83
:1061B400019198473044019986B2E9E7436F019110
:1061C4009847301A019986B2E2E7436F01919847E4
:1061D4002844019985B2DBE72DE9F0474FF0000927
:1061E4004FF6FF784FF6FE7A04460F4616465D1EBC
:1061F40000F052FA15F8011F204663689847844658
:1062040032463946C445204663461AD0D445F1D0B7
:10621400FFF7AAFF94F88830032B05D8DFE803F0D2
:106224000B080E02361AB6B248441FFA80F9E1E7A9
:106234000644B6B2F8E70744BFB2F5E73F1ABFB267
:10624400F2E74846BDE8F08710B4034C44605DF8BB
:10625400044BFFF7C1BF00BF89440000014B4367F3
:10626400704700BF2D3A0000026F8A4222D010B559
:1062740004468C302167FFF7DBFC236FCBB194F924
:10628400991094F99A2094F8A53084F8A61084F80B
:10629400A72073B1012B0ED094F9980094F996308D
:1062A40003449942B8BF84F8A630824201DD84F8E1
:1062B400A70010BD704794F99B3094F99C008B4261
:1062C400B8BF0B46824284F8A630F0DC10BD00BF94
:1062D40010B49DF804400194B0F85640121B446C6D
:1062E40092B2A4465DF8044B604700BF30B590F805
:1062F400A4409DF80CC004B103B930BD012B05D0F6
:10630400BCF1020F2CD0BCF1030F5CD01CF0010FC8
:1063140029D0B0F860408C42EFD8B0F862408C428B
:10632400EBD91344B0F86450B0F866401FFA83FC0C
:10633400944505D294424AD904F1FF3C1FFA8CFCDF
:106344009442DAD96545D8D2AA4238BF2A46644570
:1063540094BFC2EB0403C2EB0C0301249BB22BE0F9
:106364000131C91A89B2B0F864409442C5D8B0F872
:1063740066409442C1D90B44B0F86050B0F862E072
:106384001FFA83FC8C4505D28E4522D90EF1FF3CC1
:106394001FFA8CFC6545B0D28E458CBF00240124C5
:1063A400002CAAD1A94238BF2946E64594BFC1EBC7
:1063B4000E03C1EB0C039BB20394846CA468A44643
:1063C400BDE8304060470132D21A92B2A1E72A46B2
:1063D400B6E72946DEE700BF10B5002482B000947A
:1063E400FFF784FF02B010BD10B5B0F86640BDF8E9
:1063F40008C09442B0F864E016D9E64504D3624577
:1064040094BF002201229AB1B0F86240B0F8602033
:106414008C420FD9994294BF002101219A422CBF8A
:10642400084641F0010010BDE64501D26245EBD8B3
:10643400002010BD994294BF002001209A4228BF39
:10644400002010BD70B54FF0010C02F0070490F865
:10645400AA500CFA04FC9DF81060012D5FFA8CFC24
:1064640046D94FF0000E056822F007022D7C02FB8E
:1064740005F54FF6F8722A401144C26C11449EB9D6
:106484005A1E92B201320A440B784EEA03038CEA94
:10649400030301F8013B9142F6D170BD5FFA86FE19
:1064A4005FFA85FC002BF8D00A780134013B4FEAEF
:1064B4004E064EEA020214F007049BB28CEA020272
:1064C4004FEA4C050A70E9D190F8AA20B0F852506E
:1064D400012A294404D94FF0010C002BE4D1DCE754
:1064E4009646DFD04FF0010CE646002BDCD1D4E712
:1064F400E646B8D14FF0000CB5E700BFB0F85EC077
:10650400ACEB0202B0F85CC010B4ACEB01019DF836
:10651400044092B289B244B9013AC91A92B289B21A
:1065240001945DF8044BFFF7D3BE012CF8D1013977
:10653400D21A019489B25DF8044B92B2FFF7C8BE37
:1065440010B5B0F86E1082B0B0F86A300446B0F8F6
:106554006C200091B0F86810FFF746FF18B984F872
:10656400A40002B010BDB4F868300121B4F8602072
:1065740084F8A4109A42B4F8622038BFA4F86030BA
:10658400B4F86A309A42B4F8642088BFA4F8623040
:10659400B4F86C309A42B4F8662038BFA4F864307A
:1065A400B4F86E309A4288BFA4F8663002B010BDC9
:1065B400B0F85E300021B0F85A20B0F85CC09342C5
:1065C400A0F86010A0F862C0A0F8641002D39A1A70
:1065D400A0F86420B0F858209B1AA0F86630FFF7A2
:1065E400AFBF00BF90F850C001684FEACC0310B5AC
:1065F400A0F854300A7CD200A0F8522090F8512020
:10660400D4009444A0F8564091F811E0F44506DD16
:1066140092B2AEEB020E4FEACE0E1FFA8EF3B1F831
:1066240014C02344CA8AA0F85840A0F85A30A0F8ED
:106634005CC0A0F85E2010BD38B5436440F201137D
:1066440000250446A0F8AA30049B80F85020C164B9
:1066540080F8515080F8855080F8A55080F8A950F2
:10666400836405671B689847A26C064B2046C4E9FF
:106674001A33536898472046FFF7F0FD84F8885092
:1066840038BD00BF0000FFFF19B10A2901D088B24C
:1066940070474FF6FF707047002380F8263070472C
:1066A40010B40C461346172122460469A4465DF82B
:1066B400044B604700B583B00B4601210DF107027E
:1066C4008DF80730FFF7ECFF03B05DF804FB00BF63
:1066D40010B4002304691821A4461A465DF8044B3B
:1066E400604700BF10B4002304691921A4461A4668
:1066F4005DF8044B604700BF30B5044683B0019297
:106704000091FFF7E5FF40212046FFF7D3FF172153
:1067140020462569DDE90023A847204603B0BDE8EB
:106724003040FFF7DFBF00BF10B4C4680A4600233F
:106734001521A4465DF8044B604700BF10B4C4683B
:106744000A4600231621A4465DF8044B604700BFA7
:1067540010B40C46134617212246C468A4465DF8BB
:10676400044B604710B40023C4681821A4461A4699
:106774005DF8044B604700BF10B40023C4681921BE
:10678400A4461A465DF8044B604700BF70B5054641
:1067940082B00C4694F800C0BCF1190F13D8BCF1B8
:1067A400170F2BD80DF107024FF00101284617D11E
:1067B400637802348DF80730FFF7CAFF94F800C0FD
:1067C400BCF1190FEBD9BCF1FE0F4FF0290128469B
:1067D40009D1627802348DF8072000F083F9D9E7F3
:1067E400BCF1140F01D802B070BD62786146002379
:1067F400EE688DF807200234B047CBE700236146EA
:106804002846EE681A460134B047C3E714392DE927
:10681400F041064614461D4605295CD8DFE801F020
:106824000C1C4C2F46032D4F3B78002B4AD10023E0
:1068340001203B70BDE8F08190F82430FF2B02D199
:10684400782380F8243037692B4622463046BC46EC
:106854001421BDE8F0416047204F3B78C3BB30466C
:10686400FFF736FF00213046FFF724FF214630466C
:10687400FFF720FF012318463B70BDE8F081174F56
:106884003B783BB121E0183C18213046E4B20D447A
:10689400FFF732FF182C2A46F5D830462146FFF779
:1068A4002BFF002301203B70BDE8F0810B4B00223D
:1068B40001201A70BDE8F0811146FFF7FBFE0120AC
:1068C400BDE8F081FFF70EFFB1E7FFF70BFFE1E74B
:1068D400FFF708FFC3E70020ACE700BFC43900207E
:1068E4000B39F8B5064615461C46042952D8DFE88C
:1068F40001F0415147320300FFF734FF637996F802
:1069040022704021304607EBC307FFF70DFF3046E6
:1069140007F0FF07390941F01001FFF705FF07F001
:106924000F013046FFF70AFFA179304641F0B0016C
:10693400FFF704FF217930462268C90001F0F8010D
:10694400FFF706FF6A1E12F0FF05F3D13046FFF78A
:1069540013FF0120F8BDFFF705FF81213046FFF743
:10696400E3FE29463046FFF7E9FE3046FFF704FF11
:106974000120F8BDCAB90F49FFF708FF0120F8BD8F
:1069840052B90D49FFF702FF336801209B7C86F85A
:106994002230F8BD0020F8BD0849FFF7F7FE336840
:1069A4000120DB7C86F82230F8BD0549FFF7EEFEB6
:1069B4000120F8BD742000202C2000203420002069
:1069C4007C20002038B505460C46FFF789FF98B9AE
:1069D400092C0BD00A2C00D038BD284600F018F83A
:1069E40028460649FFF7D2FE012038BD284604494F
:1069F40000F008F8012038BD012038BD3C200020FB
:106A04008420002001608B7C80F82230704700BF16
:106A140038B500232821456904461A46A8470023AF
:106A2400142120461A46E568A847204601224B2136
:106A340000F058F82368204629211A7900F052F80A
:106A4400204600224B2100F04DF8236820462921DE
:106A54001A7900F047F8204601224B2100F042F851
:106A64002368204629215A79BDE8384000F03AB815
:106A740030B583B084688DF805101946069D6B46C1
:106A84008DF8062001228DF804100F210095A047EF
:106A940003B030BD10B4002384680921A4461A460B
:106AA4005DF8044B604700BF10B4002384680A21DA
:106AB400A4461A465DF8044B604700BF10B48468CE
:106AC4000A4600230B21A4465DF8044B604700BF2F
:106AD40010B4002384681021A4461A465DF8044BC0
:106AE400604700BF10B444690023A4465DF8044B1A
:106AF400604700BF03614FF0FF33C3620363436326
:106B04008363C363A0F840300023C0E9021203602A
:106B1400FF2280F8233080F826308361009B80F8C0
:106B2400242080F828204361FFF7B4BF03460822DD
:106B340001481A70704700BFDC320020012A70B58A
:106B440008BF0A228AB091B34FF0210E01E05FFA28
:106B540086FE0EF1FF36B1FBF2F502FB15145FFA67
:106B640084FC092C0CF137040CF1300C98BF5FFA4B
:106B74008CF40EF1280C88BFE4B29142EC4429460F
:106B84000CF8244CE3D24BB10EF1FF3E2D225FFAF8
:106B94008EFE0EF128036B4403F8242C036801A92C
:106BA400CEF122025B68714498470AB070BD30226E
:106BB4004FF0210E8DF82520E5E700BF002903DB07
:106BC40000230A22FFF7BABF49422D230A22FFF706
:106BD400B5BF00BF2A2849D8F8B5254F04463B78ED
:106BE400E3B9244B1B5DFF2B29D0234A02EB04128B
:106BF40091680A6802F44050B0F5805F30D01C06FA
:106C04001FD41E4C2360236AD80704D401F0CEFAA3
:106C1400236AD907FAD5194B586AF8BD174D184E8F
:106C240001E001F0C3FAAB6C1B06FAD4B36C13F0A9
:106C34008003F6D13B700F4B1B5DFF2BD5D1002099
