:0200000460009A
:100000004643464200000156000000000103030081
:1000100000000000000000000000000000000000E0
:1000200000000000000000000000000000000000D0
:1000300000000000000000000000000000000000C0
:1000400000000000010408000000000000000000A3
:100050000000800000000000000000000000000020
:100060000000000000000000000000000000000090
:100070000000000000000000000000000000000080
:10008000EB04180A063204260000000000000000FD
:10009000050404240000000000000000000000002F
:1000A0000000000000000000000000000000000050
:1000B0000604000000000000000000000000000036
:1000C0000000000000000000000000000000000030
:1000D00020041808000000000000000000000000DC
:1000E0000000000000000000000000000000000010
:1000F0000000000000000000000000000000000000
:10010000D8041808000000000000000000000000F3
:100110000204180804200000000000000000000095
:1001200000000000000000000000000000000000CF
:10013000600400000000000000000000000000005B
:1001400000000000000000000000000000000000AF
:10015000000000000000000000000000000000009F
:10016000000000000000000000000000000000008F
:10017000000000000000000000000000000000007F
:10018000000000000000000000000000000000006F
:10019000000000000000000000000000000000005F
:1001A000000000000000000000000000000000004F
:1001B000000000000000000000000000000000003F
:1001C000000100000010000001000000000000001D
:1001D000000001000000000000000000000000001E
:1001E000000000000000000000000000000000000F
:1001F00000000000000000000000000000000000FF
:10020000FFFFFFFFFFFFFFFFFFFFFFFFFFFFFFFFFE
:10021000FFFFFFFFFFFFFFFFFFFFFFFFFFFFFFFFEE
:10100000D10020434D1600600000000000000000E9
:101010002010006000100060002801600000000047
:10102000000000600034010000000000FFFFFFFF2F
:10103000FFFFFFFFFFFFFFFFFFFFFFFFFFFFFFFFC0
:10104000FFFFFFFFFFFFFFFFFFFFFFFFFFFFFFFFB0
:10105000FFFFFFFFFFFFFFFFFFFFFFFFFFFFFFFFA0
:10106000FFFFFFFFFFFFFFFFFFFFFFFFFFFFFFFF90
:10140000814205D051F8043B40F8043B8242F9D8B0
:10141000704700BF044A05494FF0000342F8043BFF
:101420009142FBD8704700BFC03A002080460020A0
:101430002DE98848BFF34F8F00BF00BF00BF00BF3A
:1014400000F042F9684B0822C3F8542100BF00BFE6
:1014500000BF00BF00BF00BF00BF00BF00BF00BF94
:1014600000BF00BF00BF00BF00BF00BF5F4A6049B0
:101470006048FFF7C5FF604A60496148FFF7C0FF59
:10148000604CFFF7C7FF4FF470004FF0E0210023DE
:101490005D4AC1F8880D44F823200133B02BFAD1FE
:1014A0005A4B80215A4A03F8011B9342FBD14FF05B
:1014B000E0254D4E4FF08039DFF884B1DFF884A18C
:1014C0004FF0FF31C5F8084D0027C6F80491C6F863
:1014D00000B1C6F8F490C6F8F0A0D5F8243DDFF8C6
:1014E000688143F4E0234B4AC5F8243DD8F81C300A
:1014F00023F07F0343F04003C8F81C30D8F82430B1
:1015000023F07F0343F04003C8F824309166D1668E
:101510001167516700F0E0F83F4B4049A363404B2F
:10152000E36363236B610323AF612B613D4BC5F81C
:10153000203DD5F8FC3D43F08073C5F8FC3D3A4BA7
:101540001A6842F001021A605B680B6000F00EFB43
:10155000C6F804913548C6F800B1C6F8F490C6F84C
:10156000F0A000F02DFDD8F86C10314B314A41F459
:101570004051C8F86C101F60C3F80871C3F81871A7
:10158000C3F82871C3F83871936BDB0708D442F6AF
:101590001563294951651365936B43F00103936308
:1015A000244A264C936843F00113936000F01CF921
:1015B00000F060F800F00CFD00F006FB00F086F88B
:1015C0002368132BFCD900F097FB2368B3F5967FB3
:1015D000FBD300F07FF800F07BF800F005FD00F091
:1015E000F3FC30BFFDE700BF00800D4060C9000084
:1015F0000422006000000000C03A002068EB006098
:101600000000002000380020494A000000E400E00B
:10161000A0E400E000C00A40515E00000C4600203B
:10162000555E000000002020001000E00046C323AB
:101630000040084000400D400000C0561046002009
:101640001B1018200C0D111300C00F40054B4FF458
:101650002A01054A05485A641864054A9963954663
:10166000FFF7E6FE00C00A40AFAAAAAA07002000C2
:1016700000000720104BA020104AD96E41F44031E1
:1016800010B4D96640F23764D96E41F44071D9661E
:1016900054649064936C1B06FCD4094A40F2376191
:1016A000A02351649364936C13F08003FBD1054A2B
:1016B00013705DF8044B704700C00F4000400C40B1
:1016C00000800C4035460020704700BF704700BFC7
:1016D000704700BF00BF704710B44FF0E0230021F7
:1016E00010243148C3F8941DC3F89C4D1124C3F84D
:1016F000A00D2E48C3F89C4D1224C3F8A00D2C4811
:10170000C3F89C4D2B4AC3F8A00D2B4C42F0150298
:101710002A48C3F89C4DC3F8A00D294C2948C3F8AA
:101720009C4DC3F8A00D284CC3F89C2D2748284A8F
:10173000C3F8A04DC3F89C0DC3F8A02D02F5A0225C
:10174000244C0C322448C3F89C4DC3F8A02D234AE6
:10175000C3F89C0D224CC3F8A02D02F14062C3F8DF
:101760009C4D2048C3F8A02D0C32C3F89C0DC3F843
:10177000A02D00BF00BF00BF00BF00BF0122C3F803
:10178000942DBFF34F8FBFF36F8FC3F8501FBFF37C
:101790004F8FBFF36F8FD3F8142D5DF8044B42F4D5
:1017A0004032C3F8142D70473F0000102500080791
:1017B00009001000804600201300200021000207CD
:1017C0001400002025000813090000101600202036
:1017D00027000B1317000040180000602F000B07B4
:1017E000190000701A000080F0B5B84B1822B84EEE
:1017F0000120B84F83B0C3F85C62B749C3F8607288
:10180000B64DC3F86462A6F53046B54CC3F86862BD
:10181000C3F86C52C3F87052C3F87452C3F87852CC
:1018200048F20C75DA661A675A679A67DA67C3F87E
:101830008020C3F88420C3F88820C1F82C03A94A6B
:10184000C1F83003C1F83403C1F83803C1F83C03D0
:10185000C1F85003A169A44B0A40A448A44913430A
:10186000A44AA361D4F8843043F00C03C4F8843054
:101870004FF0FF34036843F00203036003682B401A
:101880004FF400551A439C4B026044608A689B4C9D
:1018900013409B4A43F000538360C36823F07803EE
:1018A000C360036A134023430362036A1340954AEB
:1018B0002343954C43628262C2620022D1F8B83061
:1018C00023F03F0343F00103C0F8B830D1F8BC3037
:1018D0008E4923F03F0343F00103C0F8BC3040F2CF
:1018E0000563026105660467C0F880304566446799
:1018F0000224C0F88430036823F00203036081618E
:10190000834B8449C46143F8042B8B42FBD1774A53
:10191000136843F001031360136813F00103FBD154
:101920007A48022140F2F564906140F29940D16119
:1019300040F26641C2F8004242F20144C2F810127D
:101940007549C2F82002C2F8301240F2354173489E
:10195000C2F83442C2F84012714CC2F8500242F24E
:1019600001207049C2F854120121C2F86042C2F845
:1019700064025E48C2F8A030C2F8A430C2F8B010C9
:101980004369DA07FCD5012300244FF4803257491C
:101990004361C0F8A040C0F8A420C0F8B0304B6943
:1019A000DB07FCD5012300244FF400304F4A4B6184
:1019B000C1F8A040C1F8A400C1F8B0305369DF07F6
:1019C000FCD501230024584848495361C2F8A0407F
:1019D000C2F8A400C2F8B0304B69DE07FCD5D1F8DC
:1019E000003145F60D5221209BB24861934265D1EA
:1019F00000244FF4802201233C48C1F8A040C1F8E4
:101A0000A420C1F8B0304369DD07FCD501234FF4B1
:101A100000040021354A4361C0F8A040C0F8A4107A
:101A2000C0F8B0305369DC07FCD501234FF4000443
:101A30004FF480302D495361C2F8A040C2F8A40091
:101A4000C2F8B0304B69D807FCD501234FF400042D
:101A50004FF40030254A4B61C1F8A040C1F8A40002
:101A6000C1F8B0305369D907FCD501234FF4000405
:101A70002D481E495361C2F8A040C2F8A400C2F824
:101A8000B0304B69DA07FCD5D1F8003145F60D527C
:101A900021209BB24861934250D008254FF40004A6
:101AA00022490020224B234A009015705A1A012324
:101AB0002148224400F094FA03B0F0BD1E4B0022EE
:101AC000C3E90022C3E9022203B0F0BD00801F4039
:101AD000F9B00100F910010000841F40F970010005
:101AE00000C00F40FFFCFF1F000300A000402A4081
:101AF00000802A401200FFFFFF37F70040000080FF
:101B000000FFF07CFF000F8363000200F05AF05AE0
:101B100000422A4000432A409F041830EB06180A6E
:101B20003806180A0632012604000300000000707F
:101B30000000007036460020D84300204FF4000417
:101B40004FF4802201230848C1F8A040C1F8A42026
:101B5000C1F8B0304369DB07FCD5012310254FF0F5
:101B6000807443619CE700BF00402A40F0B4154AEE
:101B700040274FF480314FF480564FF400554FF416
:101B8000404443F24200136913F0020F0ED113F4E4
:101B9000005F0FD013F4805F0ED0002BF3DA13F444
:101BA000803F0BD15B060BD5F0BC7047946151614F
:101BB0009061E8E75561E6E75661E4E79161E2E7A5
:101BC0005761E0E700800D403F4A03203F49F3EEB4
:101BD000095AD2F880304FF0000C9FED3D6A23F097
:101BE00001039FED3C5A30B4C2F88030C2F8900037
:101BF000D1F8E010384DCBB2384C39482B6007EEA5
:101C0000903A0B0DC1F30B21F8EEE77A06EE903A0D
:101C100007EE101A334BB8EEC77A2160F8EEE66A89
:101C2000314937EEC66A37EEC55A76EEC76A77EEA7
:101C3000E57A26EE266AC3ED006A25EE265AD2F82A
:101C4000803067EEA64AC0ED007AC6EE275A2748D4
:101C500085EE276AC4EEA76A75EE875AFCEEE55A50
:101C600036EE076A15EE904ABCEEC66A43EA0453A4
:101C700076EE877AC2F8803016EE103AD2F89041AC
:101C8000FCEEE77A01EA0341214317EE903AC2F8ED
:101C90009011C3F30B03D2F890110B431449C2F80F
:101CA0009031D2F8803043F00203C2F88030114BFB
:101CB00080F840C0C1F840314FF0E023012230BC31
:101CC000C3F80821704700BF00810D4000441F4049
:101CD0000000AA420000B442FC450020F845002064
:101CE00000460020044600200000FF0F00E400E052
:101CF00000380020314C0000314B40F6617210B5C5
:101D0000C3F8202140F2044400F076F92D4A2E4910
:101D1000D2F880302D4843F00303C2F880302C4BBA
:101D2000C1F8604102681A4203D1D1F8A8319A077C
:101D30001BD0254A4FF00041244B5963D2F8403163
:101D400043F00203C2F84031D2F840319B07FBD484
:101D50004FF400304FF0E0211C4B4FF00042C1F82F
:101D60008C0219209A6300F037F9184A4FF080402E
:101D7000154C002190630A20164B11604FF420721D
:101D8000C4F8A801184600F033F94FF48002034666
:101D90004FF4810040F243111860C4F858311A64BE
:101DA0000D4B0E4AC4F84811C3F804224FF0E0224C
:101DB0004FF400310123C2F80C11C4F8403110BDBA
:101DC00000800D4000C00F4000002E4000900D40EC
:101DD000001C1E000000002000380020194E0000EA
:101DE00008B50E4B1B6E9B0700D4FBBE72B60C4BA6
:101DF00000200C4AC3F8400103F160430A49A3F5EF
:101E00005F2311649D46BFF34F8F4FF400130748C3
:101E1000074ADB6902609B68984700BF00441F4087
:101E200000002E4000C00A40030020000080202057
:101E3000000012EB43690A4A03EB011010B4037A65
:101E4000084C02EB0313D3E901321460C2681A6034
:101E500003690BB142691A605DF8044B704700BF1B
:101E60002008002061F801004369027E03EB0212A2
:101E700092F808C08C451CD01A7AFF2A19D09142DA
:101E800010B5044616D01A7EFF2A06D00121D3E9E8
:101E9000002312681A4201D1217610BD064B05229B
:101EA000204603EB0C135B681A60FFF7C3FF217633
:101EB000F3E770470021EAE72008002043690A4A57
:101EC00003EB011010B490F82830084C02EB031318
:101ED000D3E901321460C26A1A60036B0BB1426B22
:101EE0001A605DF8044B70472008002061F801007B
:101EF0004369427E03EB021292F828C08C451ED043
:101F000093F82820FF2A1AD0914210B5044617D022
:101F100093F83820FF2A06D00121D3E90023126864
:101F20001A4201D1617610BD064B0522204603EB13
:101F30000C135B681A60FFF7C1FF6176F3E7704727
:101F40000021EAE720080020164942698B6B23F440
:101F50007C0343F4802370B58B630446124DD2E9B1
:101F600000130A681A4303690A60022200211A61F9
:101F70000E4A19619A6401225A629D624FF430350B
:101F8000DD624FF001159E6C1E6519629D651A6138
:101F9000017EFFF74FFF617E2046BDE87040FFF7EE
:101FA0008DBF00BF00C00F40B80B05053B37281997
:101FB000F8B500BFF8BC08BC9E46704700000000A2
:101FC0005FF800F0B14400005FF800F0394A00000B
:101FD0005FF800F0AD6000005FF800F0A14700007E
:101FE0005FF800F0116200005FF800F0A16E0000E1
:101FF0005FF800F0FD6D00005FF800F0895500000B
:0C2000000501000029010000253000004F
:10200C001603550053004200200053006500720077
:10201C00690061006C000000180354006500650045
:10202C006E00730079006400750069006E006F002B
:10203C000403090409026200030100C032080B000A
:10204C000202020100090400000102020100052441
:10205C0000100105240101010424020605240600D8
:10206C00010705820310001009040100020A000098
:10207C000007050302400000070584024000000928
:10208C0004020002FF6AFF000705810240000107FD
:10209C00050102400001000009026200030100C0BA
:1020AC0032080B00020202010009040000010202C6
:1020BC00010005240010010524010101042402067D
:1020CC000524060001070582031000050904010020
:1020DC00020A000000070503020002000705840243
:1020EC000002000904020002FF6AC7000705810212
:1020FC000002010705010200020100000A060002AD
:10210C00EF0201400100000080C00F4000000003FE
:10211C001900000010000000E8841F4001000000BE
:10212C00FF000000FF0000000000000000000000A5
:10213C001800000010000000E4841F4001000000A3
:10214C00FF000000FF000000000000000000000085
:10215C001F0000007166000070C00F40000C0000F2
:10216C001100000011000000E0841F40020000007C
:10217C002C00000012000000E0841F400100000051
:10218C001000000011000000DC841F400200000061
:10219C002D00000012000000DC841F400100000034
:1021AC001E0000006566000070C00F40C0000000FB
:1021BC001200000013000000D0841F40010000003A
:1021CC00FF000000FF000000000000000000000005
:1021DC001300000013000000CC841F40010000001D
:1021EC00FF000000FF0000000000000000000000E5
:0821FC001C0000005966000000
:1022040000000000000000000000000000000000CA
:1022140000000000000000000000000000000000BA
:10222400F8B54FF084439D695A6915400DD0254F88
:1022340001269D6195FAA5F4B4FA84F457F8243084
:1022440006FA04F49847A543F4D11F4B9D695A69D3
:1022540015400DD01D4F01269D6195FAA5F4B4FAE1
:1022640084F457F8243006FA04F49847A543F4D1CB
:10227400174B9D695A6915400DD0164F01269D6173
:1022840095FAA5F4B4FA84F457F8243006FA04F461
:102294009847A543F4D1104B9D695A6915400DD058
:1022A4000E4F01269D6195FAA5F4B4FA84F457F80B
:1022B400243006FA04F49847A543F4D1BFF34F8FB2
:1022C400F8BD00BF083400200040004288340020DC
:1022D400008000420835002000C0004288350020FC
:1022E4000548064B1B1AD90F01EBA301491002D074
:1022F400034B03B118477047C03A0020C03A00208E
:102304000000000008B5054B1BB105490548AFF3B3
:102314000080BDE80840FFF7E3BF00BF00000000F5
:10232400A444002000340160044BFF204FF0FF312F
:1023340000221860C3E90212704700BF883C0020E5
:1023440000207047704700BF38B500F10805D0F889
:10235400B4300446284698474FF6FD73984201D995
:10236400012038BD0346B4F8BA20B4F8B8102846A2
:1023740003F064FC94F89030032BF1D8DFE803F009
:10238400140E0802B4F8BA301B1AA4F8BA30E7E7FE
:10239400B4F8B8301B1AA4F8B830E1E7B4F8BA308E
:1023A4001844A4F8BA00DBE7B4F8B8301844A4F829
:1023B400B800D5E72DE9F047002A4ED004460D4673
:1023C4008F180026DFF89C9000F108084FF6FD7A7C
:1023D40003E00120AF42064420D0236815F8011B16
:1023E4001B684B4515D1D4F8B43040469847504546
:1023F400EFD80346B4F8BA20B4F8B810404603F056
:102404001DFC94F89030032BE3D8DFE803F01F1889
:10241400110A20469847AF420644DED13046BDE853
:10242400F087B4F8BA301B1A0120A4F8BA30D1E707
:10243400B4F8B8301B1A0120A4F8B830CAE7B4F8CD
:10244400BA301844A4F8BA000120C3E7B4F8B8308D
:102454001844A4F8B8000120BCE716463046BDE88D
:10246400F08700BF49010000214B1A68D2E900102F
:10247400D3680968006810B41842946801EA04013A
:102484002ED0137C03F00303D9B943F00803990851
:10249400013B11740D2B0BD8DFE803F00D071C076B
:1024A4000A160D0D160A071C070D5369013B5361EB
:1024B4005DF8044B704753695DF8044B0133536175
:1024C400704743F00403E0E753695DF8044B023BB3
:1024D4005361704753695DF8044B0233536170478D
:1024E400137C03F003030029D1D043F00403CEE7A7
:1024F400C83C0020224BD3F8C420D2E90010D36892
:102504000968006810B41842946801EA04012ED0E6
:10251400137C03F00303D9B943F008039908013B82
:1025240011740D2B0BD8DFE803F00D071C070A16F6
:102534000D0D160A071C070D5369013B53615DF825
:10254400044B704753695DF8044B01335361704782
:1025540043F00403E0E753695DF8044B023B536125
:10256400704753695DF8044B023353617047137C21
:1025740003F003030029D1D043F00403CEE700BFE6
:10258400C83C0020224BD3F8C820D2E90010D368FD
:102594000968006810B41842946801EA04012ED056
:1025A400137C03F00303D9B943F008039908013BF2
:1025B40011740D2B0BD8DFE803F00D071C070A1666
:1025C4000D0D160A071C070D5369013B53615DF895
:1025D400044B704753695DF8044B013353617047F2
:1025E40043F00403E0E753695DF8044B023B536195
:1025F400704753695DF8044B023353617047137C91
:1026040003F003030029D1D043F00403CEE700BF55
:10261400C83C0020224BD3F8CC20D2E90010D36868
:102624000968006810B41842946801EA04012ED0C5
:10263400137C03F00303D9B943F008039908013B61
:1026440011740D2B0BD8DFE803F00D071C070A16D5
:102654000D0D160A071C070D5369013B53615DF804
:10266400044B704753695DF8044B01335361704761
:1026740043F00403E0E753695DF8044B023B536104
:10268400704753695DF8044B023353617047137C00
:1026940003F003030029D1D043F00403CEE700BFC5
:1026A400C83C0020224BD3F8D020D2E90010D368D4
:1026B4000968006810B41842946801EA04012ED035
:1026C400137C03F00303D9B943F008039908013BD1
:1026D40011740D2B0BD8DFE803F00D071C070A1645
:1026E4000D0D160A071C070D5369013B53615DF874
:1026F400044B704753695DF8044B013353617047D1
:1027040043F00403E0E753695DF8044B023B536173
:10271400704753695DF8044B023353617047137C6F
:1027240003F003030029D1D043F00403CEE700BF34
:10273400C83C0020224BD3F8D420D2E90010D3683F
:102744000968006810B41842946801EA04012ED0A4
:10275400137C03F00303D9B943F008039908013B40
:1027640011740D2B0BD8DFE803F00D071C070A16B4
:102774000D0D160A071C070D5369013B53615DF8E3
:10278400044B704753695DF8044B01335361704740
:1027940043F00403E0E753695DF8044B023B5361E3
:1027A400704753695DF8044B023353617047137CDF
:1027B40003F003030029D1D043F00403CEE700BFA4
:1027C400C83C0020224BD3F8D820D2E90010D368AB
:1027D4000968006810B41842946801EA04012ED014
:1027E400137C03F00303D9B943F008039908013BB0
:1027F40011740D2B0BD8DFE803F00D071C070A1624
:102804000D0D160A071C070D5369013B53615DF852
:10281400044B704753695DF8044B013353617047AF
:1028240043F00403E0E753695DF8044B023B536152
:10283400704753695DF8044B023353617047137C4E
:1028440003F003030029D1D043F00403CEE700BF13
:10285400C83C0020224BD3F88420D2E90010D3686E
:102864000968006810B41842946801EA04012ED083
:10287400137C03F00303D9B943F008039908013B1F
:1028840011740D2B0BD8DFE803F00D071C070A1693
:102894000D0D160A071C070D5369013B53615DF8C2
:1028A400044B704753695DF8044B0133536170471F
:1028B40043F00403E0E753695DF8044B023B5361C2
:1028C400704753695DF8044B023353617047137CBE
:1028D40003F003030029D1D043F00403CEE700BF83
:1028E400C83C0020224BD3F88820D2E90010D368DA
:1028F4000968006810B41842946801EA04012ED0F3
:10290400137C03F00303D9B943F008039908013B8E
:1029140011740D2B0BD8DFE803F00D071C070A1602
:102924000D0D160A071C070D5369013B53615DF831
:10293400044B704753695DF8044B0133536170478E
:1029440043F00403E0E753695DF8044B023B536131
:10295400704753695DF8044B023353617047137C2D
:1029640003F003030029D1D043F00403CEE700BFF2
:10297400C83C0020224BD3F88C20D2E90010D36845
:102984000968006810B41842946801EA04012ED062
:10299400137C03F00303D9B943F008039908013BFE
:1029A40011740D2B0BD8DFE803F00D071C070A1672
:1029B4000D0D160A071C070D5369013B53615DF8A1
:1029C400044B704753695DF8044B013353617047FE
:1029D40043F00403E0E753695DF8044B023B5361A1
:1029E400704753695DF8044B023353617047137C9D
:1029F40003F003030029D1D043F00403CEE700BF62
:102A0400C83C0020224BD3F89020D2E90010D368B0
:102A14000968006810B41842946801EA04012ED0D1
:102A2400137C03F00303D9B943F008039908013B6D
:102A340011740D2B0BD8DFE803F00D071C070A16E1
:102A44000D0D160A071C070D5369013B53615DF810
:102A5400044B704753695DF8044B0133536170476D
:102A640043F00403E0E753695DF8044B023B536110
:102A7400704753695DF8044B023353617047137C0C
:102A840003F003030029D1D043F00403CEE700BFD1
:102A9400C83C0020224BD3F89420D2E90010D3681C
:102AA4000968006810B41842946801EA04012ED041
:102AB400137C03F00303D9B943F008039908013BDD
:102AC40011740D2B0BD8DFE803F00D071C070A1651
:102AD4000D0D160A071C070D5369013B53615DF880
:102AE400044B704753695DF8044B013353617047DD
:102AF40043F00403E0E753695DF8044B023B536180
:102B0400704753695DF8044B023353617047137C7B
:102B140003F003030029D1D043F00403CEE700BF40
:102B2400C83C0020224BD3F89820D2E90010D36887
:102B34000968006810B41842946801EA04012ED0B0
:102B4400137C03F00303D9B943F008039908013B4C
:102B540011740D2B0BD8DFE803F00D071C070A16C0
:102B64000D0D160A071C070D5369013B53615DF8EF
:102B7400044B704753695DF8044B0133536170474C
:102B840043F00403E0E753695DF8044B023B5361EF
:102B9400704753695DF8044B023353617047137CEB
:102BA40003F003030029D1D043F00403CEE700BFB0
:102BB400C83C0020224BD3F89C20D2E90010D368F3
:102BC4000968006810B41842946801EA04012ED020
:102BD400137C03F00303D9B943F008039908013BBC
:102BE40011740D2B0BD8DFE803F00D071C070A1630
:102BF4000D0D160A071C070D5369013B53615DF85F
:102C0400044B704753695DF8044B013353617047BB
:102C140043F00403E0E753695DF8044B023B53615E
:102C2400704753695DF8044B023353617047137C5A
:102C340003F003030029D1D043F00403CEE700BF1F
:102C4400C83C0020224BD3F8A020D2E90010D3685E
:102C54000968006810B41842946801EA04012ED08F
:102C6400137C03F00303D9B943F008039908013B2B
:102C740011740D2B0BD8DFE803F00D071C070A169F
:102C84000D0D160A071C070D5369013B53615DF8CE
:102C9400044B704753695DF8044B0133536170472B
:102CA40043F00403E0E753695DF8044B023B5361CE
:102CB400704753695DF8044B023353617047137CCA
:102CC40003F003030029D1D043F00403CEE700BF8F
:102CD400C83C0020224BD3F8A420D2E90010D368CA
:102CE4000968006810B41842946801EA04012ED0FF
:102CF400137C03F00303D9B943F008039908013B9B
:102D040011740D2B0BD8DFE803F00D071C070A160E
:102D14000D0D160A071C070D5369013B53615DF83D
:102D2400044B704753695DF8044B0133536170479A
:102D340043F00403E0E753695DF8044B023B53613D
:102D4400704753695DF8044B023353617047137C39
:102D540003F003030029D1D043F00403CEE700BFFE
:102D6400C83C0020224BD3F8A820D2E90010D36835
:102D74000968006810B41842946801EA04012ED06E
:102D8400137C03F00303D9B943F008039908013B0A
:102D940011740D2B0BD8DFE803F00D071C070A167E
:102DA4000D0D160A071C070D5369013B53615DF8AD
:102DB400044B704753695DF8044B0133536170470A
:102DC40043F00403E0E753695DF8044B023B5361AD
:102DD400704753695DF8044B023353617047137CA9
:102DE40003F003030029D1D043F00403CEE700BF6E
:102DF400C83C0020224BD3F8AC20D2E90010D368A1
:102E04000968006810B41842946801EA04012ED0DD
:102E1400137C03F00303D9B943F008039908013B79
:102E240011740D2B0BD8DFE803F00D071C070A16ED
:102E34000D0D160A071C070D5369013B53615DF81C
:102E4400044B704753695DF8044B01335361704779
:102E540043F00403E0E753695DF8044B023B53611C
:102E6400704753695DF8044B023353617047137C18
:102E740003F003030029D1D043F00403CEE700BFDD
:102E8400C83C0020224BD3F8B020D2E90010D3680C
:102E94000968006810B41842946801EA04012ED04D
:102EA400137C03F00303D9B943F008039908013BE9
:102EB40011740D2B0BD8DFE803F00D071C070A165D
:102EC4000D0D160A071C070D5369013B53615DF88C
:102ED400044B704753695DF8044B013353617047E9
:102EE40043F00403E0E753695DF8044B023B53618C
:102EF400704753695DF8044B023353617047137C88
:102F040003F003030029D1D043F00403CEE700BF4C
:102F1400C83C0020224BD3F8B420D2E90010D36877
:102F24000968006810B41842946801EA04012ED0BC
:102F3400137C03F00303D9B943F008039908013B58
:102F440011740D2B0BD8DFE803F00D071C070A16CC
:102F54000D0D160A071C070D5369013B53615DF8FB
:102F6400044B704753695DF8044B01335361704758
:102F740043F00403E0E753695DF8044B023B5361FB
:102F8400704753695DF8044B023353617047137CF7
:102F940003F003030029D1D043F00403CEE700BFBC
:102FA400C83C0020224BD3F8B820D2E90010D368E3
:102FB4000968006810B41842946801EA04012ED02C
:102FC400137C03F00303D9B943F008039908013BC8
:102FD40011740D2B0BD8DFE803F00D071C070A163C
:102FE4000D0D160A071C070D5369013B53615DF86B
:102FF400044B704753695DF8044B013353617047C8
:1030040043F00403E0E753695DF8044B023B53616A
:10301400704753695DF8044B023353617047137C66
:1030240003F003030029D1D043F00403CEE700BF2B
:10303400C83C0020224BD3F8BC20D2E90010D3684E
:103044000968006810B41842946801EA04012ED09B
:10305400137C03F00303D9B943F008039908013B37
:1030640011740D2B0BD8DFE803F00D071C070A16AB
:103074000D0D160A071C070D5369013B53615DF8DA
:10308400044B704753695DF8044B01335361704737
:1030940043F00403E0E753695DF8044B023B5361DA
:1030A400704753695DF8044B023353617047137CD6
:1030B40003F003030029D1D043F00403CEE700BF9B
:1030C400C83C0020224BD3F8C020D2E90010D368BA
:1030D4000968006810B41842946801EA04012ED00B
:1030E400137C03F00303D9B943F008039908013BA7
:1030F40011740D2B0BD8DFE803F00D071C070A161B
:103104000D0D160A071C070D5369013B53615DF849
:10311400044B704753695DF8044B013353617047A6
:1031240043F00403E0E753695DF8044B023B536149
:10313400704753695DF8044B023353617047137C45
:1031440003F003030029D1D043F00403CEE700BF0A
:10315400C83C0020214B5A68D2E90010D3680968A2
:10316400006810B41842946801EA04012ED0137C5C
:1031740003F00303D9B943F008039908013B117420
:103184000D2B0BD8DFE803F00D071C070A160D0DF5
:10319400160A071C070D5369013B53615DF8044B84
:1031A400704753695DF8044B01335361704743F032
:1031B4000403E0E753695DF8044B023B5361704735
:1031C40053695DF8044B023353617047137C03F079
:1031D40003030029D1D043F00403CEE7C83C002008
:1031E400214B9A68D2E90010D3680968006810B4CA
:1031F4001842946801EA04012ED0137C03F00303FF
:10320400D9B943F008039908013B11740D2B0BD86D
:10321400DFE803F00D071C070A160D0D160A071C3C
:10322400070D5369013B53615DF8044B70475369C3
:103234005DF8044B01335361704743F00403E0E746
:1032440053695DF8044B023B5361704753695DF861
:10325400044B023353617047137C03F003030029CA
:10326400D1D043F00403CEE7C83C0020214BDA68F8
:10327400D2E90010D3680968006810B41842946851
:1032840001EA04012ED0137C03F00303D9B943F0FF
:1032940008039908013B11740D2B0BD8DFE803F0E8
:1032A4000D071C070A160D0D160A071C070D536996
:1032B400013B53615DF8044B704753695DF8044B5F
:1032C40001335361704743F00403E0E753695DF849
:1032D400044B023B5361704753695DF8044B02335E
:1032E40053617047137C03F003030029D1D043F0EA
:1032F4000403CEE7C83C0020214B1A69D2E9001030
:10330400D3680968006810B41842946801EA04019B
:103314002ED0137C03F00303D9B943F008039908B2
:10332400013B11740D2B0BD8DFE803F00D071C07CC
:103334000A160D0D160A071C070D5369013B53614C
:103344005DF8044B704753695DF8044B01335361D6
:10335400704743F00403E0E753695DF8044B023B14
:103364005361704753695DF8044B023353617047EE
:10337400137C03F003030029D1D043F00403CEE708
:10338400C83C0020214B5A69D2E90010D36809686F
:10339400006810B41842946801EA04012ED0137C2A
:1033A40003F00303D9B943F008039908013B1174EE
:1033B4000D2B0BD8DFE803F00D071C070A160D0DC3
:1033C400160A071C070D5369013B53615DF8044B52
:1033D400704753695DF8044B01335361704743F000
:1033E4000403E0E753695DF8044B023B5361704703
:1033F40053695DF8044B023353617047137C03F047
:1034040003030029D1D043F00403CEE7C83C0020D5
:10341400214B9A69D2E90010D3680968006810B496
:103424001842946801EA04012ED0137C03F00303CC
:10343400D9B943F008039908013B11740D2B0BD83B
:10344400DFE803F00D071C070A160D0D160A071C0A
:10345400070D5369013B53615DF8044B7047536991
:103464005DF8044B01335361704743F00403E0E714
:1034740053695DF8044B023B5361704753695DF82F
:10348400044B023353617047137C03F00303002998
:10349400D1D043F00403CEE7C83C0020214BDA69C5
:1034A400D2E90010D3680968006810B4184294681F
:1034B40001EA04012ED0137C03F00303D9B943F0CD
:1034C40008039908013B11740D2B0BD8DFE803F0B6
:1034D4000D071C070A160D0D160A071C070D536964
:1034E400013B53615DF8044B704753695DF8044B2D
:1034F40001335361704743F00403E0E753695DF817
:10350400044B023B5361704753695DF8044B02332B
:1035140053617047137C03F003030029D1D043F0B7
:103524000403CEE7C83C0020214B1A6AD2E90010FC
:10353400D3680968006810B41842946801EA040169
:103544002ED0137C03F00303D9B943F00803990880
:10355400013B11740D2B0BD8DFE803F00D071C079A
:103564000A160D0D160A071C070D5369013B53611A
:103574005DF8044B704753695DF8044B01335361A4
:10358400704743F00403E0E753695DF8044B023BE2
:103594005361704753695DF8044B023353617047BC
:1035A400137C03F003030029D1D043F00403CEE7D6
:1035B400C83C0020214B5A6AD2E90010D36809683C
:1035C400006810B41842946801EA04012ED0137CF8
:1035D40003F00303D9B943F008039908013B1174BC
:1035E4000D2B0BD8DFE803F00D071C070A160D0D91
:1035F400160A071C070D5369013B53615DF8044B20
:10360400704753695DF8044B01335361704743F0CD
:103614000403E0E753695DF8044B023B53617047D0
:1036240053695DF8044B023353617047137C03F014
:1036340003030029D1D043F00403CEE7C83C0020A3
:10364400214B9A6AD2E90010D3680968006810B463
:103654001842946801EA04012ED0137C03F003039A
:10366400D9B943F008039908013B11740D2B0BD809
:10367400DFE803F00D071C070A160D0D160A071CD8
:10368400070D5369013B53615DF8044B704753695F
:103694005DF8044B01335361704743F00403E0E7E2
:1036A40053695DF8044B023B5361704753695DF8FD
:1036B400044B023353617047137C03F00303002966
:1036C400D1D043F00403CEE7C83C0020214BDA6A92
:1036D400D2E90010D3680968006810B418429468ED
:1036E40001EA04012ED0137C03F00303D9B943F09B
:1036F40008039908013B11740D2B0BD8DFE803F084
:103704000D071C070A160D0D160A071C070D536931
:10371400013B53615DF8044B704753695DF8044BFA
:1037240001335361704743F00403E0E753695DF8E4
:10373400044B023B5361704753695DF8044B0233F9
:1037440053617047137C03F003030029D1D043F085
:103754000403CEE7C83C0020214B1A6BD2E90010C9
:10376400D3680968006810B41842946801EA040137
:103774002ED0137C03F00303D9B943F0080399084E
:10378400013B11740D2B0BD8DFE803F00D071C0768
:103794000A160D0D160A071C070D5369013B5361E8
:1037A4005DF8044B704753695DF8044B0133536172
:1037B400704743F00403E0E753695DF8044B023BB0
:1037C4005361704753695DF8044B0233536170478A
:1037D400137C03F003030029D1D043F00403CEE7A4
:1037E400C83C0020214B5A6BD2E90010D368096809
:1037F400006810B41842946801EA04012ED0137CC6
:1038040003F00303D9B943F008039908013B117489
:103814000D2B0BD8DFE803F00D071C070A160D0D5E
:10382400160A071C070D5369013B53615DF8044BED
:10383400704753695DF8044B01335361704743F09B
:103844000403E0E753695DF8044B023B536170479E
:1038540053695DF8044B023353617047137C03F0E2
:1038640003030029D1D043F00403CEE7C83C002071
:10387400214B9A6BD2E90010D3680968006810B430
:103884001842946801EA04012ED0137C03F0030368
:10389400D9B943F008039908013B11740D2B0BD8D7
:1038A400DFE803F00D071C070A160D0D160A071CA6
:1038B400070D5369013B53615DF8044B704753692D
:1038C4005DF8044B01335361704743F00403E0E7B0
:1038D40053695DF8044B023B5361704753695DF8CB
:1038E400044B023353617047137C03F00303002934
:1038F400D1D043F00403CEE7C83C0020214BDA6B5F
:10390400D2E90010D3680968006810B418429468BA
:1039140001EA04012ED0137C03F00303D9B943F068
:1039240008039908013B11740D2B0BD8DFE803F051
:103934000D071C070A160D0D160A071C070D5369FF
:10394400013B53615DF8044B704753695DF8044BC8
:1039540001335361704743F00403E0E753695DF8B2
:10396400044B023B5361704753695DF8044B0233C7
:1039740053617047137C03F003030029D1D043F053
:103984000403CEE7C83C0020214B1A6CD2E9001096
:10399400D3680968006810B41842946801EA040105
:1039A4002ED0137C03F00303D9B943F0080399081C
:1039B400013B11740D2B0BD8DFE803F00D071C0736
:1039C4000A160D0D160A071C070D5369013B5361B6
:1039D4005DF8044B704753695DF8044B0133536140
:1039E400704743F00403E0E753695DF8044B023B7E
:1039F4005361704753695DF8044B02335361704758
:103A0400137C03F003030029D1D043F00403CEE771
:103A1400C83C0020214B5A6CD2E90010D3680968D5
:103A2400006810B41842946801EA04012ED0137C93
:103A340003F00303D9B943F008039908013B117457
:103A44000D2B0BD8DFE803F00D071C070A160D0D2C
:103A5400160A071C070D5369013B53615DF8044BBB
:103A6400704753695DF8044B01335361704743F069
:103A74000403E0E753695DF8044B023B536170476C
:103A840053695DF8044B023353617047137C03F0B0
:103A940003030029D1D043F00403CEE7C83C00203F
:103AA400214B9A6CD2E90010D3680968006810B4FD
:103AB4001842946801EA04012ED0137C03F0030336
:103AC400D9B943F008039908013B11740D2B0BD8A5
:103AD400DFE803F00D071C070A160D0D160A071C74
:103AE400070D5369013B53615DF8044B70475369FB
:103AF4005DF8044B01335361704743F00403E0E77E
:103B040053695DF8044B023B5361704753695DF898
:103B1400044B023353617047137C03F00303002901
:103B2400D1D043F00403CEE7C83C0020214BDA6C2B
:103B3400D2E90010D3680968006810B41842946888
:103B440001EA04012ED0137C03F00303D9B943F036
:103B540008039908013B11740D2B0BD8DFE803F01F
:103B64000D071C070A160D0D160A071C070D5369CD
:103B7400013B53615DF8044B704753695DF8044B96
:103B840001335361704743F00403E0E753695DF880
:103B9400044B023B5361704753695DF8044B023395
:103BA40053617047137C03F003030029D1D043F021
:103BB4000403CEE7C83C0020214B1A6DD2E9001063
:103BC400D3680968006810B41842946801EA0401D3
:103BD4002ED0137C03F00303D9B943F008039908EA
:103BE400013B11740D2B0BD8DFE803F00D071C0704
:103BF4000A160D0D160A071C070D5369013B536184
:103C04005DF8044B704753695DF8044B013353610D
:103C1400704743F00403E0E753695DF8044B023B4B
:103C24005361704753695DF8044B02335361704725
:103C3400137C03F003030029D1D043F00403CEE73F
:103C4400C83C0020214B5A6DD2E90010D3680968A2
:103C5400006810B41842946801EA04012ED0137C61
:103C640003F00303D9B943F008039908013B117425
:103C74000D2B0BD8DFE803F00D071C070A160D0DFA
:103C8400160A071C070D5369013B53615DF8044B89
:103C9400704753695DF8044B01335361704743F037
:103CA4000403E0E753695DF8044B023B536170473A
:103CB40053695DF8044B023353617047137C03F07E
:103CC40003030029D1D043F00403CEE7C83C00200D
:103CD400214B9A6DD2E90010D3680968006810B4CA
:103CE4001842946801EA04012ED0137C03F0030304
:103CF400D9B943F008039908013B11740D2B0BD873
:103D0400DFE803F00D071C070A160D0D160A071C41
:103D1400070D5369013B53615DF8044B70475369C8
:103D24005DF8044B01335361704743F00403E0E74B
:103D340053695DF8044B023B5361704753695DF866
:103D4400044B023353617047137C03F003030029CF
:103D5400D1D043F00403CEE7C83C0020214BDA6DF8
:103D6400D2E90010D3680968006810B41842946856
:103D740001EA04012ED0137C03F00303D9B943F004
:103D840008039908013B11740D2B0BD8DFE803F0ED
:103D94000D071C070A160D0D160A071C070D53699B
:103DA400013B53615DF8044B704753695DF8044B64
:103DB40001335361704743F00403E0E753695DF84E
:103DC400044B023B5361704753695DF8044B023363
:103DD40053617047137C03F003030029D1D043F0EF
:103DE4000403CEE7C83C0020214B1A6ED2E9001030
:103DF400D3680968006810B41842946801EA0401A1
:103E04002ED0137C03F00303D9B943F008039908B7
:103E1400013B11740D2B0BD8DFE803F00D071C07D1
:103E24000A160D0D160A071C070D5369013B536151
:103E34005DF8044B704753695DF8044B01335361DB
:103E4400704743F00403E0E753695DF8044B023B19
:103E54005361704753695DF8044B023353617047F3
:103E6400137C03F003030029D1D043F00403CEE70D
:103E7400C83C0020214B5A6ED2E90010D36809686F
:103E8400006810B41842946801EA04012ED0137C2F
:103E940003F00303D9B943F008039908013B1174F3
:103EA4000D2B0BD8DFE803F00D071C070A160D0DC8
:103EB400160A071C070D5369013B53615DF8044B57
:103EC400704753695DF8044B01335361704743F005
:103ED4000403E0E753695DF8044B023B5361704708
:103EE40053695DF8044B023353617047137C03F04C
:103EF40003030029D1D043F00403CEE7C83C0020DB
:103F0400214B9A6ED2E90010D3680968006810B496
:103F14001842946801EA04012ED0137C03F00303D1
:103F2400D9B943F008039908013B11740D2B0BD840
:103F3400DFE803F00D071C070A160D0D160A071C0F
:103F4400070D5369013B53615DF8044B7047536996
:103F54005DF8044B01335361704743F00403E0E719
:103F640053695DF8044B023B5361704753695DF834
:103F7400044B023353617047137C03F0030300299D
:103F8400D1D043F00403CEE7C83C0020214BDA6EC5
:103F9400D2E90010D3680968006810B41842946824
:103FA40001EA04012ED0137C03F00303D9B943F0D2
:103FB40008039908013B11740D2B0BD8DFE803F0BB
:103FC4000D071C070A160D0D160A071C070D536969
:103FD400013B53615DF8044B704753695DF8044B32
:103FE40001335361704743F00403E0E753695DF81C
:103FF400044B023B5361704753695DF8044B023331
:1040040053617047137C03F003030029D1D043F0BC
:104014000403CEE7C83C0020214B1A6FD2E90010FC
:10402400D3680968006810B41842946801EA04016E
:104034002ED0137C03F00303D9B943F00803990885
:10404400013B11740D2B0BD8DFE803F00D071C079F
:104054000A160D0D160A071C070D5369013B53611F
:104064005DF8044B704753695DF8044B01335361A9
:10407400704743F00403E0E753695DF8044B023BE7
:104084005361704753695DF8044B023353617047C1
:10409400137C03F003030029D1D043F00403CEE7DB
:1040A400C83C0020214B5A6FD2E90010D36809683C
:1040B400006810B41842946801EA04012ED0137CFD
:1040C40003F00303D9B943F008039908013B1174C1
:1040D4000D2B0BD8DFE803F00D071C070A160D0D96
:1040E400160A071C070D5369013B53615DF8044B25
:1040F400704753695DF8044B01335361704743F0D3
:104104000403E0E753695DF8044B023B53617047D5
:1041140053695DF8044B023353617047137C03F019
:1041240003030029D1D043F00403CEE7C83C0020A8
:10413400214B9A6FD2E90010D3680968006810B463
:104144001842946801EA04012ED0137C03F003039F
:10415400D9B943F008039908013B11740D2B0BD80E
:10416400DFE803F00D071C070A160D0D160A071CDD
:10417400070D5369013B53615DF8044B7047536964
:104184005DF8044B01335361704743F00403E0E7E7
:1041940053695DF8044B023B5361704753695DF802
:1041A400044B023353617047137C03F0030300296B
:1041B400D1D043F00403CEE7C83C0020214BDA6F92
:1041C400D2E90010D3680968006810B418429468F2
:1041D40001EA04012ED0137C03F00303D9B943F0A0
:1041E40008039908013B11740D2B0BD8DFE803F089
:1041F4000D071C070A160D0D160A071C070D536937
:10420400013B53615DF8044B704753695DF8044BFF
:1042140001335361704743F00403E0E753695DF8E9
:10422400044B023B5361704753695DF8044B0233FE
:1042340053617047137C03F003030029D1D043F08A
:104244000403CEE7C83C0020224BD3F88020D2E9F7
:104254000010D3680968006810B41842946801EA31
:1042640004012ED0137C03F00303D9B943F00803EF
:104274009908013B11740D2B0BD8DFE803F00D07EF
:104284001C070A160D0D160A071C070D5369013B7E
:1042940053615DF8044B704753695DF8044B013377
:1042A4005361704743F00403E0E753695DF8044B3E
:1042B400023B5361704753695DF8044B0233536109
:1042C4007047137C03F003030029D1D043F00403A7
:1042D400CEE700BFC83C0020F0B504461E460023CC
:1042E40083B0083015466360C4F8B8300D4B9DF8B0
:1042F400207023600C4B0191C4F8B430009001F09D
:104304002DFF0A4B019900982360094A094B01F0DB
:10431400CFF900983B463246294601F06FF8204613
:1043240003B0F0BD680500204D3F0000500500209B
:104334000D320000AD3000000B4610B5362800F2F7
:104344009782DFE810F08C02820279027002670221
:104354005E0255024C0243023A02310228021F0255
:10436400BF01B601AD01A4019B0192018901800145
:1043740077016E0165015C0153014A014101380175
:104384002F0126011D0113010901FF00F500EB00B7
:10439400E100D700CD00C300B900AF00A5009B0029
:1043A400910087007D00730069005F0055004B0099
:1043B40041003700C84C0422C8493620C4F8D8301C
:1043C40002F0B8FB012010BDC34C0422C4493520BF
:1043D400C4F8D43002F0AEFB012010BDBE4C042260
:1043E400C0493420C4F8D03002F0A4FB012010BD31
:1043F400B94C0422BC493320C4F8CC3002F09AFBF7
:10440400012010BDB44C0422B8493220C4F8C8308D
:1044140002F090FB012010BDAF4C0422B4493120BE
:10442400C4F8C43002F086FB012010BDAA4C04225B
:10443400B0493020C4F8C03002F07CFB012010BD2C
:10444400A54C0422AC492F20C4F8BC3002F072FB06
:10445400012010BDA04C0422A8492E20C4F8B83075
:1044640002F068FB012010BD9B4C0422A4492D20BE
:10447400C4F8B43002F05EFB012010BD964C042257
:10448400A0492C20C4F8B03002F054FB012010BD28
:10449400914C04229C492B20C4F8AC3002F04AFB16
:1044A400012010BD8C4C042298492A20C4F8A8305D
:1044B40002F040FB012010BD874C042294492920BE
:1044C400C4F8A43002F036FB012010BD824C042253
:1044D40090492820C4F8A03002F02CFB012010BD24
:1044E4007D4C04228C492720C4F89C3002F022FB26
:1044F400012010BD784C042288492620C4F8983045
:1045040002F018FB012010BD734C042284492520BD
:10451400C4F8943002F00EFB012010BD6E4C04224E
:1045240080492420C4F8903002F004FB012010BD1F
:10453400694C04227C492320C4F88C3002F0FAFA36
:10454400012010BD644C042278492220C4F888302C
:1045540002F0F0FA012010BD5F4C042274492120BE
:10456400C4F8843002F0E6FA012010BD5A4C04224B
:1045740070492020C4F8803002F0DCFA012010BD1C
:10458400554C04226C491F20E36702F0D3FA012042
:1045940010BD514C042269491E20A36702F0CAFAD7
:1045A400012010BD4C4C042265491D20636702F0B4
:1045B400C1FA012010BD484C042262491C20236723
:1045C40002F0B8FA012010BD434C04225E491B20BE
:1045D400E36602F0AFFA012010BD3F4C04225B49B0
:1045E4001A20A36602F0A6FA012010BD3A4C042258
:1045F40057491920636602F09DFA012010BD364C1C
:10460400042254491820236602F094FA012010BDB4
:10461400314C042250491720E36502F08BFA012043
:1046240010BD2D4C04224D491620A36502F082FAD8
:10463400012010BD284C042249491520636502F06D
:1046440079FA012010BD244C042246491420236524
:1046540002F070FA012010BD1F4C042242491320BD
:10466400E36402F067FA012010BD1B4C04223F49A9
:104674001220A36402F05EFA012010BD164C04223D
:104684003B491120636402F055FA012010BD124C1D
:10469400042238491020236402F04CFA012010BD92
:1046A4000D4C042234490F20E36302F043FA012045
:1046B40010BD094C042231490E20A36302F03AFADA
:1046C400012010BD044C04222D490D20636302F027
:1046D40031FA012010BD00BFC83C0020C505000010
:1046E40035050000A5040000150400008503000042
:1046F400F5020000C50E0000350E0000A50D0000F7
:10470400150D0000850C0000F50B0000650B000082
:10471400D50A0000450A0000B5090000250900007B
:10472400950800000508000075070000E506000074
:104734005506000049200000BD1F0000311F000085
:10474400A51E0000191E00008D1D0000011D0000A3
:10475400751C0000E91B00005D1B0000D11A00005D
:10476400451A0000B91900002D190000A118000015
:104774001518000089170000FD16000071160000CE
:10478400E51500003B4C04223B490C20236302F056
:10479400D1F9012010BD374C042238490B20E362C3
:1047A40002F0C8F9012010BD324C042234490A2019
:1047B400A36202F0BFF9012010BD2E4C042231493E
:1047C4000920636202F0B6F9012010BD294C0422CD
:1047D4002D490820236202F0ADF9012010BD254CBB
:1047E40004222A490720E36102F0A4F9012010BD44
:1047F400204C042226490620A36102F09BF90120E3
:1048040010BD1C4C042223490520636102F092F977
:10481400012010BD0422174C1F491046236102F0E9
:1048240089F9012010BD134C04221C490320E360C4
:1048340002F080F9012010BD0E4C04221849022018
:10484400A36002F077F9012010BD04460948042250
:1048540014494360012002F06DF9204610BD054C57
:10486400042211490020236002F064F9012010BDE4
:10487400002010BDC83C002059150000CD140000D4
:1048840041140000B5130000291300009D1200001C
:104894001112000085110000F91000006D100000D5
:1048A400E10F0000550F0000690200002DE9F041FE
:1048B4000F46164604460221384602F001F9022149
:1048C400304602F0FDF8224B3A0122483101DFF86C
:1048D4008CC053F8028003EB0712C4F80080D2F8AE
:1048E4000CE003EB061259580023C4F808E0D26820
:1048F4006361194BE26045681B686160ACFB033C73
:104904004FF4FA634FEA9C4C03FB0CFC43685B1BBB
:104914009C45FBD8D8F80030384609681EEA030FD6
:1049240014BF012300230A42214618BF43F00203A7
:104934002374FFF701FD0346214630462376FFF733
:10494400FBFC227E0346204613442376BDE8F08117
:1049540020080020001000E08C2A002083DE1B4386
:1049640010B5044682B01A4800F02CFE19491848C4
:1049740001F0E4F9184B0F220021154801F0CEF99B
:10498400142080231E2200900021114800F0A6FD6F
:104994006FF4FF73C4EB4460104A14240021C00177
:1049A4000094184482FB0032C317002802440848CC
:1049B400C3EB62234FF01E02B4BF803381339BB23A
:1049C40000F066FD024802B0BDE8104000F006BEEB
:1049D400F04300208410002084030020030820807A
:1049E40070B5064688B0184815460C4600F0EAFD36
:1049F4001649154801F0A2F9154A164B0021124830
:104A0400002E18BF13460F2201F088F92B46124AD4
:104A14001E21684605F0C2F86B46232200210A488D
:104A240001F07CF923460D4A1E21684605F0B6F8CC
:104A34006B4637220021044801F070F9024800F067
:104A4400CDFD08B070BD00BF14450020B80C002097
:104A5400900300209C030020A4030020B003002046
:104A640070B5194C88B00346164620460D4601938E
:104A740000F0A8FD2046154901F060F9019B1422BD
:104A84000021204601F04AF92046114901F056F967
:104A9400334628220021204601F040F920460D49E2
:104AA40001F04CF92B460C4A142103A805F076F8C2
:104AB40003AB40222821204601F030F9204600F0C3
:104AC4008DFD08B070BD00BF144500208410002087
:104AD400B80C00209C1D0020B80300202DE9F043F1
:104AE400414D83B0414C40F2EE28414FDFF81C9118
:104AF4002E6803F01FFA23785BB33B78DB0728D5D5
:104B04002B68D9F800209B1A0E2B22D9394C272068
:104B1400002101F0D5FF04F13405092001E054F827
:104B2400040FC0B2022101F0CBFFAC42F7D1324CEA
:104B3400182004F11005C0B20121019001F0C0FF5A
:104B44000121019801F080FFAC420FD054F8040F0A
:104B5400F1E72B6822789B1B2AB1B3F5FA6FD5D8FD
:104B640003F0E8F9C5E74345FAD9CFE77823234DA5
:104B7400234C85F82C3005F1080001F0F7FC05F111
:104B8400080000F085FD002105F1080001F0F8FCA3
:104B94004FF40070FFF7E4FE7A2304F1080084F870
:104BA4002C3001F0E3FC04F1080000F071FD002159
:104BB40004F1080001F0E4FC04F1080000F002FD37
:104BC40004F108000F4901F0B9F80F4B28220A211B
:104BD40004F1080001F0A2F804F1080003B0BDE8F4
:104BE400F04300F0FBBC00BF104600203F4600200D
:104BF4003E460020BC0300200C050020E8430020B2
:104C04000C45002074150020580C0020204600207C
:104C14002DE9F04F272083B001F0F2FC9D490B6889
:104C2400C31A002BB8BF5B42082B00F3D9809A4B00
:104C34001A7E012A40F2DC8072B6596962B6974B3B
:104C44001A7E012A40F27B8172B65C6962B6944B8B
:104C54001A7E012A40F2608172B65D6962B6914B98
:104C64001A7E012A40F2EC8072B65E6962B68E4BFF
:104C74001A7E012A40F2D08072B65F6962B68B4B0D
:104C84001A7E012A40F2F08072B6D3F8148062B61C
:104C9400874B1A688A4204D0864A87481960FFF70E
:104CA400DFFE864B1A68A24205D02146844A854815
:104CB4001C60FFF7D5FE844B1A68AA4205D0834ACC
:104CC400294683481D60FFF7CBFE824B1A68B24227
:104CD40005D0814A314681481E60FFF7C1FE804BF2
:104CE4001A68BA4205D07F4A39467F481F60FFF7E9
:104CF400B7FE7E4B1A68424506D07D4A41467D4840
:104D0400C3F80080FFF7ACFE7B4B4FF0000A7B4AF0
:104D14007B4F9B46DFF8FC8100927A4B00261820DB
:104D24005FFA8AF51C460193F1B20136C0B2491B01
:104D340018BF012101F088FE052E02D054F8040F9B
:104D4400F2E7714BD8F804101A68704BA3FB0232D7
:104D5400920C02EB8202D200D8F804305B1A9A4219
:104D6400FAD86B4DD946009E092401E055F8044F4A
:104D7400E0B201F093FE2246B0FA80F419F8013F44
:104D84006409A342204602D03168FFF729FEAF42EE
:104D940006F1040689F80040E8D1009B0AF1010AF3
:104DA4000BF10E0B3833BAF1050F0093B5D1DDF8D2
:104DB40004901820012109F11004C0B201F044FE4E
:104DC4004C4507D059F8040F0121C0B201F03CFE54
:104DD4004C45F7D10A2003B0BDE8F04F01F0E0BD27
:104DE4000860FFF7BDFD2C4B1A7E012A3FF624AF65
:104DF40072B6D3E90024D3E9021012682468114082
:104E0400044200F007811A7C02F0030209B142F067
:104E1400040242F0080203E172B658681A68126884
:104E2400076898681040DA68174200F077811A7CA6
:104E340002F0030208B142F0040242F0080273E1F6
:104E440072B658681A681268066898681040DA687A
:104E5400164200F037811A7C02F0030208B142F0D6
:104E6400040242F0080233E172B658681A68126804
:104E7400D0F800C098681040DA681CEA020F00F00D
:104E8400F5801A7C02F0030208B142F0040242F0F9
:104E94000802F1E0602E00201C430020384300206B
:104EA40054430020704300208C430020A84300207A
:104EB40044360020900B00209C0B00204836002034
:104EC400A80B0020B40B00204C360020C00B00209F
:104ED400CC0B002050360020D80B0020E40B00201F
:104EE40054360020F00B0020FC0B00205836002024
:104EF400080C0020140C0020BB440020F403002004
:104F0400F00300200C0500208C2A002083DE1B43C4
:104F1400BC030020001000E072B61A68986812689A
:104F240010405A681568DA68154247D01A7C02F0B6
:104F3400030208B142F0040242F0080244E072B6EF
:104F4400D3E900249868126824681040DA6814428F
:104F540008D01A7C02F0030208B142F0040242F0C5
:104F6400080205E01A7C02F0030208B142F00402D0
:104F74009008013A5C6918740D2A3FF667AE01A0E7
:104F840050F822F0C72F0000C12F0000DF2F0000CF
:104F9400C12F00004D2A0000D92F0000C72F0000A8
:104FA400C72F0000D92F00004D2A0000C12F000098
:104FB400DF2F0000C12F0000C72F00001A7C02F071
:104FC400030208B142F004029008013A5D691874C2
:104FD4000D2A3FF643AE01A050F822F0BB2F00008B
:104FE400B52F0000D32F0000B52F00005D2A00006C
:104FF400CD2F0000BB2F0000BB2F0000CD2F0000E1
:105004005D2A0000B52F0000D32F0000B52F00004B
:10501400BB2F00001A7C02F0030209B142F0040223
:105024009108013A19740D2A3FF607AE01A151F80F
:1050340022F000BFAD2F0000A52F000005300000B6
:10504400A52F00003B2A0000FD2F0000AD2F00001B
:10505400AD2F0000FD2F00003B2A0000A52F00000B
:1050640005300000A52F0000AD2F00001A7C02F0CF
:10507400030208B142F004029008013A18740D2AA0
:105084003FF603AE01A050F822F000BF992F0000B4
:105094008D2F0000F12F00008D2F00008B2A0000BF
:1050A400E52F0000992F0000992F0000E52F000044
:1050B4008B2A00008D2F0000F12F00008D2F00009F
:1050C400992F00001A7C02F0030208B142F0040296
:1050D4009008013A5E6918740D2A3FF6C7AD01A025
:1050E40050F822F0872F0000812F00001F300000AD
:1050F400812F00006D2A000019300000872F000066
:10510400872F0000193000006D2A0000812F000055
:105114001F300000812F0000872F00001A7C02F04E
:10512400030208B142F004029008013A5F6918745E
:105134000D2A3FF6A3AD01A050F822F07B2F00000A
:10514400752F000013300000752F00007D2A000029
:105154000D3000007B2F00007B2F00000D3000007D
:105164007D2A0000752F000013300000752F000009
:105174007B2F0000013F5F6180E501375F617DE5C2
:10518400013E5E6172E501365E616FE55A6902F1C6
:10519400FF38C3F814807AE55A6902F10108C3F8AC
:1051A400148074E559690139596147E55969013138
:1051B400596143E5013D5D6150E501355D614DE5B2
:1051C400013C5C6142E501345C613FE5023D5D61A7
:1051D40044E502355D6141E5023C5C6136E502343B
:1051E4005C6133E55A69A2F10208C3F814804EE504
:1051F4005A6902F10208C3F8148048E55969023972
:1052040059611BE559690231596117E5023F5F6134
:1052140034E502375F6131E5023E5E6126E5023620
:105224005E6123E530B5062283B005211648FFF7F9
:105234003DFB20221F211548FFF738FB1B221A21B2
:105244001348FFF733FB1E221D211248FF24FFF7EA
:105254002DFB114D0B220A211048FFF727FB1522C5
:1052640014210F48FFF722FB2346224629460094C7
:105274000C48FFF731F823462246294600940A4891
:10528400FFF72AF803B030BD1C430020544300202C
:105294007043002038430020AC0C00208C430020D5
:1052A400A8430020E84300200C450020A1F1280376
:1052B40030B5054683B0252B28D8DFE803F05265C6
:1052C4002424136B27272727272727272727272740
:1052D400272727272727272727272727272727275A
:1052E40027273F3F4249003A424B434C18BF012213
:1052F40048681B68A4FB03439B0C03FB02F24B6846
:105304001B1A9A42FBD8012003B030BD3F295AD959
:1053140001F03F03E81890F82C00FF28F3D011F0B7
:10532400300F5CD0102B5ED001F0B8FB0346012097
:10533400003B18BF012385F82730E5E70192002AD6
:1053440043D101F03F0401212C4494F82C0001F0D6
:10535400B7FB019A94F82C00114601F075FB01206B
:10536400D2E72B35012405E00F2A26D801F0A8FB4B
:105374000134E4B215F8013F621E0121FF2B1846E7
:10538400F2D1162CF4D1BEE7104601F009FB01203E
:1053940003B030BD174C032A1549174B48682268DF
:1053A40034BF05240224A3FB0232920C04FB02F254
:1053B4004B681B1A9A42FBD8A5E7022101F080FB37
:1053C400162CD5D19FE700209EE701F03F03022170
:1053D4002B4493F82C0001F073FB012094E7114651
:1053E40001F032FB8FE7019002F0A4FD01989BE7E6
:1053F400001000E08C2A002083DE1B4380F8371065
:1054040080F8382080F83930704700BFA1F1140CBF
:1054140038B50446BCF10C0F08D8DFE80CF01507CA
:105424000709220F0707070707070D00002038BDEB
:105434001946154803F078F8012038BD01211248B7
:1054440003F034F9012038BD83692BB903680F4A8E
:105454005B7B02FB03F383610B4809F07DFB0120B6
:1054640038BD094D8169284603F008FA94F82420D0
:10547400012302F0FE02184685F8303185F8A52094
:1054840085F82F3138BD00BFA02A0020A086010076
:105494002DE9F04383B01F46CB188046BDF8289011
:1054A40014469BB20E4602EB0905ADB2009500F01E
:1054B400FDFC80B1B9F1000F0DD04FF00009224678
:1054C40001343B463146A4B24046CDF8009000F08A
:1054D40077FCA542F3D103B0BDE8F0832DE9F04396
:1054E40085B0CF181E468046BDF83090BFB20D4639
:1054F400144602EB09039BB200933B4600F0D6FC32
:1055040010B905B0BDE8F083002322462946404681
:105514000093334600F054FCB9F1010FF1D9A9F11D
:105524000209621C1FFA89F492B24CB90024334672
:10553400294640460C9405B0BDE8F04300F040BC59
:105544004FF00109234629464046CDF800900392C6
:1055540000F036FC791E039A2346404689B2CDF802
:10556400009000F02DFC039A224492B2DEE700BFC3
:1055740003682DE9F043064683B090F85090002468
:1055840090F8515093F8118000E033681B7C2A4650
:10559400F76C002104FB03FC0134304601354FEA6B
:1055A400CC0CE4B21FFA8CFCEDB2BC44CDF800C0C4
:1055B40000F0C0FFA14501D9A845E6D803B0BDE875
:1055C400F08300BF0268002190F85030127CC06C58
:1055D40012FB03F2D20003F011BD00BF10B5044664
:1055E400FFF7C6FF2046BDE8104000F0D3BF00BF60
:1055F400836C10B5044680F851101B689847A36C5F
:1056040020465B68BDE81040184700BF10B590F80D
:10561400AB3004462BB920460021BDE81040FFF70B
:10562400E7BF0268002190F85030127CC06C12FB76
:1056340003F2D20003F0E2FC20460021BDE8104052
:10564400FFF7D6BF38B50446FFF792FF94F85150E0
:1056540094F8503022681D44517CEDB2A94211D90E
:1056640094F8AB1029B920462946FFF7C1FF012061
:1056740038BD127C0021E06C12FB03F2D20003F06F
:10568400BDFCF0E7204600F085FF002038BD00BFD8
:1056940010B50446FFF7BAFF2046FFF7D3FF0028F2
:1056A400FAD101462046BDE81040FFF7A1BF00BF74
:1056B40030B51C4685B0134605460A4A00940C468C
:1056C400094900F079FF0DF10F0000F091FF074B3D
:1056D40001469DF80F202846009400F00FFD05B008
:1056E40030BD00BFD140000089420000093D0000E8
:1056F4004218435C507800EB032080B2704700BF2F
:105704000020704738B50D46044611212B782846F1
:1057140023706B786370AB78A370EB78E3702B79AC
:1057240023716B796371AB79A371EB79E3712B7A94
:1057340023726B7A6372AB7AA372EB7AE3722B7B7C
:1057440023736B7B6373AB7BA373EB7BE3732B7C64
:105754002374FFF7CDFF0346132128466382FFF726
:10576400C7FF034615212846A382FFF7C1FFE08245
:1057740038BD00BF012B05D0022B09D02BB1411A33
:1057840088B27047014488B27047024490B27047AF
:10579400821A90B2704700BF012B05D0022B09D0AA
:1057A4002BB1024490B27047821A90B27047014400
:1057B40088B27047411A88B2704700BF2DE9F04F94
:1057C40087B004460E4690F8807090F881B0059238
:1057D4000FE094F88510002949D0F319AE420BF17B
:1057E400010BA3EB0A033AD35FFA8BFB002703F008
:1057F400FF0694F882A04FFA87FC31464FFA8BF9E2
:10580400AAEB070594F888304A46B4F87C00EDB258
:10581400B4F87E80CDF80CC0AE4228BF294604916E
:105824006146FFF7B9FF02460399404690464A464F
:10583400FFF7A0FF059902460029CAD0009341460C
:1058440094F886C02046049B0BF1010B84F8AAC08F
:1058540000F0B6FAF319AE42A3EB0A03C4D23E44F5
:1058640084F8819084F8806007B0BDE8F08F0093DD
:10587400414694F88700049B84F8AA00204600F06F
:105884009FFAAAE72DE9F04F044690F89000002310
:1058940085B00728A16784F884300D7840F24E81E2
:1058A400A0F108030131DBB2A1674FF0FF3294F895
:1058B400916084F88430824025EA0205F2186DB2C2
:1058C400D2B284F88250072A087840FA03F000F232
:1058D4002781C3B24FF0FF3084F88420B04094F89D
:1058E400926023EA000394F8AA0084F88600B0FAD0
:1058F40080F04FFA83F9400984F8839084F8870094
:10590400B0180F78C0B21741072800F2F6805FFA8A
:1059140087FE94F893C084F884000CEB00020F789F
:10592400D2B20741072A00F2D880F8B294F894A0C2
:1059340084F884200AEB020891F800B05FFA88F832
:105944004BFA02FBB8F1070F00F2B8805FFA8BF74D
:105954004FF0FF3284F884800121002D0AEB020805
:1059640002FA0AFA5FFA88F827EA0A0701FA08F83D
:10597400A7EB08074FFA87FB40F39C800CEB020867
:1059840002FA0CFCB240013E20EA0C0C5FFA88F0EB
:105994002EEA020EF6B201FA00F2B4F87C00B1402D
:1059A400D21A94F88830AEEB0101A2EB0C0249B292
:1059B40052B202910392FFF7EFFEA4F87C00064670
:1059C400B4F87E00DDE90212FFF7D4FE0246A4F823
:1059D4007E00032B00F2EC80DFE803F0B2B8C102D2
:1059E400C5F10103411C034489B29AB206EB0903D1
:1059F4009BB200912046314600F058FA002859D055
:105A0400002294F884304FF0FF38A4F8802094F8F2
:105A14008E50A16FEA180878D2B21841072A00F212
:105A2400B880C6B294F88F0008FA05F584F884208B
:105A3400831891F800C026EA0506DBB24CFA02FC92
:105A4400072B00F299805FFA8CF508FA00F084F8CD
:105A5400843025EA0005314620460022FFF7AEFED9
:105A6400012229462046FFF7A9FE94F88420A76F57
:105A7400531CC2F108003978A2F1070EDBB207F11A
:105A8400010A1141C0B2072BCAB207D9C4F878A0E1
:105A94005FFA8EF37A7882400A43D2B2D20784F84E
:105AA4008430D8D494F981204A45B0DB94F8863008
:105AB40084F8AA30584605B0BDE8F08F4F1CC2F1F7
:105AC4000802A8F10808D2B2A7674F785FFA88F8ED
:105AD400974047EA0B07FFB23AE701F10108C0F12A
:105AE4000800083AC0B2C4F878804978D2B201FA02
:105AF40000F041463843C0B218E701F1010CC2F18D
:105B040008020838D2B2C4F878C091F801E0C0B2F3
:105B140061460EFA02FE4EEA070E5FFA8EFEF8E6C2
:105B24004F1CC3F10803083ADBB2A7674978D2B225
:105B340001FA03F339460343DBB2CBE60346B4E68A
:105B4400731900EB09019BB289B252E74119C9F1FB
:105B54000100731C304489B29BB286B249E7C5F197
:105B64000101C9F10100731C314410449BB28EB28F
:105B7400511C82B289B23CE74D1CC2F10802083BB9
:105B8400D2B2A5674D78DBB2954045EA0C05EDB27B
:105B94005BE701F1010CC3F10803083ADBB2C4F876
:105BA40078C04E78D2B261469E400643F6B239E7D9
:105BB400014633461DE700BF70B5FF29046F0D464B
:105BC40004F117040ED8602930D9B0F8A0301C4471
:105BD400607830B12378AB422ED00444607800283A
:105BE400F8D170BDB0F8A2301C44264600213046DE
:105BF400FFF77EFD0346022130461C44FFF778FD83
:105C0400854206F10406F1D8208840BA80B2002803
:105C1400E7D0854208D0A3781C44208840BA80B2DB
:105C24000028DED08542F6D1E01C70BD4029D5D9CC
:105C3400B0F89E301C44D1E7A01C70BD70B50E4670
:105C4400194690F8883082B004461546032B09D8CB
:105C5400DFE803F0251E0217436F01919847281AC5
:105C6400019985B22046A4F87C60A4F87E50FFF721
:105C7400A3FF20B101462046FFF704FE80B202B024
:105C840070BD436F019198473044019986B2E9E7AA
:105C9400436F01919847301A019986B2E2E7436F46
:105CA400019198472844019985B2DBE72DE9F04733
:105CB4004FF000094FF6FF784FF6FE7A04460F4680
:105CC40016465D1E00F04AFA15F8011F2046636867
:105CD4009847844632463946C445204663461AD01E
:105CE400D445F1D0FFF7AAFF94F88830032B05D8E8
:105CF400DFE803F00B080E02361AB6B248441FFA66
:105D040080F9E1E70644B6B2F8E70744BFB2F5E725
:105D14003F1ABFB2F2E74846BDE8F08710B4034C1F
:105D240044605DF8044BFFF7C1BF00BF4D3F000066
:105D3400014B4367704700BF01350000026F8A4280
:105D440022D010B504468C302167FFF7DBFC236FAB
:105D5400CBB194F9991094F99A2094F8A53084F869
:105D6400A61084F8A72073B1012B0ED094F99800E3
:105D740094F9963003449942B8BF84F8A63082421D
:105D840001DD84F8A70010BD704794F99B3094F9A5
:105D94009C008B42B8BF0B46824284F8A630F0DCEC
:105DA40010BD00BF10B49DF804400194B0F85640F3
:105DB400121B446C92B2A4465DF8044B604700BFCA
:105DC40030B590F8A4409DF80CC004B103B930BDBF
:105DD400012B05D0BCF1020F2CD0BCF1030F5CD019
:105DE4001CF0010F29D0B0F860408C42EFD8B0F815
:105DF40062408C42EBD91344B0F86450B0F866406A
:105E04001FFA83FC944505D294424AD904F1FF3C1D
:105E14001FFA8CFC9442DAD96545D8D2AA4238BF1D
:105E24002A46644594BFC2EB0403C2EB0C0301246D
:105E34009BB22BE00131C91A89B2B0F86440944294
:105E4400C5D8B0F866409442C1D90B44B0F860504C
:105E5400B0F862E01FFA83FC8C4505D28E4522D946
:105E64000EF1FF3C1FFA8CFC6545B0D28E458CBF09
:105E740000240124002CAAD1A94238BF2946E645B2
:105E840094BFC1EB0E03C1EB0C039BB20394846C6F
:105E9400A468A446BDE8304060470132D21A92B2E9
:105EA400A1E72A46B6E72946DEE700BF10B5B0F8F9
:105EB4006640BDF808C09442B0F864E016D9E645DF
:105EC40004D3624594BF002201229AB1B0F8624023
:105ED400B0F860208C420FD9994294BF002101216F
:105EE4009A422CBF084641F0010010BDE64501D29C
:105EF4006245EBD8002010BD994294BF00200120D8
:105F04009A4228BF002010BD70B54FF0010C02F07A
:105F1400070490F8AA500CFA04FC9DF81060012DB7
:105F24005FFA8CFC46D94FF0000E056822F0070298
:105F34002D7C02FB05F54FF6F8722A401144C26C21
:105F440011449EB95A1E92B201320A440B784EEAA9
:105F540003038CEA030301F8013B9142F6D170BDBF
:105F64005FFA86FE5FFA85FC002BF8D00A780134CC
:105F7400013B4FEA4E064EEA020214F007049BB2BC
:105F84008CEA02024FEA4C050A70E9D190F8AA2083
:105F9400B0F85250012A294404D94FF0010C002BC7
:105FA400E4D1DCE79646DFD04FF0010CE646002B47
:105FB400DCD1D4E7E646B8D14FF0000CB5E700BF1A
:105FC400B0F85EC0ACEB0202B0F85CC010B4ACEB4D
:105FD40001019DF8044092B289B244B9013AC91A48
:105FE40092B289B201945DF8044BFFF7DBBE012C39
:105FF400F8D10139D21A019489B25DF8044B92B2F6
:10600400FFF7D0BE10B5B0F86E1082B0B0F86A30A9
:106014000446B0F86C200091B0F86810FFF746FF12
:1060240018B984F8A40002B010BDB4F86830012196
:10603400B4F8602084F8A4109A42B4F8622038BFFF
:10604400A4F86030B4F86A309A42B4F8642088BF87
:10605400A4F86230B4F86C309A42B4F8662038BFC1
:10606400A4F86430B4F86E309A4288BFA4F866305D
:1060740002B010BDB0F85E300021B0F85A20B0F87C
:106084005CC09342A0F86010A0F862C0A0F864104D
:1060940002D39A1AA0F86420B0F858209B1AA0F8EA
:1060A4006630FFF7AFBF00BF90F850C001684FEAF9
:1060B400CC0310B5A0F854300A7CD200A0F85220CA
:1060C40090F85120D4009444A0F8564091F811E07F
:1060D400F44506DD92B2AEEB020E4FEACE0E1FFA85
:1060E4008EF3B1F814C02344CA8AA0F85840A0F82B
:1060F4005A30A0F85CC0A0F85E2010BD38B54364E7
:1061040040F2011300250446A0F8AA30049B80F84D
:106114005020C16480F8515080F8855080F8A55013
:1061240080F8A950836405671B689847A26C064BE6
:106134002046C4E91A33536898472046FFF7F8FD10
:1061440084F8885038BD00BF0000FFFF19B10A2948
:1061540001D088B270474FF6FF707047002380F873
:106164002630704710B40C461346172122460469A2
:10617400A4465DF8044B604700B583B00B4601218B
:106184000DF107028DF80730FFF7ECFF03B05DF85F
:1061940004FB00BF10B4002304691821A4461A4666
:1061A4005DF8044B604700BF10B400230469192153
:1061B400A4461A465DF8044B604700BF30B5044658
:1061C40083B001920091FFF7E5FF40212046FFF7DD
:1061D400D3FF172120462569DDE90023A84720467F
:1061E40003B0BDE83040FFF7DFBF00BF10B4C468A0
:1061F4000A4600231521A4465DF8044B604700BFFE
:1062040010B4C4680A4600231621A4465DF8044B62
:10621400604700BF10B40C46134617212246C468D9
:10622400A4465DF8044B604710B40023C4681821E9
:10623400A4461A465DF8044B604700BF10B400231F
:10624400C4681921A4461A465DF8044B604700BF90
:1062540070B5054682B00C4694F800C0BCF1190F25
:1062640013D8BCF1170F2BD80DF107024FF0010121
:10627400284617D1637802348DF80730FFF7CAFF38
:1062840094F800C0BCF1190FEBD9BCF1FE0F4FF02C
:106294002901284609D1627802348DF8072000F0DC
:1062A40083F9D9E7BCF1140F01D802B070BD62784C
:1062B40061460023EE688DF807200234B047CBE72F
:1062C400002361462846EE681A460134B047C3E706
:1062D40014392DE9F041064614461D4605295CD8BB
:1062E400DFE801F00C1C4C2F46032D4F3B78002BAC
:1062F4004AD1002301203B70BDE8F08190F824309E
:10630400FF2B02D1782380F8243037692B462246AC
:106314003046BC461421BDE8F0416047204F3B782D
:10632400C3BB3046FFF736FF00213046FFF724FF9A
:1063340021463046FFF720FF012318463B70BDE895
:10634400F081174F3B783BB121E0183C18213046CF
:10635400E4B20D44FFF732FF182C2A46F5D8304634
:106364002146FFF72BFF002301203B70BDE8F0819D
:106374000B4B002201201A70BDE8F0811146FFF793
:10638400FBFE0120BDE8F081FFF70EFFB1E7FFF748
:106394000BFFE1E7FFF708FFC3E70020ACE700BF0E
:1063A400374600200B39F8B5064615461C46042925
:1063B40052D8DFE801F0415147320300FFF734FFC0
:1063C400637996F822704021304607EBC307FFF744
:1063D4000DFF304607F0FF07390941F01001FFF7C0
:1063E40005FF07F00F013046FFF70AFFA179304699
:1063F40041F0B001FFF704FF217930462268C9005B
:1064040001F0F801FFF706FF6A1E12F0FF05F3D151
:106414003046FFF713FF0120F8BDFFF705FF812188
:106424003046FFF7E3FE29463046FFF7E9FE3046E3
:10643400FFF704FF0120F8BDCAB90F49FFF708FFB1
:106444000120F8BD52B90D49FFF702FF336801205E
:106454009B7C86F82230F8BD0020F8BD0849FFF780
:10646400F7FE33680120DB7C86F82230F8BD05494D
:10647400FFF7EEFE0120F8BD9828002050280020E8
:1064840058280020A028002038B505460C46FFF700
:1064940089FF98B9092C0BD00A2C00D038BD2846A6
:1064A40000F018F828460649FFF7D2FE012038BD4F
:1064B4002846044900F008F8012038BD012038BD01
:1064C40060280020A828002001608B7C80F82230FE
:1064D400704700BF38B500232821456904461A4691
:1064E400A8470023142120461A46E568A8472046F9
:1064F40001224B2100F058F82368204629211A79FB
:1065040000F052F8204600224B2100F04DF8236899
:10651400204629211A7900F047F8204601224B2110
:1065240000F042F82368204629215A79BDE8384012
:1065340000F03AB830B583B084688DF80510194678
:10654400069D6B468DF8062001228DF804100F215C
:106554000095A04703B030BD10B40023846809211E
:10656400A4461A465DF8044B604700BF10B40023EC
:1065740084680A21A4461A465DF8044B604700BFAC
:1065840010B484680A4600230B21A4465DF8044B2A
:10659400604700BF10B4002384681021A4461A4643
:1065A4005DF8044B604700BF10B444690023A4465F
:1065B4005DF8044B604700BF03614FF0FF33C362D3
:1065C400036343638363C363A0F840300023C0E9DB
:1065D40002120360FF2280F8233080F826308361A2
:1065E400009B80F8242080F828204361FFF7B4BF83
:1065F4000346082201481A70704700BF1C3F002060
:106604002A2849D8F8B5254F04463B78E3B9244BEA
:106614001B5DFF2B29D0234A02EB041291680A6800
:1066240002F44050B0F5805F30D01C061FD41E4CDD
:106634002360236AD80704D401F07CFC236AD907B9
:10664400FAD5194B586AF8BD174D184E01E001F000
:1066540071FCAB6C1B06FAD4B36C13F08003F6D157
:106664003B700F4B1B5DFF2BD5D10020F8BD0F4CA9
:1066740003F07F032360236ADA0704D401F05AFC91
:10668400236ADB07FAD5094B586AF8BD22F4805215
:106694001C060A60EBD4CAE7002070473546002088
:1066A4002C0C00202008002000400C4000800C40EE
:1066B400A249A34B88422DE9F047A24C5E699A692E
:1066C400D4F80C801BD9A04B984240F20281C31A23
:1066D4009E491B0AA1FB031340F22761DB0903EB6C
:1066E400830303EB830303F2E2438B4228BF0B468D
:1066F400A3F54877964BA3FB0737FF0804E0954FB3
:10670400B8428CBF0E2706278D4908F01F09D1F81F
:106714008030B94543F0C003C1F880300CD228F072
:106724001F08A1F5F82148EA0708C1F80C800B6896
:10673400002BFCDA08F01F0916F0007324D18649F7
:106744000C698649A14300F0EA8082F48051344602
:106754004FF4805514F0605F04D026F060561E4359
:10676400774B5E6111F4405F07D022F440527449C4
:106774002A438A618B6C1A07FCD446F00076704A6F
:106784005661936C9B06FCD4754CA04200F2CE80FB
:106794004FF0010C0146634603FB011203F1010EA5
:1067A4000CF10105A24218D8BEF1080F4FF0010305
:1067B40040F08D80BCF1040F00F291800A18A242CF
:1067C40000F2A48005FB00F1AC4603F1010E03FBCB
:1067D40001120CF10105A242E6D90CF1FF318C0241
:1067E40086EA81215F4810445F4A90427FD9DFF8EE
:1067F400A4A16C225D48584DB0FBFEF0D5F800E032
:10680400B0FBFCF0DFF890C10EEA0C0CD44509D0C3
:1068140042F400524FF4805CC5F800C02A602A6834
:10682400002AFCDA464A156905F007059D4203D0A3
:106834001361936CDD03FCD411F4E05F09D026F4FA
:10684400E05604F4E0543E4A26435661936C99079B
:10685400FCD44749474A014491423CD8464BC909B4
:10686400A3FB0131090B4B1E1B0286EA030212F43F
:10687400407F06D026F4407603F44073304A334315
:1068840053612F4A536923F000735361936C9B0641
:10689400FCD43A4B4F45A3FB00234FF0FF324FEAA1
:1068A4009343B0FBF1F1B2FBF3F3354A1060354A80
:1068B4001160354A136008D228F01F08214A48EABB
:1068C4000707D7601368002BFCDABDE8F08773462E
:1068D40062E7122718E74FF440730421C5E70CF16F
:1068E400FF31204807238C02104486EA8121274A7D
:1068F400DFF8A8A0A2FB0020020D2548362A38BFE5
:10690400362202FB00F042EA0A0A74E74FEA8C24BA
:10691400002386EA8C214FF0010EAC4662E71D4647
:1069240086F0C05411464FF0C05313E700244FF0D3
:10693400010C024631462346E64653E700A4781F7D
:1069440000C00F40000008400046C32323B24C009F
:106954001F85EB5100366E0100800D4040300080F1
:10696400FFB19F26808D5B00FF7EF64D00643F4D96
:106974007FD1F0087F17B42C9F10E50083DE1B4302
:106984008C2A0020882A002008460020819F5E1659
:10699400001BB7006C2000807F3001800020008045
:1069A40000B970472DE9F84F01218146214C224D51
:1069B400224E54E8003F2A68306844E80013002B54
:1069C400F7D11F494B684FF47A7BDFF878A01B1A84
:1069D40001270BFB02F8DAF80020A3FB02325A4528
:1069E40094BF9044D84454E8003F2A68306844E88F
:1069F4000073002BF7D14B68DAF800C01B1A0BFBAD
:106A040002F2A3FB0C3CBCF57A7F94BF624402F50E
:106A14007A72A2EB0802B2F57A7F06D3B9F10109C2
:106A240008F57A78DFD1BDE8F88F01F083FA0449DC
:106A3400D9E700BF14460020104600200C46002071
:106A4400001000E008460020362816D80201104B3A
:106A540003EB00109B5810B4C2685C68144205D064
:106A640061B95DF8044BC3F888207047836851B15D
:106A7400084A5DF8044B1A60704770475DF8044B90
:106A8400C3F884207047044A5DF8044B1A607047C9
:106A94002008002038F001003830010036280BD8D7
:106AA400064B020103EB00109A58C36892681A421D
:106AB40014BF0120002070470020704720080020E8
:106AC400362829D8164B0201012903EB00109A58E5
:106AD40010B45368C4680ED004290CD023EA04030C
:106AE40053608368A9B1022917D003290CBF0D4A4A
:106AF4000D4A1A6007E0234301295360836808D0D4
:106B040040F638021A60436815225DF8044B1A6097
:106B1400704738221A60F6E77047044A1A60F2E7B1
:106B240020080020383001003800010038F001004E
:106B3400704700BF362858D80001F0B4344C354DA6
:106B44002358AB4256D049D8B3F1844F4BD0A5F566
:106B54008045AB4240D1304D2044304E304CC4F8D7
:106B6400B462D0E901C4C0684FF0E0264FF000578A
:106B7400042AC6F810712FD85E6926EA00065E6101
:106B84004FF00506CCF80060266846F4803626608F
:106B94005C6824EA00045C60224C54F8224090FAB9
:106BA400A0F2B2FA82F245F822106FEA00011DD079
:106BB400DD690F2A01EA0501D9611DDC52000325B4
:106BC400D968944005FA02F221EA02022243DA600B
:106BD40098615A6902435A61F0BC7047124DAB4246
:106BE400FAD1124DB8E7124DB6E77047DA6902439D
:106BF400DA61EDE70F4DAFE7103A0325196952004A
:106C0400944005FA02F221EA020222431A61DFE704
:106C14002008002000800042883400202100000069
:106C2400003800207003002000C000428835002096
:106C3400083400200835002008B5FDF74FFFFDF7A4
