:0200000460009A
:100000004643464200000156000000000103030081
:1000100000000000000000000000000000000000E0
:1000200000000000000000000000000000000000D0
:1000300000000000000000000000000000000000C0
:1000400000000000010408000000000000000000A3
:100050000000800000000000000000000000000020
:100060000000000000000000000000000000000090
:100070000000000000000000000000000000000080
:10008000EB04180A063204260000000000000000FD
:10009000050404240000000000000000000000002F
:1000A0000000000000000000000000000000000050
:1000B0000604000000000000000000000000000036
:1000C0000000000000000000000000000000000030
:1000D00020041808000000000000000000000000DC
:1000E0000000000000000000000000000000000010
:1000F0000000000000000000000000000000000000
:10010000D8041808000000000000000000000000F3
:100110000204180804200000000000000000000095
:1001200000000000000000000000000000000000CF
:10013000600400000000000000000000000000005B
:1001400000000000000000000000000000000000AF
:10015000000000000000000000000000000000009F
:10016000000000000000000000000000000000008F
:10017000000000000000000000000000000000007F
:10018000000000000000000000000000000000006F
:10019000000000000000000000000000000000005F
:1001A000000000000000000000000000000000004F
:1001B000000000000000000000000000000000003F
:1001C000000100000010000001000000000000001D
:1001D000000001000000000000000000000000001E
:1001E000000000000000000000000000000000000F
:1001F00000000000000000000000000000000000FF
:10020000FFFFFFFFFFFFFFFFFFFFFFFFFFFFFFFFFE
:10021000FFFFFFFFFFFFFFFFFFFFFFFFFFFFFFFFEE
:10100000D10020434D1600600000000000000000E9
:101010002010006000100060005801600000000017
:10102000000000600064010000000000FFFFFFFFFF
:10103000FFFFFFFFFFFFFFFFFFFFFFFFFFFFFFFFC0
:10104000FFFFFFFFFFFFFFFFFFFFFFFFFFFFFFFFB0
:10105000FFFFFFFFFFFFFFFFFFFFFFFFFFFFFFFFA0
:10106000FFFFFFFFFFFFFFFFFFFFFFFFFFFFFFFF90
:10140000814205D051F8043B40F8043B8242F9D8B0
:10141000704700BF044A05494FF0000342F8043BFF
:101420009142FBD8704700BFC0320020C04200206C
:101430002DE98848BFF34F8F00BF00BF00BF00BF3A
:1014400000F042F9684B0822C3F8542100BF00BFE6
:1014500000BF00BF00BF00BF00BF00BF00BF00BF94
:1014600000BF00BF00BF00BF00BF00BF5F4A6049B0
:101470006048FFF7C5FF604A60496148FFF7C0FF59
:10148000604CFFF7C7FF4FF470004FF0E0210023DE
:101490005D4AC1F8880D44F823200133B02BFAD1FE
:1014A0005A4B80215A4A03F8011B9342FBD14FF05B
:1014B000E0254D4E4FF08039DFF884B1DFF884A18C
:1014C0004FF0FF31C5F8084D0027C6F80491C6F863
:1014D00000B1C6F8F490C6F8F0A0D5F8243DDFF8C6
:1014E000688143F4E0234B4AC5F8243DD8F81C300A
:1014F00023F07F0343F04003C8F81C30D8F82430B1
:1015000023F07F0343F04003C8F824309166D1668E
:101510001167516700F0E0F83F4B4049A363404B2F
:10152000E36363236B610323AF612B613D4BC5F81C
:10153000203DD5F8FC3D43F08073C5F8FC3D3A4BA7
:101540001A6842F001021A605B680B6000F00EFB43
:10155000C6F804913548C6F800B1C6F8F490C6F84C
:10156000F0A000F049FDD8F86C10314B314A41F43D
:101570004051C8F86C101F60C3F80871C3F81871A7
:10158000C3F82871C3F83871936BDB0708D442F6AF
:101590001563294951651365936B43F00103936308
:1015A000244A264C936843F00113936000F01CF921
:1015B00000F060F800F008FD00F006FB00F086F88F
:1015C0002368132BFCD900F097FB2368B3F5967FB3
:1015D000FBD300F07FF800F07BF800F0FDFC00F09A
:1015E000F7FC30BFFDE700BF00800D40380101006F
:1015F0001022006000000000C03200204C23016077
:101600000000002000300020CD7E000000E400E05B
:10161000A0E400E000C00A40F9920000504200201F
:10162000FD92000000002020001000E00046C323CF
:101630000040084000400D400000C05654420020C9
:101640001B1018200C0D111300C00F40054B4FF458
:101650002A01054A05485A641864054A9963954663
:10166000FFF7E6FE00C00A40BFAAAAAA07002000B2
:1016700000800620104BA020104AD96E41F4403162
:1016800010B4D96640F23764D96E41F44071D9661E
:1016900054649064936C1B06FCD4094A40F2376191
:1016A000A02351649364936C13F08003FBD1054A2B
:1016B00013705DF8044B704700C00F4000400C40B1
:1016C00000800C407A420020704700BF704700BF86
:1016D000704700BF00BF704710B44FF0E0230021F7
:1016E00010243148C3F8941DC3F89C4D1124C3F84D
:1016F000A00D2E48C3F89C4D1224C3F8A00D2C4811
:10170000C3F89C4D2B4AC3F8A00D2B4C42F0150298
:101710002A48C3F89C4DC3F8A00D294C2948C3F8AA
:101720009C4DC3F8A00D284CC3F89C2D2748284A8F
:10173000C3F8A04DC3F89C0DC3F8A02D02F5A0225C
:10174000244C0C322448C3F89C4DC3F8A02D234AE6
:10175000C3F89C0D224CC3F8A02D02F14062C3F8DF
:101760009C4D2048C3F8A02D0C32C3F89C0DC3F843
:10177000A02D00BF00BF00BF00BF00BF0122C3F803
:10178000942DBFF34F8FBFF36F8FC3F8501FBFF37C
:101790004F8FBFF36F8FD3F8142D5DF8044B42F4D5
:1017A0004032C3F8142D70473F0000102500080791
:1017B00009001000C0420020130020002100020791
:1017C0001400002025000813090000101600202036
:1017D00027000B1317000040180000602F000B07B4
:1017E000190000701A000080F0B5B84B1822B84EEE
:1017F0000120B84F83B0C3F85C62B749C3F8607288
:10180000B64DC3F86462A6F53046B54CC3F86862BD
:10181000C3F86C52C3F87052C3F87452C3F87852CC
:1018200048F20C75DA661A675A679A67DA67C3F87E
:101830008020C3F88420C3F88820C1F82C03A94A6B
:10184000C1F83003C1F83403C1F83803C1F83C03D0
:10185000C1F85003A169A44B0A40A448A44913430A
:10186000A44AA361D4F8843043F00C03C4F8843054
:101870004FF0FF34036843F00203036003682B401A
:101880004FF400551A439C4B026044608A689B4C9D
:1018900013409B4A43F000538360C36823F07803EE
:1018A000C360036A134023430362036A1340954AEB
:1018B0002343954C43628262C2620022D1F8B83061
:1018C00023F03F0343F00103C0F8B830D1F8BC3037
:1018D0008E4923F03F0343F00103C0F8BC3040F2CF
:1018E0000563026105660467C0F880304566446799
:1018F0000224C0F88430036823F00203036081618E
:10190000834B8449C46143F8042B8B42FBD1774A53
:10191000136843F001031360136813F00103FBD154
:101920007A48022140F2F564906140F29940D16119
:1019300040F26641C2F8004242F20144C2F810127D
:101940007549C2F82002C2F8301240F2354173489E
:10195000C2F83442C2F84012714CC2F8500242F24E
:1019600001207049C2F854120121C2F86042C2F845
:1019700064025E48C2F8A030C2F8A430C2F8B010C9
:101980004369DA07FCD5012300244FF4803257491C
:101990004361C0F8A040C0F8A420C0F8B0304B6943
:1019A000DB07FCD5012300244FF400304F4A4B6184
:1019B000C1F8A040C1F8A400C1F8B0305369DF07F6
:1019C000FCD501230024584848495361C2F8A0407F
:1019D000C2F8A400C2F8B0304B69DE07FCD5D1F8DC
:1019E000003145F60D5221209BB24861934265D1EA
:1019F00000244FF4802201233C48C1F8A040C1F8E4
:101A0000A420C1F8B0304369DD07FCD501234FF4B1
:101A100000040021354A4361C0F8A040C0F8A4107A
:101A2000C0F8B0305369DC07FCD501234FF4000443
:101A30004FF480302D495361C2F8A040C2F8A40091
:101A4000C2F8B0304B69D807FCD501234FF400042D
:101A50004FF40030254A4B61C1F8A040C1F8A40002
:101A6000C1F8B0305369D907FCD501234FF4000405
:101A70002D481E495361C2F8A040C2F8A400C2F824
:101A8000B0304B69DA07FCD5D1F8003145F60D527C
:101A900021209BB24861934250D008254FF40004A6
:101AA00022490020224B234A009015705A1A012324
:101AB0002148224400F084FA03B0F0BD1E4B0022FE
:101AC000C3E90022C3E9022203B0F0BD00801F4039
:101AD000F9B00100F910010000841F40F970010005
:101AE00000C00F40FFFCFF1F000300A000402A4081
:101AF00000802A401200FFFFFF37F70040000080FF
:101B000000FFF07CFF000F8363000200F05AF05AE0
:101B100000422A4000432A409F041830EB06180A6E
:101B20003806180A0632012604000300000000707F
:101B3000000000707B420020344000204FF400047D
:101B40004FF4802201230848C1F8A040C1F8A42026
:101B5000C1F8B0304369DB07FCD5012310254FF0F5
:101B6000807443619CE700BF00402A40F0B4154AEE
:101B700040274FF480314FF480564FF400554FF416
:101B8000404443F24200136913F0020F0ED113F4E4
:101B9000005F0FD013F4805F0ED0002BF3DA13F444
:101BA000803F0BD15B060BD5F0BC7047946151614F
:101BB0009061E8E75561E6E75661E4E79161E2E7A5
:101BC0005761E0E700800D403F4A03203F49F3EEB4
:101BD000095AD2F880304FF0000C9FED3D6A23F097
:101BE00001039FED3C5A30B4C2F88030C2F8900037
:101BF000D1F8E010384DCBB2384C39482B6007EEA5
:101C0000903A0B0DC1F30B21F8EEE77A06EE903A0D
:101C100007EE101A334BB8EEC77A2160F8EEE66A89
:101C2000314937EEC66A37EEC55A76EEC76A77EEA7
:101C3000E57A26EE266AC3ED006A25EE265AD2F82A
:101C4000803067EEA64AC0ED007AC6EE275A2748D4
:101C500085EE276AC4EEA76A75EE875AFCEEE55A50
:101C600036EE076A15EE904ABCEEC66A43EA0453A4
:101C700076EE877AC2F8803016EE103AD2F89041AC
:101C8000FCEEE77A01EA0341214317EE903AC2F8ED
:101C90009011C3F30B03D2F890110B431449C2F80F
:101CA0009031D2F8803043F00203C2F88030114BFB
:101CB00080F840C0C1F840314FF0E023012230BC31
:101CC000C3F80821704700BF00810D4000441F4049
:101CD0000000AA420000B442404200203C420020E2
:101CE00044420020484200200000FF0F00E400E0D2
:101CF00000300020B9800000314B40F6617210B511
:101D0000C3F8202140F2044400F06EF92D4A2E4918
:101D1000D2F880302D4843F00303C2F880302C4BBA
:101D2000C1F8604102681A4203D1D1F8A8319A077C
:101D30001BD0254A4FF00041244B5963D2F8403163
:101D400043F00203C2F84031D2F840319B07FBD484
:101D50004FF400304FF0E0211C4B4FF00042C1F82F
:101D60008C0219209A6300F03BF9184A4FF080402A
:101D7000154C002190630A20164B11604FF420721D
:101D8000C4F8A801184600F033F94FF48002034666
:101D90004FF4810040F243111860C4F858311A64BE
:101DA0000D4B0E4AC4F84811C3F804224FF0E0224C
:101DB0004FF400310123C2F80C11C4F8403110BDBA
:101DC00000800D4000C00F4000002E4000900D40EC
:101DD000001C1E000000002000300020A182000036
:101DE00008B50E4B1B6E9B0700D4FBBE72B60C4BA6
:101DF00000200C4AC3F8400103F160430A49A3F5EF
:101E00005F2311649D46BFF34F8F4FF400130748C3
:101E1000074ADB6902609B68984700BF00441F4087
:101E200000002E4000C00A40030020000080202057
:101E3000000012EB43690A4A03EB011010B4037A65
:101E4000084C02EB0313D3E901321460C2681A6034
:101E500003690BB142691A605DF8044B704700BF1B
:101E6000E40A002061F801004369027E03EB0212DC
:101E700092F808C08C451CD01A7AFF2A19D09142DA
:101E800010B5044616D01A7EFF2A06D00121D3E9E8
:101E9000002312681A4201D1217610BD064B05229B
:101EA000204603EB0C135B681A60FFF7C3FF217633
:101EB000F3E770470021EAE7E40A002043690A4A91
:101EC00003EB011010B490F82830084C02EB031318
:101ED000D3E901321460C26A1A60036B0BB1426B22
:101EE0001A605DF8044B7047E40A002061F80100B5
:101EF0004369427E03EB021292F828C08C451ED043
:101F000093F82820FF2A1AD0914210B5044617D022
:101F100093F83820FF2A06D00121D3E90023126864
:101F20001A4201D1617610BD064B0522204603EB13
:101F30000C135B681A60FFF7C1FF6176F3E7704727
:101F40000021EAE7E40A0020164942698B6B23F47A
:101F50007C0343F4802370B58B630446124DD2E9B1
:101F600000130A681A4303690A60022200211A61F9
:101F70000E4A19619A6401225A629D624FF430350B
:101F8000DD624FF001159E6C1E6519629D651A6138
:101F9000017EFFF74FFF617E2046BDE87040FFF7EE
:101FA0008DBF00BF00C00F40B80B05053B37281997
:101FB000F8B500BFF8BC08BC9E46704700000000A2
:101FC0005FF800F08D9300005FF800F0D97D00000D
:101FD0005FF800F0B17B00005FF800F0DDA50000C5
:101FE0005FF800F0C57800005FF800F0118A00008B
:101FF0005FF800F02DA500005FF800F0D575000037
:10200000050100002901000051350000C137000022
:082010003D3A00000947000001
:10201800160355005300420020005300650072006B
:10202800690061006C000000180354006500650039
:102038006E00730079006400750069006E006F001F
:102048000403090409026200030100C032080B00FE
:102058000202020100090400000102020100052435
:1020680000100105240101010424020605240600CC
:10207800010705820310001009040100020A00008C
:10208800000705030240000007058402400000091C
:1020980004020002FF6AFF000705810240000107F1
:1020A800050102400001000009026200030100C0AE
:1020B80032080B00020202010009040000010202BA
:1020C8000100052400100105240101010424020671
:1020D8000524060001070582031000050904010014
:1020E800020A000000070503020002000705840237
:1020F8000002000904020002FF6AC7000705810206
:102108000002010705010200020100000A060002A0
:10211800EF0201400100000080C00F4000000003F2
:102128001900000010000000E8841F4001000000B2
:10213800FF000000FF000000000000000000000099
:102148001800000010000000E4841F400100000097
:10215800FF000000FF000000000000000000000079
:102168001F000000D997000070C00F40000C00004D
:102178001100000011000000E0841F400200000070
:102188002C00000012000000E0841F400100000045
:102198001000000011000000DC841F400200000055
:1021A8002D00000012000000DC841F400100000028
:1021B8001E000000CD97000070C00F40C000000056
:1021C8001200000013000000D0841F40010000002E
:1021D800FF000000FF0000000000000000000000F9
:1021E8001300000013000000CC841F400100000011
:1021F800FF000000FF0000000000000000000000D9
:082208001C000000C19700005A
:1022100000000000000000000000000000000000BE
:1022200000000000000000000000000000000000AE
:10223000F8B54FF084439D695A6915400DD0254F7C
:1022400001269D6195FAA5F4B4FA84F457F8243078
:1022500006FA04F49847A543F4D11F4B9D695A69C7
:1022600015400DD01D4F01269D6195FAA5F4B4FAD5
:1022700084F457F8243006FA04F49847A543F4D1BF
:10228000174B9D695A6915400DD0164F01269D6167
:1022900095FAA5F4B4FA84F457F8243006FA04F455
:1022A0009847A543F4D1104B9D695A6915400DD04C
:1022B0000E4F01269D6195FAA5F4B4FA84F457F8FF
:1022C000243006FA04F49847A543F4D1BFF34F8FA6
:1022D000F8BD00BFFC2B0020004000427C2C0020F9
:1022E00000800042FC2C002000C000427C2D002019
:1022F0000548064B1B1AD90F01EBA301491002D068
:10230000034B03B118477047C0320020C032002091
:102310000000000008B5054B1BB105490548AFF3A7
:102320000080BDE80840FFF7E3BF00BF00000000E9
:10233000EC41002000640160044BFF204FF0FF31AE
:1023400000221860C3E90212704700BF88340020E1
:1023500000207047704700BF38B500F10805D0F87D
:10236000B4300446284698474FF6FD73984201D989
:10237000012038BD0346B4F8BA20B4F8B810284696
:1023800006F004F994F89030032BF1D8DFE803F05D
:10239000140E0802B4F8BA301B1AA4F8BA30E7E7F2
:1023A000B4F8B8301B1AA4F8B830E1E7B4F8BA3082
:1023B0001844A4F8BA00DBE7B4F8B8301844A4F81D
:1023C000B800D5E72DE9F047002A4ED004460D4667
:1023D0008F180026DFF89C9000F108084FF6FD7A70
:1023E00003E00120AF42064420D0236815F8011B0A
:1023F0001B684B4515D1D4F8B4304046984750453A
:10240000EFD80346B4F8BA20B4F8B810404606F046
:10241000BDF894F89030032BE3D8DFE803F01F18E1
:10242000110A20469847AF420644DED13046BDE847
:10243000F087B4F8BA301B1A0120A4F8BA30D1E7FB
:10244000B4F8B8301B1A0120A4F8B830CAE7B4F8C1
:10245000BA301844A4F8BA000120C3E7B4F8B83081
:102460001844A4F8B8000120BCE716463046BDE881
:10247000F08700BF4901000030B5134A044600252B
:10248000124B83B00830C4F8B430C4F8B85001908F
:10249000C4E9002506F00AFB0D4A019822600D4BA5
:1024A0000D4A0E4905F0BEFC019812231322FF21AC
:1024B00005F0A8FB00232046C4F8C850C4F8BC307F
:1024C000C4E9305503B030BDBC0500208D68000064
:1024D000A4050020A5580000055A0000100F002098
:1024E00000B5083083B0019006F0E8FC019805F0D3
:1024F00089FC0021019803B05DF804EB06F0E8BC0C
:102500002DE9F043274D2E682B689B1BB3F5FA6F1E
:102510002DED028B85B03FD200F10804224FDFED94
:10252000238A9FED238A20464FF0040805F004FC1F
:102530002049204606F0AAF81F4B282212212046E7
:1025400006F094F82B684FF4FA7E32229B1B002190
:102550002046CDF80080A7FB039C4FEA5C1C0EFBD5
:102560001C3307EE903AF8EEE77A87EEA87A67EE2A
:10257000087AFCEEE77ACDED037A9DF80C3005F091
:102580008BFB204605F0E4FB282007F0A3FA2B681C
:102590009B1BB3F5FA6FC6D305B0BDEC028BBDE84B
:1025A000F08300BF54420020D34D62100000FA4374
:1025B00000000043741600203C0500200B4601215A
:1025C00070B500F108060546002430462DED048B59
:1025D00008EE103A06F034F99FED1E6AF2EE0C6A2E
:1025E000B8EEC88A9FED1C7AF1EE008A9FED1B9A27
:1025F000F3EE049AC8EE067A9FED198AE7EEA68AF2
:10260000A7EE878A07EE904A95ED2F0AB8EEE77A93
:10261000C7EE297AA7EE880A09F02AFAF0EE497A7D
:10262000A1B201343046E0EE287AFDEEE77A17EEEB
:10263000903A9AB206F0E8F8802CE3D1D5ED2F7AE3
:102640009FED087A77EE877ABDEC048BC5ED2F7A83
:1026500070BD00BF00C07F44CDCC0C4000000042E4
:10266000CDCC4C3F0AD7A33D30B500F1080583B06F
:1026700004462846019105F05FFB01992046FFF7CB
:102680009DFFD4F8C0301BB1124A1268934205D89E
:10269000284603B0BDE8304005F05ABBC434284694
:1026A0000D4905F0F3FF2146284606F023F823469E
:1026B00000B22C22D0F1800048BF0130C0F34F019E
:1026C000284605F0D3FF284603B0BDE8304005F0AA
:1026D0003FBB00BF544200201C0F0020072210B552
:1026E0000446C43009F09EFC044B00221B6884F8A9
:1026F000CB2003F51673C4F8C03010BD544200203F
:102700000D490E4B30B40C680360A042D0E9013291
:1027100000D06BB10AB1536043684D68A84208BF4E
:102720004A6003B19A60A04208BF0B6030BC70479A
:10273000002AF0D1FAE700BF74350020F805002028
:10274000704700BF704700BF704700BF704700BFB1
:1027500004307047073070470430704706307047C8
:10276000043070470530704710B50446082107F063
:10277000C9FB204610BD00BF10B50446082107F074
:10278000C1FB204610BD00BF10B50446082107F06C
:10279000B9FB204610BD00BF042910B582B02ED869
:1027A0000D2A2CD8C1EBC10100EB41010A4492F87B
:1027B00044207BB190F88B007F23124C00F00F0176
:1027C00000091A40009041F08001206803F0AEFF3C
:1027D00002B010BD90F88BC002F07F0290F88C30F0
:1027E0000CF00F014FEA1C10064C03F07F03009021
:1027F00041F09001206803F099FF02B010BD03F092
:10280000CFFA00BF88350020042910B582B02ED839
:102810000D2A2CD8C1EBC10100EB41010A4492F80A
:1028200038207BB190F87F007F23124C00F00F011D
:1028300000091A40009041F08001206803F076FF03
:1028400002B010BD90F87FC002F07F0290F8803097
:102850000CF00F014FEA1C10064C03F07F030090B0
:1028600041F09001206803F061FF02B010BD03F059
:1028700097FA00BF88350020F8B500F12807054613
:1028800000F144063C4634F8020B022103F026FB1B
:10289000B442F8D11E3535F8020B002103F01EFBBF
:1028A000AF42F8D1F8BD00BF2DE9F04790F82430D1
:1028B00084B00646012B2ED972B6076A62B6F36A57
:1028C00096F82B20FF1A97FBF2F717B904B0BDE872
:1028D000F08796F92A50318D07FB05F5ADF8081001
:1028E000002D66DB56D0DFF8648198F80020564B47
:1028F0006FF00E09D3F800A00F2D2C46A8BF0F24AF
:102900004C45B8BF4C4663B2042A50D8DFE802F009
:102910004C48234F160072B6D0E90330D6E90521A2
:102920001B6800681A40084255D0337F03F0030348
:102930000AB143F0040343F0080352E0002BB8BF90
:102940005B42DBB29DF80820D10711D42D1B1ED0AD
:1029500098F80020D0E7DB11DBB21A195A4003F0D7
:10296000400302F03F0213439DF80820D107EDD544
:102970009DF809C0520850464FEA1C110CF00F0E8A
:1029800000914EF0B00103F0D1FE2D1BE0D1F36AAF
:1029900096F82B2002FB0733F36204B0BDE8F08702
:1029A00004F14003DBB2CDE704F07F03CAE7002364
:1029B000C8E7DFF8988098F80020042A97D103230D
:1029C00003A902A8ADF80C3003F0B8FF98F8002076
:1029D000ADF808008BE7337F03F003030AB143F03F
:1029E00004039A08013B376A32770D2B3FF666AF36
:1029F00001A252F823F000BF2708000021080000C0
:102A00003308000021080000AD0600002D0800007A
:102A100027080000270800002D080000AD06000070
:102A200021080000330800002108000027080000EA
:102A3000013F376242E7013737623FE7023F3762C3
:102A40003CE70237376239E78835002078420020BA
:102A50000D490E4B30B40C680360A042D0E901323E
:102A600000D06BB10AB1536043684D68A84208BFFB
:102A70004A6003B19A60A04208BF0B6030BC704747
:102A8000002AF0D1FAE700BF74350020F8050020D5
:102A90000D490E4B30B40C680360A042D0E90132FE
:102AA00000D06BB10AB1536043684D68A84208BFBB
:102AB0004A6003B19A60A04208BF0B6030BC704707
:102AC000002AF0D1FAE700BF74350020F805002095
:102AD0000D490E4B30B40C680360A042D0E90132BE
:102AE00000D06BB10AB1536043684D68A84208BF7B
:102AF0004A6003B19A60A04208BF0B6030BC7047C7
:102B0000002AF0D1FAE700BF74350020F805002054
:102B100030B40F4CA0F10C020E4B256840F80C3C71
:102B2000AA4250E9023100D07BB111B14B6050F89C
:102B3000083C6068824208BF616003B19960AA42A4
:102B400008BF2360104630BC70470029EED1F9E77A
:102B500074350020F80500200F4938B50446086890
:102B60000E4B84422360D4E9013200D08BB10AB10C
:102B7000536063684D68AC4208BF4A6003B19A6015
:102B8000844208BF0B6020460C2107F0BBF92046A9
:102B900038BD002AECD1F6E774350020F805002096
:102BA0000F4938B5044608680E4B84422360D4E9C7
:102BB000013200D08BB10AB1536063684D68AC42FA
:102BC00008BF4A6003B19A60844208BF0B60204688
:102BD000342107F097F9204638BD002AECD1F6E7FA
:102BE00074350020F80500200F4938B50446086800
:102BF0000E4B84422360D4E9013200D08BB10AB17C
:102C0000536063684D68AC4208BF4A6003B19A6084
:102C1000844208BF0B602046902107F073F92046DC
:102C200038BD002AECD1F6E774350020F805002005
:102C300038B50346104D114A2868A3F10C0443F837
:102C40000C2C844253E9022100D092B111B14A60A8
:102C500053F8082C6B689C4208BF696002B1916010
:102C6000844208BF2A602046902107F04BF9204695
:102C700038BD0029EBD1F6E774350020F8050020B7
:102C80000F4938B5044608680E4B84422360D4E9E6
:102C9000013200D08BB10AB1536063684D68AC4219
:102CA00008BF4A6003B19A60844208BF0B602046A7
:102CB000342107F027F9204638BD002AECD1F6E789
:102CC00074350020F8050020214B1A68D2E9001065
:102CD000D3680968006810B41842946801EA0401D6
:102CE0002ED0137C03F00303D9B943F008039908ED
:102CF000013B11740D2B0BD8DFE803F00D071C0707
:102D00000A160D0D160A071C070D5369013B536186
:102D10005DF8044B704753695DF8044B0133536110
:102D2000704743F00403E0E753695DF8044B023B4E
:102D30005361704753695DF8044B02335361704728
:102D4000137C03F003030029D1D043F00403CEE742
:102D5000F4360020214B5A68D2E90010D368096884
:102D6000006810B41842946801EA04012ED0137C64
:102D700003F00303D9B943F008039908013B117428
:102D80000D2B0BD8DFE803F00D071C070A160D0DFD
:102D9000160A071C070D5369013B53615DF8044B8C
:102DA000704753695DF8044B01335361704743F03A
:102DB0000403E0E753695DF8044B023B536170473D
:102DC00053695DF8044B023353617047137C03F081
:102DD00003030029D1D043F00403CEE7F4360020EA
:102DE000214B9A68D2E90010D3680968006810B4D2
:102DF0001842946801EA04012ED0137C03F0030307
:102E0000D9B943F008039908013B11740D2B0BD875
:102E1000DFE803F00D071C070A160D0D160A071C44
:102E2000070D5369013B53615DF8044B70475369CB
:102E30005DF8044B01335361704743F00403E0E74E
:102E400053695DF8044B023B5361704753695DF869
:102E5000044B023353617047137C03F003030029D2
:102E6000D1D043F00403CEE7F4360020214BDA68DA
:102E7000D2E90010D3680968006810B41842946859
:102E800001EA04012ED0137C03F00303D9B943F007
:102E900008039908013B11740D2B0BD8DFE803F0F0
:102EA0000D071C070A160D0D160A071C070D53699E
:102EB000013B53615DF8044B704753695DF8044B67
:102EC00001335361704743F00403E0E753695DF851
:102ED000044B023B5361704753695DF8044B023366
:102EE00053617047137C03F003030029D1D043F0F2
:102EF0000403CEE7F4360020214B1A69D2E9001012
:102F0000D3680968006810B41842946801EA0401A3
:102F10002ED0137C03F00303D9B943F008039908BA
:102F2000013B11740D2B0BD8DFE803F00D071C07D4
:102F30000A160D0D160A071C070D5369013B536154
:102F40005DF8044B704753695DF8044B01335361DE
:102F5000704743F00403E0E753695DF8044B023B1C
:102F60005361704753695DF8044B023353617047F6
:102F7000137C03F003030029D1D043F00403CEE710
:102F8000F4360020214B5A69D2E90010D368096851
:102F9000006810B41842946801EA04012ED0137C32
:102FA00003F00303D9B943F008039908013B1174F6
:102FB0000D2B0BD8DFE803F00D071C070A160D0DCB
:102FC000160A071C070D5369013B53615DF8044B5A
:102FD000704753695DF8044B01335361704743F008
:102FE0000403E0E753695DF8044B023B536170470B
:102FF00053695DF8044B023353617047137C03F04F
:1030000003030029D1D043F00403CEE7F4360020B7
:10301000214B9A69D2E90010D3680968006810B49E
:103020001842946801EA04012ED0137C03F00303D4
:10303000D9B943F008039908013B11740D2B0BD843
:10304000DFE803F00D071C070A160D0D160A071C12
:10305000070D5369013B53615DF8044B7047536999
:103060005DF8044B01335361704743F00403E0E71C
:1030700053695DF8044B023B5361704753695DF837
:10308000044B023353617047137C03F003030029A0
:10309000D1D043F00403CEE7F4360020214BDA69A7
:1030A000D2E90010D3680968006810B41842946827
:1030B00001EA04012ED0137C03F00303D9B943F0D5
:1030C00008039908013B11740D2B0BD8DFE803F0BE
:1030D0000D071C070A160D0D160A071C070D53696C
:1030E000013B53615DF8044B704753695DF8044B35
:1030F00001335361704743F00403E0E753695DF81F
:10310000044B023B5361704753695DF8044B023333
:1031100053617047137C03F003030029D1D043F0BF
:103120000403CEE7F4360020214B1A6AD2E90010DE
:10313000D3680968006810B41842946801EA040171
:103140002ED0137C03F00303D9B943F00803990888
:10315000013B11740D2B0BD8DFE803F00D071C07A2
:103160000A160D0D160A071C070D5369013B536122
:103170005DF8044B704753695DF8044B01335361AC
:10318000704743F00403E0E753695DF8044B023BEA
:103190005361704753695DF8044B023353617047C4
:1031A000137C03F003030029D1D043F00403CEE7DE
:1031B000F4360020214B5A6AD2E90010D36809681E
:1031C000006810B41842946801EA04012ED0137C00
:1031D00003F00303D9B943F008039908013B1174C4
:1031E0000D2B0BD8DFE803F00D071C070A160D0D99
:1031F000160A071C070D5369013B53615DF8044B28
:10320000704753695DF8044B01335361704743F0D5
:103210000403E0E753695DF8044B023B53617047D8
:1032200053695DF8044B023353617047137C03F01C
:1032300003030029D1D043F00403CEE7F436002085
:10324000214B9A6AD2E90010D3680968006810B46B
:103250001842946801EA04012ED0137C03F00303A2
:10326000D9B943F008039908013B11740D2B0BD811
:10327000DFE803F00D071C070A160D0D160A071CE0
:10328000070D5369013B53615DF8044B7047536967
:103290005DF8044B01335361704743F00403E0E7EA
:1032A00053695DF8044B023B5361704753695DF805
:1032B000044B023353617047137C03F0030300296E
:1032C000D1D043F00403CEE7F4360020214BDA6A74
:1032D000D2E90010D3680968006810B418429468F5
:1032E00001EA04012ED0137C03F00303D9B943F0A3
:1032F00008039908013B11740D2B0BD8DFE803F08C
:103300000D071C070A160D0D160A071C070D536939
:10331000013B53615DF8044B704753695DF8044B02
:1033200001335361704743F00403E0E753695DF8EC
:10333000044B023B5361704753695DF8044B023301
:1033400053617047137C03F003030029D1D043F08D
:103350000403CEE7F4360020214B1A6BD2E90010AB
:10336000D3680968006810B41842946801EA04013F
:103370002ED0137C03F00303D9B943F00803990856
:10338000013B11740D2B0BD8DFE803F00D071C0770
:103390000A160D0D160A071C070D5369013B5361F0
:1033A0005DF8044B704753695DF8044B013353617A
:1033B000704743F00403E0E753695DF8044B023BB8
:1033C0005361704753695DF8044B02335361704792
:1033D000137C03F003030029D1D043F00403CEE7AC
:1033E000F4360020214B5A6BD2E90010D3680968EB
:1033F000006810B41842946801EA04012ED0137CCE
:1034000003F00303D9B943F008039908013B117491
:103410000D2B0BD8DFE803F00D071C070A160D0D66
:10342000160A071C070D5369013B53615DF8044BF5
:10343000704753695DF8044B01335361704743F0A3
:103440000403E0E753695DF8044B023B53617047A6
:1034500053695DF8044B023353617047137C03F0EA
:1034600003030029D1D043F00403CEE7F436002053
:10347000214B9A6BD2E90010D3680968006810B438
:103480001842946801EA04012ED0137C03F0030370
:10349000D9B943F008039908013B11740D2B0BD8DF
:1034A000DFE803F00D071C070A160D0D160A071CAE
:1034B000070D5369013B53615DF8044B7047536935
:1034C0005DF8044B01335361704743F00403E0E7B8
:1034D00053695DF8044B023B5361704753695DF8D3
:1034E000044B023353617047137C03F0030300293C
:1034F000D1D043F00403CEE7F4360020214BDA6B41
:10350000D2E90010D3680968006810B418429468C2
:1035100001EA04012ED0137C03F00303D9B943F070
:1035200008039908013B11740D2B0BD8DFE803F059
:103530000D071C070A160D0D160A071C070D536907
:10354000013B53615DF8044B704753695DF8044BD0
:1035500001335361704743F00403E0E753695DF8BA
:10356000044B023B5361704753695DF8044B0233CF
:1035700053617047137C03F003030029D1D043F05B
:103580000403CEE7F4360020214B1A6CD2E9001078
:10359000D3680968006810B41842946801EA04010D
:1035A0002ED0137C03F00303D9B943F00803990824
:1035B000013B11740D2B0BD8DFE803F00D071C073E
:1035C0000A160D0D160A071C070D5369013B5361BE
:1035D0005DF8044B704753695DF8044B0133536148
:1035E000704743F00403E0E753695DF8044B023B86
:1035F0005361704753695DF8044B02335361704760
:10360000137C03F003030029D1D043F00403CEE779
:10361000F4360020214B5A6CD2E90010D3680968B7
:10362000006810B41842946801EA04012ED0137C9B
:1036300003F00303D9B943F008039908013B11745F
:103640000D2B0BD8DFE803F00D071C070A160D0D34
:10365000160A071C070D5369013B53615DF8044BC3
:10366000704753695DF8044B01335361704743F071
:103670000403E0E753695DF8044B023B5361704774
:1036800053695DF8044B023353617047137C03F0B8
:1036900003030029D1D043F00403CEE7F436002021
:1036A000214B9A6CD2E90010D3680968006810B405
:1036B0001842946801EA04012ED0137C03F003033E
:1036C000D9B943F008039908013B11740D2B0BD8AD
:1036D000DFE803F00D071C070A160D0D160A071C7C
:1036E000070D5369013B53615DF8044B7047536903
:1036F0005DF8044B01335361704743F00403E0E786
:1037000053695DF8044B023B5361704753695DF8A0
:10371000044B023353617047137C03F00303002909
:10372000D1D043F00403CEE7F4360020214BDA6C0D
:10373000D2E90010D3680968006810B41842946890
:1037400001EA04012ED0137C03F00303D9B943F03E
:1037500008039908013B11740D2B0BD8DFE803F027
:103760000D071C070A160D0D160A071C070D5369D5
:10377000013B53615DF8044B704753695DF8044B9E
:1037800001335361704743F00403E0E753695DF888
:10379000044B023B5361704753695DF8044B02339D
:1037A00053617047137C03F003030029D1D043F029
:1037B0000403CEE7F4360020214B1A6DD2E9001045
:1037C000D3680968006810B41842946801EA0401DB
:1037D0002ED0137C03F00303D9B943F008039908F2
:1037E000013B11740D2B0BD8DFE803F00D071C070C
:1037F0000A160D0D160A071C070D5369013B53618C
:103800005DF8044B704753695DF8044B0133536115
:10381000704743F00403E0E753695DF8044B023B53
:103820005361704753695DF8044B0233536170472D
:10383000137C03F003030029D1D043F00403CEE747
:10384000F4360020214B5A6DD2E90010D368096884
:10385000006810B41842946801EA04012ED0137C69
:1038600003F00303D9B943F008039908013B11742D
:103870000D2B0BD8DFE803F00D071C070A160D0D02
:10388000160A071C070D5369013B53615DF8044B91
:10389000704753695DF8044B01335361704743F03F
:1038A0000403E0E753695DF8044B023B5361704742
:1038B00053695DF8044B023353617047137C03F086
:1038C00003030029D1D043F00403CEE7F4360020EF
:1038D000214B9A6DD2E90010D3680968006810B4D2
:1038E0001842946801EA04012ED0137C03F003030C
:1038F000D9B943F008039908013B11740D2B0BD87B
:10390000DFE803F00D071C070A160D0D160A071C49
:10391000070D5369013B53615DF8044B70475369D0
:103920005DF8044B01335361704743F00403E0E753
:1039300053695DF8044B023B5361704753695DF86E
:10394000044B023353617047137C03F003030029D7
:10395000D1D043F00403CEE7F4360020214BDA6DDA
:10396000D2E90010D3680968006810B4184294685E
:1039700001EA04012ED0137C03F00303D9B943F00C
:1039800008039908013B11740D2B0BD8DFE803F0F5
:103990000D071C070A160D0D160A071C070D5369A3
:1039A000013B53615DF8044B704753695DF8044B6C
:1039B00001335361704743F00403E0E753695DF856
:1039C000044B023B5361704753695DF8044B02336B
:1039D00053617047137C03F003030029D1D043F0F7
:1039E0000403CEE7F4360020224BD3F8D820D2E9E6
:1039F0000010D3680968006810B41842946801EA9E
:103A000004012ED0137C03F00303D9B943F008035B
:103A10009908013B11740D2B0BD8DFE803F00D075B
:103A20001C070A160D0D160A071C070D5369013BEA
:103A300053615DF8044B704753695DF8044B0133E3
:103A40005361704743F00403E0E753695DF8044BAA
:103A5000023B5361704753695DF8044B0233536175
:103A60007047137C03F003030029D1D043F0040313
:103A7000CEE700BFF4360020224BD3F8D020D2E9A5
:103A80000010D3680968006810B41842946801EA0D
:103A900004012ED0137C03F00303D9B943F00803CB
:103AA0009908013B11740D2B0BD8DFE803F00D07CB
:103AB0001C070A160D0D160A071C070D5369013B5A
:103AC00053615DF8044B704753695DF8044B013353
:103AD0005361704743F00403E0E753695DF8044B1A
:103AE000023B5361704753695DF8044B02335361E5
:103AF0007047137C03F003030029D1D043F0040383
:103B0000CEE700BFF4360020224BD3F8D420D2E910
:103B10000010D3680968006810B41842946801EA7C
:103B200004012ED0137C03F00303D9B943F008033A
:103B30009908013B11740D2B0BD8DFE803F00D073A
:103B40001C070A160D0D160A071C070D5369013BC9
:103B500053615DF8044B704753695DF8044B0133C2
:103B60005361704743F00403E0E753695DF8044B89
:103B7000023B5361704753695DF8044B0233536154
:103B80007047137C03F003030029D1D043F00403F2
:103B9000CEE700BFF4360020224BD3F8C020D2E994
:103BA0000010D3680968006810B41842946801EAEC
:103BB00004012ED0137C03F00303D9B943F00803AA
:103BC0009908013B11740D2B0BD8DFE803F00D07AA
:103BD0001C070A160D0D160A071C070D5369013B39
:103BE00053615DF8044B704753695DF8044B013332
:103BF0005361704743F00403E0E753695DF8044BF9
:103C0000023B5361704753695DF8044B02335361C3
:103C10007047137C03F003030029D1D043F0040361
:103C2000CEE700BFF4360020224BD3F8C420D2E9FF
:103C30000010D3680968006810B41842946801EA5B
:103C400004012ED0137C03F00303D9B943F0080319
:103C50009908013B11740D2B0BD8DFE803F00D0719
:103C60001C070A160D0D160A071C070D5369013BA8
:103C700053615DF8044B704753695DF8044B0133A1
:103C80005361704743F00403E0E753695DF8044B68
:103C9000023B5361704753695DF8044B0233536133
:103CA0007047137C03F003030029D1D043F00403D1
:103CB000CEE700BFF4360020224BD3F8C820D2E96B
:103CC0000010D3680968006810B41842946801EACB
:103CD00004012ED0137C03F00303D9B943F0080389
:103CE0009908013B11740D2B0BD8DFE803F00D0789
:103CF0001C070A160D0D160A071C070D5369013B18
:103D000053615DF8044B704753695DF8044B013310
:103D10005361704743F00403E0E753695DF8044BD7
:103D2000023B5361704753695DF8044B02335361A2
:103D30007047137C03F003030029D1D043F0040340
:103D4000CEE700BFF4360020224BD3F8CC20D2E9D6
:103D50000010D3680968006810B41842946801EA3A
:103D600004012ED0137C03F00303D9B943F00803F8
:103D70009908013B11740D2B0BD8DFE803F00D07F8
:103D80001C070A160D0D160A071C070D5369013B87
:103D900053615DF8044B704753695DF8044B013380
:103DA0005361704743F00403E0E753695DF8044B47
:103DB000023B5361704753695DF8044B0233536112
:103DC0007047137C03F003030029D1D043F00403B0
:103DD000CEE700BFF4360020224BD3F8A020D2E972
:103DE0000010D3680968006810B41842946801EAAA
:103DF00004012ED0137C03F00303D9B943F0080368
:103E00009908013B11740D2B0BD8DFE803F00D0767
:103E10001C070A160D0D160A071C070D5369013BF6
:103E200053615DF8044B704753695DF8044B0133EF
:103E30005361704743F00403E0E753695DF8044BB6
:103E4000023B5361704753695DF8044B0233536181
:103E50007047137C03F003030029D1D043F004031F
:103E6000CEE700BFF4360020224BD3F8A420D2E9DD
:103E70000010D3680968006810B41842946801EA19
:103E800004012ED0137C03F00303D9B943F00803D7
:103E90009908013B11740D2B0BD8DFE803F00D07D7
:103EA0001C070A160D0D160A071C070D5369013B66
:103EB00053615DF8044B704753695DF8044B01335F
:103EC0005361704743F00403E0E753695DF8044B26
:103ED000023B5361704753695DF8044B02335361F1
:103EE0007047137C03F003030029D1D043F004038F
:103EF000CEE700BFF4360020224BD3F8A820D2E949
:103F00000010D3680968006810B41842946801EA88
:103F100004012ED0137C03F00303D9B943F0080346
:103F20009908013B11740D2B0BD8DFE803F00D0746
:103F30001C070A160D0D160A071C070D5369013BD5
:103F400053615DF8044B704753695DF8044B0133CE
:103F50005361704743F00403E0E753695DF8044B95
:103F6000023B5361704753695DF8044B0233536160
:103F70007047137C03F003030029D1D043F00403FE
:103F8000CEE700BFF4360020224BD3F8AC20D2E9B4
:103F90000010D3680968006810B41842946801EAF8
:103FA00004012ED0137C03F00303D9B943F00803B6
:103FB0009908013B11740D2B0BD8DFE803F00D07B6
:103FC0001C070A160D0D160A071C070D5369013B45
:103FD00053615DF8044B704753695DF8044B01333E
:103FE0005361704743F00403E0E753695DF8044B05
:103FF000023B5361704753695DF8044B02335361D0
:104000007047137C03F003030029D1D043F004036D
:10401000CEE700BFF4360020224BD3F8B020D2E91F
:104020000010D3680968006810B41842946801EA67
:1040300004012ED0137C03F00303D9B943F0080325
:104040009908013B11740D2B0BD8DFE803F00D0725
:104050001C070A160D0D160A071C070D5369013BB4
:1040600053615DF8044B704753695DF8044B0133AD
:104070005361704743F00403E0E753695DF8044B74
:10408000023B5361704753695DF8044B023353613F
:104090007047137C03F003030029D1D043F00403DD
:1040A000CEE700BFF4360020224BD3F8B420D2E98B
:1040B0000010D3680968006810B41842946801EAD7
:1040C00004012ED0137C03F00303D9B943F0080395
:1040D0009908013B11740D2B0BD8DFE803F00D0795
:1040E0001C070A160D0D160A071C070D5369013B24
:1040F00053615DF8044B704753695DF8044B01331D
:104100005361704743F00403E0E753695DF8044BE3
:10411000023B5361704753695DF8044B02335361AE
:104120007047137C03F003030029D1D043F004034C
:10413000CEE700BFF4360020224BD3F8B820D2E9F6
:104140000010D3680968006810B41842946801EA46
:1041500004012ED0137C03F00303D9B943F0080304
:104160009908013B11740D2B0BD8DFE803F00D0704
:104170001C070A160D0D160A071C070D5369013B93
:1041800053615DF8044B704753695DF8044B01338C
:104190005361704743F00403E0E753695DF8044B53
:1041A000023B5361704753695DF8044B023353611E
:1041B0007047137C03F003030029D1D043F00403BC
:1041C000CEE700BFF4360020224BD3F8BC20D2E962
:1041D0000010D3680968006810B41842946801EAB6
:1041E00004012ED0137C03F00303D9B943F0080374
:1041F0009908013B11740D2B0BD8DFE803F00D0774
:104200001C070A160D0D160A071C070D5369013B02
:1042100053615DF8044B704753695DF8044B0133FB
:104220005361704743F00403E0E753695DF8044BC2
:10423000023B5361704753695DF8044B023353618D
:104240007047137C03F003030029D1D043F004032B
:10425000CEE700BFF4360020214B1A6ED2E90010E1
:10426000D3680968006810B41842946801EA040130
:104270002ED0137C03F00303D9B943F00803990847
:10428000013B11740D2B0BD8DFE803F00D071C0761
:104290000A160D0D160A071C070D5369013B5361E1
:1042A0005DF8044B704753695DF8044B013353616B
:1042B000704743F00403E0E753695DF8044B023BA9
:1042C0005361704753695DF8044B02335361704783
:1042D000137C03F003030029D1D043F00403CEE79D
:1042E000F4360020214B5A6ED2E90010D3680968D9
:1042F000006810B41842946801EA04012ED0137CBF
:1043000003F00303D9B943F008039908013B117482
:104310000D2B0BD8DFE803F00D071C070A160D0D57
:10432000160A071C070D5369013B53615DF8044BE6
:10433000704753695DF8044B01335361704743F094
:104340000403E0E753695DF8044B023B5361704797
:1043500053695DF8044B023353617047137C03F0DB
:1043600003030029D1D043F00403CEE7F436002044
:10437000214B9A6ED2E90010D3680968006810B426
:104380001842946801EA04012ED0137C03F0030361
:10439000D9B943F008039908013B11740D2B0BD8D0
:1043A000DFE803F00D071C070A160D0D160A071C9F
:1043B000070D5369013B53615DF8044B7047536926
:1043C0005DF8044B01335361704743F00403E0E7A9
:1043D00053695DF8044B023B5361704753695DF8C4
:1043E000044B023353617047137C03F0030300292D
:1043F000D1D043F00403CEE7F4360020214BDA6E2F
:10440000D2E90010D3680968006810B418429468B3
:1044100001EA04012ED0137C03F00303D9B943F061
:1044200008039908013B11740D2B0BD8DFE803F04A
:104430000D071C070A160D0D160A071C070D5369F8
:10444000013B53615DF8044B704753695DF8044BC1
:1044500001335361704743F00403E0E753695DF8AB
:10446000044B023B5361704753695DF8044B0233C0
:1044700053617047137C03F003030029D1D043F04C
:104480000403CEE7F4360020214B1A6FD2E9001066
:10449000D3680968006810B41842946801EA0401FE
:1044A0002ED0137C03F00303D9B943F00803990815
:1044B000013B11740D2B0BD8DFE803F00D071C072F
:1044C0000A160D0D160A071C070D5369013B5361AF
:1044D0005DF8044B704753695DF8044B0133536139
:1044E000704743F00403E0E753695DF8044B023B77
:1044F0005361704753695DF8044B02335361704751
:10450000137C03F003030029D1D043F00403CEE76A
:10451000F4360020214B5A6FD2E90010D3680968A5
:10452000006810B41842946801EA04012ED0137C8C
:1045300003F00303D9B943F008039908013B117450
:104540000D2B0BD8DFE803F00D071C070A160D0D25
:10455000160A071C070D5369013B53615DF8044BB4
:10456000704753695DF8044B01335361704743F062
:104570000403E0E753695DF8044B023B5361704765
:1045800053695DF8044B023353617047137C03F0A9
:1045900003030029D1D043F00403CEE7F436002012
:1045A000214B9A6FD2E90010D3680968006810B4F3
:1045B0001842946801EA04012ED0137C03F003032F
:1045C000D9B943F008039908013B11740D2B0BD89E
:1045D000DFE803F00D071C070A160D0D160A071C6D
:1045E000070D5369013B53615DF8044B70475369F4
:1045F0005DF8044B01335361704743F00403E0E777
:1046000053695DF8044B023B5361704753695DF891
:10461000044B023353617047137C03F003030029FA
:10462000D1D043F00403CEE7F4360020214BDA6FFB
:10463000D2E90010D3680968006810B41842946881
:1046400001EA04012ED0137C03F00303D9B943F02F
:1046500008039908013B11740D2B0BD8DFE803F018
:104660000D071C070A160D0D160A071C070D5369C6
:10467000013B53615DF8044B704753695DF8044B8F
:1046800001335361704743F00403E0E753695DF879
:10469000044B023B5361704753695DF8044B02338E
:1046A00053617047137C03F003030029D1D043F01A
:1046B0000403CEE7F4360020224BD3F88020D2E961
:1046C0000010D3680968006810B41842946801EAC1
:1046D00004012ED0137C03F00303D9B943F008037F
:1046E0009908013B11740D2B0BD8DFE803F00D077F
:1046F0001C070A160D0D160A071C070D5369013B0E
:1047000053615DF8044B704753695DF8044B013306
:104710005361704743F00403E0E753695DF8044BCD
:10472000023B5361704753695DF8044B0233536198
:104730007047137C03F003030029D1D043F0040336
:10474000CEE700BFF4360020224BD3F88420D2E914
:104750000010D3680968006810B41842946801EA30
:1047600004012ED0137C03F00303D9B943F00803EE
:104770009908013B11740D2B0BD8DFE803F00D07EE
:104780001C070A160D0D160A071C070D5369013B7D
:1047900053615DF8044B704753695DF8044B013376
:1047A0005361704743F00403E0E753695DF8044B3D
:1047B000023B5361704753695DF8044B0233536108
:1047C0007047137C03F003030029D1D043F00403A6
:1047D000CEE700BFF4360020224BD3F88820D2E980
:1047E0000010D3680968006810B41842946801EAA0
:1047F00004012ED0137C03F00303D9B943F008035E
:104800009908013B11740D2B0BD8DFE803F00D075D
:104810001C070A160D0D160A071C070D5369013BEC
:1048200053615DF8044B704753695DF8044B0133E5
:104830005361704743F00403E0E753695DF8044BAC
:10484000023B5361704753695DF8044B0233536177
:104850007047137C03F003030029D1D043F0040315
:10486000CEE700BFF4360020224BD3F88C20D2E9EB
:104870000010D3680968006810B41842946801EA0F
:1048800004012ED0137C03F00303D9B943F00803CD
:104890009908013B11740D2B0BD8DFE803F00D07CD
:1048A0001C070A160D0D160A071C070D5369013B5C
:1048B00053615DF8044B704753695DF8044B013355
:1048C0005361704743F00403E0E753695DF8044B1C
:1048D000023B5361704753695DF8044B02335361E7
:1048E0007047137C03F003030029D1D043F0040385
:1048F000CEE700BFF4360020224BD3F89020D2E957
:104900000010D3680968006810B41842946801EA7E
:1049100004012ED0137C03F00303D9B943F008033C
:104920009908013B11740D2B0BD8DFE803F00D073C
:104930001C070A160D0D160A071C070D5369013BCB
:1049400053615DF8044B704753695DF8044B0133C4
:104950005361704743F00403E0E753695DF8044B8B
:10496000023B5361704753695DF8044B0233536156
:104970007047137C03F003030029D1D043F00403F4
:10498000CEE700BFF4360020224BD3F89420D2E9C2
:104990000010D3680968006810B41842946801EAEE
:1049A00004012ED0137C03F00303D9B943F00803AC
:1049B0009908013B11740D2B0BD8DFE803F00D07AC
:1049C0001C070A160D0D160A071C070D5369013B3B
:1049D00053615DF8044B704753695DF8044B013334
:1049E0005361704743F00403E0E753695DF8044BFB
:1049F000023B5361704753695DF8044B02335361C6
:104A00007047137C03F003030029D1D043F0040363
:104A1000CEE700BFF4360020224BD3F89820D2E92D
:104A20000010D3680968006810B41842946801EA5D
:104A300004012ED0137C03F00303D9B943F008031B
:104A40009908013B11740D2B0BD8DFE803F00D071B
:104A50001C070A160D0D160A071C070D5369013BAA
:104A600053615DF8044B704753695DF8044B0133A3
:104A70005361704743F00403E0E753695DF8044B6A
:104A8000023B5361704753695DF8044B0233536135
:104A90007047137C03F003030029D1D043F00403D3
:104AA000CEE700BFF4360020224BD3F89C20D2E999
:104AB0000010D3680968006810B41842946801EACD
:104AC00004012ED0137C03F00303D9B943F008038B
:104AD0009908013B11740D2B0BD8DFE803F00D078B
:104AE0001C070A160D0D160A071C070D5369013B1A
:104AF00053615DF8044B704753695DF8044B013313
:104B00005361704743F00403E0E753695DF8044BD9
:104B1000023B5361704753695DF8044B02335361A4
:104B20007047137C03F003030029D1D043F0040342
:104B3000CEE700BFF43600200B4610B5362800F251
:104B40009782DFE810F08C0282027902700267021D
:104B50005E0255024C0243023A02310228021F0251
:104B6000BF01B601AD01A4019B0192018901800141
:104B700077016E0165015C0153014A014101380171
:104B80002F0126011D0113010901FF00F500EB00B3
:104B9000E100D700CD00C300B900AF00A5009B0025
:104BA000910087007D00730069005F0055004B0095
:104BB00041003700C84C0422C8493620C4F8D83018
:104BC00005F07CF8012010BDC34C0422C4493520F7
:104BD000C4F8D43005F072F8012010BDBE4C042298
:104BE000C0493420C4F8D03005F068F8012010BD69
:104BF000B94C0422BC493320C4F8CC3005F05EF82F
:104C0000012010BDB44C0422B8493220C4F8C83089
:104C100005F054F8012010BDAF4C0422B4493120F6
:104C2000C4F8C43005F04AF8012010BDAA4C042293
:104C3000B0493020C4F8C03005F040F8012010BD64
:104C4000A54C0422AC492F20C4F8BC3005F036F83E
:104C5000012010BDA04C0422A8492E20C4F8B83071
:104C600005F02CF8012010BD9B4C0422A4492D20F6
:104C7000C4F8B43005F022F8012010BD964C04228F
:104C8000A0492C20C4F8B03005F018F8012010BD60
:104C9000914C04229C492B20C4F8AC3005F00EF84E
:104CA000012010BD8C4C042298492A20C4F8A83059
:104CB00005F004F8012010BD874C042294492920F6
:104CC000C4F8A43004F0FAFF012010BD824C042285
:104CD00090492820C4F8A03004F0F0FF012010BD56
:104CE0007D4C04228C492720C4F89C3004F0E6FF58
:104CF000012010BD784C042288492620C4F8983041
:104D000004F0DCFF012010BD734C042284492520EF
:104D1000C4F8943004F0D2FF012010BD6E4C042280
:104D200080492420C4F8903004F0C8FF012010BD51
:104D3000694C04227C492320C4F88C3004F0BEFF67
:104D4000012010BD644C042278492220C4F8883028
:104D500004F0B4FF012010BD5F4C042274492120EF
:104D6000C4F8843004F0AAFF012010BD5A4C04227C
:104D700070492020C4F8803004F0A0FF012010BD4D
:104D8000554C04226C491F20E36704F097FF012073
:104D900010BD514C042269491E20A36704F08EFF08
:104DA000012010BD4C4C042265491D20636704F0AE
:104DB00085FF012010BD484C042262491C20236756
:104DC00004F07CFF012010BD434C04225E491B20EF
:104DD000E36604F073FF012010BD3F4C04225B49E1
:104DE0001A20A36604F06AFF012010BD3A4C042289
:104DF00057491920636604F061FF012010BD364C4D
:104E0000042254491820236604F058FF012010BDE5
:104E1000314C042250491720E36504F04FFF012074
:104E200010BD2D4C04224D491620A36504F046FF09
:104E3000012010BD284C042249491520636504F067
:104E40003DFF012010BD244C042246491420236557
:104E500004F034FF012010BD1F4C042242491320EE
:104E6000E36404F02BFF012010BD1B4C04223F49DA
:104E70001220A36404F022FF012010BD164C04226E
:104E80003B491120636404F019FF012010BD124C4E
:104E9000042238491020236404F010FF012010BDC3
:104EA0000D4C042234490F20E36304F007FF012076
:104EB00010BD094C042231490E20A36304F0FEFE0C
:104EC000012010BD044C04222D490D20636304F021
:104ED000F5FE012010BD00BFF4360020D9170000F8
:104EE000F918000069180000391B0000A91A000019
:104EF000191A000089190000B91F0000291F0000BD
:104F0000991E0000091E0000791D0000E91C000028
:104F1000591C0000C91B0000992800000928000046
:104F200079270000E926000059260000C925000065
:104F300039250000A92400001D2400009123000051
:104F40000523000079220000ED210000612100000E
:104F5000D5200000492000004D170000C1160000B8
:104F600035160000A91500001D1500009114000061
:104F70000514000079130000ED120000611200001A
:104F8000D51100003B4C04223B490C20236304F064
:104F900095FE012010BD374C042238490B20E362F6
:104FA00004F08CFE012010BD324C042234490A204A
:104FB000A36204F083FE012010BD2E4C042231496F
:104FC0000920636204F07AFE012010BD294C0422FE
:104FD0002D490820236204F071FE012010BD254CEC
:104FE00004222A490720E36104F068FE012010BD75
:104FF000204C042226490620A36104F05FFE012014
:1050000010BD1C4C042223490520636104F056FEA8
:10501000012010BD0422174C1F491046236104F0E3
:105020004DFE012010BD134C04221C490320E360F7
:1050300004F044FE012010BD0E4C04221849022049
:10504000A36004F03BFE012010BD04460948042281
:1050500014494360012004F031FE204610BD054C88
:10506000042211490020236004F028FE012010BD15
:10507000002010BDF436002049110000BD100000D2
:1050800031100000A50F0000190F00008D0E000068
:10509000010E0000750D0000E90C00005D0C000021
:1050A000D10B0000450B0000B90A00002DE9F04FBC
:1050B000CD4E83B004463368002B00F0E681736860
:1050C000A36003B15C60C94B4FF0000ADFF848C32E
:1050D00004F19C09C4F810A0DFF84083C44DC54F0B
:1050E00003CB1B88C4F81E00E3844FF0FF33C4F8E1
:1050F00022106361A3612377BCE80F00A062E16224
:1051000022636363BCE80700A06304F14400E16329
:1051100022644622B84904F05BFEB84B0221052008
:1051200023601C33C4F89080E36004F19003636053
:1051300073600123A4F88A307F23C4E925A484F88E
:105140008C3004F081FD0221062004F07DFDD5F8AD
:105150005CE0D5F850B0AA49C4F8A4E0E86EA94BC9
:10516000C4F89CB0D5F860C0C4F8B0A0C4F8A800DA
:10517000D1F804A03A68C4F8A0C0A3FB02324FF4EF
:10518000FA63920C03FB02F24B68A3EB0A039A4208
:10519000FAD8DBF800304946DCF800201EEA030F9D
:1051A00014BF0123002310424FF0050018BF43F045
:1051B000020384F8AC30FFF7BFFC494684F8B40022
:1051C0000620FFF7B9FC94F8B43004F1C402184487
:1051D000002384F8B4008C48C4E92E038B4BC4F838
:1051E00090303368002B00F056817368C4F8CC30DF
:1051F00003B15A604FF0000A726002211A20C4F80D
:10520000C8A0C4F8C48004F01FFD02211B2004F0D4
:105210001BFDD5F8AC91D5F8A0B104F1D001C4F8CC
:10522000D8907748D5F8BCC1764BC4F8D0B0D5F843
:10523000B0E1C4F8E4A0C4F8DCC0D0F804A03A6837
:10524000C4F8D4E0A3FB02324FF4FA63920C03FBE0
:1052500002F24368A3EB0A039A42FAD8DBF8003063
:105260001A20DEF8002019EA030F019114BF012370
:1052700000231CEA020F18BF43F0020384F8E03059
:10528000FFF75AFC019984F8E8001B20FFF754FC53
:105290005E4B5F4904F1F802C4F8C43094F8E8307A
:1052A00018440023C4E93B13336884F8E800002B5A
:1052B00000F0EF807368C4F8003103B15A604FF01A
:1052C000000A726002211D20C4F8FCA0C4F8F88016
:1052D00004F0BAFC02211E2004F0B6FCD5F8DC91E3
:1052E000D5F8D0B104F58271C4F80C914448D5F8D2
:1052F000ECC1444BC4F804B1D5F8E0E1C4F818A1FE
:10530000C4F810C1D0F804A03A68C4F808E1A3FBBF
:1053100002324FF4FA63920C03FB02F24368A3EBF0
:105320000A039A42FAD8DBF800301D20DEF800208C
:1053300019EA030F019114BF012300231CEA020F95
:1053400018BF43F0020384F81431FFF7F5FB01990D
:1053500084F81C011E20FFF7EFFB2C4B2D4AC4F8EC
:10536000F83094F81C3118440023C4E9482333680A
:1053700004F5967284F81C01002B00F08880736895
:10538000C4F8343103B15A604FF000097260022151
:105390001F20C4F82C8104F59C76C4F8309104F0E9
:1053A00053FC0221202004F04FFCD5F8FCE1D5F895
:1053B000F0814FF4FA63C4F840E11149D5F80CC20A
:1053C000C4F83881D5F80052C4F84C91C4F844C1EF
:1053D000DFF8309048683A68C4F83C51A9FB029263
:1053E000920C03FB02F21BE074350020280500201C
:1053F000E40A00201C220020E0040020A406002073
:10540000001000E083DE1B43210001044006002061
:105410002300010425000104C4040020D406002058
:105420004B681B1A9A42FBD8D8F8003031462A68DC
:105430001F201EEA030F194D14BF012300231CEA8D
:10544000020F18BF43F0020384F84831FFF774FBE2
:1054500003463146202084F85031FFF76DFB94F865
:10546000503100210E4A1844C4F82C51C4F854217C
:10547000462284F8500104F5B070C4F8581107F0C2
:105480005DF9204603B0BDE8F08F306017E632606A
:1054900075E732600EE73260A7E600BF40060020E5
:1054A00027000104124B30B5124C83B0186801F08C
:1054B0008DF804F11A05092001E034F8020F0221E9
:1054C00000F00CFDAC42F8D10B4C182004F108059B
:1054D0000121019000F002FD0198012100F02CFD56
:1054E000AC4202D034F8020FF2E703B030BD00BF87
:1054F00088350020C4040020280500202DE9F04F45
:105500004FF0000885B0DFF8F49000F5B077364E24
:105510008B460290CDF80480344B4FF0000A1820DF
:105520005FFA88F51C4603935FFA8AF10AF1010AD3
:10553000491B18BF012100F0FFFCBAF1050F02D092
:1055400034F8020FF0E72A4B71681A68294BA3FB65
:105550000232920C02EB8202D20073685B1A9A420A
:10556000FBD8C8EBC805029B234C4FF0000A03EBA5
:105570004505092001E034F8020F00F0E9FC00289D
:1055800005EB0A020CBF0121002108D117F80A001F
:1055900028B919F80A0001238BF8000001930AF1D9
:1055A000010A82F86011BAF10E0FE4D108F1010886
:1055B00009F10E090E37B8F1050FADD1DDF80CA0D9
:1055C000182001210AF1080400F0B6FC544506D069
:1055D0003AF8020F012100F0AFFC5445F8D10198D0
:1055E00005B0BDE8F08F00BF001000E028050020E6
:1055F0001C22002083DE1B43C4040020E0040020A2
:10560000174BF0B5044685B018680E46154601F0F4
:105610003DF9002320460DF10F018DF80F30FFF703
:105620006DFF044610B9204605B0F0BD9DF80FC0CF
:1056300029460C4B30460C4FA3FB0C230B4ADB08CE
:1056400003EB4305013BACEB850C00935FFA8CFC4C
:1056500057F82C3007F04AFE204605B0F0BD00BFD9
:1056600088350020ABAAAAAAD00700203405002064
:10567000374B2DE9F04F1B682DED028B87B01A4692
:1056800002934368D31A182B5CD900F110038346A8
:10569000039300F11A03059300230493039B00274F
:1056A0009DF81040012133F8020FDDF814A008EE38
:1056B000104A039300F012FC01970EE0337A48EA97
:1056C0000308029B86F80880CBF80430019B053460
:1056D0000133E4B20E2B019329D03AF8020F0BEB01
:1056E000D40600F035FC04F007050122317A031ED0
:1056F000814602FA05F59DF8042018BF01230D42EA
:105700005FFA85F814BF012100219942DED0DBF851
:105710000010584689680F4618EE101AB847B9F1BC
:10572000000FCBD196F8088028EA0508C9E7039C4A
:105730000021208800F0D2FB049B01330493059BD9
:105740009C42ABD107B0BDEC028BBDE8F08F00BF2F
:10575000544200200C3008B5FFF78AFF08BD00BF97
:105760002DE9F8433F4840F204793F4C3F4E404D0D
:1057700022463146A0F80490056005F051FF3D48EF
:105780004FF60433224631460560838005F048FF1A
:1057900039484FF6F833224631460560838005F0DC
:1057A0003FFF364840F2037322463146056083804E
:1057B00005F036FF32484FF6033322463146056086
:1057C000838005F02DFF2F484FF6F73322463146F0
:1057D0000560838005F024FF2B4840F203632246D6
:1057E00031460560838005F01BFF284840F603031F
:1057F000224631460560838005F012FFDFF8B08055
:1058000023480A23234F22464146A0F8049007600C
:10581000837105F005FF20480B2322464146A0F87E
:1058200004900760837105F0FBFE1C481C4B224668
:105830001C490360F423037105F0F2FE1A48314657
:10584000224605604EF6F405858005F0E9FE17480E
:10585000DC2322464146076085808371BDE8F8431A
:1058600005F0DEBEAC3600205826002035050000CD
:105870003C0700203436002064360020C436002067
:105880004C3600207C36002004360020DC36002018
:1058900094360020540700201C360020D435002008
:1058A0002407002039050000BC350020EC3500201D
:1058B00031050000444A00F5967C44491368C0F85D
:1058C0002C119C4570B4D0E94C4501D0002C6CD013
:1058D00015B16C60D0F830415668B44508BF5560CA
:1058E00004B1A5609C4566D000F1F80CC0F8F81032
:1058F0009C45D0E93F4501D0002C53D015B16C60D8
:10590000D0F8FC405668B44508BF556004B1A560A6
:105910009C454DD000F1C40CC0F8C4109C45D0E9A2
:10592000324501D0002C3AD015B16C60D0F8C84097
:105930005668B44508BF556004B1A5609C4540D089
:1059400000F1900CC0F890109C45D0E9254500D09E
:1059500014B315B16C60D0F894405668B44508BFD4
:10596000556004B1A5609C4528D098420160D0E9FB
:10597000011400D069B10CB1616041685568A8425A
:1059800008BF546001B18C60984208BF116070BCC0
:105990007047002CF0D1FAE7002DDBD1E5E7002DB0
:1059A000C3D1CDE7002DAAD1B4E7002D91D19BE75B
:1059B00023461460AEE72346146095E7234614603F
:1059C000D3E723461460BBE774350020F8050020B8
:1059D0002DE9F843454840F20479454C454E464D83
:1059E00022463146A0F80490056005F019FE4348B0
:1059F0004FF60433224631460560838005F010FEE1
:105A00003F484FF6F833224631460560838005F063
:105A100007FE3C4840F2037322463146056083800E
:105A200005F0FEFD38484FF6033322463146056047
:105A3000838005F0F5FD35484FF6F73322463146B1
:105A40000560838005F0ECFD314840F20363224697
:105A500031460560838005F0E3FD2E4840F60303E0
:105A6000224631460560838005F0DAFDDFF8D480F8
:105A700029480A23294F22464146A0F8049007608E
:105A8000837105F0CDFD26480B2322464146A0F840
:105A900004900760837105F0C3FD2248224B224623
:105AA00022490360F423037105F0BAFD2048314612
:105AB000224605604EF6F405858005F0B1FDDC2335
:105AC0001C48414622468371076085801A4D05F0C7
:105AD000A7FD1A48FCF7D0FC2846FFF7E7FA224654
:105AE00028461749BDE8F84305F09ABDB4360020B2
:105AF00058260020350500003C0700203C360020D9
:105B00006C360020CC36002054360020843600202D
:105B10000C360020E43600209C360020540700207C
:105B200024360020DC350020240700203905000041
:105B3000C4350020F435002044400020543F0020AC
:105B4000A5360000310500002DE9F8431A4D40F25A
:105B5000EE281A4C1A4FDFF87C902E6805F046FCB0
:105B60002378DBB13B78DB0718D52B68D9F8002008
:105B70009B1A0E2B12D900221249134803F0D8FAAF
:105B80001248FCF7ADFC1148FCF7BAFC0A2003F000
:105B9000F9FD0F48BDE8F843FFF784BC2B68227875
:105BA0009B1B2AB1B3F5FA6FE5D805F01FFCD5E7CA
:105BB0004345FAD9DFE700BF544200208442002069
:105BC0008342002080841E0030220020543F0020A9
:105BD000444000206442002010B5272082B000F02D
:105BE00013FA00230446082269461348CDE900331E
:105BF000FFF706FD30B9002221461048FCF734FDBE
:105C000002B010BD05220E490E4803F01FFD684684
:105C100007F0FEFA694602460A4803F017FD032220
:105C20000949084803F012FD064803F037FD6946AC
:105C30000248FCF753FDDEE744400020543F0020BB
:105C4000540E0020302200205C0E00202DE9F84385
:105C50003F4840F204793F4C3F4E404D224631468A
:105C6000A0F80490056005F0DBFC3D484FF60433D6
:105C7000224631460560838005F0D2FC39484FF654
:105C8000F833224631460560838005F0C9FC36486A
:105C900040F20373224631460560838005F0C0FC64
:105CA00032484FF60333224631460560838005F0C3
:105CB000B7FC2F484FF6F733224631460560838004
:105CC00005F0AEFC2B4840F20363224631460560E6
:105CD000838005F0A5FC284840F6030322463146A0
:105CE0000560838005F09CFCDFF8B08023480A2320
:105CF000234F22464146A0F804900760837105F0C7
:105D00008FFC20480B2322464146A0F804900760F0
:105D1000837105F085FC1C481C4B22461C4903601E
:105D2000F423037105F07CFC1A48314622460560D5
:105D30004EF6F405858005F073FC1748DC232246F7
:105D40004146076085808371BDE8F84305F068BC73
:105D5000BC36002058260020350500003C070020F6
:105D60004436002074360020D43600205C360020F3
:105D70008C36002014360020EC360020A43600209B
:105D8000540700202C360020E43500202407002092
:105D900039050000CC350020FC350020310500001D
:105DA00001210D2008B503F04FFF01210D2003F064
:105DB0000FFF322003F08EFE00210D2003F008FFBC
:105DC000322003F087FE01210D2003F001FF322075
:105DD00003F080FE00210D2003F0FAFE40F2523065
:105DE00003F078FEE1E700BF036810B50446DB6806
:105DF0009847236820465B6BBDE81040184700BFFA
:105E0000036810B504465B699847236820465B6BBE
:105E1000BDE81040184700BF10B5036882B00446C3
:105E200001919B6B9847236801992046DB6902B07A
:105E3000BDE81040184700BF10B5036882B00446A3
:105E400001919B6B9847236801992046DB6A02B059
:105E5000BDE81040184700BF70B5064601F026FEA9
:105E6000046814B913E064688CB1204601F01CFE8C
:105E7000B0420CD8204601F017FE0546204601F03E
:105E800011FEB542EFD8B042EDD9204670BDFFF704
:105E900087FF00BF70B582B004460191FFF7DCFFB9
:105EA000036805461E6901F0FFFD0B4B241A019A99
:105EB0009E42A1B20AD12B6828465B6998472B689D
:105EC00028465B6B02B0BDE8704018472846334651
:105ED00002B0BDE870401847F13B0000B0F5004F3C
:105EE00021D048282DE9F041044617D90D46FFF787
:105EF000B3FF036806469F6801F0D6FD0D4B241AD8
:105F00009F42A1B210D1336830462A46DB689847D9
:105F1000336830465B6BBDE8F0411847C0B2BDE85E
:105F2000F04103F091BE70472A4630463B46BDE83B
:105F3000F0411847D93B0000B0F5004F06D0482883
:105F400002D8C0B203F044BEFFF7A4BF704700BF41
:105F5000B0F5004F22D0482870B5044682B018D959
:105F6000FFF77AFF036805469E6901F09DFD0E4B21
:105F7000211A9E4289B213D12B68284601919B6B4E
:105F800098472B6801992846DB6902B0BDE870404C
:105F90001847C0B203F046FE02B070BD0020704743
:105FA00028463346F1E700BF093C0000B0F5004F3A
:105FB00023D0482870B5044682B018D9FFF74CFFAB
:105FC000036805469E6A01F06FFD0E4B211A9E4242
:105FD00089B214D12B68284601919B6B98472B6896
:105FE00001992846DB6A02B0BDE870401847C0B28C
:105FF00003F070FB80B202B070BD002070472846ED
:106000003346F0E7293C000080B2FFF7CFBF00BF66
:10601000704700BF704700BF704700BF704700BFA8
:10602000704700BF704700BF704700BF704700BF98
:10603000704700BF82B0836AADF8041013B10198B5
:1060400002B0184702B070472DE9F04385B0446AAA
:106050006B4683E806001CB193E80300A04740BBF1
:10606000DFF86090009ED9F800409DF80550BDF81B
:106070000470F4B10DF1080801E06468CCB1237B31
:106080000296AB42ADF80C70F7D12368204698E831
:1060900006005B6998470028EFD0A3684BB1996868
:1060A000626849B14C60C3E90124C4E9013132B1ED
:1060B000936005B0BDE8F083C9F80040F3E7C9F884
:1060C0000430F6E7AC350020034B10B504460360FE
:1060D00001F046FC204610BD58060020054B10B5C7
:1060E0000446036001F03CFC0821204603F00AFF4F
:1060F000204610BD58060020043000F055BC00BFFB
:1061000038B5244B0025244C4FF47A7203F1080172
:106110002C3365602160A360E560C4E9042503F0C9
:106120002DFD226944F21A13E561801AC4E90503C2
:1061300003F024FD194BA26904F15401E362801AB3
:10614000236503F1340204F15C03E0610120A366DE
:10615000134B6263186004F1380004F13003E16608
:10616000A5622563A563A4F84C506565A4F870503A
:106170000C49C4E91625C4E91103C4E908552046B1
:10618000094AC4E90F55C4E91855BDE8384005F07F
:1061900047BA00BF64060020D03700206C070020FB
:1061A000983400209D3F0000582600200E4B10B56B
:1061B00003F1080204462C3350302260A36001F042
:1061C00023FB04F12C0001F01FFB084A2046084B7A
:1061D000226040F8083F01F0C3FB064B20462360D5
:1061E00001F058FA204610BD64060020EC0600209D
:1061F000580600201C06002038B5104B0546044602
:10620000483003F108022C3340F8502C45F8083987
:1062100001F0FAFA04F1240001F0F6FA084A094BF9
:10622000204644F8082C236001F09AFB064B2846D0
:1062300044F8083C01F02EFA284638BD64060020D8
:10624000EC060020580600201C060020104B10B55C
:1062500003F1080204462C3350302260A36001F0A1
:10626000D3FA04F12C0001F0CFFA0A4A20460A4B77
:10627000226040F8083F01F073FB084B2046236082
:1062800001F008FA2046742103F03CFE204610BDC0
:1062900064060020EC060020580600201C060020A2
:1062A00038B5124B0446A0F1080503F108022C335F
:1062B00040F8082C40F8483B01F0A6FA04F124000D
:1062C00001F0A2FA0A4A0B4B204644F8082C23603E
:1062D00001F046FB084B284644F8083C01F0DAF987
:1062E0002846742103F00EFE284638BD64060020BF
:1062F000EC060020580600201C0600200A460B462B
:106300002DE9F041C2F3074286B0046AC1F30720C9
:106310008DF813200A0E8DF8120003F0F0039DF89B
:1063200011008DF81420CAB2019162F303008DF8B8
:1063300010308DF8110024B10846A04760B99DF8CF
:106340001030B02B0BD003F0EF02802A47D0D02BB7
:1063500000F0A280C02B6DD006B0BDE8F0819DF8A2
:106360001230792B00F0C3807B2B00F0E680DFF841
:10637000F481D8F80040002CEED004AE784F03AD85
:106380002368314620469B69984723680246294680
:10639000DB69201DADF80C20BB4279D100F004FB75
:1063A000034620462A463146002B6CD023685B69A1
:1063B0009847002867D02369002BCDD01969E2687F
:1063C000002900F0B780CC60C3E90324C4E903319D
:1063D000002A00F0AC80136106B0BDE8F081DFF860
:1063E0009081D8F80040002CB6D004AE5C4F03ADCD
:1063F0000EE000F0D9FA034620462A46314623B182
:1064000023685B6998470028D5D1E468002CA3D0A5
:106410002368314620469B699847236802462946EF
:10642000DB69201DADF80C20BB42E2D02046984726
:106430000346E1E7DFF83C81D8F80040002C8BD020
:1064400004AE474F03AD0FE0201D00F0ADFA2A4621
:1064500030B12368204631465B6998470028AAD1AD
:10646000E468002C3FF478AF2368314620469B69EE
:10647000984723682946ADF80C00DB69BB42E3D09E
:1064800020469847E3E7E468002C7FF479AF63E7A0
:1064900020469847034684E7DFF8D080D8F80040CC
:1064A000002C3FF459AF04AE2D4F03AD10E0201D7A
:1064B00000F07AFA2A4638B12368204631465B69F3
:1064C000984700287FF477AFE468002C3FF444AF8E
:1064D0002368314620469B69984723682946ADF8D2
:1064E0000C00DB69BB42E2D020469847E2E71D4B37
:1064F0001C6854B11C4D01E0E46834B12368DB68CA
:10650000AB42F9D020469847F6E7184B1C68002CA0
:106510003FF422AF144D03E0E468002C3FF41CAFBD
:106520002368DB68AB42F7D020469847F4E7C8F809
:10653000043011E7C8F8004046E70D4B1C68002CFA
:106540003FF40AAF084D03E0E468002C3FF404AFC9
:106550002368DB68AB42F7D020469847F4E700BFDA
:10656000E93E000094350020153E0000B4350020BF
:10657000A43500209C35002070B50446C06882B068
:1065800010B1002002B070BD6368002BFAD100F09A
:1065900031FA0546C0B104F12C01204604F1500641
:1065A000019100F013FF019905F1080000F01CFFB4
:1065B00004F10800314600F017FF2846314600F08C
:1065C00005FF012002B070BDFFF7EAFB70B505467C
:1065D000FFF7D2FF0C2003F0D5F801F039FA474B52
:1065E0001C6834B1236820469B6898476468002C77
:1065F000F8D100F0F1F9424B1C6864B1414E01E062
:10660000E46844B123689B68B342F9D020469847B8
:10661000E468002CF6D13C4B1C6864B1394E01E0B3
:10662000E46844B123689B68B342F9D02046984798
:10663000E468002CF6D1354B1C6864B1314E01E0A2
:10664000E46844B123689B68B342F9D02046984778
:10665000E468002CF6D12E4B1C6864B1294E01E091
:10666000E46844B123689B68B342F9D02046984758
:10667000E468002CF6D1274B1C6864B1264E01E07B
:10668000646844B123689B68B342F9D020469847B8
:106690006468002CF6D1214B1C6834B12368204675
:1066A0009B6898476468002CF8D11D4B1C6834B176
:1066B000236820469B6898476468002CF8D1194BE2
:1066C0001C6834B1236820469B6898476468002C96
:1066D000F8D1154B1C6834B1236820469B68984755
:1066E0006468002CF8D103F049FA2B69C01A68617C
:1066F00003F044FAAB69C01AE86170BD643500204C
:1067000094350020113E00009C350020B435002057
:10671000A4350020AC3500201D3E0000743500205B
:106720005C350020543500206C35002082B00830E4
:106730009DF808C08DF804108DF805208DF80630FE
:106740008DF807C0019902B000F05EBE38B5284B45
:106750001C6864B1274D01E0E46844B123681B69FB
:10676000AB42F9D020469847E468002CF6D1224B82
:106770001C6864B11F4D01E0E46844B123681B69E3
:10678000AB42F9D020469847E468002CF6D11B4B69
:106790001C6864B1174D01E0E46844B123681B69CB
:1067A000AB42F9D020469847E468002CF6D1144B50
:1067B0001C6864B10F4D01E0E46844B123681B69B3
:1067C000AB42F9D020469847E468002CF6D10D4B37
:1067D0001C6864B10C4D01E0646844B123681B6916
:1067E000AB42F9D0204698476468002CF6D138BDFA
:1067F00094350020193E0000A4350020B435002057
:106800009C350020AC350020213E00001C4B2DE9BA
:10681000F0411D68002D30D000231A4E1A4F14E0AD
:106820009C420BD013B11B685B6A984723682046D3
:10683000DB69984723681B6ABB421BD12B6828463B
:106840009B6898476D6823466DB1EC6818463268BE
:10685000A242E5D0E268002AE2D12269002ADFD113
:106860006D68002DF1D143B11A681846BDE8F041BA
:10687000536A184720469847E0E7BDE8F08100BF1B
:106880007C3500208C350020013E000038B50546DF
:1068900001F0FAF81D4B1C6834B123682046DB6810
:1068A00098476468002CF8D103F068F9D5E904230F
:1068B000C01A90421CD2164B1C6834B12368204683
:1068C000DB6898476468002CF8D12846FFF73EFF44
:1068D00003F054F9D5E90623C01A904204D31344B7
:1068E0002846EB61FFF792FFBDE8384001F0BEB8E3
:1068F000084913440C686B61002CDCD023682046E7
:10690000DB6898476468002CF8D1D4E77435002020
:10691000643500205C35002008B5054B1B68DB079B
:1069200003D5044B044A1A6008BDFFF7E9FBF8E7FA
:106930009834002088350020D037002091F800C01E
:1069400002784FEA5C03CCF3000C497803EB520366
:10695000C2F3000200B583B002EA0C0290F801E035
:1069600003F07F039DF804C000205B0062F3000C7D
:106970008DF804C001EB0E0C0909BDF804200CF0E1
:106980000F0C01EB1E1102F0010243EA0C2343EA53
:1069900001331A43C3F30723D2B262F3070063F350
:1069A0000F2003B05DF804FB0B78024613F00100E2
:1069B00011D092F800C01CF001000CD083EA0C0347
:1069C00013F0FE0F06D148785378C01AB0FA80F061
:1069D0004009704700207047054B10B51C6834B162
:1069E000236820469B699847E468002CF8D110BDC5
:1069F0008C350020044B186800B17047034B586871
:106A00000028FAD010387047843500206435002003
:106A1000006910B103689B6918477047406910B15D
:106A200003689B6818477047C06810B103689B688B
:106A30001847704701F0070C012310B503FA0CF357
:106A40004FEAD10C62B10F29DBB21CD884449CF808
:106A500020E043EA0E038CF82030006970B910BDC5
:106A60000F296FEA03030ED884449CF820E00EEA55
:106A700003038CF8203000690028F0D00368BDE8DB
:106A800010405B691847FFF78BF900BF10B500692C
:106A900086B00191002839D00368234A9B6893424D
:106AA00038D19DF804E09DF805C09DF806109DF8CA
:106AB000072000698DF808E08DF809C08DF80A10EC
:106AC0008DF80B2010B30468A4689C4220D10069A3
:106AD0008DF80CE08DF80DC08DF80E108DF80F209C
:106AE000A0B103689B68A34218D100698DF810E03B
:106AF0008DF811C08DF812108DF8132030B1026896
:106B0000049992689A420BD1FFF7C0FF06B010BDFE
:106B10000299234606B0BDE8104018470399F9E7EB
:106B200006B0BDE810401047854A0000836930B5C3
:106B300004468DB01868019108B1FFF7F7FF23688C
:106B4000524ADB69934240F082809DF804C09DF870
:106B500005109DF806209DF8073020698DF80CC0BF
:106B60008DF80D108DF80E208DF80F3000286CD0A8
:106B70000468A568464CA5426FD100698DF810C025
:106B80008DF811108DF812208DF8133000285CD08C
:106B90000568AD68A54266D100698DF814C08DF80E
:106BA00015108DF816208DF8173000284DD0056887
:106BB000AD68A5425DD100698DF818C08DF8191037
:106BC0008DF81A208DF81B3000283ED00568AD687E
:106BD000A54251D100698DF81CC08DF81D108DF8AB
:106BE0001E208DF81F3080B30568AD68A5423DD1E9
:106BF00000698DF820C08DF821108DF822208DF8C5
:106C0000233010B30568AD68A54238D100698DF80E
:106C100024C08DF825108DF826208DF82730A0B1DE
:106C20000568AD68A5422DD100698DF828C08DF8A2
:106C300029108DF82A208DF82B3030B103680A997D
