:0200000460009A
:100000004643464200000156000000000103030081
:1000100000000000000000000000000000000000E0
:1000200000000000000000000000000000000000D0
:1000300000000000000000000000000000000000C0
:1000400000000000010408000000000000000000A3
:100050000000800000000000000000000000000020
:100060000000000000000000000000000000000090
:100070000000000000000000000000000000000080
:10008000EB04180A063204260000000000000000FD
:10009000050404240000000000000000000000002F
:1000A0000000000000000000000000000000000050
:1000B0000604000000000000000000000000000036
:1000C0000000000000000000000000000000000030
:1000D00020041808000000000000000000000000DC
:1000E0000000000000000000000000000000000010
:1000F0000000000000000000000000000000000000
:10010000D8041808000000000000000000000000F3
:100110000204180804200000000000000000000095
:1001200000000000000000000000000000000000CF
:10013000600400000000000000000000000000005B
:1001400000000000000000000000000000000000AF
:10015000000000000000000000000000000000009F
:10016000000000000000000000000000000000008F
:10017000000000000000000000000000000000007F
:10018000000000000000000000000000000000006F
:10019000000000000000000000000000000000005F
:1001A000000000000000000000000000000000004F
:1001B000000000000000000000000000000000003F
:1001C000000100000010000001000000000000001D
:1001D000000001000000000000000000000000001E
:1001E000000000000000000000000000000000000F
:1001F00000000000000000000000000000000000FF
:10020000FFFFFFFFFFFFFFFFFFFFFFFFFFFFFFFFFE
:10021000FFFFFFFFFFFFFFFFFFFFFFFFFFFFFFFFEE
:10100000D10020434D1600600000000000000000E9
:10101000201000600010006000540160000000001B
:10102000000000600060010000000000FFFFFFFF03
:10103000FFFFFFFFFFFFFFFFFFFFFFFFFFFFFFFFC0
:10104000FFFFFFFFFFFFFFFFFFFFFFFFFFFFFFFFB0
:10105000FFFFFFFFFFFFFFFFFFFFFFFFFFFFFFFFA0
:10106000FFFFFFFFFFFFFFFFFFFFFFFFFFFFFFFF90
:10140000814205D051F8043B40F8043B8242F9D8B0
:10141000704700BF044A05494FF0000342F8043BFF
:101420009142FBD8704700BFC03A0020004C00201A
:101430002DE98848BFF34F8F00BF00BF00BF00BF3A
:1014400000F042F9684B0822C3F8542100BF00BFE6
:1014500000BF00BF00BF00BF00BF00BF00BF00BF94
:1014600000BF00BF00BF00BF00BF00BF5F4A6049B0
:101470006048FFF7C5FF604A60496148FFF7C0FF59
:10148000604CFFF7C7FF4FF470004FF0E0210023DE
:101490005D4AC1F8880D44F823200133B02BFAD1FE
:1014A0005A4B80215A4A03F8011B9342FBD14FF05B
:1014B000E0254D4E4FF08039DFF884B1DFF884A18C
:1014C0004FF0FF31C5F8084D0027C6F80491C6F863
:1014D00000B1C6F8F490C6F8F0A0D5F8243DDFF8C6
:1014E000688143F4E0234B4AC5F8243DD8F81C300A
:1014F00023F07F0343F04003C8F81C30D8F82430B1
:1015000023F07F0343F04003C8F824309166D1668E
:101510001167516700F0E0F83F4B4049A363404B2F
:10152000E36363236B610323AF612B613D4BC5F81C
:10153000203DD5F8FC3D43F08073C5F8FC3D3A4BA7
:101540001A6842F001021A605B680B6000F00EFB43
:10155000C6F804913548C6F800B1C6F8F490C6F84C
:10156000F0A000F035FDD8F86C10314B314A41F451
:101570004051C8F86C101F60C3F80871C3F81871A7
:10158000C3F82871C3F83871936BDB0708D442F6AF
:101590001563294951651365936B43F00103936308
:1015A000244A264C936843F00113936000F01CF921
:1015B00000F060F800F010FD00F006FB00F086F887
:1015C0002368132BFCD900F097FB2368B3F5967FB3
:1015D000FBD300F07FF800F07BF800F009FD00F08D
:1015E0000BFD30BFFDE700BF00800D4078F3000029
:1015F000FC23006000000000C03A00207817016062
:101600000000002000380020F965000000E400E040
:10161000A0E400E000C00A40F1860000744B002006
:10162000F586000000002020001000E00046C323E3
:101630000040084000400D400000C056784B00209C
:101640001B1018200C0D111300C00F40054B4FF458
:101650002A01054A05485A641864054A9963954663
:10166000FFF7E6FE00C00A40AFAAAAAA07002000C2
:1016700000000720104BA020104AD96E41F44031E1
:1016800010B4D96640F23764D96E41F44071D9661E
:1016900054649064936C1B06FCD4094A40F2376191
:1016A000A02351649364936C13F08003FBD1054A2B
:1016B00013705DF8044B704700C00F4000400C40B1
:1016C00000800C40B64B0020704700BF704700BF41
:1016D000704700BF00BF704710B44FF0E0230021F7
:1016E00010243148C3F8941DC3F89C4D1124C3F84D
:1016F000A00D2E48C3F89C4D1224C3F8A00D2C4811
:10170000C3F89C4D2B4AC3F8A00D2B4C42F0150298
:101710002A48C3F89C4DC3F8A00D294C2948C3F8AA
:101720009C4DC3F8A00D284CC3F89C2D2748284A8F
:10173000C3F8A04DC3F89C0DC3F8A02D02F5A0225C
:10174000244C0C322448C3F89C4DC3F8A02D234AE6
:10175000C3F89C0D224CC3F8A02D02F14062C3F8DF
:101760009C4D2048C3F8A02D0C32C3F89C0DC3F843
:10177000A02D00BF00BF00BF00BF00BF0122C3F803
:10178000942DBFF34F8FBFF36F8FC3F8501FBFF37C
:101790004F8FBFF36F8FD3F8142D5DF8044B42F4D5
:1017A0004032C3F8142D70473F0000102500080791
:1017B00009001000004C0020130020002100020747
:1017C0001400002025000813090000101600202036
:1017D00027000B1317000040180000602F000B07B4
:1017E000190000701A000080F0B5B84B1822B84EEE
:1017F0000120B84F83B0C3F85C62B749C3F8607288
:10180000B64DC3F86462A6F53046B54CC3F86862BD
:10181000C3F86C52C3F87052C3F87452C3F87852CC
:1018200048F20C75DA661A675A679A67DA67C3F87E
:101830008020C3F88420C3F88820C1F82C03A94A6B
:10184000C1F83003C1F83403C1F83803C1F83C03D0
:10185000C1F85003A169A44B0A40A448A44913430A
:10186000A44AA361D4F8843043F00C03C4F8843054
:101870004FF0FF34036843F00203036003682B401A
:101880004FF400551A439C4B026044608A689B4C9D
:1018900013409B4A43F000538360C36823F07803EE
:1018A000C360036A134023430362036A1340954AEB
:1018B0002343954C43628262C2620022D1F8B83061
:1018C00023F03F0343F00103C0F8B830D1F8BC3037
:1018D0008E4923F03F0343F00103C0F8BC3040F2CF
:1018E0000563026105660467C0F880304566446799
:1018F0000224C0F88430036823F00203036081618E
:10190000834B8449C46143F8042B8B42FBD1774A53
:10191000136843F001031360136813F00103FBD154
:101920007A48022140F2F564906140F29940D16119
:1019300040F26641C2F8004242F20144C2F810127D
:101940007549C2F82002C2F8301240F2354173489E
:10195000C2F83442C2F84012714CC2F8500242F24E
:1019600001207049C2F854120121C2F86042C2F845
:1019700064025E48C2F8A030C2F8A430C2F8B010C9
:101980004369DA07FCD5012300244FF4803257491C
:101990004361C0F8A040C0F8A420C0F8B0304B6943
:1019A000DB07FCD5012300244FF400304F4A4B6184
:1019B000C1F8A040C1F8A400C1F8B0305369DF07F6
:1019C000FCD501230024584848495361C2F8A0407F
:1019D000C2F8A400C2F8B0304B69DE07FCD5D1F8DC
:1019E000003145F60D5221209BB24861934265D1EA
:1019F00000244FF4802201233C48C1F8A040C1F8E4
:101A0000A420C1F8B0304369DD07FCD501234FF4B1
:101A100000040021354A4361C0F8A040C0F8A4107A
:101A2000C0F8B0305369DC07FCD501234FF4000443
:101A30004FF480302D495361C2F8A040C2F8A40091
:101A4000C2F8B0304B69D807FCD501234FF400042D
:101A50004FF40030254A4B61C1F8A040C1F8A40002
:101A6000C1F8B0305369D907FCD501234FF4000405
:101A70002D481E495361C2F8A040C2F8A400C2F824
:101A8000B0304B69DA07FCD5D1F8003145F60D527C
:101A900021209BB24861934250D008254FF40004A6
:101AA00022490020224B234A009015705A1A012324
:101AB0002148224400F084FA03B0F0BD1E4B0022FE
:101AC000C3E90022C3E9022203B0F0BD00801F4039
:101AD000F9B00100F910010000841F40F970010005
:101AE00000C00F40FFFCFF1F000300A000402A4081
:101AF00000802A401200FFFFFF37F70040000080FF
:101B000000FFF07CFF000F8363000200F05AF05AE0
:101B100000422A4000432A409F041830EB06180A6E
:101B20003806180A0632012604000300000000707F
:101B300000000070B84B00200C4900204FF4000456
:101B40004FF4802201230848C1F8A040C1F8A42026
:101B5000C1F8B0304369DB07FCD5012310254FF0F5
:101B6000807443619CE700BF00402A40F0B4154AEE
:101B700040274FF480314FF480564FF400554FF416
:101B8000404443F24200136913F0020F0ED113F4E4
:101B9000005F0FD013F4805F0ED0002BF3DA13F444
:101BA000803F0BD15B060BD5F0BC7047946151614F
:101BB0009061E8E75561E6E75661E4E79161E2E7A5
:101BC0005761E0E700800D403F4A03203F49F3EEB4
:101BD000095AD2F880304FF0000C9FED3D6A23F097
:101BE00001039FED3C5A30B4C2F88030C2F8900037
:101BF000D1F8E010384DCBB2384C39482B6007EEA5
:101C0000903A0B0DC1F30B21F8EEE77A06EE903A0D
:101C100007EE101A334BB8EEC77A2160F8EEE66A89
:101C2000314937EEC66A37EEC55A76EEC76A77EEA7
:101C3000E57A26EE266AC3ED006A25EE265AD2F82A
:101C4000803067EEA64AC0ED007AC6EE275A2748D4
:101C500085EE276AC4EEA76A75EE875AFCEEE55A50
:101C600036EE076A15EE904ABCEEC66A43EA0453A4
:101C700076EE877AC2F8803016EE103AD2F89041AC
:101C8000FCEEE77A01EA0341214317EE903AC2F8ED
:101C90009011C3F30B03D2F890110B431449C2F80F
:101CA0009031D2F8803043F00203C2F88030114BFB
:101CB00080F840C0C1F840314FF0E023012230BC31
:101CC000C3F80821704700BF00810D4000441F4049
:101CD0000000AA420000B442644B0020604B002088
:101CE000684B00206C4B00200000FF0F00E400E078
:101CF00000380020E1670000314B40F6617210B5FA
:101D0000C3F8202140F2044400F05EF92D4A2E4928
:101D1000D2F880302D4843F00303C2F880302C4BBA
:101D2000C1F8604102681A4203D1D1F8A8319A077C
:101D30001BD0254A4FF00041244B5963D2F8403163
:101D400043F00203C2F84031D2F840319B07FBD484
:101D50004FF400304FF0E0211C4B4FF00042C1F82F
:101D60008C0219209A6300F03BF9184A4FF080402A
:101D7000154C002190630A20164B11604FF46072DD
:101D8000C4F8A801184600F02FF94FF4800203466A
:101D90004FF4810040F243111860C4F858311A64BE
:101DA0000D4B0E4AC4F84811C3F804224FF0E0224C
:101DB0004FF400310123C2F80C11C4F8403110BDBA
:101DC00000800D4000C00F4000002E4000900D40EC
:101DD000001C1E000000002000380020C96A00001E
:101DE00008B50E4B1B6E9B0700D4FBBE72B60C4BA6
:101DF00000200C4AC3F8400103F160430A49A3F5EF
:101E00005F2311649D46BFF34F8F4FF400130748C3
:101E1000074ADB6902609B68984700BF00441F4087
:101E200000002E4000C00A40030020000080202057
:101E3000000012EB43690A4A03EB011010B4037A65
:101E4000084C02EB0313D3E901321460C2681A6034
:101E500003690BB142691A605DF8044B704700BF1B
:101E6000B00B002061F801004369027E03EB02120F
:101E700092F808C08C451CD01A7AFF2A19D09142DA
:101E800010B5044616D01A7EFF2A06D00121D3E9E8
:101E9000002312681A4201D1217610BD064B05229B
:101EA000204603EB0C135B681A60FFF7C3FF217633
:101EB000F3E770470021EAE7B00B002043690A4AC4
:101EC00003EB011010B490F82830084C02EB031318
:101ED000D3E901321460C26A1A60036B0BB1426B22
:101EE0001A605DF8044B7047B00B002061F80100E8
:101EF0004369427E03EB021292F828C08C451ED043
:101F000093F82820FF2A1AD0914210B5044617D022
:101F100093F83820FF2A06D00121D3E90023126864
:101F20001A4201D1617610BD064B0522204603EB13
:101F30000C135B681A60FFF7C1FF6176F3E7704727
:101F40000021EAE7B00B0020164942698B6B23F4AD
:101F50007C0343F4802370B58B630446124DD2E9B1
:101F600000130A681A4303690A60022200211A61F9
:101F70000E4A19619A6401225A629D624FF430350B
:101F8000DD624FF001159E6C1E6519629D651A6138
:101F9000017EFFF74FFF617E2046BDE87040FFF7EE
:101FA0008DBF00BF00C00F40B80B05053B37281997
:101FB000F8B500BFF8BC08BC9E46704700000000A2
:101FC0005FF800F0E18700005FF800F09D79000005
:101FD0005FF800F0595D00005FF800F00565000053
:101FE0005FF800F0496000005FF800F0E99300003E
:101FF0005FF800F0999400005FF800F0E1620000E3
:102000000501000029010000092A000045870000A1
:1020100024035400650065006E0073007900200001
:102020004D004900440049002F0041007500640044
:1020300069006F0018035400650065006E007300AE
:1020400079006400750069006E006F0004030904E4
:1020500009025501060100C032080B00020202010C
:10206000000904000001020201000524001001051E
:10207000240101010424020605240600010705824B
:102080000310001009040100020A00000007050304
:10209000024000000705830240000009040200021C
:1020A00001030000072401000125000624020101AC
:1020B00000062402020200092403010301020100B8
:1020C0000924030204010101000905040240000083
:1020D00000000525010101090584024000000000FF
:1020E0000525010103080B03030101000009040396
:1020F0000000010100000A240100013E0002040565
:102100000C2402010206000203000000092403025D
:1021100001010001000C2402030101000203000080
:10212000000A24063103010102020009240304020B
:102130000600310009040400000102000009040443
:10214000010101020000072401020301000B240227
:10215000010202100144AC0009058509B400010028
:10216000000725010000000009040500000102002D
:102170000009040501020102000007240103030114
:10218000000B2402010202100144AC000905050500
:10219000B400010086072501000000000905861132
:1021A000030001050000000009025501060100C0FE
:1021B00032080B00020202010009040000010202C1
:1021C0000100052400100105240101010424020678
:1021D000052406000107058203100005090401001B
:1021E000020A00000007050302000200070583023F
:1021F000000200090402000201030000072401009C
:102200000125000624020101000624020202000941
:102210002403010301020100092403020401010156
:102220000009050402000200000005250101010962
:1022300005840200020000000525010103080B03CC
:1022400003010100000904030000010100000A2449
:102250000100013E000204050C24020102060002F6
:10226000030000000924030201010001000C240204
:102270000301010002030000000A240631030101EA
:1022800002020009240304020600310009040400CC
:1022900000010200000904040101010200000724FA
:1022A00001020301000B2402010202100144AC00F0
:1022B00009058509B400040000072501000000009D
:1022C00009040500000102000009040501020102E1
:1022D0000000072401030301000B24020102021085
:1022E0000144AC0009050505B4000400860725017A
:1022F000000000000905861104000407000000002A
:102300000A060002EF0201400100000080C00F40F9
:10231000000000031900000010000000E8841F40C6
:1023200001000000FF000000FF00000000000000AE
:10233000000000001800000010000000E4841F40AE
:1023400001000000FF000000FF000000000000008E
:10235000000000001F0000002D8C000070C00F4026
:10236000000C00001100000011000000E0841F407C
:10237000020000002C00000012000000E0841F405A
:10238000010000001000000011000000DC841F406C
:10239000020000002D00000012000000DC841F403D
:1023A000010000001E000000218C000070C00F40E2
:1023B000C00000001200000013000000D0841F4085
:1023C00001000000FF000000FF000000000000000E
:1023D000000000001300000013000000CC841F4028
:1023E00001000000FF000000FF00000000000000EE
:0C23F000000000001C000000158C000024
:1023FC0000000000000000000000000000000000D1
:10240C0000000000000000000000000000000000C0
:10241C00F8B54FF084439D695A6915400DD0254F8E
:10242C0001269D6195FAA5F4B4FA84F457F824308A
:10243C0006FA04F49847A543F4D11F4B9D695A69D9
:10244C0015400DD01D4F01269D6195FAA5F4B4FAE7
:10245C0084F457F8243006FA04F49847A543F4D1D1
:10246C00174B9D695A6915400DD0164F01269D6179
:10247C0095FAA5F4B4FA84F457F8243006FA04F467
:10248C009847A543F4D1104B9D695A6915400DD05E
:10249C000E4F01269D6195FAA5F4B4FA84F457F811
:1024AC00243006FA04F49847A543F4D1BFF34F8FB8
:1024BC00F8BD00BF6033002000400042E033002034
:1024CC00008000426034002000C00042E034002054
:1024DC000548064B1B1AD90F01EBA301491002D07A
:1024EC00034B03B118477047C03A0020C03A002094
:1024FC000000000008B5054B1BB105490548AFF3BA
:10250C000080BDE80840FFF7E3BF00BF00000000FB
:10251C00E449002000600160044BFF204FF0FF31C4
:10252C0000221860C3E90212704700BF403F002030
:10253C0000207047704700BF38B500F10805D0F88F
:10254C00B4300446284698474FF6FD73984201D99B
:10255C00012038BD0346B4F8BA20B4F8B8102846A8
:10256C0004F096FB94F89030032BF1D8DFE803F0DD
:10257C00140E0802B4F8BA301B1AA4F8BA30E7E704
:10258C00B4F8B8301B1AA4F8B830E1E7B4F8BA3094
:10259C001844A4F8BA00DBE7B4F8B8301844A4F82F
:1025AC00B800D5E72DE9F047002A4ED004460D4679
:1025BC008F180026DFF89C9000F108084FF6FD7A82
:1025CC0003E00120AF42064420D0236815F8011B1C
:1025DC001B684B4515D1D4F8B4304046984750454C
:1025EC00EFD80346B4F8BA20B4F8B810404604F05B
:1025FC004FFB94F89030032BE3D8DFE803F01F185F
:10260C00110A20469847AF420644DED13046BDE859
:10261C00F087B4F8BA301B1A0120A4F8BA30D1E70D
:10262C00B4F8B8301B1A0120A4F8B830CAE7B4F8D3
:10263C00BA301844A4F8BA000120C3E7B4F8B83093
:10264C001844A4F8B8000120BCE716463046BDE893
:10265C00F08700BF49010000214B1A68D2E9001035
:10266C00D3680968006810B41842946801EA040140
:10267C002ED0137C03F00303D9B943F00803990857
:10268C00013B11740D2B0BD8DFE803F00D071C0771
:10269C000A160D0D160A071C070D5369013B5361F1
:1026AC005DF8044B704753695DF8044B013353617B
:1026BC00704743F00403E0E753695DF8044B023BB9
:1026CC005361704753695DF8044B02335361704793
:1026DC00137C03F003030029D1D043F00403CEE7AD
:1026EC0094400020214B5A68D2E90010D368096845
:1026FC00006810B41842946801EA04012ED0137CCF
:10270C0003F00303D9B943F008039908013B117492
:10271C000D2B0BD8DFE803F00D071C070A160D0D67
:10272C00160A071C070D5369013B53615DF8044BF6
:10273C00704753695DF8044B01335361704743F0A4
:10274C000403E0E753695DF8044B023B53617047A7
:10275C0053695DF8044B023353617047137C03F0EB
:10276C0003030029D1D043F00403CEE794400020AA
:10277C00224BD3F8C820D2E90010D368096800684E
:10278C0010B41842946801EA04012ED0137C03F0B3
:10279C000303D9B943F008039908013B11740D2BBD
:1027AC000BD8DFE803F00D071C070A160D0D160AEF
:1027BC00071C070D5369013B53615DF8044B7047CF
:1027CC0053695DF8044B01335361704743F00403C4
:1027DC00E0E753695DF8044B023B53617047536962
:1027EC005DF8044B023353617047137C03F0030311
:1027FC000029D1D043F00403CEE700BF9440002061
:10280C00224BD3F8CC20D2E90010D36809680068B9
:10281C0010B41842946801EA04012ED0137C03F022
:10282C000303D9B943F008039908013B11740D2B2C
:10283C000BD8DFE803F00D071C070A160D0D160A5E
:10284C00071C070D5369013B53615DF8044B70473E
:10285C0053695DF8044B01335361704743F0040333
:10286C00E0E753695DF8044B023B536170475369D1
:10287C005DF8044B023353617047137C03F0030380
:10288C000029D1D043F00403CEE700BF94400020D0
:10289C00224BD3F8D020D2E90010D3680968006825
:1028AC0010B41842946801EA04012ED0137C03F092
:1028BC000303D9B943F008039908013B11740D2B9C
:1028CC000BD8DFE803F00D071C070A160D0D160ACE
:1028DC00071C070D5369013B53615DF8044B7047AE
:1028EC0053695DF8044B01335361704743F00403A3
:1028FC00E0E753695DF8044B023B53617047536941
:10290C005DF8044B023353617047137C03F00303EF
:10291C000029D1D043F00403CEE700BF944000203F
:10292C00224BD3F8D420D2E90010D3680968006890
:10293C0010B41842946801EA04012ED0137C03F001
:10294C000303D9B943F008039908013B11740D2B0B
:10295C000BD8DFE803F00D071C070A160D0D160A3D
:10296C00071C070D5369013B53615DF8044B70471D
:10297C0053695DF8044B01335361704743F0040312
:10298C00E0E753695DF8044B023B536170475369B0
:10299C005DF8044B023353617047137C03F003035F
:1029AC000029D1D043F00403CEE700BF94400020AF
:1029BC00224BD3F8D820D2E90010D36809680068FC
:1029CC0010B41842946801EA04012ED0137C03F071
:1029DC000303D9B943F008039908013B11740D2B7B
:1029EC000BD8DFE803F00D071C070A160D0D160AAD
:1029FC00071C070D5369013B53615DF8044B70478D
:102A0C0053695DF8044B01335361704743F0040381
:102A1C00E0E753695DF8044B023B5361704753691F
:102A2C005DF8044B023353617047137C03F00303CE
:102A3C000029D1D043F00403CEE700BF944000201E
:102A4C00224BD3F88820D2E90010D36809680068BB
:102A5C0010B41842946801EA04012ED0137C03F0E0
:102A6C000303D9B943F008039908013B11740D2BEA
:102A7C000BD8DFE803F00D071C070A160D0D160A1C
:102A8C00071C070D5369013B53615DF8044B7047FC
:102A9C0053695DF8044B01335361704743F00403F1
:102AAC00E0E753695DF8044B023B5361704753698F
:102ABC005DF8044B023353617047137C03F003033E
:102ACC000029D1D043F00403CEE700BF944000208E
:102ADC00224BD3F88C20D2E90010D3680968006827
:102AEC0010B41842946801EA04012ED0137C03F050
:102AFC000303D9B943F008039908013B11740D2B5A
:102B0C000BD8DFE803F00D071C070A160D0D160A8B
:102B1C00071C070D5369013B53615DF8044B70476B
:102B2C0053695DF8044B01335361704743F0040360
:102B3C00E0E753695DF8044B023B536170475369FE
:102B4C005DF8044B023353617047137C03F00303AD
:102B5C000029D1D043F00403CEE700BF94400020FD
:102B6C00224BD3F89020D2E90010D3680968006892
:102B7C0010B41842946801EA04012ED0137C03F0BF
:102B8C000303D9B943F008039908013B11740D2BC9
:102B9C000BD8DFE803F00D071C070A160D0D160AFB
:102BAC00071C070D5369013B53615DF8044B7047DB
:102BBC0053695DF8044B01335361704743F00403D0
:102BCC00E0E753695DF8044B023B5361704753696E
:102BDC005DF8044B023353617047137C03F003031D
:102BEC000029D1D043F00403CEE700BF944000206D
:102BFC00224BD3F89420D2E90010D36809680068FE
:102C0C0010B41842946801EA04012ED0137C03F02E
:102C1C000303D9B943F008039908013B11740D2B38
:102C2C000BD8DFE803F00D071C070A160D0D160A6A
:102C3C00071C070D5369013B53615DF8044B70474A
:102C4C0053695DF8044B01335361704743F004033F
:102C5C00E0E753695DF8044B023B536170475369DD
:102C6C005DF8044B023353617047137C03F003038C
:102C7C000029D1D043F00403CEE700BF94400020DC
:102C8C00224BD3F89820D2E90010D3680968006869
:102C9C0010B41842946801EA04012ED0137C03F09E
:102CAC000303D9B943F008039908013B11740D2BA8
:102CBC000BD8DFE803F00D071C070A160D0D160ADA
:102CCC00071C070D5369013B53615DF8044B7047BA
:102CDC0053695DF8044B01335361704743F00403AF
:102CEC00E0E753695DF8044B023B5361704753694D
:102CFC005DF8044B023353617047137C03F00303FC
:102D0C000029D1D043F00403CEE700BF944000204B
:102D1C00224BD3F89C20D2E90010D36809680068D4
:102D2C0010B41842946801EA04012ED0137C03F00D
:102D3C000303D9B943F008039908013B11740D2B17
:102D4C000BD8DFE803F00D071C070A160D0D160A49
:102D5C00071C070D5369013B53615DF8044B704729
:102D6C0053695DF8044B01335361704743F004031E
:102D7C00E0E753695DF8044B023B536170475369BC
:102D8C005DF8044B023353617047137C03F003036B
:102D9C000029D1D043F00403CEE700BF94400020BB
:102DAC00224BD3F8A020D2E90010D3680968006840
:102DBC0010B41842946801EA04012ED0137C03F07D
:102DCC000303D9B943F008039908013B11740D2B87
:102DDC000BD8DFE803F00D071C070A160D0D160AB9
:102DEC00071C070D5369013B53615DF8044B704799
:102DFC0053695DF8044B01335361704743F004038E
:102E0C00E0E753695DF8044B023B5361704753692B
:102E1C005DF8044B023353617047137C03F00303DA
:102E2C000029D1D043F00403CEE700BF944000202A
:102E3C00224BD3F8A420D2E90010D36809680068AB
:102E4C0010B41842946801EA04012ED0137C03F0EC
:102E5C000303D9B943F008039908013B11740D2BF6
:102E6C000BD8DFE803F00D071C070A160D0D160A28
:102E7C00071C070D5369013B53615DF8044B704708
:102E8C0053695DF8044B01335361704743F00403FD
:102E9C00E0E753695DF8044B023B5361704753699B
:102EAC005DF8044B023353617047137C03F003034A
:102EBC000029D1D043F00403CEE700BF944000209A
:102ECC00224BD3F8A820D2E90010D3680968006817
:102EDC0010B41842946801EA04012ED0137C03F05C
:102EEC000303D9B943F008039908013B11740D2B66
:102EFC000BD8DFE803F00D071C070A160D0D160A98
:102F0C00071C070D5369013B53615DF8044B704777
:102F1C0053695DF8044B01335361704743F004036C
:102F2C00E0E753695DF8044B023B5361704753690A
:102F3C005DF8044B023353617047137C03F00303B9
:102F4C000029D1D043F00403CEE700BF9440002009
:102F5C00224BD3F8AC20D2E90010D3680968006882
:102F6C0010B41842946801EA04012ED0137C03F0CB
:102F7C000303D9B943F008039908013B11740D2BD5
:102F8C000BD8DFE803F00D071C070A160D0D160A07
:102F9C00071C070D5369013B53615DF8044B7047E7
:102FAC0053695DF8044B01335361704743F00403DC
:102FBC00E0E753695DF8044B023B5361704753697A
:102FCC005DF8044B023353617047137C03F0030329
:102FDC000029D1D043F00403CEE700BF9440002079
:102FEC00224BD3F8B020D2E90010D36809680068EE
:102FFC0010B41842946801EA04012ED0137C03F03B
:10300C000303D9B943F008039908013B11740D2B44
:10301C000BD8DFE803F00D071C070A160D0D160A76
:10302C00071C070D5369013B53615DF8044B704756
:10303C0053695DF8044B01335361704743F004034B
:10304C00E0E753695DF8044B023B536170475369E9
:10305C005DF8044B023353617047137C03F0030398
:10306C000029D1D043F00403CEE700BF94400020E8
:10307C00224BD3F8B420D2E90010D3680968006859
:10308C0010B41842946801EA04012ED0137C03F0AA
:10309C000303D9B943F008039908013B11740D2BB4
:1030AC000BD8DFE803F00D071C070A160D0D160AE6
:1030BC00071C070D5369013B53615DF8044B7047C6
:1030CC0053695DF8044B01335361704743F00403BB
:1030DC00E0E753695DF8044B023B53617047536959
:1030EC005DF8044B023353617047137C03F0030308
:1030FC000029D1D043F00403CEE700BF9440002058
:10310C00224BD3F8B820D2E90010D36809680068C4
:10311C0010B41842946801EA04012ED0137C03F019
:10312C000303D9B943F008039908013B11740D2B23
:10313C000BD8DFE803F00D071C070A160D0D160A55
:10314C00071C070D5369013B53615DF8044B704735
:10315C0053695DF8044B01335361704743F004032A
:10316C00E0E753695DF8044B023B536170475369C8
:10317C005DF8044B023353617047137C03F0030377
:10318C000029D1D043F00403CEE700BF94400020C7
:10319C00224BD3F8BC20D2E90010D3680968006830
:1031AC0010B41842946801EA04012ED0137C03F089
:1031BC000303D9B943F008039908013B11740D2B93
:1031CC000BD8DFE803F00D071C070A160D0D160AC5
:1031DC00071C070D5369013B53615DF8044B7047A5
:1031EC0053695DF8044B01335361704743F004039A
:1031FC00E0E753695DF8044B023B53617047536938
:10320C005DF8044B023353617047137C03F00303E6
:10321C000029D1D043F00403CEE700BF9440002036
:10322C00224BD3F8C020D2E90010D368096800689B
:10323C0010B41842946801EA04012ED0137C03F0F8
:10324C000303D9B943F008039908013B11740D2B02
:10325C000BD8DFE803F00D071C070A160D0D160A34
:10326C00071C070D5369013B53615DF8044B704714
:10327C0053695DF8044B01335361704743F0040309
:10328C00E0E753695DF8044B023B536170475369A7
:10329C005DF8044B023353617047137C03F0030356
:1032AC000029D1D043F00403CEE700BF94400020A6
:1032BC00224BD3F8C420D2E90010D3680968006807
:1032CC0010B41842946801EA04012ED0137C03F068
:1032DC000303D9B943F008039908013B11740D2B72
:1032EC000BD8DFE803F00D071C070A160D0D160AA4
:1032FC00071C070D5369013B53615DF8044B704784
:10330C0053695DF8044B01335361704743F0040378
:10331C00E0E753695DF8044B023B53617047536916
:10332C005DF8044B023353617047137C03F00303C5
:10333C000029D1D043F00403CEE700BF9440002015
:10334C00214B9A68D2E90010D3680968006810B460
:10335C001842946801EA04012ED0137C03F0030395
:10336C00D9B943F008039908013B11740D2B0BD804
:10337C00DFE803F00D071C070A160D0D160A071CD3
:10338C00070D5369013B53615DF8044B704753695A
:10339C005DF8044B01335361704743F00403E0E7DD
:1033AC0053695DF8044B023B5361704753695DF8F8
:1033BC00044B023353617047137C03F00303002961
:1033CC00D1D043F00403CEE794400020214BDA68BF
:1033DC00D2E90010D3680968006810B418429468E8
:1033EC0001EA04012ED0137C03F00303D9B943F096
:1033FC0008039908013B11740D2B0BD8DFE803F07F
:10340C000D071C070A160D0D160A071C070D53692C
:10341C00013B53615DF8044B704753695DF8044BF5
:10342C0001335361704743F00403E0E753695DF8DF
:10343C00044B023B5361704753695DF8044B0233F4
:10344C0053617047137C03F003030029D1D043F080
:10345C000403CEE794400020214B1A69D2E90010F6
:10346C00D3680968006810B41842946801EA040132
:10347C002ED0137C03F00303D9B943F00803990849
:10348C00013B11740D2B0BD8DFE803F00D071C0763
:10349C000A160D0D160A071C070D5369013B5361E3
:1034AC005DF8044B704753695DF8044B013353616D
:1034BC00704743F00403E0E753695DF8044B023BAB
:1034CC005361704753695DF8044B02335361704785
:1034DC00137C03F003030029D1D043F00403CEE79F
:1034EC0094400020214B5A69D2E90010D368096836
:1034FC00006810B41842946801EA04012ED0137CC1
:10350C0003F00303D9B943F008039908013B117484
:10351C000D2B0BD8DFE803F00D071C070A160D0D59
:10352C00160A071C070D5369013B53615DF8044BE8
:10353C00704753695DF8044B01335361704743F096
:10354C000403E0E753695DF8044B023B5361704799
:10355C0053695DF8044B023353617047137C03F0DD
:10356C0003030029D1D043F00403CEE7944000209C
:10357C00214B9A69D2E90010D3680968006810B42D
:10358C001842946801EA04012ED0137C03F0030363
:10359C00D9B943F008039908013B11740D2B0BD8D2
:1035AC00DFE803F00D071C070A160D0D160A071CA1
:1035BC00070D5369013B53615DF8044B7047536928
:1035CC005DF8044B01335361704743F00403E0E7AB
:1035DC0053695DF8044B023B5361704753695DF8C6
:1035EC00044B023353617047137C03F0030300292F
:1035FC00D1D043F00403CEE794400020214BDA698C
:10360C00D2E90010D3680968006810B418429468B5
:10361C0001EA04012ED0137C03F00303D9B943F063
:10362C0008039908013B11740D2B0BD8DFE803F04C
:10363C000D071C070A160D0D160A071C070D5369FA
:10364C00013B53615DF8044B704753695DF8044BC3
:10365C0001335361704743F00403E0E753695DF8AD
:10366C00044B023B5361704753695DF8044B0233C2
:10367C0053617047137C03F003030029D1D043F04E
:10368C000403CEE794400020214B1A6AD2E90010C3
:10369C00D3680968006810B41842946801EA040100
:1036AC002ED0137C03F00303D9B943F00803990817
:1036BC00013B11740D2B0BD8DFE803F00D071C0731
:1036CC000A160D0D160A071C070D5369013B5361B1
:1036DC005DF8044B704753695DF8044B013353613B
:1036EC00704743F00403E0E753695DF8044B023B79
:1036FC005361704753695DF8044B02335361704753
:10370C00137C03F003030029D1D043F00403CEE76C
:10371C0094400020214B5A6AD2E90010D368096802
:10372C00006810B41842946801EA04012ED0137C8E
:10373C0003F00303D9B943F008039908013B117452
:10374C000D2B0BD8DFE803F00D071C070A160D0D27
:10375C00160A071C070D5369013B53615DF8044BB6
:10376C00704753695DF8044B01335361704743F064
:10377C000403E0E753695DF8044B023B5361704767
:10378C0053695DF8044B023353617047137C03F0AB
:10379C0003030029D1D043F00403CEE7944000206A
:1037AC00214B9A6AD2E90010D3680968006810B4FA
:1037BC001842946801EA04012ED0137C03F0030331
:1037CC00D9B943F008039908013B11740D2B0BD8A0
:1037DC00DFE803F00D071C070A160D0D160A071C6F
:1037EC00070D5369013B53615DF8044B70475369F6
:1037FC005DF8044B01335361704743F00403E0E779
:10380C0053695DF8044B023B5361704753695DF893
:10381C00044B023353617047137C03F003030029FC
:10382C00D1D043F00403CEE794400020214BDA6A58
:10383C00D2E90010D3680968006810B41842946883
:10384C0001EA04012ED0137C03F00303D9B943F031
:10385C0008039908013B11740D2B0BD8DFE803F01A
:10386C000D071C070A160D0D160A071C070D5369C8
:10387C00013B53615DF8044B704753695DF8044B91
:10388C0001335361704743F00403E0E753695DF87B
:10389C00044B023B5361704753695DF8044B023390
:1038AC0053617047137C03F003030029D1D043F01C
:1038BC000403CEE794400020214B1A6BD2E9001090
:1038CC00D3680968006810B41842946801EA0401CE
:1038DC002ED0137C03F00303D9B943F008039908E5
:1038EC00013B11740D2B0BD8DFE803F00D071C07FF
:1038FC000A160D0D160A071C070D5369013B53617F
:10390C005DF8044B704753695DF8044B0133536108
:10391C00704743F00403E0E753695DF8044B023B46
:10392C005361704753695DF8044B02335361704720
:10393C00137C03F003030029D1D043F00403CEE73A
:10394C0094400020214B5A6BD2E90010D3680968CF
:10395C00006810B41842946801EA04012ED0137C5C
:10396C0003F00303D9B943F008039908013B117420
:10397C000D2B0BD8DFE803F00D071C070A160D0DF5
:10398C00160A071C070D5369013B53615DF8044B84
:10399C00704753695DF8044B01335361704743F032
:1039AC000403E0E753695DF8044B023B5361704735
:1039BC0053695DF8044B023353617047137C03F079
:1039CC0003030029D1D043F00403CEE79440002038
:1039DC00214B9A6BD2E90010D3680968006810B4C7
:1039EC001842946801EA04012ED0137C03F00303FF
:1039FC00D9B943F008039908013B11740D2B0BD86E
:103A0C00DFE803F00D071C070A160D0D160A071C3C
:103A1C00070D5369013B53615DF8044B70475369C3
:103A2C005DF8044B01335361704743F00403E0E746
:103A3C0053695DF8044B023B5361704753695DF861
:103A4C00044B023353617047137C03F003030029CA
:103A5C00D1D043F00403CEE794400020214BDA6B25
:103A6C00D2E90010D3680968006810B41842946851
:103A7C0001EA04012ED0137C03F00303D9B943F0FF
:103A8C0008039908013B11740D2B0BD8DFE803F0E8
:103A9C000D071C070A160D0D160A071C070D536996
:103AAC00013B53615DF8044B704753695DF8044B5F
:103ABC0001335361704743F00403E0E753695DF849
:103ACC00044B023B5361704753695DF8044B02335E
:103ADC0053617047137C03F003030029D1D043F0EA
:103AEC000403CEE794400020214B1A6CD2E900105D
:103AFC00D3680968006810B41842946801EA04019C
:103B0C002ED0137C03F00303D9B943F008039908B2
:103B1C00013B11740D2B0BD8DFE803F00D071C07CC
:103B2C000A160D0D160A071C070D5369013B53614C
:103B3C005DF8044B704753695DF8044B01335361D6
:103B4C00704743F00403E0E753695DF8044B023B14
:103B5C005361704753695DF8044B023353617047EE
:103B6C00137C03F003030029D1D043F00403CEE708
:103B7C0094400020214B5A6CD2E90010D36809689C
:103B8C00006810B41842946801EA04012ED0137C2A
:103B9C0003F00303D9B943F008039908013B1174EE
:103BAC000D2B0BD8DFE803F00D071C070A160D0DC3
:103BBC00160A071C070D5369013B53615DF8044B52
:103BCC00704753695DF8044B01335361704743F000
:103BDC000403E0E753695DF8044B023B5361704703
:103BEC0053695DF8044B023353617047137C03F047
:103BFC0003030029D1D043F00403CEE79440002006
:103C0C00214B9A6CD2E90010D3680968006810B493
:103C1C001842946801EA04012ED0137C03F00303CC
:103C2C00D9B943F008039908013B11740D2B0BD83B
:103C3C00DFE803F00D071C070A160D0D160A071C0A
:103C4C00070D5369013B53615DF8044B7047536991
:103C5C005DF8044B01335361704743F00403E0E714
:103C6C0053695DF8044B023B5361704753695DF82F
:103C7C00044B023353617047137C03F00303002998
:103C8C00D1D043F00403CEE794400020214BDA6CF2
:103C9C00D2E90010D3680968006810B4184294681F
:103CAC0001EA04012ED0137C03F00303D9B943F0CD
:103CBC0008039908013B11740D2B0BD8DFE803F0B6
:103CCC000D071C070A160D0D160A071C070D536964
:103CDC00013B53615DF8044B704753695DF8044B2D
:103CEC0001335361704743F00403E0E753695DF817
:103CFC00044B023B5361704753695DF8044B02332C
:103D0C0053617047137C03F003030029D1D043F0B7
:103D1C000403CEE794400020214B1A6DD2E9001029
:103D2C00D3680968006810B41842946801EA040169
:103D3C002ED0137C03F00303D9B943F00803990880
:103D4C00013B11740D2B0BD8DFE803F00D071C079A
:103D5C000A160D0D160A071C070D5369013B53611A
:103D6C005DF8044B704753695DF8044B01335361A4
:103D7C00704743F00403E0E753695DF8044B023BE2
:103D8C005361704753695DF8044B023353617047BC
:103D9C00137C03F003030029D1D043F00403CEE7D6
:103DAC0094400020214B5A6DD2E90010D368096869
:103DBC00006810B41842946801EA04012ED0137CF8
:103DCC0003F00303D9B943F008039908013B1174BC
:103DDC000D2B0BD8DFE803F00D071C070A160D0D91
:103DEC00160A071C070D5369013B53615DF8044B20
:103DFC00704753695DF8044B01335361704743F0CE
:103E0C000403E0E753695DF8044B023B53617047D0
:103E1C0053695DF8044B023353617047137C03F014
:103E2C0003030029D1D043F00403CEE794400020D3
:103E3C00214B9A6DD2E90010D3680968006810B460
:103E4C001842946801EA04012ED0137C03F003039A
:103E5C00D9B943F008039908013B11740D2B0BD809
:103E6C00DFE803F00D071C070A160D0D160A071CD8
:103E7C00070D5369013B53615DF8044B704753695F
:103E8C005DF8044B01335361704743F00403E0E7E2
:103E9C0053695DF8044B023B5361704753695DF8FD
:103EAC00044B023353617047137C03F00303002966
:103EBC00D1D043F00403CEE794400020214BDA6DBF
:103ECC00D2E90010D3680968006810B418429468ED
:103EDC0001EA04012ED0137C03F00303D9B943F09B
:103EEC0008039908013B11740D2B0BD8DFE803F084
:103EFC000D071C070A160D0D160A071C070D536932
:103F0C00013B53615DF8044B704753695DF8044BFA
:103F1C0001335361704743F00403E0E753695DF8E4
:103F2C00044B023B5361704753695DF8044B0233F9
:103F3C0053617047137C03F003030029D1D043F085
:103F4C000403CEE794400020214B1A6ED2E90010F6
:103F5C00D3680968006810B41842946801EA040137
:103F6C002ED0137C03F00303D9B943F0080399084E
:103F7C00013B11740D2B0BD8DFE803F00D071C0768
:103F8C000A160D0D160A071C070D5369013B5361E8
:103F9C005DF8044B704753695DF8044B0133536172
:103FAC00704743F00403E0E753695DF8044B023BB0
:103FBC005361704753695DF8044B0233536170478A
:103FCC00137C03F003030029D1D043F00403CEE7A4
:103FDC0094400020214B5A6ED2E90010D368096836
:103FEC00006810B41842946801EA04012ED0137CC6
:103FFC0003F00303D9B943F008039908013B11748A
:10400C000D2B0BD8DFE803F00D071C070A160D0D5E
:10401C00160A071C070D5369013B53615DF8044BED
:10402C00704753695DF8044B01335361704743F09B
:10403C000403E0E753695DF8044B023B536170479E
:10404C0053695DF8044B023353617047137C03F0E2
:10405C0003030029D1D043F00403CEE794400020A1
:10406C00214B9A6ED2E90010D3680968006810B42D
:10407C001842946801EA04012ED0137C03F0030368
:10408C00D9B943F008039908013B11740D2B0BD8D7
:10409C00DFE803F00D071C070A160D0D160A071CA6
:1040AC00070D5369013B53615DF8044B704753692D
:1040BC005DF8044B01335361704743F00403E0E7B0
:1040CC0053695DF8044B023B5361704753695DF8CB
:1040DC00044B023353617047137C03F00303002934
:1040EC00D1D043F00403CEE794400020214BDA6E8C
:1040FC00D2E90010D3680968006810B418429468BB
:10410C0001EA04012ED0137C03F00303D9B943F068
:10411C0008039908013B11740D2B0BD8DFE803F051
:10412C000D071C070A160D0D160A071C070D5369FF
:10413C00013B53615DF8044B704753695DF8044BC8
:10414C0001335361704743F00403E0E753695DF8B2
:10415C00044B023B5361704753695DF8044B0233C7
:10416C0053617047137C03F003030029D1D043F053
:10417C000403CEE794400020214B1A6FD2E90010C3
:10418C00D3680968006810B41842946801EA040105
:10419C002ED0137C03F00303D9B943F0080399081C
:1041AC00013B11740D2B0BD8DFE803F00D071C0736
:1041BC000A160D0D160A071C070D5369013B5361B6
:1041CC005DF8044B704753695DF8044B0133536140
:1041DC00704743F00403E0E753695DF8044B023B7E
:1041EC005361704753695DF8044B02335361704758
:1041FC00137C03F003030029D1D043F00403CEE772
:10420C0094400020214B5A6FD2E90010D368096802
:10421C00006810B41842946801EA04012ED0137C93
:10422C0003F00303D9B943F008039908013B117457
:10423C000D2B0BD8DFE803F00D071C070A160D0D2C
:10424C00160A071C070D5369013B53615DF8044BBB
:10425C00704753695DF8044B01335361704743F069
:10426C000403E0E753695DF8044B023B536170476C
:10427C0053695DF8044B023353617047137C03F0B0
:10428C0003030029D1D043F00403CEE7944000206F
:10429C00214B9A6FD2E90010D3680968006810B4FA
:1042AC001842946801EA04012ED0137C03F0030336
:1042BC00D9B943F008039908013B11740D2B0BD8A5
:1042CC00DFE803F00D071C070A160D0D160A071C74
:1042DC00070D5369013B53615DF8044B70475369FB
:1042EC005DF8044B01335361704743F00403E0E77E
:1042FC0053695DF8044B023B5361704753695DF899
:10430C00044B023353617047137C03F00303002901
:10431C00D1D043F00403CEE794400020214BDA6F58
:10432C00D2E90010D3680968006810B41842946888
:10433C0001EA04012ED0137C03F00303D9B943F036
:10434C0008039908013B11740D2B0BD8DFE803F01F
:10435C000D071C070A160D0D160A071C070D5369CD
:10436C00013B53615DF8044B704753695DF8044B96
:10437C0001335361704743F00403E0E753695DF880
:10438C00044B023B5361704753695DF8044B023395
:10439C0053617047137C03F003030029D1D043F021
:1043AC000403CEE794400020224BD3F88020D2E9BE
:1043BC000010D3680968006810B41842946801EAC8
:1043CC0004012ED0137C03F00303D9B943F0080386
:1043DC009908013B11740D2B0BD8DFE803F00D0786
:1043EC001C070A160D0D160A071C070D5369013B15
:1043FC0053615DF8044B704753695DF8044B01330E
:10440C005361704743F00403E0E753695DF8044BD4
:10441C00023B5361704753695DF8044B023353619F
:10442C007047137C03F003030029D1D043F004033D
:10443C00CEE700BF94400020224BD3F88420D2E971
:10444C000010D3680968006810B41842946801EA37
:10445C0004012ED0137C03F00303D9B943F00803F5
:10446C009908013B11740D2B0BD8DFE803F00D07F5
:10447C001C070A160D0D160A071C070D5369013B84
:10448C0053615DF8044B704753695DF8044B01337D
:10449C005361704743F00403E0E753695DF8044B44
:1044AC00023B5361704753695DF8044B023353610F
:1044BC007047137C03F003030029D1D043F00403AD
:1044CC00CEE700BF94400020F0B504461E46002302
:1044DC0083B0083015466360C4F8B8300D4B9DF8B6
:1044EC00207023600C4B0191C4F8B430009002F0A2
:1044FC0067FE0A4B019900982360094A094B02F0A8
:10450C0001F900983B463246294601F0A1FF2046AE
:10451C0003B0F0BDC8080020C14D0000B008002059
:10452C0071400000113F00000B4610B5362800F218
:10453C009782DFE810F08C02820279027002670227
:10454C005E0255024C0243023A02310228021F025B
:10455C00BF01B601AD01A4019B019201890180014B
:10456C0077016E0165015C0153014A01410138017B
:10457C002F0126011D0113010901FF00F500EB00BD
:10458C00E100D700CD00C300B900AF00A5009B002F
:10459C00910087007D00730069005F0055004B009F
:1045AC0041003700C84C0422C8493620C4F8D83022
:1045BC0004F00CF8012010BDC34C0422C449352072
:1045CC00C4F8D43004F002F8012010BDBE4C042213
:1045DC00C0493420C4F8D03003F0F8FF012010BDDE
:1045EC00B94C0422BC493320C4F8CC3003F0EEFFA4
:1045FC00012010BDB44C0422B8493220C4F8C83094
:10460C0003F0E4FF012010BDAF4C0422B44931206B
:10461C00C4F8C43003F0DAFF012010BDAA4C042208
:10462C00B0493020C4F8C03003F0D0FF012010BDD9
:10463C00A54C0422AC492F20C4F8BC3003F0C6FFB3
:10464C00012010BDA04C0422A8492E20C4F8B8307B
:10465C0003F0BCFF012010BD9B4C0422A4492D206B
:10466C00C4F8B43003F0B2FF012010BD964C042204
:10467C00A0492C20C4F8B03003F0A8FF012010BDD5
:10468C00914C04229C492B20C4F8AC3003F09EFFC3
:10469C00012010BD8C4C042298492A20C4F8A83063
:1046AC0003F094FF012010BD874C0422944929206B
:1046BC00C4F8A43003F08AFF012010BD824C042200
:1046CC0090492820C4F8A03003F080FF012010BDD1
:1046DC007D4C04228C492720C4F89C3003F076FFD3
:1046EC00012010BD784C042288492620C4F898304B
:1046FC0003F06CFF012010BD734C0422844925206B
:10470C00C4F8943003F062FF012010BD6E4C0422FB
:10471C0080492420C4F8903003F058FF012010BDCC
:10472C00694C04227C492320C4F88C3003F04EFFE2
:10473C00012010BD644C042278492220C4F8883032
:10474C0003F044FF012010BD5F4C0422744921206A
:10475C00C4F8843003F03AFF012010BD5A4C0422F7
:10476C0070492020C4F8803003F030FF012010BDC8
:10477C00554C04226C491F20E36703F027FF0120EE
:10478C0010BD514C042269491E20A36703F01EFF83
:10479C00012010BD4C4C042265491D20636703F0B9
:1047AC0015FF012010BD484C042262491C202367D0
:1047BC0003F00CFF012010BD434C04225E491B206A
:1047CC00E36603F003FF012010BD3F4C04225B495C
:1047DC001A20A36603F0FAFE012010BD3A4C042205
:1047EC0057491920636603F0F1FE012010BD364CC9
:1047FC00042254491820236603F0E8FE012010BD62
:10480C00314C042250491720E36503F0DFFE0120F0
:10481C0010BD2D4C04224D491620A36503F0D6FE85
:10482C00012010BD284C042249491520636503F072
:10483C00CDFE012010BD244C0422464914202365D2
:10484C0003F0C4FE012010BD1F4C0422424913206A
:10485C00E36403F0BBFE012010BD1B4C04223F4956
:10486C001220A36403F0B2FE012010BD164C0422EA
:10487C003B491120636403F0A9FE012010BD124CCA
:10488C00042238491020236403F0A0FE012010BD3F
:10489C000D4C042234490F20E36303F097FE0120F2
:1048AC0010BD094C042231490E20A36303F08EFE87
:1048BC00012010BD044C04222D490D20636303F02C
:1048CC0085FE012010BD00BF94400020C1050000F2
:1048DC0031050000A1040000110400008103000058
:1048EC00C10E0000310E0000A10D0000110D0000E2
:1048FC00810C0000F10B0000610B0000D10A0000DC
:10490C00410A0000B10900002109000091080000D3
:10491C000108000071070000E106000051060000CC
:10492C0049200000B91F00002D1F0000A11E00002F
:10493C00151E0000891D0000FD1C0000711C0000EC
:10494C00E51B0000591B0000CD1A0000411A0000A5
:10495C00B5190000291900009D180000111800005D
:10496C0085170000F91600006D160000E115000017
:10497C00551500003B4C04223B490C20236303F0EB
:10498C0025FE012010BD374C042238490B20E36270
:10499C0003F01CFE012010BD324C042234490A20C5
:1049AC00A36203F013FE012010BD2E4C04223149EA
:1049BC000920636203F00AFE012010BD294C042279
:1049CC002D490820236203F001FE012010BD254C67
:1049DC0004222A490720E36103F0F8FD012010BDF1
:1049EC00204C042226490620A36103F0EFFD012090
:1049FC0010BD1C4C042223490520636103F0E6FD25
:104A0C00012010BD0422174C1F491046236103F0EE
:104A1C00DDFD012010BD134C04221C490320E36072
:104A2C0003F0D4FD012010BD0E4C042218490220C5
:104A3C00A36003F0CBFD012010BD044609480422FD
:104A4C0014494360012003F0C1FD204610BD054C04
:104A5C00042211490020236003F0B8FD012010BD91
:104A6C00002010BD94400020C91400003D1400002B
:104A7C00B113000025130000991200000D12000064
:104A8C0081110000F510000069100000DD0F00001E
:104A9C00510F0000F5020000690200002DE9F04101
:104AAC000F46164604460221384603F055FD0221F6
:104ABC00304603F051FD224B3A0122483101DFF818
:104ACC008CC053F8028003EB0712C4F80080D2F8B4
:104ADC000CE003EB061259580023C4F808E0D26826
:104AEC006361194BE26045681B686160ACFB033C79
:104AFC004FF4FA634FEA9C4C03FB0CFC43685B1BC2
:104B0C009C45FBD8D8F80030384609681EEA030FDC
:104B1C0014BF012300230A42214618BF43F00203AD
:104B2C002374FFF701FD0346214630462376FFF739
:104B3C00FBFC227E0346204613442376BDE8F0811D
:104B4C00B00B0020001000E06C29002083DE1B431A
:104B5C00A0F118035F2B31D8DFE803F05C5E5A300C
:104B6C003030303030303030303030303030303039
:104B7C003030303030303030303030303030303029
:104B8C003030303030303030303030303030303019
:104B9C003030303030303030305856305452503055
:104BAC00303030303030303030304E4C4A48464463
:104BBC0042403E3C3830303030363A347F282DD9A4
:104BCC002348704723487047234870472348704751
:104BDC002348704723487047234870472348704741
:104BEC002348704723487047234870472348704731
:104BFC002348704723487047234870472348704721
:104C0C002348704723487047234870472348704710
:104C1C00234870472348704723487047234AC317DB
:104C2C0082FB00120621C3EB620303EB4302013B40
:104C3C0010B5A0EB820082B01D4C00931D4A54F8B5
:104C4C0020301D4807F062FD1B4802B010BD00BFAC
:104C5C0028050020240500201C0500201405002038
:104C6C00200500200C050020040500200005002074
:104C7C00F8040020F0040020EC040020E4040020E0
:104C8C00D8040020D0040020CC040020C004002054
:104C9C00B8040020B0040020A80400209C040020CC
:104CAC0094040020840400208C040020ABAAAA2ABF
:104CBC00FC080020300500207041002010B527486A
:104CCC0001F0AAFC2649254802F062F8254B0F2278
:104CDC001421224802F04CF8234C8023122200218C
:104CEC001E4802F00DF921491C4802F051F82068C9
:104CFC001F4923221F4B002818BF0B4605211748BC
:104D0C0002F036F820681C492F221C4B012818BFD2
:104D1C000B460521114802F02BF8246818483B2259
:104D2C00184B0521022C18BF03460C4802F020F842
:104D3C000A4801F07DFC144801F06EFC134912483E
:104D4C0002F026F8124B282214210F4802F010F81A
:104D5C000D48BDE8104001F06BBC00BF584A002064
:104D6C000C19002064060020E0490020501000209F
:104D7C0010060020040600202C0600201C06002033
:104D8C00500600203C0600202C490020241F002047
:104D9C007406002010B5124C204601F03DFC204654
:104DAC00104901F0F5FF104B0A220021204601F0BA
:104DBC00DFFF0E4B19220021204601F0D9FF0C4BCE
:104DCC0028220021204601F0D3FF2046094B3C222B
:104DDC00002101F0CDFF2046BDE8104001F028BCB9
:104DEC00584A002050100020C0050020D00500209B
:104DFC00E0050020F405002030B5062283B0052123
:104E0C001148FFF74BFE1E221D211048FF24FFF70F
:104E1C0045FE0F4D20221F210E48FFF73FFE1B229F
:104E2C001A210D48FFF73AFE2346224629460094E4
:104E3C000A48FFF749FB23462246294600940848B6
:104E4C00FFF742FB03B030BD88480020A448002087
:104E5C0044100020C0480020DC48002024490020D9
:104E6C00504A00202DE9F04F27208DB003F014F9A3
:104E7C00814A1368C31A002BB8BF5B42082B00F39E
:104E8C0054857E4B1A7E012A40F2898572B65E6982
:104E9C0062B67B4B1A7E012A40F2BC8572B65F6902
:104EAC0062B6784B1A7E012A40F2A18572B6D3F80D
:104EBC00148062B6744B1A7E012A40F2848572B655
:104ECC00D3F8149062B6714A1368B34240F046832B
:104EDC006F4B1A68BA4240F09F836E4B1A6842457A
:104EEC0040F054846C4B1A684A4540F0DE836B4B9F
:104EFC00DFF8D8A16A4A0A93AAF1080B002306939B
:104F0C00CDE90823674C00259DF8186018200B94F8
:104F1C000796E9B20135C0B2891B18BF012103F015
:104F2C00DFFA052D02D054F8040FF2E75E4B5968F6
:104F3C005E4B1A685E4BA3FB0232920C02EB8202B0
:104F4C00D200594B5B685B1A9A42FAD8594B4FF016
:104F5C00000805930A9B0293092303939DF80C0008
:104F6C0003F0E8FA029AB0FA80F9044612F8013F0D
:104F7C004FEA5919049002924B4500F0C5805046F7
:104F8C004FF6FD7501F048FB4B49504601F000FF10
:104F9C004A4A4B4B00215046002C08BF13460C22AA
:104FAC0001F0E6FE474C4FF4D0135221261DCBF8EE
:104FBC00B83003E0B4421FD014F8011FDBF8B43052
:104FCC0050469847A842F5D80346BBF8BA20BBF820
:104FDC00B810504601F05CFE9BF89030032BE9D8DA
:104FEC00DFE803F0433D3702BBF8BA30B442A3EB21
:104FFC000003ABF8BA30DFD1002306990A225846D9
:10500C0002F03EFF304C4FF418134321261D4FF68F
:10501C00FD75CBF8B83004E0B44200F04B8114F8C5
:10502C00011FDBF8B43050469847A842F4D8034629
:10503C00BBF8BA20BBF8B810504601F029FE9BF81B
:10504C009030032BE8D8DFE813F06B0165015F01AA
:10505C002C01BBF8B8301B1AABF8B830AAE7BBF878
:10506C00BA301844ABF8BA00A4E7BBF8B83018440F
:10507C00ABF8B8009EE700BFAC2D0020884800209C
:10508C00A4480020C0480020DC48002068350020DF
:10509C006C3500207035002074350020FF4900204D
:1050AC00140700202C080020001000E06C290020C0
:1050BC0083DE1B43DC060020501000203805002046
:1050CC00440500207805002080050020584A002067
:1050DC00049BF5B2002B00F03D8200242746B12141
:1050EC00B34802F08BFD2946B14802F087FD3946E2
:1050FC00AF4802F083FD4BF20B10330403F4FE03B4
:10510C002343184304F0DCFF5FFA88F3079A002A64
:10511C0008BF0D2B0CBF0123002340F0B380049A71
:10512C00002A40F0D881A34A1178002940F003826C
:10513C000121A14811700168A04A11600268521A3D
:10514C000999B2F5487F28BF19460991069B9C4ADC
:10515C00C3EBC30302EB430303F80890089A069BC6
:10516C003832013308920A9A052B069302F10E028B
:10517C000A927FF4C7AE0B9D1820012105F1100493
:10518C00C0B203F0ADF9AC4207D055F8040F0121C1
:10519C00C0B203F0A5F9AC42F7D1099B002B40F04B
:1051AC004C840DB0BDE8F08F504601F041FA062159
:1051BC00844805F00BFB049B8348002B834B0EBFEC
:1051CC0004211846022105F001FB0221804805F05C
:1051DC00FDFA00230A2206997E4802F051FE0221B4
:1051EC007D4805F0F3FA00230A224146794802F083
:1051FC0047FE0521794805F0E9FA0399754802F054
:10520C0017FE0421764805F0E1FA3146714802F0A8
:10521C000FFE0221734805F0D9FA3046FFF798FCCF
:10522C00044628B107F004FA0146204605F0CEFAF0
:10523C0001216D4805F0CAFA664802F005FE1F2EE2
:10524C003FF462AF079B022B7FF642AF049BF4B294
:10525C00002B40F074819021554802F0CFFC214680
:10526C0053484FF0C84402F0C9FC6421504802F086
:10527C00C5FC49F20900330403F4FE03234318432D
:10528C0004F01EFF029B594A83F80090059B934241
:10529C003FF464AF53F8042F08F10108039205930F
:1052AC005CE6BBF8BA30B442A3EB0003ABF8BA30FF
:1052BC007FF4B5AE002341460A22584602F0E0FDC9
:1052CC004B4C4FF448135021261D4FF6FD75CBF86F
:1052DC00B83003E0A64231D014F8011FDBF8B4302B
:1052EC0050469847A842F5D80346BBF8BA20BBF8FD
:1052FC00B810504601F0CCFC9BF89030032BE9D849
:10530C00DFE803F0504A4414BBF8B8301B1AABF872
:10531C00B83081E6BBF8BA301844ABF8BA007BE67B
:10532C00BBF8B8301844ABF8B80075E6BBF8BA3027
:10533C00A642A3EB0003ABF8BA30CDD10399584683
:10534C0002F076FD2B4C4FF478134321E61C4FF6FC
:10535C00FD75CBF8B83003E0A64255D014F8011F08
:10536C00DBF8B43050469847A842F5D80346BBF852
:10537C00BA20BBF8B810504601F08AFC9BF890306C
:10538C00032BE9D8DFE803F089837D38BBF8B8300C
:10539C001B1AABF8B8309DE7BBF8BA301844ABF821
:1053AC00BA0097E7BBF8B8301844ABF8B80091E7EF
:1053BC0080290020BB4B0020784B00202049002086
:1053CC00004A0020980500203C05002048050020DC
:1053DC00A405002070290020A8050020AC050020A1
:1053EC00B4050020BC050020A005002010070020FB
:1053FC008805002090050020BBF8BA30A642A3EB2C
:10540C000003ABF8BA30A9D1089B584653F8286072
:10541C00314602F00DFDDBF8B430202150469847A0
:10542C004FF6FD7398425ED93046FFF791FB054667
:10543C0000283FF4B9AE07F0FBF8074600283FF40C
:10544C00B3AE2C4603E02B1BFB423FF4ADAEDBF8B6
:10545C00B430504614F8011B98474FF6FD73984230
:10546C00F1D80346BBF8BA20BBF8B810504601F08F
:10547C000FFC9BF89030032BE5D8DFE803F02620D7
:10548C001A14BBF8B8301B1AABF8B83064E7BBF889
:10549C00BA301844ABF8BA005EE7BBF8B830184421
:1054AC00ABF8B80058E7BBF8BA301B1AABF8BA30F7
:1054BC00C9E7BBF8B8301B1AABF8B830C3E7BBF878
:1054CC00BA300344ABF8BA30BDE7BBF8B83003448C
:1054DC00ABF8B830B7E7BB4B1A78002A3FF436AEBE
:1054EC0000221A7032E60346BBF8BA20BBF8B8109B
:1054FC00504601F0CDFB9BF89030032B94D8DFE89D
:10550C0003F0140E0802BBF8BA301B1AABF8BA3011
:10551C008AE7BBF8B8301B1AABF8B83084E7BBF895
:10552C00BA300344ABF8BA307EE7BBF8B830184455
:10553C00ABF8B80078E7A44AA4481168FEE58021CE
:10554C00A34802F05BFB21460024A14802F056FB65
:10555C0021468BE64FF0FE447F27C0E59D4CF31AA5
:10556C0016604FF6FD7B04F10800029301F054F82D
:10557C00994904F10800994D01F00AFC4FF42013ED
:10558C00452104F1080AC4F8B83004E0944BAB424E
:10559C001FD015F8011FD4F8B43050469847584521
:1055AC00F4D80346B4F8BA20B4F8B810504601F059
:1055BC006FFB94F89030032BE8D8DFE803F0706AA7
:1055CC006402B4F8BA301B1AA4F8BA30844BAB425C
:1055DC00DFD131467F4802F02BFC824801F028F8DD
:1055EC00029BB0217A48002B7F4B804CCEBF01250B
:1055FC0041251C4602F002FB4A21754802F0FEFAD6
:10560C002946734802F0FAFA204604F059FD784B0B
:10561C001A68BA423FF461AC6E4CBA1A1F604FF66E
:10562C00FD7B04F10800029200F0F6FF6A4904F1D8
:10563C000800704D01F0ACFB4FF4201305F1060A85
:10564C00452104F10806C4F8B83004E0AA4500F07E
:10565C003A8115F8011FD4F8B430304698475845B4
:10566C00F4D80346B4F8BA20B4F8B810304601F0B8
:10567C000FFB94F89030032BE8D8DFE813F05001BF
:10568C004A0144011B01B4F8B8301B1AA4F8B83015
:10569C007CE7B4F8BA300344A4F8BA3076E7B4F82F
:1056AC00B8300344A4F8B83070E74A4CA9EB020AAE
:1056BC00C3F800904FF6FD7704F108004E4D00F052
:1056CC00ABFF454904F1080005F1060801F060FB49
:1056DC004FF42013452104F10806C4F8B83003E058
:1056EC00A8451FD015F8011FD4F8B43030469847A0
:1056FC00B842F5D80346B4F8BA20B4F8B81030461E
:10570C0001F0C6FA94F89030032BE9D8DFE803F0E7
:10571C0038322C02B4F8BA30A845A3EB0003A4F835
:10572C00BA30DFD149462B4802F082FB2D4800F0FD
:10573C007FFFBAF1000F314B4FF0B001CCBF012508
:10574C00412523482E4CD8BF1C4602F057FA07219E
:10575C001F4802F053FA29461D4802F04FFA204622
:10576C0004F0AEFCFFF7C3BBB4F8B8301B1AA4F8B6
:10577C00B830B5E7B4F8BA301844A4F8BA00AFE7BB
:10578C00B4F8B8301844A4F8B800A9E7114CA8EB49
:10579C00020BC3F800804FF6FD7704F10800194D99
:1057AC0000F03AFF0C4904F1080005F1060A01F07B
:1057BC00EFFA4FF42013452104F10806C4F8B83071
:1057CC0026E000BFBB4B002020490020784B002076
:1057DC0080290020504A0020241F0020580500205A
:1057EC005E050020584A00200BB04A410BB04A011C
:1057FC006C35002060050020700500200BB00741BF
:10580C000BB007016805002055451FD015F8011F86
:10581C00D4F8B43030469847B842F5D80346B4F8BB
:10582C00BA20B4F8B810304601F032FA94F890303F
:10583C00032BE9D8DFE803F038322C02B4F8BA3085
:10584C005545A3EB0003A4F8BA30DFD14146C1485B
:10585C0002F0EEFAC04800F0EBFEBBF1000FBF4BBC
:10586C004FF0B001CCBF01254125BD48BD4CD8BF80
:10587C001C4602F0C3F95B21B94802F0BFF9294676
:10588C00B74802F0BBF9204604F01AFCFFF72ABB1C
:10589C00B4F8B8301B1AA4F8B830B5E7B4F8BA307D
:1058AC000344A4F8BA30AFE7B4F8B8300344A4F812
:1058BC00B830A9E7B4F8BA30AA45A3EB0003A4F8B2
:1058CC00BA307FF4C6AE3946A24802F0B1FAA2480B
:1058DC0000F0AEFE029BB021A148002BA24BA34CC2
:1058EC00CEBF012541251C4602F088F947219C4872
:1058FC0002F084F929469A4802F080F9204604F017
:10590C00DFFBFFF7EABAB4F8B8301B1AA4F8B830CA
:10591C009CE6B4F8BA300344A4F8BA3096E6B4F86E
:10592C00B8300344A4F8B83090E6044690481460AC
:10593C0000F072FE8F498E4801F02AFA8E4B0F222E
:10594C0000218B4801F014FA142080231E22002120
:10595C000090874800F0ECFD6FF4FF73C4EB4462D9
:10596C00864914248248D20100941A4481FB0231E6
:10597C00D317002A11444FF01E02C3EB61234FF0E2
:10598C000001B4BF803381339BB200F0ABFD78488B
:10599C0000F04EFE7A4B1A7E012A3FF677AA72B6B9
:1059AC00D3E90010D3E90242096800682140104293
:1059BC0000F0EA801A7C02F0030209B142F0040202
:1059CC0042F00802E6E072B61A6811685A6810686C
:1059DC009A681140DA68104200F090801A7C02F04C
:1059EC00030209B142F0040242F008028CE072B6E4
:1059FC0019689A68096811405A681068DA68104288
:105A0C0050D01A7C02F0030209B142F0040242F0B9
:105A1C0008024DE072B6D3E900109A680968006874
:105A2C001140DA68104210D01A7C02F0030209B15E
:105A3C0042F0040242F008020DE0524B00221A70B0
:105A4C000DB0BDE8F04FFFF739B91A7C02F0030234
:105A5C0009B142F004029108013A5F6919740D2AE8
:105A6C003FF61EAA01A151F822F000BF41380000F8
:105A7C00393800006D38000039380000B12A0000B8
:105A8C0065380000413800004138000065380000DE
:105A9C00B12A0000393800006D3800003938000098
:105AAC00413800001A7C02F0030209B142F00402F2
:105ABC009108013A19740D2A3FF6F9A901A151F880
:105ACC0022F000BF2B3800001D38000057380000B2
:105ADC001D380000BF2A0000493800002B38000098
:105AEC002B38000049380000BF2A00001D38000088
:105AFC00573800001D3800002B3800001A7C02F0CB
:105B0C00030209B142F004029108013A19740D2AFA
:105B1C003FF6D6A901A151F822F000BF0F380000C2
:105B2C00013800009338000001380000D12A000031
:105B3C00853800000F3800000F3800008538000051
:105B4C00D12A000001380000933800000138000011
:105B5C000F380000504A0020584A00200BB05B411F
:105B6C00802900200BB05B010BB047410BB0470103
:105B7C002C4900201C1400204C0500200308208018
:105B8C0088480020B74B00201A7C02F0030209B1B0
:105B9C0042F004029108013A5E6919740D2A3FF62D
:105BAC0077A901A151F822F0F9370000F137000074
:105BBC007D380000F1370000A12A00007538000084
:105BCC00F9370000F937000075380000A12A0000F1
:105BDC00F13700007D380000F1370000F937000084
:105BEC00013E5E61FFF754B901365E61FFF750B9B3
:105BFC005A6902F1FF39C3F81490FFF763B95A6977
:105C0C0002F10109C3F81490FFF75CB95A6902F16B
:105C1C00FF38C3F81480FFF74CB95A6902F1010838
:105C2C00C3F81480FFF745B9013F5F61FFF738B93E
:105C3C0001375F61FFF734B95A69A2F10208C3F862
:105C4C001480FFF736B95A6902F10208C3F81480C0
:105C5C00FFF72FB9023F5F61FFF722B902375F618F
:105C6C00FFF71EB9023E5E61FFF712B902365E61A4
:105C7C00FFF70EB95A69A2F10209C3F81490FFF7A5
:105C8C0021B95A6902F10209C3F81490FFF71AB945
:105C9C002DE9F04FB64C83B0272002F0FDF92368B4
:105CAC00002BC0F2AF80C31A002BB8BF5B42082B8D
:105CBC0000F3A8800E2002F0EFF9AE490B68002B20
:105CCC0011DBC31A002BB8BF5B42082B0BDCAA4BB1
:105CDC001B7883B3022B00F0DC80012B00F0A18138
:105CEC0003B0BDE8F08FC0EBC013A44A086003F208
:105CFC00FF13A34882FB0312DC17002B4FF0B001FB
:105D0C001A44C4EB6224B8BF04F1FF3401F076FFEF
:105D1C0001219B4801F072FF9948E1B2240601F081
:105D2C006DFF984804F0FE44204304F0C9F9924BEF
:105D3C001B78002BCED1944A137E012B40F2768136
:105D4C0072B6536962B6002B9049B8BF03330A6828
:105D5C009B109A420FD08E480268B4BF013202F1F8
:105D6C00FF32022A00F35A81002AB8BF02220260D5
:105D7C000B60FEF7A3FF0024864BDFF83082182659
:105D8C002746A146844D9B46CDF804805FFA86FADF
:105D9C000021504602F0A4FB019B69681A687F4BF6
:105DAC00A3FB0232920C02EB820292006B685B1A2C
:105DBC009A42FBD8DFF8F8810026092002F0BAFBE2
:105DCC000136F6B20E2E00F0F58058F8040FC0B272
:105DDC0002F0B0FB002CF3D10D2EF1D1002840F0D5
:105DEC00B6806F4B1A782AB96E4A01211268197065
:105DFC006D4B1A6001240121504602F071FB5BF8D7
:105E0C00046FC3E76FF4FF73A0EB80225B491A4465
:105E1C0020605B4881FB0231D317002A1144574A9A
:105E2C00C3EB6123B4BF03F2FF3303F58063C3EB11
:105E3C00833303F2FF1382FB0312DC17002B4FF0AA
:105E4C00E0011A44C4EB6224B8BF04F1FF3401F042
:105E5C00D5FE4B4804F07F0101F0D0FEC4F3C6110F
:105E6C00A4B2474801F0CAFE41F6FF73A4F50054F2
:105E7C004EF20E009C42A8BF1C4604F500542304AD
:105E8C00E41103F4FE0343EA0463184304F018F925
:105E9C0010E70024DFF814813F4EDFF8F8A0A1468C
:105EAC003F4DDFF8F0B000271820F9B20137C0B22F
:105EBC00091B18BF012102F013FB052F02D05BF860
:105ECC00040FF2E77168354BD8F80020A3FB0232BF
:105EDC00920C02EB8202920073685B1A9A42FBD816
:105EEC00DFF8CCB00027092002F024FB0137FFB209
:105EFC000E2F7CD05BF8040FC0B202F01BFB002C01
:105F0C0008BF0D2F0CBF01230023EFD1A8B92A78AD
:105F1C00CAB90121234A244829701168016012680A
:105F2C00521AB2F5487F28BF99465AF8040B012142
:105F3C000124C0B202F0D4FAB3E72B78002BF4D0D2
:105F4C0000232B70F1E7184A1168164AE7E7144A48
:105F5C001378002B3FF44EAF82F800901249114A8F
:105F6C0009681268521AB2F5487F38BF1F4641E7DC
:105F7C006035002064350020B74B002003082080DA
:105F8C00802900200BB00100C0480020FC490020F3
:105F9C00E04900202C080020001000E083DE1B43A9
:105FAC00BB4B0020784B0020204900206C2900209E
:105FBC00DC060020013450460121E4B202F090FAD4
:105FCC00052C7FF41CAF002F3FF48AAE584B1B6896
:105FDC00002B3ED0012B00F08980022B7FF480AE89
:105FEC00544A137003B0BDE8F04FFEF7D3BE013432
:105FFC005AF8040B0121E4B2C0B202F071FA052C7C
:10600C007FF44FAFB9F1000F3FF46AAE0023494A59
:10601C00137003B0BDE8F04FFEF750BE00220260D3
:10602C00A6E603B0BDE8F04FFEF71CBF72B6D2E98E
:10603C00003091681B6800681940D368184219D069
:10604C00137C03F0030309B143F0040343F008038A
:10605C0016E0394800F0E0FA384B1E220A21364887
:10606C0000F086FE344800F0E3FA4FF47A7002F048
:10607C00E3F9CEE7137C03F0030309B143F0040307
:10608C009908013B11740D2B3FF65BAE01A151F841
:10609C0023F000BFE53C0000DD3C0000F53C0000B7
:1060AC00DD3C000053390000ED3C0000E53C0000F5
:1060BC00E53C0000ED3C000053390000DD3C0000E5
:1060CC00F53C0000DD3C0000E53C00005369013B61
:1060DC00536137E653690133536133E65369023B2D
:1060EC0053612FE65369023353612BE6114A14486E
:1060FC00137000F091FA134B1E220021104800F08F
:10610C0037FE0F4800F094FA0B4800F085FA0E4B5E
:10611C001E220021084800F02BFE074800F088FAE8
:10612C004FF47A7003B0BDE8F04F02F085B900BFB0
:10613C00E0490020B74B0020584A0020200F0020D7
:10614C002C490020300F0020400F00202DE9F04397
:10615C005B4C87B05B4D40F2EE285B4FDFF89C91B7
:10616C00266804F0B1FB2B78002B5FD03B78DB0763
:10617C005CD52368D9F800209B1A0E2B56D9002227
:10618C005249534801F05EFB05225249504825689C
:10619C0001F026FE4E4801F057FE23685B1BC72B0F
:1061AC000ED84B4E05E002F047F923685B1BC72B5A
:1061BC0006D8304601F068FA03460120002BF2D0D5
:1061CC00434801F061FA002864D1434C2278434BD8
:1061DC00002A4348434C12BF11212621184604F1D2
:1061EC00340504F0F3FA404801F02EFE272000217C
:1061FC0002F0B2F9092001E054F8040FC0B20221F8
:10620C0002F0AAF9A542F7D1384C182004F1100578
:10621C00C0B20121019002F09FF90121019802F016
:10622C005FF9A5420FD054F8040FF1E723682A78E0
:10623C009B1B2AB1B3F5FA6FA1D804F045FB90E78C
:10624C004345FAD99BE72A4D78232A4C85F82C3004
:10625C0005F1080001F0BCF905F1080000F042FA64
:10626C00002105F1080001F0BDF97A2304F10800C2
:10627C0084F82C3001F0ACF904F1080000F032FA8B
:10628C00002104F1080001F0ADF907B0BDE8F043BE
:10629C00FEF714BD00230A220D4903A801F008FEE5
:1062AC0003A801F0CDFE144903A80B4C01F0B2FE7B
:1062BC0008B10123237003A801F054FE86E700BF48
:1062CC00784B0020CC4B0020CB4B002080841E0050
:1062DC0080290020C40F0020BA4B0020880F00201A
:1062EC00B00F0020DC060020702900202C080020B4
:1062FC0024490020504A0020CC0F0020904B002055
:10630C00A1F1280330B5054683B0252B28D8DFE84A
:10631C0003F052652424136B2727272727272727C9
:10632C0027272727272727272727272727272727F1
:10633C002727272727273F3F4249003A424B434C08
:10634C0018BF012248681B68A4FB03439B0C03FB8A
:10635C0002F24B681B1A9A42FBD8012003B030BDE5
:10636C003F295AD901F03F03E81890F82C00FF2878
:10637C00F3D011F0300F5CD0102B5ED002F0DAF8B5
:10638C0003460120003B18BF012385F82730E5E7C1
:10639C000192002A43D101F03F0401212C4494F8CE
:1063AC002C0002F0D9F8019A94F82C00114602F056
:1063BC0097F80120D2E72B35012405E00F2A26D8C7
:1063CC0002F0CAF80134E4B215F8013F621E012153
:1063DC00FF2B1846F2D1162CF4D1BEE7104602F072
:1063EC002BF8012003B030BD174C032A1549174B6D
:1063FC004868226834BF05240224A3FB0232920CA5
:10640C0004FB02F24B681B1A9A42FBD8A5E7022147
:10641C0002F0A2F8162CD5D19FE700209EE701F0E0
:10642C003F0302212B4493F82C0002F095F8012035
:10643C0094E7114602F054F88FE7019004F044FA07
:10644C0001989BE7001000E06C29002083DE1B43C1
:10645C0080F8371080F8382080F83930704700BF4A
:10646C00A1F1140C38B50446BCF10C0F08D8DFE8C8
:10647C000CF015070709220F0707070707070D0080
:10648C00002038BD1946154804F024FC012038BD05
:10649C000121124804F0E0FC012038BD83692BB9BE
:1064AC0003680F4A5B7B02FB03F383610B480BF021
:1064BC004FF9012038BD094D8169284604F0B4FD1F
:1064CC0094F82420012302F0FE02184685F830319E
:1064DC0085F8A52085F82F3138BD00BFE0290020B4
:1064EC00A08601002DE9F04383B01F46CB188046EF
:1064FC00BDF8289014469BB20E4602EB0905ADB2CE
:10650C00009500F005FD80B1B9F1000F0DD04FF0F2
:10651C000009224601343B463146A4B24046CDF830
:10652C00009000F077FCA542F3D103B0BDE8F083F6
:10653C002DE9F04385B0CF181E468046BDF830904B
:10654C00BFB20D46144602EB09039BB200933B46C7
:10655C0000F0DEFC10B905B0BDE8F0830023224644
:10656C00294640460093334600F054FCB9F1010F24
:10657C00F1D9A9F10209621C1FFA89F492B24CB943
:10658C0000243346294640460C9405B0BDE8F04340
:10659C0000F040BC4FF00109234629464046CDF897
:1065AC000090039200F036FC791E039A2346404675
:1065BC0089B2CDF8009000F02DFC039A224492B2DF
:1065CC00DEE700BF03682DE9F043064683B090F880
:1065DC005090002490F8515093F8118000E03368EB
:1065EC001B7C2A46F76C002104FB03FC013430466B
:1065FC0001354FEACC0CE4B21FFA8CFCEDB2BC4472
:10660C00CDF800C000F0C8FFA14501D9A845E6D8D7
:10661C0003B0BDE8F08300BF0268002190F8503051
:10662C00127CC06C12FB03F2D20005F0D5B800BF8F
:10663C0010B50446FFF7C6FF2046BDE8104000F039
:10664C00DBBF00BF836C10B5044680F851101B688B
:10665C009847A36C20465B68BDE81040184700BF04
:10666C0010B590F8AB3004462BB920460021BDE89C
:10667C001040FFF7E7BF0268002190F85030127C01
:10668C00C06C12FB03F2D20005F0A6F820460021E4
:10669C00BDE81040FFF7D6BF38B50446FFF792FFB0
:1066AC0094F8515094F8503022681D44517CEDB24E
:1066BC00A94211D994F8AB1029B920462946FFF705
:1066CC00C1FF012038BD127C0021E06C12FB03F2EB
:1066DC00D20005F081F8F0E7204600F08DFF002095
:1066EC0038BD00BF10B50446FFF7BAFF2046FFF7D0
:1066FC00D3FF0028FAD101462046BDE81040FFF731
:10670C00A1BF00BF30B51C4685B0134605460A4AEA
:10671C0000940C46094900F081FF0DF10F0000F0C8
:10672C0099FF074B01469DF80F202846009400F076
:10673C0017FD05B030BD00BF454F0000FD500000F7
:10674C007D4B00004218435C507800EB032080B274
:10675C00704700BF0020704738B50D460446112124
:10676C002B78284623706B786370AB78A370EB782A
:10677C00E3702B7923716B796371AB79A371EB792E
:10678C00E3712B7A23726B7A6372AB7AA372EB7A16
:10679C00E3722B7B23736B7B6373AB7BA373EB7BFE
:1067AC00E3732B7C2374FFF7CDFF0346132128469C
:1067BC006382FFF7C7FF034615212846A382FFF724
:1067CC00C1FFE08238BD00BF012B05D0022B09D0E0
:1067DC002BB1411A88B27047014488B27047024409
:1067EC0090B27047821A90B2704700BF012B05D04F
:1067FC00022B09D02BB1024490B27047821A90B28E
:10680C007047014488B27047411A88B2704700BF84
:10681C002DE9F04F87B004460E4690F8807090F842
:10682C0081B005920FE094F88510002949D0F31936
:10683C00AE420BF1010BA3EB0A033AD35FFA8BFBCD
:10684C00002703F0FF0694F882A04FFA87FC31462C
:10685C004FFA8BF9AAEB070594F888304A46B4F83E
:10686C007C00EDB2B4F87E80CDF80CC0AE4228BFEF
:10687C00294604916146FFF7B9FF02460399404649
:10688C0090464A46FFF7A0FF059902460029CAD058
:10689C000093414694F886C02046049B0BF1010BF3
:1068AC0084F8AAC000F0B6FAF319AE42A3EB0A03BF
:1068BC00C4D23E4484F8819084F8806007B0BDE86F
:1068CC00F08F0093414694F88700049B84F8AA004B
:1068DC00204600F09FFAAAE72DE9F04F044690F805
:1068EC009000002385B00728A16784F884300D78C8
:1068FC0040F24E81A0F108030131DBB2A1674FF0E9
:10690C00FF3294F8916084F88430824025EA0205C5
:10691C00F2186DB2D2B284F88250072A087840FA85
:10692C0003F000F22781C3B24FF0FF3084F88420CB
:10693C00B04094F8926023EA000394F8AA0084F81B
:10694C008600B0FA80F04FFA83F9400984F88390FE
:10695C0084F88700B0180F78C0B21741072800F2EE
:10696C00F6805FFA87FE94F893C084F884000CEBF1
:10697C0000020F78D2B20741072A00F2D880F8B291
:10698C0094F894A084F884200AEB020891F800B0E3
:10699C005FFA88F84BFA02FBB8F1070F00F2B880E7
:1069AC005FFA8BF74FF0FF3284F884800121002DC1
:1069BC000AEB020802FA0AFA5FFA88F827EA0A07D1
:1069CC0001FA08F8A7EB08074FFA87FB40F39C8005
:1069DC000CEB020802FA0CFCB240013E20EA0C0C53
:1069EC005FFA88F02EEA020EF6B201FA00F2B4F861
:1069FC007C00B140D21A94F88830AEEB0101A2EBC6
:106A0C000C0249B252B202910392FFF7EFFEA4F8C6
:106A1C007C000646B4F87E00DDE90212FFF7D4FED6
:106A2C000246A4F87E00032B00F2EC80DFE803F0B2
:106A3C00B2B8C102C5F10103411C034489B29AB238
:106A4C0006EB09039BB200912046314600F060FA38
:106A5C00002859D0002294F884304FF0FF38A4F865
:106A6C00802094F88E50A16FEA180878D2B21841A1
:106A7C00072A00F2B880C6B294F88F0008FA05F520
:106A8C0084F88420831891F800C026EA0506DBB24E
:106A9C004CFA02FC072B00F299805FFA8CF508FA8D
:106AAC0000F084F8843025EA0005314620460022A7
:106ABC00FFF7AEFE012229462046FFF7A9FE94F807
:106ACC008420A76F531CC2F108003978A2F1070E7D
:106ADC00DBB207F1010A1141C0B2072BCAB207D9C8
:106AEC00C4F878A05FFA8EF37A7882400A43D2B267
:106AFC00D20784F88430D8D494F981204A45B0DB8D
:106B0C0094F8863084F8AA30584605B0BDE8F08F6A
:106B1C004F1CC2F10802A8F10808D2B2A7674F783F
:106B2C005FFA88F8974047EA0B07FFB23AE701F1A2
:106B3C000108C0F10800083AC0B2C4F8788049785E
:106B4C00D2B201FA00F041463843C0B218E701F165
:106B5C00010CC2F108020838D2B2C4F878C091F81E
:106B6C0001E0C0B261460EFA02FE4EEA070E5FFA71
:106B7C008EFEF8E64F1CC3F10803083ADBB2A76798
:106B8C004978D2B201FA03F339460343DBB2CBE6C0
:106B9C000346B4E6731900EB09019BB289B252E7C4
:106BAC004119C9F10100731C304489B29BB286B201
:106BBC0049E7C5F10101C9F10100731C31441044CE
:106BCC009BB28EB2511C82B289B23CE74D1CC2F111
:106BDC000802083BD2B2A5674D78DBB2954045EA76
:106BEC000C05EDB25BE701F1010CC3F10803083AA7
:106BFC00DBB2C4F878C04E78D2B261469E400643F0
:106C0C00F6B239E7014633461DE700BF70B5FF29E0
:106C1C00046F0D4604F117040ED8602930D9B0F872
:106C2C00A0301C44607830B12378AB422ED00444A1
:106C3C0060780028F8D170BDB0F8A2301C4426460C
