:0200000460009A
:100000004643464200000156000000000103030081
:1000100000000000000000000000000000000000E0
:1000200000000000000000000000000000000000D0
:1000300000000000000000000000000000000000C0
:1000400000000000010408000000000000000000A3
:100050000000800000000000000000000000000020
:100060000000000000000000000000000000000090
:100070000000000000000000000000000000000080
:10008000EB04180A063204260000000000000000FD
:10009000050404240000000000000000000000002F
:1000A0000000000000000000000000000000000050
:1000B0000604000000000000000000000000000036
:1000C0000000000000000000000000000000000030
:1000D00020041808000000000000000000000000DC
:1000E0000000000000000000000000000000000010
:1000F0000000000000000000000000000000000000
:10010000D8041808000000000000000000000000F3
:100110000204180804200000000000000000000095
:1001200000000000000000000000000000000000CF
:10013000600400000000000000000000000000005B
:1001400000000000000000000000000000000000AF
:10015000000000000000000000000000000000009F
:10016000000000000000000000000000000000008F
:10017000000000000000000000000000000000007F
:10018000000000000000000000000000000000006F
:10019000000000000000000000000000000000005F
:1001A000000000000000000000000000000000004F
:1001B000000000000000000000000000000000003F
:1001C000000100000010000001000000000000001D
:1001D000000001000000000000000000000000001E
:1001E000000000000000000000000000000000000F
:1001F00000000000000000000000000000000000FF
:10020000FFFFFFFFFFFFFFFFFFFFFFFFFFFFFFFFFE
:10021000FFFFFFFFFFFFFFFFFFFFFFFFFFFFFFFFEE
:10100000D10020434D1600600000000000000000E9
:1010100020100060001000600078016000000000F7
:10102000000000600084010000000000FFFFFFFFDF
:10103000FFFFFFFFFFFFFFFFFFFFFFFFFFFFFFFFC0
:10104000FFFFFFFFFFFFFFFFFFFFFFFFFFFFFFFFB0
:10105000FFFFFFFFFFFFFFFFFFFFFFFFFFFFFFFFA0
:10106000FFFFFFFFFFFFFFFFFFFFFFFFFFFFFFFF90
:10140000814205D051F8043B40F8043B8242F9D8B0
:10141000704700BF044A05494FF0000342F8043BFF
:101420009142FBD8704700BFC03A0020004C00201A
:101430002DE98848BFF34F8F00BF00BF00BF00BF3A
:1014400000F042F9684B0822C3F8542100BF00BFE6
:1014500000BF00BF00BF00BF00BF00BF00BF00BF94
:1014600000BF00BF00BF00BF00BF00BF5F4A6049B0
:101470006048FFF7C5FF604A60496148FFF7C0FF59
:10148000604CFFF7C7FF4FF470004FF0E0210023DE
:101490005D4AC1F8880D44F823200133B02BFAD1FE
:1014A0005A4B80215A4A03F8011B9342FBD14FF05B
:1014B000E0254D4E4FF08039DFF884B1DFF884A18C
:1014C0004FF0FF31C5F8084D0027C6F80491C6F863
:1014D00000B1C6F8F490C6F8F0A0D5F8243DDFF8C6
:1014E000688143F4E0234B4AC5F8243DD8F81C300A
:1014F00023F07F0343F04003C8F81C30D8F82430B1
:1015000023F07F0343F04003C8F824309166D1668E
:101510001167516700F0E0F83F4B4049A363404B2F
:10152000E36363236B610323AF612B613D4BC5F81C
:10153000203DD5F8FC3D43F08073C5F8FC3D3A4BA7
:101540001A6842F001021A605B680B6000F00EFB43
:10155000C6F804913548C6F800B1C6F8F490C6F84C
:10156000F0A000F02DFDD8F86C10314B314A41F459
:101570004051C8F86C101F60C3F80871C3F81871A7
:10158000C3F82871C3F83871936BDB0708D442F6AF
:101590001563294951651365936B43F00103936308
:1015A000244A264C936843F00113936000F01CF921
:1015B00000F060F800F020FD00F006FB00F086F877
:1015C0002368132BFCD900F097FB2368B3F5967FB3
:1015D000FBD300F07FF800F07BF800F005FD00F091
:1015E000FFFC30BFFDE700BF00800D407818010010
:1015F0001022006000000000C03A00208C3A016018
:1016000000000020003800203996000000E400E0CF
:10161000A0E400E000C00A4065AA0000A04B002042
:1016200069AA000000002020001000E00046C3234B
:101630000040084000400D400000C056A44B002070
:101640001B1018200C0D111300C00F40054B4FF458
:101650002A01054A05485A641864054A9963954663
:10166000FFF7E6FE00C00A40BFAAAAAA07002000B2
:1016700000800620104BA020104AD96E41F4403162
:1016800010B4D96640F23764D96E41F44071D9661E
:1016900054649064936C1B06FCD4094A40F2376191
:1016A000A02351649364936C13F08003FBD1054A2B
:1016B00013705DF8044B704700C00F4000400C40B1
:1016C00000800C40C94B0020704700BF704700BF2E
:1016D000704700BF00BF704710B44FF0E0230021F7
:1016E00010243148C3F8941DC3F89C4D1124C3F84D
:1016F000A00D2E48C3F89C4D1224C3F8A00D2C4811
:10170000C3F89C4D2B4AC3F8A00D2B4C42F0150298
:101710002A48C3F89C4DC3F8A00D294C2948C3F8AA
:101720009C4DC3F8A00D284CC3F89C2D2748284A8F
:10173000C3F8A04DC3F89C0DC3F8A02D02F5A0225C
:10174000244C0C322448C3F89C4DC3F8A02D234AE6
:10175000C3F89C0D224CC3F8A02D02F14062C3F8DF
:101760009C4D2048C3F8A02D0C32C3F89C0DC3F843
:10177000A02D00BF00BF00BF00BF00BF0122C3F803
:10178000942DBFF34F8FBFF36F8FC3F8501FBFF37C
:101790004F8FBFF36F8FD3F8142D5DF8044B42F4D5
:1017A0004032C3F8142D70473F0000102500080791
:1017B00009001000004C0020130020002100020747
:1017C0001400002025000813090000101600202036
:1017D00027000B1317000040180000602F000B07B4
:1017E000190000701A000080F0B5B84B1822B84EEE
:1017F0000120B84F83B0C3F85C62B749C3F8607288
:10180000B64DC3F86462A6F53046B54CC3F86862BD
:10181000C3F86C52C3F87052C3F87452C3F87852CC
:1018200048F20C75DA661A675A679A67DA67C3F87E
:101830008020C3F88420C3F88820C1F82C03A94A6B
:10184000C1F83003C1F83403C1F83803C1F83C03D0
:10185000C1F85003A169A44B0A40A448A44913430A
:10186000A44AA361D4F8843043F00C03C4F8843054
:101870004FF0FF34036843F00203036003682B401A
:101880004FF400551A439C4B026044608A689B4C9D
:1018900013409B4A43F000538360C36823F07803EE
:1018A000C360036A134023430362036A1340954AEB
:1018B0002343954C43628262C2620022D1F8B83061
:1018C00023F03F0343F00103C0F8B830D1F8BC3037
:1018D0008E4923F03F0343F00103C0F8BC3040F2CF
:1018E0000563026105660467C0F880304566446799
:1018F0000224C0F88430036823F00203036081618E
:10190000834B8449C46143F8042B8B42FBD1774A53
:10191000136843F001031360136813F00103FBD154
:101920007A48022140F2F564906140F29940D16119
:1019300040F26641C2F8004242F20144C2F810127D
:101940007549C2F82002C2F8301240F2354173489E
:10195000C2F83442C2F84012714CC2F8500242F24E
:1019600001207049C2F854120121C2F86042C2F845
:1019700064025E48C2F8A030C2F8A430C2F8B010C9
:101980004369DA07FCD5012300244FF4803257491C
:101990004361C0F8A040C0F8A420C0F8B0304B6943
:1019A000DB07FCD5012300244FF400304F4A4B6184
:1019B000C1F8A040C1F8A400C1F8B0305369DF07F6
:1019C000FCD501230024584848495361C2F8A0407F
:1019D000C2F8A400C2F8B0304B69DE07FCD5D1F8DC
:1019E000003145F60D5221209BB24861934265D1EA
:1019F00000244FF4802201233C48C1F8A040C1F8E4
:101A0000A420C1F8B0304369DD07FCD501234FF4B1
:101A100000040021354A4361C0F8A040C0F8A4107A
:101A2000C0F8B0305369DC07FCD501234FF4000443
:101A30004FF480302D495361C2F8A040C2F8A40091
:101A4000C2F8B0304B69D807FCD501234FF400042D
:101A50004FF40030254A4B61C1F8A040C1F8A40002
:101A6000C1F8B0305369D907FCD501234FF4000405
:101A70002D481E495361C2F8A040C2F8A400C2F824
:101A8000B0304B69DA07FCD5D1F8003145F60D527C
:101A900021209BB24861934250D008254FF40004A6
:101AA00022490020224B234A009015705A1A012324
:101AB0002148224400F08CFA03B0F0BD1E4B0022F6
:101AC000C3E90022C3E9022203B0F0BD00801F4039
:101AD000F9B00100F910010000841F40F970010005
:101AE00000C00F40FFFCFF1F000300A000402A4081
:101AF00000802A401200FFFFFF37F70040000080FF
:101B000000FFF07CFF000F8363000200F05AF05AE0
:101B100000422A4000432A409F041830EB06180A6E
:101B20003806180A0632012604000300000000707F
:101B300000000070CA4B0020444800204FF400040D
:101B40004FF4802201230848C1F8A040C1F8A42026
:101B5000C1F8B0304369DB07FCD5012310254FF0F5
:101B6000807443619CE700BF00402A40F0B4154AEE
:101B700040274FF480314FF480564FF400554FF416
:101B8000404443F24200136913F0020F0ED113F4E4
:101B9000005F0FD013F4805F0ED0002BF3DA13F444
:101BA000803F0BD15B060BD5F0BC7047946151614F
:101BB0009061E8E75561E6E75661E4E79161E2E7A5
:101BC0005761E0E700800D403F4A03203F49F3EEB4
:101BD000095AD2F880304FF0000C9FED3D6A23F097
:101BE00001039FED3C5A30B4C2F88030C2F8900037
:101BF000D1F8E010384DCBB2384C39482B6007EEA5
:101C0000903A0B0DC1F30B21F8EEE77A06EE903A0D
:101C100007EE101A334BB8EEC77A2160F8EEE66A89
:101C2000314937EEC66A37EEC55A76EEC76A77EEA7
:101C3000E57A26EE266AC3ED006A25EE265AD2F82A
:101C4000803067EEA64AC0ED007AC6EE275A2748D4
:101C500085EE276AC4EEA76A75EE875AFCEEE55A50
:101C600036EE076A15EE904ABCEEC66A43EA0453A4
:101C700076EE877AC2F8803016EE103AD2F89041AC
:101C8000FCEEE77A01EA0341214317EE903AC2F8ED
:101C90009011C3F30B03D2F890110B431449C2F80F
:101CA0009031D2F8803043F00203C2F88030114BFB
:101CB00080F840C0C1F840314FF0E023012230BC31
:101CC000C3F80821704700BF00810D4000441F4049
:101CD0000000AA420000B442904B00208C4B002030
:101CE000944B0020984B00200000FF0F00E400E020
:101CF0000038002025980000314B40F6617210B585
:101D0000C3F8202140F2044400F072F92D4A2E4914
:101D1000D2F880302D4843F00303C2F880302C4BBA
:101D2000C1F8604102681A4203D1D1F8A8319A077C
:101D30001BD0254A4FF00041244B5963D2F8403163
:101D400043F00203C2F84031D2F840319B07FBD484
:101D50004FF400304FF0E0211C4B4FF00042C1F82F
:101D60008C0219209A6300F037F9184A4FF080402E
:101D7000154C002190630A20164B11604FF420721D
:101D8000C4F8A801184600F01FF94FF4800203467A
:101D90004FF4810040F243111860C4F858311A64BE
:101DA0000D4B0E4AC4F84811C3F804224FF0E0224C
:101DB0004FF400310123C2F80C11C4F8403110BDBA
:101DC00000800D4000C00F4000002E4000900D40EC
:101DD000001C1E0000000020003800200D9A0000AA
:101DE00008B50E4B1B6E9B0700D4FBBE72B60C4BA6
:101DF00000200C4AC3F8400103F160430A49A3F5EF
:101E00005F2311649D46BFF34F8F4FF400130748C3
:101E1000074ADB6902609B68984700BF00441F4087
:101E200000002E4000C00A40030020000080202057
:101E3000000012EB43690A4A03EB011010B4037A65
:101E4000084C02EB0313D3E901321460C2681A6034
:101E500003690BB142691A605DF8044B704700BF1B
:101E60004C0D002061F801004369027E03EB021271
:101E700092F808C08C451CD01A7AFF2A19D09142DA
:101E800010B5044616D01A7EFF2A06D00121D3E9E8
:101E9000002312681A4201D1217610BD064B05229B
:101EA000204603EB0C135B681A60FFF7C3FF217633
:101EB000F3E770470021EAE74C0D002043690A4A26
:101EC00003EB011010B490F82830084C02EB031318
:101ED000D3E901321460C26A1A60036B0BB1426B22
:101EE0001A605DF8044B70474C0D002061F801004A
:101EF0004369427E03EB021292F828C08C451ED043
:101F000093F82820FF2A1AD0914210B5044617D022
:101F100093F83820FF2A06D00121D3E90023126864
:101F20001A4201D1617610BD064B0522204603EB13
:101F30000C135B681A60FFF7C1FF6176F3E7704727
:101F40000021EAE74C0D0020164942698B6B23F40F
:101F50007C0343F4802370B58B630446124DD2E9B1
:101F600000130A681A4303690A60022200211A61F9
:101F70000E4A19619A6401225A629D624FF430350B
:101F8000DD624FF001159E6C1E6519629D651A6138
:101F9000017EFFF74FFF617E2046BDE87040FFF7EE
:101FA0008DBF00BF00C00F40B80B05053B37281997
:101FB000F8B500BFF8BC08BC9E46704700000000A2
:101FC0005FF800F0418D00005FF800F095BC000064
:101FD0005FF800F0F9AA00005FF800F0319000000F
:101FE0005FF800F01D9300005FF800F045BD0000B1
:101FF0005FF800F07DA100005FF800F0459500005B
:102000000501000029010000053C000061430000BB
:082010004D4700000D540000D3
:10201800160355005300420020005300650072006B
:10202800690061006C000000180354006500650039
:102038006E00730079006400750069006E006F001F
:102048000403090409026200030100C032080B00FE
:102058000202020100090400000102020100052435
:1020680000100105240101010424020605240600CC
:10207800010705820310001009040100020A00008C
:10208800000705030240000007058402400000091C
:1020980004020002FF6AFF000705810240000107F1
:1020A800050102400001000009026200030100C0AE
:1020B80032080B00020202010009040000010202BA
:1020C8000100052400100105240101010424020671
:1020D8000524060001070582031000050904010014
:1020E800020A000000070503020002000705840237
:1020F8000002000904020002FF6AC7000705810206
:102108000002010705010200020100000A060002A0
:10211800EF0201400100000080C00F4000000003F2
:102128001900000010000000E8841F4001000000B2
:10213800FF000000FF000000000000000000000099
:102148001800000010000000E4841F400100000097
:10215800FF000000FF000000000000000000000079
:102168001F00000045AF000070C00F40000C0000C9
:102178001100000011000000E0841F400200000070
:102188002C00000012000000E0841F400100000045
:102198001000000011000000DC841F400200000055
:1021A8002D00000012000000DC841F400100000028
:1021B8001E00000039AF000070C00F40C0000000D2
:1021C8001200000013000000D0841F40010000002E
:1021D800FF000000FF0000000000000000000000F9
:1021E8001300000013000000CC841F400100000011
:1021F800FF000000FF0000000000000000000000D9
:082208001C0000002DAF0000D6
:1022100000000000000000000000000000000000BE
:1022200000000000000000000000000000000000AE
:10223000F8B54FF084439D695A6915400DD0254F7C
:1022400001269D6195FAA5F4B4FA84F457F8243078
:1022500006FA04F49847A543F4D11F4B9D695A69C7
:1022600015400DD01D4F01269D6195FAA5F4B4FAD5
:1022700084F457F8243006FA04F49847A543F4D1BF
:10228000174B9D695A6915400DD0164F01269D6167
:1022900095FAA5F4B4FA84F457F8243006FA04F455
:1022A0009847A543F4D1104B9D695A6915400DD04C
:1022B0000E4F01269D6195FAA5F4B4FA84F457F8FF
:1022C000243006FA04F49847A543F4D1BFF34F8FA6
:1022D000F8BD00BF2832002000400042A832002094
:1022E000008000422833002000C00042A8330020B4
:1022F0000548064B1B1AD90F01EBA301491002D068
:10230000034B03B118477047C03A0020C03A002081
:102310000000000008B5054B1BB105490548AFF3A7
:102320000080BDE80840FFF7E3BF00BF00000000E9
:102330003C4B002000840160044BFF204FF0FF3134
:1023400000221860C3E90212704700BF883C0020D9
:1023500000207047704700BF38B500F10805D0F87D
:10236000B4300446284698474FF6FD73984201D989
:10237000012038BD0346B4F8BA20B4F8B810284696
:1023800007F0BAFC94F89030032BF1D8DFE803F0A3
:10239000140E0802B4F8BA301B1AA4F8BA30E7E7F2
:1023A000B4F8B8301B1AA4F8B830E1E7B4F8BA3082
:1023B0001844A4F8BA00DBE7B4F8B8301844A4F81D
:1023C000B800D5E72DE9F047002A4ED004460D4667
:1023D0008F180026DFF89C9000F108084FF6FD7A70
:1023E00003E00120AF42064420D0236815F8011B0A
:1023F0001B684B4515D1D4F8B4304046984750453A
:10240000EFD80346B4F8BA20B4F8B810404607F045
:1024100073FC94F89030032BE3D8DFE803F01F1827
:10242000110A20469847AF420644DED13046BDE847
:10243000F087B4F8BA301B1A0120A4F8BA30D1E7FB
:10244000B4F8B8301B1A0120A4F8B830CAE7B4F8C1
:10245000BA301844A4F8BA000120C3E7B4F8B83081
:102460001844A4F8B8000120BCE716463046BDE881
:10247000F08700BF4901000030B5164A0446002528
:10248000154B83B00830C4F8B430C4F8B85001908C
:10249000C4E9002507F0BAFE104A01982260104BEB
:1024A000104A114907F062F9019812231322FF2103
:1024B00007F002F800232046C4F8D050C4F8BC301E
:1024C00084F8D450C4F8D850C4E93055C4E9325522
:1024D00003B030BD0C060020ED7F0000F4050020A5
:1024E00059710000B97200006C11002000B508306D
:1024F00083B0019008F092F8019807F027F901984D
:10250000002108F095F80198002108F091F8FF21CA
:10251000019803B05DF804EB08F094B82DE9F04F92
:102520003F4D2E682B689B1B2DED028BB3F5FA6F88
:1025300085B003905ED2039BDFF8089103F1080495
:10254000DFED388A9FED388A384FDFF8FC8020466F
:102550004FF0040A07F094F84946204607F04CFC77
:10256000334B24220A21204607F036FC3946204608
:1025700007F042FC2F4B34220A21204607F02CFCA6
:102580003946204607F038FC2B4B38220A212046DA
:1025900007F022FC294B44220A21204607F01CFCAC
:1025A0002B684FF4FA7E32229B1B00212046CDF887
:1025B00000A0A8FB03BC4FEA5C1C0EFB1C3307EE1B
:1025C000903AF8EEE77A87EEA87A67EE087AFCEEA2
:1025D000E77ACDED027A9DF8083006F0B7FF204685
:1025E00007F05AF8282008F02BFE2B689B1BB3F548
:1025F000FA6FACD3039C0722114904F1C8000BF019
:10260000C5F82B680021012203F57A7384F8CF10F6
:10261000C4E9303205B0BDEC028BBDE8F08F00BFDD
:10262000A44B00200000FA43000000437811002072
:10263000840500208C050020640400207404002020
:102640007C0500209C1C0020D34D62100B4601210C
:1026500070B500F108060546002430462DED048BC8
:1026600008EE103A07F09CFC9FED1E6AF2EE0C6A31
:10267000B8EEC88A9FED1C7AF1EE008A9FED1B9A96
:10268000F3EE049AC8EE067A9FED198AE7EEA68A61
:10269000A7EE878A07EE904A95ED2F0AB8EEE77A03
:1026A000C7EE297AA7EE880A0AF096FDF0EE497A7D
:1026B000A1B201343046E0EE287AFDEEE77A17EE5B
:1026C000903A9AB207F050FC802CE3D1D5ED2F7AE6
:1026D0009FED087A77EE877ABDEC048BC5ED2F7AF3
:1026E00070BD00BF00C07F44CDCC0C400000004254
:1026F000CDCC4C3F0AD7A33D1B4B0830DFED1B7AF6
:1027000093ED000AB8EE400A10B5062480EE270AC1
:102710002DED028B84B003900AF05EFD03987823C0
:10272000382204210094B0EE408A06F035FFF7EE1F
:10273000006AF6EE007A9FED0E7A0398382238EEA2
:10274000260A0421009460EE277A67EE877AFCEE71
:10275000E77ACDED037A9DF80C3006F0F7FE04B071
:10276000BDEC028B10BD00BFA44B002000009643BF
:102770000000F042D0F8C03070B5044688B00BB30A
:102780003B4A126893421DD3D0F8C430022B36D096
:10279000032B1CD0012B18D100F108053549284620
:1027A00007F02AFB344B2A220621284607F014FBA7
:1027B00004F1C8032A224621284608B0BDE870402B
:1027C00007F00ABB0023C4F8C43008B070BD00F1A4
:1027D00008052A49284607F00FFBD4F8D81094F8CA
:1027E000D43002A800911821254A0CF01FF902AB41
:1027F00028220621284607F0EFFA08B070BD00F144
:1028000008051E490826284607F0F6FAD4F8D03005
:102810001C4A122102A80CF009F902AB06211C2265
:10282000284607F0D9FAD4F8D030174A2846C3EB27
:1028300003130096DB0003F2FF1382FB0312DC1785
:10284000002B4FF004011A444FF07803C4EB6224CC
:102850004FF02402B8BF04F1FF3406F09DFE24229D
:102860000421E3B22846009606F070FE08B070BD61
:10287000A44B0020441500206005002078110020A2
:1028800070050020680500200308208030B500F1A5
:10289000080583B004462846019106F0F1FE01992F
:1028A0002046FFF7D3FE2046FFF726FF2046FFF71E
:1028B00061FF284603B0BDE8304006F0EDBE00BF22
:1028C000072210B50446C8300AF060FF064B00210D
:1028D00001221B6884F8CF1003F51673C4F8C420D6
:1028E000C4F8C03010BD00BFA44B0020044B02222E
:1028F000C0F8D0101B6803F5C873C0E930327047C8
:10290000A44B0020074B80F8D4101B68C0F8D820D7
:1029100003F5167310B40324C0E930345DF8044B9A
:10292000704700BFA44B00200D490E4B30B40C681B
:102930000360A042D0E9013200D06BB10AB153600C
:1029400043684D68A84208BF4A6003B19A60A0423C
:1029500008BF0B6030BC7047002AF0D1FAE700BF17
:10296000743D002058060020704700BF704700BF2C
:10297000704700BF0430704707307047043070471D
:1029800006307047043070470530704710B5044674
:10299000082108F06DFE204610BD00BF10B50446AA
:1029A000082108F065FE204610BD00BF10B50446A2
:1029B000082108F05DFE204610BD00BF042910B5B7
:1029C00082B02ED80D2A2CD8C1EBC10100EB4101F9
:1029D0000A4492F844207BB190F88B007F23124C7C
:1029E00000F00F0100091A40009041F080012068BA
:1029F00004F01EFD02B010BD90F88BC002F07F0203
:102A000090F88C300CF00F014FEA1C10064C03F0CC
:102A10007F03009041F09001206804F009FD02B0AE
:102A200010BD04F045F800BF883D0020042910B512
:102A300082B02ED80D2A2CD8C1EBC10100EB410188
:102A40000A4492F838207BB190F87F007F23124C23
:102A500000F00F0100091A40009041F08001206849
:102A600004F0E6FC02B010BD90F87FC002F07F02D7
:102A700090F880300CF00F014FEA1C10064C03F068
:102A80007F03009041F09001206804F0D1FC02B077
:102A900010BD04F00DF800BF883D0020F8B500F12E
:102AA0002807054600F144063C4634F8020B022193
:102AB00004F09CF8B442F8D11E3535F8020B002121
:102AC00004F094F8AF42F8D1F8BD00BF084609F011
:102AD000AFBF00BF0D490E4B30B40C680360A0427D
:102AE000D0E9013200D06BB10AB1536043684D6840
:102AF000A84208BF4A6003B19A60A04208BF0B60B9
:102B000030BC7047002AF0D1FAE700BF743D0020C6
:102B10005806002030B40F4CA0F10C020E4B256873
:102B200040F80C3CAA4250E9023100D07BB111B10F
:102B30004B6050F8083C6068824208BF616003B196
:102B40009960AA4208BF2360104630BC7047002934
:102B5000EED1F9E7743D0020580600200F4938B542
:102B6000044608680E4B84422360D4E9013200D049
:102B70008BB10AB1536063684D68AC4208BF4A60CC
:102B800003B19A60844208BF0B6020460C2108F014
:102B90006FFD204638BD002AECD1F6E7743D0020D9
:102BA000580600200F4938B5044608680E4B844289
:102BB0002360D4E9013200D08BB10AB1536063685D
:102BC0004D68AC4208BF4A6003B19A60844208BFB6
:102BD0000B602046902108F04BFD204638BD002AAE
:102BE000ECD1F6E7743D00205806002038B50346C6
:102BF000104D114A2868A3F10C0443F80C2C8442B0
:102C000053E9022100D092B111B14A6053F8082C67
:102C10006B689C4208BF696002B19160844208BF42
:102C20002A602046902108F023FD204638BD002967
:102C3000EBD1F6E7743D002058060020224BD3F874
:102C4000D420D2E90010D3680968006810B4184293
:102C5000946801EA04012ED0137C03F00303D9B970
:102C600043F008039908013B11740D2B0BD8DFE8E2
:102C700003F00D071C070A160D0D160A071C070D99
:102C80005369013B53615DF8044B704753695DF82C
:102C9000044B01335361704743F00403E0E7536989
:102CA0005DF8044B023B5361704753695DF8044B78
:102CB000023353617047137C03F003030029D1D022
:102CC00043F00403CEE700BFF43E0020224BD3F8CC
:102CD000D820D2E90010D3680968006810B41842FF
:102CE000946801EA04012ED0137C03F00303D9B9E0
:102CF00043F008039908013B11740D2B0BD8DFE852
:102D000003F00D071C070A160D0D160A071C070D08
:102D10005369013B53615DF8044B704753695DF89B
:102D2000044B01335361704743F00403E0E75369F8
:102D30005DF8044B023B5361704753695DF8044BE7
:102D4000023353617047137C03F003030029D1D091
:102D500043F00403CEE700BFF43E0020224BD3F83B
:102D6000C420D2E90010D3680968006810B4184282
:102D7000946801EA04012ED0137C03F00303D9B94F
:102D800043F008039908013B11740D2B0BD8DFE8C1
:102D900003F00D071C070A160D0D160A071C070D78
:102DA0005369013B53615DF8044B704753695DF80B
:102DB000044B01335361704743F00403E0E7536968
:102DC0005DF8044B023B5361704753695DF8044B57
:102DD000023353617047137C03F003030029D1D001
:102DE00043F00403CEE700BFF43E0020224BD3F8AB
:102DF000C820D2E90010D3680968006810B41842EE
:102E0000946801EA04012ED0137C03F00303D9B9BE
:102E100043F008039908013B11740D2B0BD8DFE830
:102E200003F00D071C070A160D0D160A071C070DE7
:102E30005369013B53615DF8044B704753695DF87A
:102E4000044B01335361704743F00403E0E75369D7
:102E50005DF8044B023B5361704753695DF8044BC6
:102E6000023353617047137C03F003030029D1D070
:102E700043F00403CEE700BFF43E0020224BD3F81A
:102E8000CC20D2E90010D3680968006810B4184259
:102E9000946801EA04012ED0137C03F00303D9B92E
:102EA00043F008039908013B11740D2B0BD8DFE8A0
:102EB00003F00D071C070A160D0D160A071C070D57
:102EC0005369013B53615DF8044B704753695DF8EA
:102ED000044B01335361704743F00403E0E7536947
:102EE0005DF8044B023B5361704753695DF8044B36
:102EF000023353617047137C03F003030029D1D0E0
:102F000043F00403CEE700BFF43E0020224BD3F889
:102F1000D020D2E90010D3680968006810B41842C4
:102F2000946801EA04012ED0137C03F00303D9B99D
:102F300043F008039908013B11740D2B0BD8DFE80F
:102F400003F00D071C070A160D0D160A071C070DC6
:102F50005369013B53615DF8044B704753695DF859
:102F6000044B01335361704743F00403E0E75369B6
:102F70005DF8044B023B5361704753695DF8044BA5
:102F8000023353617047137C03F003030029D1D04F
:102F900043F00403CEE700BFF43E0020214B1A6843
:102FA000D2E90010D3680968006810B41842946828
:102FB00001EA04012ED0137C03F00303D9B943F0D6
:102FC00008039908013B11740D2B0BD8DFE803F0BF
:102FD0000D071C070A160D0D160A071C070D53696D
:102FE000013B53615DF8044B704753695DF8044B36
:102FF00001335361704743F00403E0E753695DF820
:10300000044B023B5361704753695DF8044B023334
:1030100053617047137C03F003030029D1D043F0C0
:103020000403CEE7F43E0020214B5A6ED2E9001093
:10303000D3680968006810B41842946801EA040172
:103040002ED0137C03F00303D9B943F00803990889
:10305000013B11740D2B0BD8DFE803F00D071C07A3
:103060000A160D0D160A071C070D5369013B536123
:103070005DF8044B704753695DF8044B01335361AD
:10308000704743F00403E0E753695DF8044B023BEB
:103090005361704753695DF8044B023353617047C5
:1030A000137C03F003030029D1D043F00403CEE7DF
:1030B000F43E0020214B9A6ED2E90010D3680968D3
:1030C000006810B41842946801EA04012ED0137C01
:1030D00003F00303D9B943F008039908013B1174C5
:1030E0000D2B0BD8DFE803F00D071C070A160D0D9A
:1030F000160A071C070D5369013B53615DF8044B29
:10310000704753695DF8044B01335361704743F0D6
:103110000403E0E753695DF8044B023B53617047D9
:1031200053695DF8044B023353617047137C03F01D
:1031300003030029D1D043F00403CEE7F43E00207E
:10314000214BDA6ED2E90010D3680968006810B428
:103150001842946801EA04012ED0137C03F00303A3
:10316000D9B943F008039908013B11740D2B0BD812
:10317000DFE803F00D071C070A160D0D160A071CE1
:10318000070D5369013B53615DF8044B7047536968
:103190005DF8044B01335361704743F00403E0E7EB
:1031A00053695DF8044B023B5361704753695DF806
:1031B000044B023353617047137C03F0030300296F
:1031C000D1D043F00403CEE7F43E0020214B1A6F28
:1031D000D2E90010D3680968006810B418429468F6
:1031E00001EA04012ED0137C03F00303D9B943F0A4
:1031F00008039908013B11740D2B0BD8DFE803F08D
:103200000D071C070A160D0D160A071C070D53693A
:10321000013B53615DF8044B704753695DF8044B03
:1032200001335361704743F00403E0E753695DF8ED
:10323000044B023B5361704753695DF8044B023302
:1032400053617047137C03F003030029D1D043F08E
:103250000403CEE7F43E0020214B5A6FD2E9001060
:10326000D3680968006810B41842946801EA040140
:103270002ED0137C03F00303D9B943F00803990857
:10328000013B11740D2B0BD8DFE803F00D071C0771
:103290000A160D0D160A071C070D5369013B5361F1
:1032A0005DF8044B704753695DF8044B013353617B
:1032B000704743F00403E0E753695DF8044B023BB9
:1032C0005361704753695DF8044B02335361704793
:1032D000137C03F003030029D1D043F00403CEE7AD
:1032E000F43E0020214B9A6FD2E90010D3680968A0
:1032F000006810B41842946801EA04012ED0137CCF
:1033000003F00303D9B943F008039908013B117492
:103310000D2B0BD8DFE803F00D071C070A160D0D67
:10332000160A071C070D5369013B53615DF8044BF6
:10333000704753695DF8044B01335361704743F0A4
:103340000403E0E753695DF8044B023B53617047A7
:1033500053695DF8044B023353617047137C03F0EB
:1033600003030029D1D043F00403CEE7F43E00204C
:10337000214BDA6FD2E90010D3680968006810B4F5
:103380001842946801EA04012ED0137C03F0030371
:10339000D9B943F008039908013B11740D2B0BD8E0
:1033A000DFE803F00D071C070A160D0D160A071CAF
:1033B000070D5369013B53615DF8044B7047536936
:1033C0005DF8044B01335361704743F00403E0E7B9
:1033D00053695DF8044B023B5361704753695DF8D4
:1033E000044B023353617047137C03F0030300293D
:1033F000D1D043F00403CEE7F43E0020224BD3F8B3
:103400008020D2E90010D3680968006810B418421F
:10341000946801EA04012ED0137C03F00303D9B9A8
:1034200043F008039908013B11740D2B0BD8DFE81A
:1034300003F00D071C070A160D0D160A071C070DD1
:103440005369013B53615DF8044B704753695DF864
:10345000044B01335361704743F00403E0E75369C1
:103460005DF8044B023B5361704753695DF8044BB0
:10347000023353617047137C03F003030029D1D05A
:1034800043F00403CEE700BFF43E0020224BD3F804
:103490008420D2E90010D3680968006810B418428B
:1034A000946801EA04012ED0137C03F00303D9B918
:1034B00043F008039908013B11740D2B0BD8DFE88A
:1034C00003F00D071C070A160D0D160A071C070D41
:1034D0005369013B53615DF8044B704753695DF8D4
:1034E000044B01335361704743F00403E0E7536931
:1034F0005DF8044B023B5361704753695DF8044B20
:10350000023353617047137C03F003030029D1D0C9
:1035100043F00403CEE700BFF43E0020224BD3F873
:103520008820D2E90010D3680968006810B41842F6
:10353000946801EA04012ED0137C03F00303D9B987
:1035400043F008039908013B11740D2B0BD8DFE8F9
:1035500003F00D071C070A160D0D160A071C070DB0
:103560005369013B53615DF8044B704753695DF843
:10357000044B01335361704743F00403E0E75369A0
:103580005DF8044B023B5361704753695DF8044B8F
:10359000023353617047137C03F003030029D1D039
:1035A00043F00403CEE700BFF43E0020224BD3F8E3
:1035B0008C20D2E90010D3680968006810B4184262
:1035C000946801EA04012ED0137C03F00303D9B9F7
:1035D00043F008039908013B11740D2B0BD8DFE869
:1035E00003F00D071C070A160D0D160A071C070D20
:1035F0005369013B53615DF8044B704753695DF8B3
:10360000044B01335361704743F00403E0E753690F
:103610005DF8044B023B5361704753695DF8044BFE
:10362000023353617047137C03F003030029D1D0A8
:1036300043F00403CEE700BFF43E0020224BD3F852
:103640009020D2E90010D3680968006810B41842CD
:10365000946801EA04012ED0137C03F00303D9B966
:1036600043F008039908013B11740D2B0BD8DFE8D8
:1036700003F00D071C070A160D0D160A071C070D8F
:103680005369013B53615DF8044B704753695DF822
:10369000044B01335361704743F00403E0E753697F
:1036A0005DF8044B023B5361704753695DF8044B6E
:1036B000023353617047137C03F003030029D1D018
:1036C00043F00403CEE700BFF43E0020224BD3F8C2
:1036D0009420D2E90010D3680968006810B4184239
:1036E000946801EA04012ED0137C03F00303D9B9D6
:1036F00043F008039908013B11740D2B0BD8DFE848
:1037000003F00D071C070A160D0D160A071C070DFE
:103710005369013B53615DF8044B704753695DF891
:10372000044B01335361704743F00403E0E75369EE
:103730005DF8044B023B5361704753695DF8044BDD
:10374000023353617047137C03F003030029D1D087
:1037500043F00403CEE700BFF43E0020224BD3F831
:103760009820D2E90010D3680968006810B41842A4
:10377000946801EA04012ED0137C03F00303D9B945
:1037800043F008039908013B11740D2B0BD8DFE8B7
:1037900003F00D071C070A160D0D160A071C070D6E
:1037A0005369013B53615DF8044B704753695DF801
:1037B000044B01335361704743F00403E0E753695E
:1037C0005DF8044B023B5361704753695DF8044B4D
:1037D000023353617047137C03F003030029D1D0F7
:1037E00043F00403CEE700BFF43E0020224BD3F8A1
:1037F0009C20D2E90010D3680968006810B4184210
:10380000946801EA04012ED0137C03F00303D9B9B4
:1038100043F008039908013B11740D2B0BD8DFE826
:1038200003F00D071C070A160D0D160A071C070DDD
:103830005369013B53615DF8044B704753695DF870
:10384000044B01335361704743F00403E0E75369CD
:103850005DF8044B023B5361704753695DF8044BBC
:10386000023353617047137C03F003030029D1D066
:1038700043F00403CEE700BFF43E0020224BD3F810
:10388000A020D2E90010D3680968006810B418427B
:10389000946801EA04012ED0137C03F00303D9B924
:1038A00043F008039908013B11740D2B0BD8DFE896
:1038B00003F00D071C070A160D0D160A071C070D4D
:1038C0005369013B53615DF8044B704753695DF8E0
:1038D000044B01335361704743F00403E0E753693D
:1038E0005DF8044B023B5361704753695DF8044B2C
:1038F000023353617047137C03F003030029D1D0D6
:1039000043F00403CEE700BFF43E0020224BD3F87F
:10391000A420D2E90010D3680968006810B41842E6
:10392000946801EA04012ED0137C03F00303D9B993
:1039300043F008039908013B11740D2B0BD8DFE805
:1039400003F00D071C070A160D0D160A071C070DBC
:103950005369013B53615DF8044B704753695DF84F
:10396000044B01335361704743F00403E0E75369AC
:103970005DF8044B023B5361704753695DF8044B9B
:10398000023353617047137C03F003030029D1D045
:1039900043F00403CEE700BFF43E0020224BD3F8EF
:1039A000A820D2E90010D3680968006810B4184252
:1039B000946801EA04012ED0137C03F00303D9B903
:1039C00043F008039908013B11740D2B0BD8DFE875
:1039D00003F00D071C070A160D0D160A071C070D2C
:1039E0005369013B53615DF8044B704753695DF8BF
:1039F000044B01335361704743F00403E0E753691C
:103A00005DF8044B023B5361704753695DF8044B0A
:103A1000023353617047137C03F003030029D1D0B4
:103A200043F00403CEE700BFF43E0020224BD3F85E
:103A3000AC20D2E90010D3680968006810B41842BD
:103A4000946801EA04012ED0137C03F00303D9B972
:103A500043F008039908013B11740D2B0BD8DFE8E4
:103A600003F00D071C070A160D0D160A071C070D9B
:103A70005369013B53615DF8044B704753695DF82E
:103A8000044B01335361704743F00403E0E753698B
:103A90005DF8044B023B5361704753695DF8044B7A
:103AA000023353617047137C03F003030029D1D024
:103AB00043F00403CEE700BFF43E0020224BD3F8CE
:103AC000B020D2E90010D3680968006810B4184229
:103AD000946801EA04012ED0137C03F00303D9B9E2
:103AE00043F008039908013B11740D2B0BD8DFE854
:103AF00003F00D071C070A160D0D160A071C070D0B
:103B00005369013B53615DF8044B704753695DF89D
:103B1000044B01335361704743F00403E0E75369FA
:103B20005DF8044B023B5361704753695DF8044BE9
:103B3000023353617047137C03F003030029D1D093
:103B400043F00403CEE700BFF43E0020224BD3F83D
:103B5000B420D2E90010D3680968006810B4184294
:103B6000946801EA04012ED0137C03F00303D9B951
:103B700043F008039908013B11740D2B0BD8DFE8C3
:103B800003F00D071C070A160D0D160A071C070D7A
:103B90005369013B53615DF8044B704753695DF80D
:103BA000044B01335361704743F00403E0E753696A
:103BB0005DF8044B023B5361704753695DF8044B59
:103BC000023353617047137C03F003030029D1D003
:103BD00043F00403CEE700BFF43E0020224BD3F8AD
:103BE000B820D2E90010D3680968006810B4184200
:103BF000946801EA04012ED0137C03F00303D9B9C1
:103C000043F008039908013B11740D2B0BD8DFE832
:103C100003F00D071C070A160D0D160A071C070DE9
:103C20005369013B53615DF8044B704753695DF87C
:103C3000044B01335361704743F00403E0E75369D9
:103C40005DF8044B023B5361704753695DF8044BC8
:103C5000023353617047137C03F003030029D1D072
:103C600043F00403CEE700BFF43E0020224BD3F81C
:103C7000BC20D2E90010D3680968006810B418426B
:103C8000946801EA04012ED0137C03F00303D9B930
:103C900043F008039908013B11740D2B0BD8DFE8A2
:103CA00003F00D071C070A160D0D160A071C070D59
:103CB0005369013B53615DF8044B704753695DF8EC
:103CC000044B01335361704743F00403E0E7536949
:103CD0005DF8044B023B5361704753695DF8044B38
:103CE000023353617047137C03F003030029D1D0E2
:103CF00043F00403CEE700BFF43E0020224BD3F88C
:103D0000C020D2E90010D3680968006810B41842D6
:103D1000946801EA04012ED0137C03F00303D9B99F
:103D200043F008039908013B11740D2B0BD8DFE811
:103D300003F00D071C070A160D0D160A071C070DC8
:103D40005369013B53615DF8044B704753695DF85B
:103D5000044B01335361704743F00403E0E75369B8
:103D60005DF8044B023B5361704753695DF8044BA7
:103D7000023353617047137C03F003030029D1D051
:103D800043F00403CEE700BFF43E0020214B5A6805
:103D9000D2E90010D3680968006810B4184294682A
:103DA00001EA04012ED0137C03F00303D9B943F0D8
:103DB00008039908013B11740D2B0BD8DFE803F0C1
:103DC0000D071C070A160D0D160A071C070D53696F
:103DD000013B53615DF8044B704753695DF8044B38
:103DE00001335361704743F00403E0E753695DF822
:103DF000044B023B5361704753695DF8044B023337
:103E000053617047137C03F003030029D1D043F0C2
:103E10000403CEE7F43E0020214B9A68D2E900105B
:103E2000D3680968006810B41842946801EA040174
:103E30002ED0137C03F00303D9B943F0080399088B
:103E4000013B11740D2B0BD8DFE803F00D071C07A5
:103E50000A160D0D160A071C070D5369013B536125
:103E60005DF8044B704753695DF8044B01335361AF
:103E7000704743F00403E0E753695DF8044B023BED
:103E80005361704753695DF8044B023353617047C7
:103E9000137C03F003030029D1D043F00403CEE7E1
:103EA000F43E0020214BDA68D2E90010D36809689B
:103EB000006810B41842946801EA04012ED0137C03
:103EC00003F00303D9B943F008039908013B1174C7
:103ED0000D2B0BD8DFE803F00D071C070A160D0D9C
:103EE000160A071C070D5369013B53615DF8044B2B
:103EF000704753695DF8044B01335361704743F0D9
:103F00000403E0E753695DF8044B023B53617047DB
:103F100053695DF8044B023353617047137C03F01F
:103F200003030029D1D043F00403CEE7F43E002080
:103F3000214B1A69D2E90010D3680968006810B4EF
:103F40001842946801EA04012ED0137C03F00303A5
:103F5000D9B943F008039908013B11740D2B0BD814
:103F6000DFE803F00D071C070A160D0D160A071CE3
:103F7000070D5369013B53615DF8044B704753696A
:103F80005DF8044B01335361704743F00403E0E7ED
:103F900053695DF8044B023B5361704753695DF808
:103FA000044B023353617047137C03F00303002971
:103FB000D1D043F00403CEE7F43E0020214B5A69F0
:103FC000D2E90010D3680968006810B418429468F8
:103FD00001EA04012ED0137C03F00303D9B943F0A6
:103FE00008039908013B11740D2B0BD8DFE803F08F
:103FF0000D071C070A160D0D160A071C070D53693D
:10400000013B53615DF8044B704753695DF8044B05
:1040100001335361704743F00403E0E753695DF8EF
:10402000044B023B5361704753695DF8044B023304
:1040300053617047137C03F003030029D1D043F090
:104040000403CEE7F43E0020214B9A69D2E9001028
:10405000D3680968006810B41842946801EA040142
:104060002ED0137C03F00303D9B943F00803990859
:10407000013B11740D2B0BD8DFE803F00D071C0773
:104080000A160D0D160A071C070D5369013B5361F3
:104090005DF8044B704753695DF8044B013353617D
:1040A000704743F00403E0E753695DF8044B023BBB
:1040B0005361704753695DF8044B02335361704795
:1040C000137C03F003030029D1D043F00403CEE7AF
:1040D000F43E0020214BDA69D2E90010D368096868
:1040E000006810B41842946801EA04012ED0137CD1
:1040F00003F00303D9B943F008039908013B117495
:104100000D2B0BD8DFE803F00D071C070A160D0D69
:10411000160A071C070D5369013B53615DF8044BF8
:10412000704753695DF8044B01335361704743F0A6
:104130000403E0E753695DF8044B023B53617047A9
:1041400053695DF8044B023353617047137C03F0ED
:1041500003030029D1D043F00403CEE7F43E00204E
:10416000214B1A6AD2E90010D3680968006810B4BC
:104170001842946801EA04012ED0137C03F0030373
:10418000D9B943F008039908013B11740D2B0BD8E2
:10419000DFE803F00D071C070A160D0D160A071CB1
:1041A000070D5369013B53615DF8044B7047536938
:1041B0005DF8044B01335361704743F00403E0E7BB
:1041C00053695DF8044B023B5361704753695DF8D6
:1041D000044B023353617047137C03F0030300293F
:1041E000D1D043F00403CEE7F43E0020214B5A6ABD
:1041F000D2E90010D3680968006810B418429468C6
:1042000001EA04012ED0137C03F00303D9B943F073
:1042100008039908013B11740D2B0BD8DFE803F05C
:104220000D071C070A160D0D160A071C070D53690A
:10423000013B53615DF8044B704753695DF8044BD3
:1042400001335361704743F00403E0E753695DF8BD
:10425000044B023B5361704753695DF8044B0233D2
:1042600053617047137C03F003030029D1D043F05E
:104270000403CEE7F43E0020214B9A6AD2E90010F5
:10428000D3680968006810B41842946801EA040110
:104290002ED0137C03F00303D9B943F00803990827
:1042A000013B11740D2B0BD8DFE803F00D071C0741
:1042B0000A160D0D160A071C070D5369013B5361C1
:1042C0005DF8044B704753695DF8044B013353614B
:1042D000704743F00403E0E753695DF8044B023B89
:1042E0005361704753695DF8044B02335361704763
:1042F000137C03F003030029D1D043F00403CEE77D
:10430000F43E0020214BDA6AD2E90010D368096834
:10431000006810B41842946801EA04012ED0137C9E
:1043200003F00303D9B943F008039908013B117462
:104330000D2B0BD8DFE803F00D071C070A160D0D37
:10434000160A071C070D5369013B53615DF8044BC6
:10435000704753695DF8044B01335361704743F074
:104360000403E0E753695DF8044B023B5361704777
:1043700053695DF8044B023353617047137C03F0BB
:1043800003030029D1D043F00403CEE7F43E00201C
:10439000214B1A6BD2E90010D3680968006810B489
:1043A0001842946801EA04012ED0137C03F0030341
:1043B000D9B943F008039908013B11740D2B0BD8B0
:1043C000DFE803F00D071C070A160D0D160A071C7F
:1043D000070D5369013B53615DF8044B7047536906
:1043E0005DF8044B01335361704743F00403E0E789
:1043F00053695DF8044B023B5361704753695DF8A4
:10440000044B023353617047137C03F0030300290C
:10441000D1D043F00403CEE7F43E0020214B5A6B89
:10442000D2E90010D3680968006810B41842946893
:1044300001EA04012ED0137C03F00303D9B943F041
:1044400008039908013B11740D2B0BD8DFE803F02A
:104450000D071C070A160D0D160A071C070D5369D8
:10446000013B53615DF8044B704753695DF8044BA1
:1044700001335361704743F00403E0E753695DF88B
:10448000044B023B5361704753695DF8044B0233A0
:1044900053617047137C03F003030029D1D043F02C
:1044A0000403CEE7F43E0020214B9A6BD2E90010C2
:1044B000D3680968006810B41842946801EA0401DE
:1044C0002ED0137C03F00303D9B943F008039908F5
:1044D000013B11740D2B0BD8DFE803F00D071C070F
:1044E0000A160D0D160A071C070D5369013B53618F
:1044F0005DF8044B704753695DF8044B0133536119
:10450000704743F00403E0E753695DF8044B023B56
:104510005361704753695DF8044B02335361704730
:10452000137C03F003030029D1D043F00403CEE74A
:10453000F43E0020214BDA6BD2E90010D368096801
:10454000006810B41842946801EA04012ED0137C6C
:1045500003F00303D9B943F008039908013B117430
:104560000D2B0BD8DFE803F00D071C070A160D0D05
:10457000160A071C070D5369013B53615DF8044B94
:10458000704753695DF8044B01335361704743F042
:104590000403E0E753695DF8044B023B5361704745
:1045A00053695DF8044B023353617047137C03F089
:1045B00003030029D1D043F00403CEE7F43E0020EA
:1045C000214B1A6CD2E90010D3680968006810B456
:1045D0001842946801EA04012ED0137C03F003030F
:1045E000D9B943F008039908013B11740D2B0BD87E
:1045F000DFE803F00D071C070A160D0D160A071C4D
:10460000070D5369013B53615DF8044B70475369D3
:104610005DF8044B01335361704743F00403E0E756
:1046200053695DF8044B023B5361704753695DF871
:10463000044B023353617047137C03F003030029DA
:10464000D1D043F00403CEE7F43E0020214B5A6C56
:10465000D2E90010D3680968006810B41842946861
:1046600001EA04012ED0137C03F00303D9B943F00F
:1046700008039908013B11740D2B0BD8DFE803F0F8
:104680000D071C070A160D0D160A071C070D5369A6
:10469000013B53615DF8044B704753695DF8044B6F
:1046A00001335361704743F00403E0E753695DF859
:1046B000044B023B5361704753695DF8044B02336E
:1046C00053617047137C03F003030029D1D043F0FA
:1046D0000403CEE7F43E0020214B9A6CD2E900108F
:1046E000D3680968006810B41842946801EA0401AC
:1046F0002ED0137C03F00303D9B943F008039908C3
:10470000013B11740D2B0BD8DFE803F00D071C07DC
:104710000A160D0D160A071C070D5369013B53615C
:104720005DF8044B704753695DF8044B01335361E6
:10473000704743F00403E0E753695DF8044B023B24
:104740005361704753695DF8044B023353617047FE
:10475000137C03F003030029D1D043F00403CEE718
:10476000F43E0020214BDA6CD2E90010D3680968CE
:10477000006810B41842946801EA04012ED0137C3A
:1047800003F00303D9B943F008039908013B1174FE
:104790000D2B0BD8DFE803F00D071C070A160D0DD3
:1047A000160A071C070D5369013B53615DF8044B62
:1047B000704753695DF8044B01335361704743F010
:1047C0000403E0E753695DF8044B023B5361704713
:1047D00053695DF8044B023353617047137C03F057
:1047E00003030029D1D043F00403CEE7F43E0020B8
:1047F000214B1A6DD2E90010D3680968006810B423
:104800001842946801EA04012ED0137C03F00303DC
:10481000D9B943F008039908013B11740D2B0BD84B
:10482000DFE803F00D071C070A160D0D160A071C1A
:10483000070D5369013B53615DF8044B70475369A1
:104840005DF8044B01335361704743F00403E0E724
:1048500053695DF8044B023B5361704753695DF83F
:10486000044B023353617047137C03F003030029A8
:10487000D1D043F00403CEE7F43E0020214B5A6D23
:10488000D2E90010D3680968006810B4184294682F
:1048900001EA04012ED0137C03F00303D9B943F0DD
:1048A00008039908013B11740D2B0BD8DFE803F0C6
:1048B0000D071C070A160D0D160A071C070D536974
:1048C000013B53615DF8044B704753695DF8044B3D
:1048D00001335361704743F00403E0E753695DF827
:1048E000044B023B5361704753695DF8044B02333C
:1048F00053617047137C03F003030029D1D043F0C8
:104900000403CEE7F43E0020214B9A6DD2E900105B
:10491000D3680968006810B41842946801EA040179
:104920002ED0137C03F00303D9B943F00803990890
:10493000013B11740D2B0BD8DFE803F00D071C07AA
:104940000A160D0D160A071C070D5369013B53612A
:104950005DF8044B704753695DF8044B01335361B4
:10496000704743F00403E0E753695DF8044B023BF2
:104970005361704753695DF8044B023353617047CC
:10498000137C03F003030029D1D043F00403CEE7E6
:10499000F43E0020214BDA6DD2E90010D36809689B
:1049A000006810B41842946801EA04012ED0137C08
:1049B00003F00303D9B943F008039908013B1174CC
:1049C0000D2B0BD8DFE803F00D071C070A160D0DA1
:1049D000160A071C070D5369013B53615DF8044B30
:1049E000704753695DF8044B01335361704743F0DE
:1049F0000403E0E753695DF8044B023B53617047E1
:104A000053695DF8044B023353617047137C03F024
:104A100003030029D1D043F00403CEE7F43E002085
:104A2000214B1A6ED2E90010D3680968006810B4EF
:104A30001842946801EA04012ED0137C03F00303AA
:104A4000D9B943F008039908013B11740D2B0BD819
:104A5000DFE803F00D071C070A160D0D160A071CE8
:104A6000070D5369013B53615DF8044B704753696F
:104A70005DF8044B01335361704743F00403E0E7F2
:104A800053695DF8044B023B5361704753695DF80D
:104A9000044B023353617047137C03F00303002976
:104AA000D1D043F00403CEE7F43E00200B4610B50E
:104AB000362800F29782DFE810F08C028202790239
:104AC000700267025E0255024C0243023A02310252
:104AD00028021F02BF01B601AD01A4019B01920192
:104AE0008901800177016E0165015C0153014A0172
:104AF000410138012F0126011D0113010901FF00A9
:104B0000F500EB00E100D700CD00C300B900AF0015
:104B1000A5009B00910087007D00730069005F0085
:104B200055004B0041003700C84C0422C8493620CC
:104B3000C4F8D83006F078FC012010BDC34C042224
:104B4000C4493520C4F8D43006F06EFC012010BDF5
:104B5000BE4C0422C0493420C4F8D03006F064FCB6
:104B6000012010BDB94C0422BC493320C4F8CC301C
:104B700006F05AFC012010BDB44C0422B849322082
:104B8000C4F8C83006F050FC012010BDAF4C042220
:104B9000B4493120C4F8C43006F046FC012010BDF1
:104BA000AA4C0422B0493020C4F8C03006F03CFCC6
:104BB000012010BDA54C0422AC492F20C4F8BC3004
:104BC00006F032FC012010BDA04C0422A8492E2082
:104BD000C4F8B83006F028FC012010BD9B4C04221C
:104BE000A4492D20C4F8B43006F01EFC012010BDED
:104BF000964C0422A0492C20C4F8B03006F014FCD6
:104C0000012010BD914C04229C492B20C4F8AC30EB
:104C100006F00AFC012010BD8C4C042298492A2081
:104C2000C4F8A83006F000FC012010BD874C042217
:104C300094492920C4F8A43006F0F6FB012010BDE9
:104C4000824C042290492820C4F8A03006F0ECFBE6
:104C5000012010BD7D4C04228C492720C4F89C30D3
:104C600006F0E2FB012010BD784C04228849262082
:104C7000C4F8983006F0D8FB012010BD734C042214
:104C800084492520C4F8943006F0CEFB012010BDE5
:104C90006E4C042280492420C4F8903006F0C4FBF6
:104CA000012010BD694C04227C492320C4F88C30BB
:104CB00006F0BAFB012010BD644C04227849222082
:104CC000C4F8883006F0B0FB012010BD5F4C042210
:104CD00074492120C4F8843006F0A6FB012010BDE1
:104CE0005A4C042270492020C4F8803006F09CFB06
:104CF000012010BD554C04226C491F20E36706F0CB
:104D000093FB012010BD514C042269491E20A3676A
:104D100006F08AFB012010BD4C4C042265491D2081
:104D2000636706F081FB012010BD484C04226249F4
:104D30001C20236706F078FB012010BD434C0422A1
:104D40005E491B20E36606F06FFB012010BD3F4C5F
:104D500004225B491A20A36606F066FB012010BD01
:104D60003A4C042257491920636606F05DFB012086
:104D700010BD364C042254491820236606F054FB1B
:104D8000012010BD314C042250491720E36506F084
:104D90004BFB012010BD2D4C04224D491620A3656C
:104DA00006F042FB012010BD284C04224949152081
:104DB000636506F039FB012010BD244C04224649EE
:104DC0001420236506F030FB012010BD1F4C042287
:104DD00042491320E36406F027FB012010BD1B4C61
:104DE00004223F491220A36406F01EFB012010BDDF
:104DF000164C04223B491120636406F015FB012088
:104E000010BD124C042238491020236406F00CFB1C
:104E1000012010BD0D4C042234490F20E36306F03D
:104E200003FB012010BD094C042231490E20A3636D
:104E300006F0FAFA012010BD044C04222D490D2081
:104E4000636306F0F1FA012010BD00BFF43E0020BC
:104E5000BD0A00002D0A0000FD0C00006D0C0000D2
:104E6000DD0B00004D0B0000ED1A00005D1A000084
:104E7000CD1900003D190000AD1800001D180000FC
:104E80008D170000FD1600006D160000DD150000F6
:104E90004D150000BD1400002D1400009D130000EE
:104EA0000D1300007D120000ED11000061110000E3
:104EB000D510000049100000BD0F0000310F0000A8
:104EC000A50E0000190E0000112800008527000023
:104ED000F92600006D260000E125000055250000A0
:104EE000C92400003D240000B12300002523000058
:104EF000992200000D2200003B4C04223B490C206B
:104F0000236306F091FA012010BD374C0422384982
:104F10000B20E36206F088FA012010BD324C042217
:104F200034490A20A36206F07FFA012010BD2E4CFE
:104F3000042231490920636206F076FA012010BD8F
:104F4000294C04222D490820236206F06DFA012025
:104F500010BD254C04222A490720E36106F064FABB
:104F6000012010BD204C042226490620A36106F032
:104F70005BFA012010BD1C4C04222349052063610B
:104F800006F052FA012010BD0422174C1F491046AA
:104F9000236106F049FA012010BD134C04221C497C
:104FA0000320E36006F040FA012010BD0E4C0422FD
:104FB00018490220A36006F037FA012010BD04460C
:104FC0000948042214494360012006F02DFA2046C6
:104FD00010BD054C042211490020236006F024FA7C
:104FE000012010BD002010BDF43E002081210000F2
:104FF000F520000069200000DD1F0000511F0000A7
:10500000C51E0000391E0000AD1D0000211D00005E
:10501000951C0000091C00007D1B00008D0D000088
:10502000D14A2DE9F84313680446002B00F099811A
:105030005368A36003B15C60CC4B4FF00008DFF80D
:1050400048C304F190075460C4F80480C4F8108089
:10505000C74DC84E03CB1B88C4F81E00E3844FF035
:10506000FF33C4F822106361A3612377BCE80F000B
:10507000A062E16222636363BCE80700A06304F1FD
:105080004400E16322644622BB4906F057FABB4B59
:105090000221052023601C33E3600123A4F88A3039
:1050A0007F2384F88C3006F085F90221062006F073
:1050B00081F9D5F85CE0D5F85090B149C4F898E092
:1050C000E86EB04BC4F89090D5F860C0C4F8A480E6
:1050D000C4F89C00D1F804803268C4F894C0A3FBE3
:1050E00002324FF4FA63920C03FB02F24B68A3EB1B
:1050F00008039A42FAD8D9F800303946DCF8002083
:105100001EEA030F14BF0123002310424FF00500D5
:1051100018BF43F0020384F8A030FFF7C7FC3946FC
:1051200084F8A8000620FFF7C1FC94F8A8300221FB
:1051300004F1AC07184484F8A8001A2006F03AF9E4
:1051400002211B2006F036F9D5F8AC81D5F8A091E4
:105150000023C4F8B4808A49D5F8BCC1C4F8AC9027
:10516000D5F8B0E1C4F8C030C4F8B8C0854B486881
:105170003268C4F8B0E0A3FB02324FF4FA63920C39
:1051800003FB02F24B681B1A9A42FBD8D9F8003095
:105190003946DEF800201A2018EA030F14BF012355
:1051A00000231CEA020F18BF43F0020384F8BC304E
:1051B000FFF77CFC394684F8C4001B20FFF776FC1F
:1051C00094F8C430022104F1C807184484F8C400DC
:1051D0001D2006F0EFF802211E2006F0EBF8D5F8AE
:1051E000DC81D5F8D0910023C4F8D0806449D5F88B
:1051F000ECC1C4F8C890D5F8E0E1C4F8DC30C4F8DC
:10520000D4C0604B48683268C4F8CCE0A3FB0232DB
:105210004FF4FA63920C03FB02F24B681B1A9A429A
:10522000FBD8D9F800303946DEF800201D2018EAF6
:10523000030F4FF4FA6914BF012300231CEA020F85
:1052400018BF43F0020384F8D830FFF72FFC39462B
:1052500084F8E0001E20FFF729FC94F8E0300221DA
:1052600004F1E407184484F8E0001F2006F0A2F8D7
:105270000221202006F09EF8D5F8FCE1D5F8F08157
:105280000023C4F8ECE03E49D5F80CC2C4F8E48031
:10529000D5F80052C4F8F830C4F8F0C0394B48686B
:1052A0003268C4F8E850A3FB0232920C09FB02F208
:1052B0004B681B1A9A42FBD8D8F8003039462A6846
:1052C0001F201EEA030F14BF012300231CEA020F54
:1052D00018BF43F0020384F8F430FFF7E7FB0346FE
:1052E0003946202084F8FC30FFF7E0FB94F8FC30CE
:1052F00046220021184484F8FC0004F5807008F070
:10530000D1FD94F8A8300022012BC4E95222C4E94F
:10531000542279D972B6D4F8A43062B694F8C42075
:10532000C4F84831012A5BD972B6D4F8C03062B6ED
:1053300094F8E020C4F84C31012A3CD972B6D4F874
:10534000DC3062B694F8FC20C4F85031012A1DD933
:1053500072B6D4F8F83062B62046C4F85431BDE8CD
:10536000F883106064E600BF743D00204C05002007
:105370004C0D002044280020040500205807002080
:10538000001000E083DE1B43E804002072B6D4E97D
:105390003921D4E93B03126809680240194200F040
:1053A000D18094F8F43003F003030AB143F004030E
:1053B00043F00803CDE072B6D4E93221D4E93403D6
:1053C000126809680240194200F08E8094F8D830C3
:1053D00003F003030AB143F0040343F008038AE037
:1053E00072B6D4E92B21D4E92D0312680968024072
:1053F00019424BD094F8BC3003F003030AB143F0D8
:10540000040343F0080348E072B6D4E92421D4E948
:105410002603126809680240194209D094F8A030A6
:1054200003F003030AB143F0040343F0080306E06A
:1054300094F8A03003F003030AB143F004039A0880
:10544000013B84F8A0200D2B3FF665AF01A252F876
:1054500023F000BFE5330000D9330000153400000D
:10546000D93300000731000009340000E5330000A3
:10547000E53300000934000007310000D933000093
:1054800015340000D9330000E533000094F8BC3037
:1054900003F003030AB143F004039A08013B84F8C4
:1054A000BC200D2B3FF641AF01A252F823F000BF04
:1054B000CD330000C1330000FD330000C1330000D4
:1054C0001B310000F1330000CD330000CD3300006C
:1054D000F13300001B310000C1330000FD33000038
:1054E000C1330000CD33000094F8D83003F003033B
:1054F0000AB143F004039A08013B84F8D8200D2B2D
:105500003FF61DAF01A252F823F000BFB5330000F3
:10551000A933000045340000A93300002F310000FA
:1055200039340000B5330000B533000039340000D1
:105530002F310000A933000045340000A9330000DA
:10554000B533000094F8F43003F003030AB143F0DC
:1055500004039A08013B84F8F4200D2B3FF6F9AEC2
:1055600001A252F823F000BF9D33000091330000E8
:105570002D3400009133000043310000213400003D
:105580009D3300009D3300002134000043310000B2
:10559000913300002D340000913300009D33000052
:1055A000D4F8F830013BC4F8F830D4E6D4F8F83039
:1055B0000133C4F8F830CEE6D4F8DC30013BC4F84F
:1055C000DC30BEE6D4F8DC300133C4F8DC30B8E6B9
:1055D000D4F8C030013BC4F8C030A8E6D4F8C030DD
:1055E0000133C4F8C030A2E6D4F8A430013BC4F8BB
:1055F000A43092E6D4F8A4300133C4F8A4308CE689
:10560000D4F8C030023BC4F8C03090E6D4F8C030C3
:105610000233C4F8C0308AE6D4F8A430023BC4F8A0
:10562000A4307AE6D4F8A4300233C4F8A43074E687
:10563000D4F8F830023BC4F8F8308CE6D4F8F830EF
:105640000233C4F8F83086E6D4F8DC30023BC4F804
:10565000DC3076E6D4F8DC300233C4F8DC3070E6B7
:10566000124B30B5124C83B0186801F031FE04F1D2
:105670001A05092001E034F8020F022101F0B6FA00
:10568000AC42F8D10B4C182004F10805012101901F
:1056900001F0ACFA0198012101F0D6FAAC4202D037
:1056A00034F8020FF2E703B030BD00BF883D0020A0
:1056B000E80400204C0500202DE9F04F954A002316
:1056C000DFF874922DED028B89B0029200F58072A2
:1056D000019307900591CDE903238F4B00261820F5
:1056E0009DF804501C460693F1B20136691A18BFA2
:1056F000012101F0A9FA052E02D034F8020FF3E7D8
:10570000864B5968864B1A68864BA3FB0232920C73
:1057100002EB8202D200814B5B685B1A9A42FAD894
:10572000019B0024804E0920C3EBC30A079BDDE9DF
:10573000027503EB4A0A0DE0002A64D10AEB040368
:105740000135013483F80081784BB34200F09A8030
:1057500036F8020F01F084FA002817F801BF0CBFD9
:105760004FF001084FF000082A78E5D1002AE5D172
:105770006F4BD3F8C000026812684A4540F0B5800C
:10578000902007F055F96A4BD3F8C0000BF07F0367
:10579000026808EE103A12684A4540F0A3801846A5
:1057A00007F046F9624BD3F8C000026812684A4518
:1057B00040F095807F2007F03BF95E4BD3F8C000A6
:1057C000026812684A4540F08780902007F030F95F
:1057D000584BD3F8C000026812684A4578D118EED9
:1057E000100A07F025F9534BD3F8C000026812687D
:1057F0004A456AD17F2007F01BF9059B83F800B06A
:10580000012304939AE74A4BD3F8C0000268126858
:105810004A4570D1802007F00BF9454B0BF07F0B08
:10582000D3F8C00003681B684B4561D1584607F0A8
:10583000FFF83F4BD3F8C00003681B684B4566D1A7
:10584000002007F0F5F83B4BD3F8C00003681B6855
:105850004B4559D1802007F0EBF8364BD3F8C00008
:1058600003681B684B454CD1584607F0E1F8314BB3
:10587000D3F8C00003681B684B453FD1002007F0F8
:10588000D7F85BE7029A019B0E3201330292039A2A
:10589000052B019302F10E0203927FF41EAF069DC9
:1058A0001820012105F1080401F0CEF9AC4206D020
:1058B00035F8020F012101F0C7F9AC42F8D1049884
:1058C00009B0BDEC028BBDE8F08F7F21904794E7D3
:1058D00018EE101A904786E79021904778E77F21CD
:1058E00090476AE7194690475CE7902190474AE75E
:1058F000594698479DE7802190478EE700219847B9
:105900001CE759469847B2E780219847A5E7002150
:10591000984798E7030500204C050020001000E0A0
:105920004428002083DE1B43E804002002050020F9
:10593000AC490020744A0020BD080000174BF0B5A8
:10594000044685B018680E46154601F021FE002376
:1059500020460DF10F018DF80F30FFF7ADFE044624
:1059600010B9204605B0F0BD9DF80FC029460C4B7C
:1059700030460C4FA3FB0C230B4ADB0803EB43051B
:10598000013BACEB850C00935FFA8CFC57F82C3094
:1059900009F04CF8204605B0F0BD00BF883D00205E
:1059A000ABAAAAAA380A00205805002070B5034601
:1059B00090F8A80084B0012831D972B6D3F8A400B9
:1059C00062B693F8C4400090012C72D972B6D3F835
:1059D000C00062B693F8E0400190012C51D972B634
:1059E000D3F8DC0062B693F8FC400290012C2FD96A
:1059F00072B6D3F8F80062B60390EE4603F5A27CC7
:105A000000205EF8044BC6B25CF8045FAC4240F084
:105A10007F8101300428F4D1002004B070BD72B63B
:105A2000D3F89040D3F8980024680440D3F8940049
:105A30000568D3F89C00054200F0DC8093F8A000D4
:105A400000F003000CB140F0040040F00800D8E082
:105A500072B6D3F8E440D3F8EC0024680440D3F8DD
:105A6000E8000568D3F8F000054200F0958093F84F
:105A7000F40000F003000CB140F0040040F0080016
:105A800091E072B6D3F8C840D3F8D000246804403F
:105A9000D3F8CC000568D3F8D40005424ED093F873
:105AA000D80000F003000CB140F0040040F0080002
:105AB0004BE072B6D3F8AC40D3F8B400246804408D
:105AC000D3F8B0000568D3F8B800054209D093F8C0
:105AD000BC0000F003000CB140F0040040F00800EE
:105AE00006E093F8BC0000F003000CB140F00400A5
:105AF0008408013883F8BC400D283FF668AF01A444
:105B000054F820F07D3A0000713A0000AD3A0000F0
:105B1000713A0000BF370000A13A00007D3A000052
:105B20007D3A0000A13A0000BF370000713A000042
:105B3000AD3A0000713A00007D3A000093F8D800B9
:105B400000F003000CB140F004008408013883F831
:105B5000D8400D283FF644AF01A454F820F000BF10
:105B6000653A0000593A0000F53A0000593A000041
:105B7000D1370000E93A0000653A0000653A0000BC
:105B8000E93A0000D1370000593A0000F53A000028
:105B9000593A0000653A000093F8F40000F0030061
:105BA0000CB140F004008408013883F8F4400D285B
:105BB0003FF61FAF01A454F820F000BF953A000053
:105BC000893A0000C53A0000893A0000E337000036
:105BD000B93A0000953A0000953A0000B93A000041
:105BE000E3370000893A0000C53A0000893A000016
:105BF000953A000093F8A00000F003000CB140F0CB
:105C000004008408013883F8A0400D283FF6D6AE82
:105C100001A454F820F000BF4D3A0000413A0000C2
:105C2000DD3A0000413A0000AD370000D13A0000F3
:105C30004D3A00004D3A0000D13A0000AD37000067
:105C4000413A0000DD3A0000413A00004D3A0000C0
:105C5000D3F8A4000138C3F8A400B1E6D3F8A40037
:105C60000130C3F8A400ABE6D3F8DC000138C3F878
:105C7000DC00B7E6D3F8DC000130C3F8DC00B1E6A5
:105C8000D3F8C0000138C3F8C000A2E6D3F8C000C2
:105C90000130C3F8C0009CE6D3F8F8000138C3F81F
:105CA000F800A8E6D3F8F8000130C3F8F800A2E63F
:105CB000D3F8C0000238C3F8C0008AE6D3F8C000A9
:105CC0000230C3F8C00084E6D3F8F8000238C3F805
:105CD000F80090E6D3F8F8000230C3F8F8008AE63E
:105CE000D3F8A4000238C3F8A40069E6D3F8A400EE
:105CF0000230C3F8A40063E6D3F8DC000238C3F82E
:105D0000DC006FE6D3F8DC000230C3F8DC0069E6A3
:105D100001360E7000F152010120146043F8214059
:105D200004B070BD374B2DE9F04F1B682DED028B91
:105D300087B01A4602934368D31A182B5CD900F136
:105D400010038346039300F11A0305930023049381
:105D5000039B00279DF81040012133F8020FDDF866
:105D600014A008EE104A039300F040FF01970EE0E4
:105D7000337A48EA0308029B86F80880CBF804309F
:105D8000019B05340133E4B20E2B019329D03AF87C
:105D9000020F0BEBD40600F063FF04F007050122AD
:105DA000317A031E814602FA05F59DF8042018BFDA
:105DB00001230D425FFA85F814BF012100219942A9
:105DC000DED0DBF80010584689680F4618EE101A2E
:105DD000B847B9F1000FCBD196F8088028EA05083A
:105DE000C9E7039C0021208800F000FF049B0133D9
:105DF0000493059B9C42ABD107B0BDEC028BBDE880
:105E0000F08F00BFA44B00200C3008B5FFF78AFFCD
:105E100008BD00BF2DE9F8433F4840F204793F4CEC
:105E20003F4E404D22463146A0F80490056006F0F2
:105E3000ADFF3D484FF6043322463146056083806E
:105E400006F0A4FF39484FF6F83322463146056084
:105E5000838006F09BFF364840F2037322463146AA
:105E60000560838006F092FF32484FF603332246E6
:105E700031460560838006F089FF2F484FF6F733DF
:105E8000224631460560838006F080FF2B4840F2B1
:105E90000363224631460560838006F077FF284879
:105EA00040F60303224631460560838006F06EFF0C
:105EB000DFF8B08023480A23234F22464146A0F84A
:105EC00004900760837106F061FF20480B2322468F
:105ED0004146A0F804900760837106F057FF1C4804
:105EE0001C4B22461C490360F423037106F04EFF4D
:105EF0001A483146224605604EF6F405858006F0C4
:105F000045FF1748DC2322464146076085808371A0
:105F1000BDE8F84306F03ABFAC3E0020842C0020D8
:105F20005D070000A4090020343E0020643E0020EC
:105F3000C43E00204C3E00207C3E0020043E002059
:105F4000DC3E0020943E0020BC0900201C3E0020C6
:105F5000D43D00208C09002061070000BC3D0020DA
:105F6000EC3D002059070000704700BF704700BF9C
:105F7000704700BF704700BF704700BF01627047A5
:105F800070B50446D0F8C0001D46164603681B686D
:105F90009847D4F8C000314603681B689847D4F886
:105FA000C00029460368BDE870401B68184700BF61
:105FB00070B50446D0F8C000154603681B689847C2
:105FC000D4F8C00029460368BDE870401B68184734
:105FD000D0F8C00003685B68184700BFD0F8C00065
:105FE00003681B68184700BF0D490E4B30B40C689E
:105FF0000360A042D0E9013200D06BB10AB1536016
:1060000043684D68A84208BF4A6003B19A60A04245
:1060100008BF0B6030BC7047002AF0D1FAE700BF20
:10602000643D002048060020436A10B504461B6802
:1060300024309847204602F0C1FF204610BD00BF23
:10604000D0E9303110B41C6818460022E3695DF8CD
:10605000044B1847D0E92C3110B41C6818460022B4
:10606000E3695DF8044B184738B5044600F128058C
:106070000AE0D4F8C00003685B69984701462846E7
:10608000C9B203F0BFF838B9D4F8C00003681B697F
:1060900098470028EDDC002038BD00BF064B03F117
:1060A000440103F1580210B50446036081600261A7
:1060B00001F036FB204610BDAC080020084B10B59F
:1060C00003F14401044603F1580240F8103C40F843
:1060D000081C44F81029204601F022FB204610BD80
:1060E000AC080020084B10B503F1440103F158023D
:1060F000A0F1080440F8083C01608260204601F0ED
:106100000FFB204610BD00BFAC080020084B03F178
:10611000440103F1580210B5044603600261816036
:1061200001F0FEFA2046C42105F0A2FA204610BD77
:10613000AC0800200A4B10B503F1440103F15802EA
:10614000A0F1100440F8103C026040F8081C204602
:1061500001F0E6FA2046C42105F08AFA204610BD77
:10616000AC0800200A4B10B503F1440103F15802BA
:10617000A0F1080440F8083C82600160204601F06C
:10618000CFFA2046C42105F073FA204610BD00BFA7
:10619000AC080020064B03F1440103F1580210B58E
:1061A000044603608160026101F0BAFA204610BD26
:1061B000AC080020084B10B503F14401044603F17C
:1061C000580240F8103C40F8081C44F810292046BA
:1061D00001F0A6FA204610BDAC080020084B10B50F
:1061E00003F1440103F15802A0F1080440F8083C0F
:1061F00001608260204601F093FA204610BD00BF86
:10620000AC080020084B03F1440103F1580210B51B
:10621000044603600261816001F082FA2046C821D1
:1062200005F026FA204610BDAC0800200A4B10B538
:1062300003F1440103F15802A0F1100440F8103CAE
:10624000026040F8081C204601F06AFA2046C82186
:1062500005F00EFA204610BDAC0800200A4B10B520
:1062600003F1440103F15802A0F1080440F8083C8E
:1062700082600160204601F053FA2046C82105F0F3
:10628000F7F9204610BD00BFAC080020064B03F113
:10629000440103F1580210B50446036081600261B5
:1062A00001F03EFA204610BDAC080020084B10B5A6
:1062B00003F14401044603F1580240F8103C40F851
:1062C000081C44F81029204601F02AFA204610BD87
:1062D000AC080020084B10B503F1440103F158024B
:1062E000A0F1080440F8083C01608260204601F0FB
:1062F00017FA204610BD00BFAC080020084B03F180
:10630000440103F1580210B5044603600261816044
:1063100001F006FA2046C82105F0AAF9204610BD72
:10632000AC0800200A4B10B503F1440103F15802F8
:10633000A0F1100440F8103C026040F8081C204610
:1063400001F0EEF92046C82105F092F9204610BD73
:10635000AC0800200A4B10B503F1440103F15802C8
:10636000A0F1080440F8083C82600160204601F07A
:10637000D7F92046C82105F07BF9204610BD00BFA3
:10638000AC08002038B501F10C050446284602F09F
:10639000B3FF034628461D4602F0B0FF0023024625
:1063A000256020462271637138BD00BF0F4938B5A2
:1063B000044608680E4B84422360D4E9013200D0C1
:1063C0008BB10AB1536063684D68AC4208BF4A6044
:1063D00003B19A60844208BF0B6020460C2105F08F
:1063E00047F9204638BD002AECD1F6E7643D00208D
:1063F000480600202DE9F843124D40F2EE28124CD9
:10640000124FDFF84C902E6806F0A6FB237853B1AC
:106410003B78DB0707D52B68D9F800209B1A0E2B99
:1064200001D9BDE8F8832B6822789B1B2AB1B3F50C
:10643000FA6FF6D806F090FBE6E74345FAD9BDE8D7
:10644000F88300BFA44B0020D34B0020D24B002088
:10645000B44B00202DE9F843124D40F2EE28124CC7
:10646000124FDFF84C902E6806F076FB237853B17C
:106470003B78DB0707D52B68D9F800209B1A0E2B39
:1064800001D9BDE8F8832B6822789B1B2AB1B3F5AC
:10649000FA6FF6D806F060FBE6E74345FAD9BDE8A7
:1064A000F88300BFA44B0020D34B0020D24B002028
:1064B000B44B00200D490E4B30B40C680360A04271
:1064C000D0E9013200D06BB10AB1536043684D6826
:1064D000A84208BF4A6003B19A60A04208BF0B609F
:1064E00030BC7047002AF0D1FAE700BF743D0020AD
:1064F0005806002000221B4B4260C2601A6830B46C
:1065000000F1280500F1100452B35A68826102B10B
:106510005460154A5C60002302F14404C0F8C010C6
:106520000260FF2158328460104CC561846243616F
:10653000036280F82430026180F82C1080F82D303E
:1065400080F82E3080F82F3080F8301080F831300D
:10655000C0F8B43080F8B83080F8BC3030BC704738
:106560001C60D2E7643D00203C0800208807002022
:106570002DE9F8435C4840F204795C4C5C4E5D4D7B
:1065800022463146A0F80490056006F0FFFB5A4809
:106590004FF60433224631460560838006F0F6FB51
:1065A00056484FF6F833224631460560838006F0A0
:1065B000EDFB534840F20373224631460560838069
:1065C00006F0E4FB4F484FF60333224631460560A0
:1065D000838006F0DBFB4C484FF6F733224631460A
:1065E0000560838006F0D2FB484840F203632246F0
:1065F00031460560838006F0C9FB454840F6030339
:10660000224631460560838006F0C0FBDFF85881E2
:1066100040480A23404F22464146A0F804900760B4
:10662000837106F0B3FB3D480B2322464146A0F898
:1066300004900760837106F0A9FB3948394B224664
:1066400039490360F423037106F0A0FB3748314653
:10665000224605604EF6F40547F61226858006F0C0
:1066600095FB3348DC23224685804146314D8371BA
:10667000076006F08BFB30492846FFF73BFF2F4BA6
:10668000C5F8C460284603F144022B6058332C49F6
:10669000AA6022462B612B4D06F078FB2A4928463A
:1066A000FFF728FF294BC5F8C46003F1440203F14A
:1066B00058002B60AA60224628612846244906F02B
:1066C00065FB244D22462449244806F05FFB2448FC
:1066D000FBF7D2FE2846FEF7A3FC224628462149B6
:1066E000BDE8F84306F052BBB43E0020842C0020E5
:1066F0005D070000A40900203C3E00206C3E002005
:10670000CC3E0020543E0020843E00200C3E002061
:10671000E43E00209C3E0020BC090020243E0020D6
:10672000DC3D00208C09002061070000C43D0020F2
:10673000F43D0020744A00204828002094070020DF
:106740007D400000AC490020582800201C09002092
:10675000853F000054480020193E000064340020AA
:1067600054470020A5420000590700002DE9F043DE
:106770003B4D83B03B4C40F2EE283B4FDFF810918D
:106780002E6806F0E9F92378002B5AD03B78DB0716
:1067900057D52B68D9F800209B1A0E2B51D9334CB2
:1067A00000223349334804F07DF8A36C012B55D8FF
:1067B00003EBC3010133304804EB8101A364019171
:1067C00001F0F4FE01992D4801F0E2FEA36C2C4A81
:1067D000012B156842D803EBC3010835013304EBE4
:1067E00081012846A364019101F0E0FE019925484A
:1067F00001F0CEFEA36C012B30D803EBC3010133B3
:10680000284604EB8101A364019101F0CFFE0199B8
:106810001A4801F0BDFE1C48FBF768FE1A48FBF75A
:106820007DFE272000F078FA01461748FCF72EF885
:106830000A2004F05DFB154803B0BDE8F043FEF705
:106840000FBF2B6822789B1B2AB1B3F5FA6FA6D82D
:1068500006F082F995E74345FAD9A0E700F028F958
:10686000A44B0020D34B0020D24B002064340020E6
:1068700080841E0058280020B4490020744A00205B
:10688000883D0020AC490020544700205448002097
:10689000B44B002030B5272085B000F03DFA082227
:1068A000002304460DEB02012648CDE90233FFF731
:1068B00045F800BB244D2B68002B16DBE31A002B98
:1068C000B8BF5B42062B10DC002301AA0DF10301C7
:1068D0001C488DF803300193FFF768F828BB214668
:1068E0001A48FBF7D3FF05B030BD21461748FBF728
:1068F000FDFF2C60E8E705221549164804F05CFA14
:1069000002A808F025F802A90246124804F054FA39
:10691000032211490F4804F04FFA0E4804F074FAAC
:1069200002A90A48FBF7CCFFC4E7019A9DF80310BF
:106930000648FBF7E7FF21460448FBF7A7FF05B031
:1069400030BD00BF54480020782C00205447002060
:106950006005002058280020BC1000202DE9F843D5
:106960003F4840F204793F4C3F4E404D224631466D
:10697000A0F80490056006F009FA3D484FF604338C
:10698000224631460560838006F000FA39484FF60A
:10699000F833224631460560838006F0F7F9364821
:1069A00040F20373224631460560838006F0EEF91B
:1069B00032484FF60333224631460560838006F0A5
:1069C000E5F92F484FF6F7332246314605608380BC
:1069D00006F0DCF92B4840F203632246314605609D
:1069E000838006F0D3F9284840F603032246314657
:1069F0000560838006F0CAF9DFF8B08023480A23D7
:106A0000234F22464146A0F804900760837106F0A8
:106A1000BDF920480B2322464146A0F804900760A8
:106A2000837106F0B3F91C481C4B22461C490360D5
:106A3000F423037106F0AAF91A483146224605608C
:106A40004EF6F405858006F0A1F91748DC232246AE
:106A50004146076085808371BDE8F84306F096B92A
:106A6000BC3E0020842C00205D070000A40900200B
:106A7000443E0020743E0020D43E00205C3E0020B6
:106A80008C3E0020143E0020EC3E0020A43E00205E
:106A9000BC0900202C3E0020E43D00208C09002091
:106AA00061070000CC3D0020FC3D0020590700009C
:106AB00001210D2008B504F07DFC01210D2004F01A
:106AC0003DFC322004F0BCFB00210D2004F036FC1C
:106AD000322004F0B5FB01210D2004F02FFC322000
:106AE00004F0AEFB00210D2004F028FC40F25230EF
:106AF00004F0A6FBE1E700BF036810B50446DB68BD
:106B00009847236820465B6BBDE81040184700BFDC
:106B1000036810B504465B699847236820465B6BA1
:106B2000BDE81040184700BF10B5036882B00446A6
:106B300001919B6B9847236801992046DB6902B05D
:106B4000BDE81040184700BF10B5036882B0044686
:106B500001919B6B9847236801992046DB6A02B03C
:106B6000BDE81040184700BF70B5064602F0F8FBBC
:106B7000046814B913E064688CB1204602F0EEFB9F
:106B8000B0420CD8204602F0E9FB0546204602F050
:106B9000E3FBB542EFD8B042EDD9204670BDFFF718
:106BA00087FF00BF70B582B004460191FFF7DCFF9C
:106BB000036805461E6902F0D1FB0B4B241A019AAB
:106BC0009E42A1B20AD12B6828465B6998472B6880
:106BD00028465B6B02B0BDE8704018472846334634
:106BE00002B0BDE87040184701490000B0F5004F01
:106BF00021D048282DE9F041044617D90D46FFF76A
:106C0000B3FF036806469F6802F0A8FB0D4B241AE9
:106C10009F42A1B210D1336830462A46DB689847BC
:106C2000336830465B6BBDE8F0411847C0B2BDE841
:106C3000F04104F0BFBB70472A4630463B46BDE8F2
