:0200000460009A
:100000004643464200000156000000000103030081
:1000100000000000000000000000000000000000E0
:1000200000000000000000000000000000000000D0
:1000300000000000000000000000000000000000C0
:1000400000000000010408000000000000000000A3
:100050000000800000000000000000000000000020
:100060000000000000000000000000000000000090
:100070000000000000000000000000000000000080
:10008000EB04180A063204260000000000000000FD
:10009000050404240000000000000000000000002F
:1000A0000000000000000000000000000000000050
:1000B0000604000000000000000000000000000036
:1000C0000000000000000000000000000000000030
:1000D00020041808000000000000000000000000DC
:1000E0000000000000000000000000000000000010
:1000F0000000000000000000000000000000000000
:10010000D8041808000000000000000000000000F3
:100110000204180804200000000000000000000095
:1001200000000000000000000000000000000000CF
:10013000600400000000000000000000000000005B
:1001400000000000000000000000000000000000AF
:10015000000000000000000000000000000000009F
:10016000000000000000000000000000000000008F
:10017000000000000000000000000000000000007F
:10018000000000000000000000000000000000006F
:10019000000000000000000000000000000000005F
:1001A000000000000000000000000000000000004F
:1001B000000000000000000000000000000000003F
:1001C000000100000010000001000000000000001D
:1001D000000001000000000000000000000000001E
:1001E000000000000000000000000000000000000F
:1001F00000000000000000000000000000000000FF
:10020000FFFFFFFFFFFFFFFFFFFFFFFFFFFFFFFFFE
:10021000FFFFFFFFFFFFFFFFFFFFFFFFFFFFFFFFEE
:10100000D10020434D1600600000000000000000E9
:10101000201000600010006000340160000000003B
:10102000000000600040010000000000FFFFFFFF23
:10103000FFFFFFFFFFFFFFFFFFFFFFFFFFFFFFFFC0
:10104000FFFFFFFFFFFFFFFFFFFFFFFFFFFFFFFFB0
:10105000FFFFFFFFFFFFFFFFFFFFFFFFFFFFFFFFA0
:10106000FFFFFFFFFFFFFFFFFFFFFFFFFFFFFFFF90
:10140000814205D051F8043B40F8043B8242F9D8B0
:10141000704700BF044A05494FF0000342F8043BFF
:101420009142FBD8704700BFC02E0020603D0020D5
:101430002DE98848BFF34F8F00BF00BF00BF00BF3A
:1014400000F042F9684B0822C3F8542100BF00BFE6
:1014500000BF00BF00BF00BF00BF00BF00BF00BF94
:1014600000BF00BF00BF00BF00BF00BF5F4A6049B0
:101470006048FFF7C5FF604A60496148FFF7C0FF59
:10148000604CFFF7C7FF4FF470004FF0E0210023DE
:101490005D4AC1F8880D44F823200133B02BFAD1FE
:1014A0005A4B80215A4A03F8011B9342FBD14FF05B
:1014B000E0254D4E4FF08039DFF884B1DFF884A18C
:1014C0004FF0FF31C5F8084D0027C6F80491C6F863
:1014D00000B1C6F8F490C6F8F0A0D5F8243DDFF8C6
:1014E000688143F4E0234B4AC5F8243DD8F81C300A
:1014F00023F07F0343F04003C8F81C30D8F82430B1
:1015000023F07F0343F04003C8F824309166D1668E
:101510001167516700F0E0F83F4B4049A363404B2F
:10152000E36363236B610323AF612B613D4BC5F81C
:10153000203DD5F8FC3D43F08073C5F8FC3D3A4BA7
:101540001A6842F001021A605B680B6000F00EFB43
:10155000C6F804913548C6F800B1C6F8F490C6F84C
:10156000F0A000F039FDD8F86C10314B314A41F44D
:101570004051C8F86C101F60C3F80871C3F81871A7
:10158000C3F82871C3F83871936BDB0708D442F6AF
:101590001563294951651365936B43F00103936308
:1015A000244A264C936843F00113936000F01CF921
:1015B00000F060F800F00CFD00F006FB00F086F88B
:1015C0002368132BFCD900F097FB2368B3F5967FB3
:1015D000FBD300F07FF800F07BF800F005FD00F091
:1015E00007FD30BFFDE700BF00800D4038E0000080
:1015F0000C22006000000000C02E002048020160A4
:1016000000000020002C0020E95B000000E400E066
:10161000A0E400E000C00A400D7000002C3C002057
:101620001170000000002020001000E00046C323DD
:101630000040084000400D400000C056303C0020F3
:101640001B1018200C0D111300C00F40054B4FF458
:101650002A01054A05485A641864054A9963954663
:10166000FFF7E6FE00C00A40AFAAAAAA07002000C2
:1016700000000720104BA020104AD96E41F44031E1
:1016800010B4D96640F23764D96E41F44071D9661E
:1016900054649064936C1B06FCD4094A40F2376191
:1016A000A02351649364936C13F08003FBD1054A2B
:1016B00013705DF8044B704700C00F4000400C40B1
:1016C00000800C40153D0020704700BF704700BFF0
:1016D000704700BF00BF704710B44FF0E0230021F7
:1016E00010243148C3F8941DC3F89C4D1124C3F84D
:1016F000A00D2E48C3F89C4D1224C3F8A00D2C4811
:10170000C3F89C4D2B4AC3F8A00D2B4C42F0150298
:101710002A48C3F89C4DC3F8A00D294C2948C3F8AA
:101720009C4DC3F8A00D284CC3F89C2D2748284A8F
:10173000C3F8A04DC3F89C0DC3F8A02D02F5A0225C
:10174000244C0C322448C3F89C4DC3F8A02D234AE6
:10175000C3F89C0D224CC3F8A02D02F14062C3F8DF
:101760009C4D2048C3F8A02D0C32C3F89C0DC3F843
:10177000A02D00BF00BF00BF00BF00BF0122C3F803
:10178000942DBFF34F8FBFF36F8FC3F8501FBFF37C
:101790004F8FBFF36F8FD3F8142D5DF8044B42F4D5
:1017A0004032C3F8142D70473F0000102500080791
:1017B00009001000603D00201300200021000207F6
:1017C0001400002025000813090000101600202036
:1017D00027000B1317000040180000602F000B07B4
:1017E000190000701A000080F0B5B84B1822B84EEE
:1017F0000120B84F83B0C3F85C62B749C3F8607288
:10180000B64DC3F86462A6F53046B54CC3F86862BD
:10181000C3F86C52C3F87052C3F87452C3F87852CC
:1018200048F20C75DA661A675A679A67DA67C3F87E
:101830008020C3F88420C3F88820C1F82C03A94A6B
:10184000C1F83003C1F83403C1F83803C1F83C03D0
:10185000C1F85003A169A44B0A40A448A44913430A
:10186000A44AA361D4F8843043F00C03C4F8843054
:101870004FF0FF34036843F00203036003682B401A
:101880004FF400551A439C4B026044608A689B4C9D
:1018900013409B4A43F000538360C36823F07803EE
:1018A000C360036A134023430362036A1340954AEB
:1018B0002343954C43628262C2620022D1F8B83061
:1018C00023F03F0343F00103C0F8B830D1F8BC3037
:1018D0008E4923F03F0343F00103C0F8BC3040F2CF
:1018E0000563026105660467C0F880304566446799
:1018F0000224C0F88430036823F00203036081618E
:10190000834B8449C46143F8042B8B42FBD1774A53
:10191000136843F001031360136813F00103FBD154
:101920007A48022140F2F564906140F29940D16119
:1019300040F26641C2F8004242F20144C2F810127D
:101940007549C2F82002C2F8301240F2354173489E
:10195000C2F83442C2F84012714CC2F8500242F24E
:1019600001207049C2F854120121C2F86042C2F845
:1019700064025E48C2F8A030C2F8A430C2F8B010C9
:101980004369DA07FCD5012300244FF4803257491C
:101990004361C0F8A040C0F8A420C0F8B0304B6943
:1019A000DB07FCD5012300244FF400304F4A4B6184
:1019B000C1F8A040C1F8A400C1F8B0305369DF07F6
:1019C000FCD501230024584848495361C2F8A0407F
:1019D000C2F8A400C2F8B0304B69DE07FCD5D1F8DC
:1019E000003145F60D5221209BB24861934265D1EA
:1019F00000244FF4802201233C48C1F8A040C1F8E4
:101A0000A420C1F8B0304369DD07FCD501234FF4B1
:101A100000040021354A4361C0F8A040C0F8A4107A
:101A2000C0F8B0305369DC07FCD501234FF4000443
:101A30004FF480302D495361C2F8A040C2F8A40091
:101A4000C2F8B0304B69D807FCD501234FF400042D
:101A50004FF40030254A4B61C1F8A040C1F8A40002
:101A6000C1F8B0305369D907FCD501234FF4000405
:101A70002D481E495361C2F8A040C2F8A400C2F824
:101A8000B0304B69DA07FCD5D1F8003145F60D527C
:101A900021209BB24861934250D008254FF40004A6
:101AA00022490020224B234A009015705A1A012324
:101AB0002148224400F084FA03B0F0BD1E4B0022FE
:101AC000C3E90022C3E9022203B0F0BD00801F4039
:101AD000F9B00100F910010000841F40F970010005
:101AE00000C00F40FFFCFF1F000300A000402A4081
:101AF00000802A401200FFFFFF37F70040000080FF
:101B000000FFF07CFF000F8363000200F05AF05AE0
:101B100000422A4000432A409F041830EB06180A6E
:101B20003806180A0632012604000300000000707F
:101B300000000070163D00202C3A00204FF40004F5
:101B40004FF4802201230848C1F8A040C1F8A42026
:101B5000C1F8B0304369DB07FCD5012310254FF0F5
:101B6000807443619CE700BF00402A40F0B4154AEE
:101B700040274FF480314FF480564FF400554FF416
:101B8000404443F24200136913F0020F0ED113F4E4
:101B9000005F0FD013F4805F0ED0002BF3DA13F444
:101BA000803F0BD15B060BD5F0BC7047946151614F
:101BB0009061E8E75561E6E75661E4E79161E2E7A5
:101BC0005761E0E700800D403F4A03203F49F3EEB4
:101BD000095AD2F880304FF0000C9FED3D6A23F097
:101BE00001039FED3C5A30B4C2F88030C2F8900037
:101BF000D1F8E010384DCBB2384C39482B6007EEA5
:101C0000903A0B0DC1F30B21F8EEE77A06EE903A0D
:101C100007EE101A334BB8EEC77A2160F8EEE66A89
:101C2000314937EEC66A37EEC55A76EEC76A77EEA7
:101C3000E57A26EE266AC3ED006A25EE265AD2F82A
:101C4000803067EEA64AC0ED007AC6EE275A2748D4
:101C500085EE276AC4EEA76A75EE875AFCEEE55A50
:101C600036EE076A15EE904ABCEEC66A43EA0453A4
:101C700076EE877AC2F8803016EE103AD2F89041AC
:101C8000FCEEE77A01EA0341214317EE903AC2F8ED
:101C90009011C3F30B03D2F890110B431449C2F80F
:101CA0009031D2F8803043F00203C2F88030114BFB
:101CB00080F840C0C1F840314FF0E023012230BC31
:101CC000C3F80821704700BF00810D4000441F4049
:101CD0000000AA420000B442543B0020503B0020C8
:101CE000583B00205C3B00200000FF0F00E400E0B8
:101CF000002C0020D55D0000314B40F6617210B51C
:101D0000C3F8202140F2044400F076F92D4A2E4910
:101D1000D2F880302D4843F00303C2F880302C4BBA
:101D2000C1F8604102681A4203D1D1F8A8319A077C
:101D30001BD0254A4FF00041244B5963D2F8403163
:101D400043F00203C2F84031D2F840319B07FBD484
:101D50004FF400304FF0E0211C4B4FF00042C1F82F
:101D60008C0219209A6300F03BF9184A4FF080402A
:101D7000154C002190630A20164B11604FF420721D
:101D8000C4F8A801184600F01FF94FF4800203467A
:101D90004FF4810040F243111860C4F858311A64BE
:101DA0000D4B0E4AC4F84811C3F804224FF0E0224C
:101DB0004FF400310123C2F80C11C4F8403110BDBA
:101DC00000800D4000C00F4000002E4000900D40EC
:101DD000001C1E0000000020002C0020BD5F000041
:101DE00008B50E4B1B6E9B0700D4FBBE72B60C4BA6
:101DF00000200C4AC3F8400103F160430A49A3F5EF
:101E00005F2311649D46BFF34F8F4FF400130748C3
:101E1000074ADB6902609B68984700BF00441F4087
:101E200000002E4000C00A40030020000080202057
:101E3000000012EB43690A4A03EB011010B4037A65
:101E4000084C02EB0313D3E901321460C2681A6034
:101E500003690BB142691A605DF8044B704700BF1B
:101E6000F40A002061F801004369027E03EB0212CC
:101E700092F808C08C451CD01A7AFF2A19D09142DA
:101E800010B5044616D01A7EFF2A06D00121D3E9E8
:101E9000002312681A4201D1217610BD064B05229B
:101EA000204603EB0C135B681A60FFF7C3FF217633
:101EB000F3E770470021EAE7F40A002043690A4A81
:101EC00003EB011010B490F82830084C02EB031318
:101ED000D3E901321460C26A1A60036B0BB1426B22
:101EE0001A605DF8044B7047F40A002061F80100A5
:101EF0004369427E03EB021292F828C08C451ED043
:101F000093F82820FF2A1AD0914210B5044617D022
:101F100093F83820FF2A06D00121D3E90023126864
:101F20001A4201D1617610BD064B0522204603EB13
:101F30000C135B681A60FFF7C1FF6176F3E7704727
:101F40000021EAE7F40A0020164942698B6B23F46A
:101F50007C0343F4802370B58B630446124DD2E9B1
:101F600000130A681A4303690A60022200211A61F9
:101F70000E4A19619A6401225A629D624FF430350B
:101F8000DD624FF001159E6C1E6519629D651A6138
:101F9000017EFFF74FFF617E2046BDE87040FFF7EE
:101FA0008DBF00BF00C00F40B80B05053B37281997
:101FB000F8B500BFF8BC08BC9E46704700000000A2
:101FC0005FF800F0897700005FF800F0818300007F
:101FD0005FF800F0F55A00005FF800F0F9530000D8
:101FE0005FF800F0E95600005FF800F0318400006F
:101FF0005FF800F0CD5800005FF800F02D6700009A
:102000004500000069000000250900000D130000D4
:042010005D1F000050
:10201400160355005300420020005300650072006F
:10202400690061006C00000018035400650065003D
:102034006E00730079006400750069006E006F0023
:102044000403090409026200030100C032080B0002
:102054000202020100090400000102020100052439
:1020640000100105240101010424020605240600D0
:10207400010705820310001009040100020A000090
:102084000007050302400000070584024000000920
:1020940004020002FF6AFF000705810240000107F5
:1020A400050102400001000009026200030100C0B2
:1020B40032080B00020202010009040000010202BE
:1020C4000100052400100105240101010424020675
:1020D4000524060001070582031000050904010018
:1020E400020A00000007050302000200070584023B
:1020F4000002000904020002FF6AC700070581020A
:102104000002010705010200020100000A060002A4
:10211400EF0201400100000080C00F4000000003F6
:102124001900000010000000E8841F4001000000B6
:10213400FF000000FF00000000000000000000009D
:102144001800000010000000E4841F40010000009B
:10215400FF000000FF00000000000000000000007D
:102164001F000000D57B000070C00F40000C000071
:102174001100000011000000E0841F400200000074
:102184002C00000012000000E0841F400100000049
:102194001000000011000000DC841F400200000059
:1021A4002D00000012000000DC841F40010000002C
:1021B4001E000000C97B000070C00F40C00000007A
:1021C4001200000013000000D0841F400100000032
:1021D400FF000000FF0000000000000000000000FD
:1021E4001300000013000000CC841F400100000015
:1021F400FF000000FF0000000000000000000000DD
:082204001C000000BD7B00007E
:10220C0000000000000000000000000000000000C2
:10221C0000000000000000000000000000000000B2
:10222C000548064B1B1AD90F01EBA301491002D02C
:10223C00034B03B118477047C02E0020C02E00205E
:10224C000000000008B5054B1BB105490548AFF36C
:10225C000080BDE80840FFF7E3BF00BF00000000AE
:10226C00003B002000400160044BFF204FF0FF3189
:10227C0000221860C3E90212704700BF88300020AA
:10228C00006800B5083083B0019005F03BF8019868
:10229C0003F0FEFF0021019803B05DF804EB05F09C
:1022AC003BB800BF38B5044600680D46083003F053
:1022BC0089FF20680E49083004F02EFC20680D4B75
:1022CC0022221021083004F017FC20680A4908303B
:1022DC0004F022FC20682B4634221021083004F034
:1022EC000BFC2068BDE83840083003F077BF00BF16
:1022FC00F8120020280400202C0F0020C1EB011242
:10230C00204BD20002F2FF12F0B50D4683FB0213F4
:10231C00D617044613440068002A87B0C6EB632620
:10232C00194900F108004FF00A07B8BF06F1FF3653
:10233C0004F0F2FB20680E22144B0021083004F04C
:10234C00DBFB20687823122208300421009703F06D
:10235C00C5FE2068F3B2122208300421009703F066
:10236C0097FE0C212B460A4A0DEB010008F036FFB4
:10237C00206803AB0C226021083004F0BDFB07B0D1
:10238C00F0BD00BF030820802C0F00201804002093
:10239C002404002030B50446006883B0154608308C
:1023AC00019103F00FFF01992046FFF7A7FF2D685D
:1023BC00EDB120680F49083004F0AEFB20682946C7
:1023CC00083004F0DDFB2B4600B23C22D0F180013A
:1023DC00206848BF01310830C1F34F0104F08CFB79
:1023EC002068083003B0BDE8304003F0F7BE024D62
:1023FC00DFE700BFF8120020781D00200020704796
:10240C00704700BF704700BF704700BF704700BFE8
:10241C00704700BF704700BF01627047704700BF34
:10242C00704700BFD0F8C00003685B68184700BF56
:10243C00D0E9303110B41C6818460022E3695DF80D
:10244C00044B1847D0E92C3110B41C6818460022F4
:10245C00E3695DF8044B18470D490E4B30B40C681A
:10246C000360A042D0E9013200D06BB10AB15360D5
:10247C0043684D68A84208BF4A6003B19A60A04205
:10248C0008BF0B6030BC7047002AF0D1FAE700BFE0
:10249C0064310020000500200D490E4B30B40C684F
:1024AC000360A042D0E9013200D06BB10AB1536095
:1024BC0043684D68A84208BF4A6003B19A60A042C5
:1024CC0008BF0B6030BC7047002AF0D1FAE700BFA0
:1024DC007431002010050020704700BF704700BF0A
:1024EC00704700BF704700BF04307047073070471B
:1024FC000430704706307047043070470530704721
:10250C0010B50446042105F083FB204610BD00BF26
:10251C0010B50446082105F07BFB204610BD00BF1A
:10252C0010B50446082105F073FB204610BD00BF12
:10253C0010B50446082105F06BFB204610BD00BF0A
:10254C00CA6908B5137903F0F003902B01D1937984
:10255C0003B908BD5179044800F0EAFE014603486E
:10256C00BDE8084004F0AEBF4C3A0020403A0020D1
:10257C0006F01ABD06F0D4BC38B500F10805D0F849
:10258C00B4300446284698474FF6FD73984201D95B
:10259C00012038BD0346B4F8BA20B4F8B810284668
:1025AC0004F03AFA94F89030032BF1D8DFE803F0FA
:1025BC00140E0802B4F8BA301B1AA4F8BA30E7E7C4
:1025CC00B4F8B8301B1AA4F8B830E1E7B4F8BA3054
:1025DC001844A4F8BA00DBE7B4F8B8301844A4F8EF
:1025EC00B800D5E7084606F0EFBC00BF064B03F178
:1025FC00440103F1580210B5044603608160026186
:10260C0001F02AFE204610BDB4060020084B10B580
:10261C0003F14401044603F1580240F8103C40F821
:10262C00081C44F81029204601F016FE204610BD67
:10263C00B4060020084B10B503F1440103F1580215
:10264C00A0F1080440F8083C01608260204601F0CB
:10265C0003FE204610BD00BFB4060020084B03F15A
:10266C00440103F1580210B5044603600261816015
:10267C0001F0F2FD2046C82105F0CAFA204610BD33
:10268C00B40600200A4B10B503F1440103F15802C3
:10269C00A0F1080440F8083C82600160204601F07B
:1026AC00DBFD2046C82105F0B3FA204610BD00BF63
:1026BC00B40600200A4B10B503F1440103F1580293
:1026CC00A0F1100440F8103C026040F8081C2046B1
:1026DC0001F0C2FD2046C82105F09AFA204610BD33
:1026EC00B406002038B501F10C050446284603F069
:1026FC00A5FB034628461D4603F0A2FB0023024619
:10270C00256020462271637138BD00BFD0F8C0200F
:10271C00136810B41B68064CA34204D108465DF83C
:10272C00044B06F051BC10465DF8044B184700BF33
:10273C00E5030000F8B5134D0446134F00F12806CD
:10274C0011E006F0EDFB002816DDD4F8C00003689C
:10275C005B69BB4212D106F027FC01463046C9B278
:10276C0003F0F2FA48B9D4F8C00003681B69AB4215
:10277C00E7D098470028E8DC0020F8BD98470146D0
:10278C00ECE700BF75030000710300002DE9F04178
:10279C001746D0F8C0201D46184E136804461B6817
:1027AC00B34216D1084606F00FFCD4F8C0000368FB
:1027BC001B68B34215D1384606F006FCD4F8C000AD
:1027CC0003681B68B34214D12846BDE8F04106F0FB
:1027DC00FBBB10469847D4F8C00003681B68B34293
:1027EC00E9D039469847D4F8C00003681B68B34257
:1027FC00EAD02946BDE8F041184700BFE5030000C8
:10280C0070B51546D0F8C0200F4E044613681B68EF
:10281C00B3420DD1084606F0D7FBD4F8C0000368CC
:10282C001B68B3420CD12846BDE8704006F0CCBB07
:10283C0010469847D4F8C00003681B68B342F2D026
:10284C002946BDE870401847E50300000F4938B52C
:10285C00044608680E4B84422360D4E9013200D050
:10286C008BB10AB1536063684D68AC4208BF4A60D3
:10287C0003B19A60844208BF0B6020460C2105F01E
:10288C00C7F9204638BD002AECD1F6E764310020A8
:10289C00000500202DE9F047002A4ED004460D46D5
:1028AC008F180026DFF89C9000F108084FF6FD7A8F
:1028BC0003E00120AF42064420D0236815F8011B29
:1028CC001B684B4515D1D4F8B43040469847504559
:1028DC00EFD80346B4F8BA20B4F8B810404604F068
:1028EC009BF894F89030032BE3D8DFE803F01F1823
:1028FC00110A20469847AF420644DED13046BDE867
:10290C00F087B4F8BA301B1A0120A4F8BA30D1E71A
:10291C00B4F8B8301B1A0120A4F8B830CAE7B4F8E0
:10292C00BA301844A4F8BA000120C3E7B4F8B830A0
:10293C001844A4F8B8000120BCE716463046BDE8A0
:10294C00F08700BF790300000F4938B504460868CA
:10295C000E4B84422360D4E9013200D08BB10AB112
:10296C00536063684D68AC4208BF4A6003B19A601B
:10297C00844208BF0B6020460C2105F049F9204623
:10298C0038BD002AECD1F6E7743100201005002088
:10299C00F0B4264E00F17801254A35688267A942C9
:1029AC00D0E91F3401D0002B37D00CB16360C36F5A
:1029BC007768B94208BF746003B19C60A94232D0F9
:1029CC0000F13C01C263A942D0E9103400D00BB332
:1029DC000CB16360036C7768B94208BF746003B1D3
:1029EC009C60A9421CD0A8420260D0E9013200D000
:1029FC006BB10AB1536043687168884208BF72605A
:102A0C0003B19A60A84208BF3360F0BC7047002A3B
:102A1C00F0D1FAE7002CDCD1E5E7002CC6D1CFE7EA
:102A2C001D463360DFE71D463360C9E77431002073
:102A3C00100500202DE9F843204D40F2EE28204CE3
:102A4C00204FDFF898902E6806F052FB237843B3A2
:102A5C003B78DB0725D52B68D9F800209B1A0E2B69
:102A6C001FD9194C0022D4E930010368DB6998475F
:102A7C00204601F03DFC154B1548236200F052FC3A
:102A8C0000210F2000F088FE1248FFF7F9FB1148D7
:102A9C001149FFF707FC4FF41670BDE8F84304F03A
:102AAC0023BF2B6822789B1B2AB1B3F5FA6FD8D8B9
:102ABC0006F01EFBC8E74345FAD9D2E7303C0020AC
:102ACC001F3D00201E3D0020643B0020C02800203C
:102ADC004C3A0020F43C00209C0E0020003D0020CD
:102AEC0038B50B4B0B4C186801F0F2FA0F2000F0C4
:102AFC00B3FE094A23681568EB1A202B00D838BDA1
:102B0C000146064A0648FFF745FC256038BD00BF64
:102B1C00883100203C3A0020303C0020403A002014
:102B2C00F43C002070B5714840F20476704C714A48
:102B3C0071490460868006F069FF70484FF60433D3
:102B4C006C4A6D490460838006F060FF6C484FF658
:102B5C00F833684A68490460838006F057FF694877
:102B6C0040F20373634A64490460838006F04EFFAD
:102B7C0065484FF603335F4A5F490460838006F073
:102B8C0045FF62484FF6F7335A4A5B49046083802D
:102B9C0006F03CFF5E4840F20363564A5649046017
:102BAC00838006F033FF5B4840F60303514A5249D9
:102BBC000460838006F02AFF574D58480A234D4A7B
:102BCC00574986800560837106F020FF55480B231A
:102BDC00484A5349056086804EF6F406837106F028
:102BEC0015FFF4235048514A037151490260414A80
:102BFC0006F00CFF4F483F4A3F490460868006F0C0
:102C0C0005FF4D48DC2346493A4A0560002583718F
:102C1C00868006F0FBFE494C494A4A4B04F10800F9
:102C2C00C4E90025C4E92D3504F064F92046464A70
:102C3C00464B40F8082B4649464A03F039FB122311
:102C4C001322FF2104F1080003F0D8F94249434B49
:102C5C000A685D60DD6003F11005002A43D04A6804
:102C6C009A6102B1556000224D603D495A611A6269
:102C7C0083F82420C3F8B42083F8B82083F8BC2050
:102C8C00C3F8C010374A384902F144053748C3F835
:102C9C00C41002F15801D86128381961FF211A605B
:102CAC00D962198632499D609962124A314906F0FF
:102CBC00ADFE314800F08AFA0E4A30492E4806F033
:102CCC00A5FE2F4B2F491C602F4804F0A1FB094A8D
:102CDC002E492D4806F09AFE064A2D492D48BDE88E
:102CEC00704006F093BE0D60B9E700BF5C32002067
:102CFC00AC070020E0220020E10200000C32002092
:102D0C002C3200206C3200201C3200203C3200207F
:102D1C00EC3100207C320020C40700204C32002013
:102D2C00DD020000FC310020CC3100209407002093
:102D3C00E5020000BC310020DC310020383C0020D2
:102D4C00C4040020E54C0000AC040020AD3C0000A5
:102D5C00200F00200D3E000064310020643B002059
:102D6C00B81E00202407002080841E008C3B00200D
:102D7C0070060020ED0300004C3A00209107000083
:102D8C00F43C002070030020403A00204D5200001B
:102D9C00D9020000C0280020032910B582B02CD81D
:102DAC00032A2AD800EB81010A4492F826207BB131
:102DBC0090F837007F23124C00F00F0100091A40E5
:102DCC00009041F08001206801F0D2F802B010BDF3
:102DDC0090F837C002F07F0290F838300CF00F01F9
:102DEC004FEA1C10064C03F07F03009041F0900159
:102DFC00206801F0BDF802B010BD00F031FC00BF3E
:102E0C0088310020032910B582B02BD8032A29D889
:102E1C0000EB81010A44927E7BB190F82B007F235A
:102E2C00114C00F00F0100091A40009041F0800194
:102E3C00206801F09DF802B010BD90F82BC002F094
:102E4C007F0290F82C300CF00F014FEA1C10064C4E
:102E5C0003F07F03009041F09001206801F088F8A6
:102E6C0002B010BD00F0FCFB8831002070B50646A6
:102E7C0000F1180400F12C0534F8020B022100F0CB
:102E8C005DFCA542F8D1F08A0021BDE8704000F04D
:102E9C0055BC00BFF8B500F11E06044600F126072C
:102EAC00354635F8020B022100F048FCBD42F8D142
:102EBC00163434F8020B002100F040FCA642F8D185
:102ECC00F8BD00BF10B582B051BB092A28D8024406
:102EDC0092F82C207BB190F837007F23114C00F036
:102EEC000F0100091A40009041F08001206801F0A8
:102EFC003FF802B010BD90F837C002F07F0290F896
:102F0C0038300CF00F014FEA1C10064C03F07F0315
:102F1C00009041F09001206801F02AF802B010BD39
:102F2C0000F09EFB8831002010B582B051BB092AFD
:102F3C0028D8024492F820207BB190F82B007F23F4
:102F4C00114C00F00F0100091A40009041F0800173
:102F5C00206801F00DF802B010BD90F82BC002F003
:102F6C007F0290F82C300CF00F014FEA1C10064C2D
:102F7C0003F07F03009041F09001206800F0F8FF0F
:102F8C0002B010BD00F06CFB883100200D490E4BD7
:102F9C0030B40C680360A042D0E9013200D06BB1B0
:102FAC000AB1536043684D68A84208BF4A6003B138
:102FBC009A60A04208BF0B6030BC7047002AF0D169
:102FCC00FAE700BF743100201005002030B40F4C1C
:102FDC00A0F10C020E4B256840F80C3CAA4250E9BB
:102FEC00023100D07BB111B14B6050F8083C6068E5
:102FFC00824208BF616003B19960AA4208BF236096
:10300C00104630BC70470029EED1F9E7743100202E
:10301C00100500200D490E4B30B40C680360A04223
:10302C00D0E9013200D06BB10AB1536043684D68EE
:10303C00A84208BF4A6003B19A60A04208BF0B6067
:10304C0030BC7047002AF0D1FAE700BF7431002081
:10305C001005002030B40F4CA0F10C020E4B25686B
:10306C0040F80C3CAA4250E9023100D07BB111B1BE
:10307C004B6050F8083C6068824208BF616003B145
:10308C009960AA4208BF2360104630BC70470029E3
:10309C00EED1F9E774310020100500200F4938B546
:1030AC00044608680E4B84422360D4E9013200D0F8
:1030BC008BB10AB1536063684D68AC4208BF4A607B
:1030CC0003B19A60844208BF0B6020463C2104F097
:1030DC009FFD204638BD002AECD1F6E77431002064
:1030EC001005002038B50346104D114A2868A3F18D
:1030FC000C0443F80C2C844253E9022100D092B109
:10310C0011B14A6053F8082C6B689C4208BF696087
:10311C0002B19160844208BF2A6020463C2104F031
:10312C0077FD204638BD0029EBD1F6E7743100203D
:10313C00100500200F4938B5044608680E4B844230
:10314C002360D4E9013200D08BB10AB153606368BB
:10315C004D68AC4208BF4A6003B19A60844208BF14
:10316C000B6020463C2104F053FD204638BD002A5C
:10317C00ECD1F6E7743100201005002038B5034679
:10318C00104D114A2868A3F10C0443F80C2C84420E
:10319C0053E9022100D092B111B14A6053F8082CC6
:1031AC006B689C4208BF696002B19160844208BFA1
:1031BC002A6020463C2104F02BFD204638BD002916
:1031CC00EBD1F6E774310020100500202DE9F04F0B
:1031DC00DFF8488183B00446D8F80030002B00F0AB
:1031EC008F80D8F80430A36003B15C6023231822CD
:1031FC00454E0027A3834FF6FF7BA4F852301723CC
:10320C00E28204F178022383222300924FF07F0A9A
:10321C00638304F1680E3D4B04F1A40C3C4D236018
:10322C001C336464E36004F13C0327610193636025
:10323C000923E764E3830823A4F814B02384072349
:10324C0084F838A063840423DFF8D490A38440F678
:10325C000113E3860FCEC4F82600C4F82A10C4F874
:10326C002E20C4F832300FCD2E466065A165E26584
:10327C0056F81009009A274923666066019BC8F826
:10328C000420A4F850B007C9AEE80300AEF8002043
:10329C004FF0010EC4F880304FF01C03009AA4F8D4
:1032AC008E3009F11C032264A364A4F88CB0A4F83A
:1032BC0072E084F874A0C4F83C90E767C4F8887096
:1032CC000FCEC4F89000C4F89410C4F89820286865
:1032DC00114AC4F8A000C4F89C3009F11C0307CAB9
:1032EC00ACE803002046ACF80020A4F8AEE084F86B
:1032FC00B0A0C4F87890C4F8843003B0BDE8F08F67
:10330C00C8F800006DE700BF7403002040060020E1
:10331C00040400209003002084030020743100205A
:10332C0010060020014B186800F072BD8831002097
:10333C000C4B0D48A3FB0123DB0810B503EB430238
:10334C0082B0013B094C0093A1EB8203084A08218F
:10335C00DBB250F82330204607F040FF204602B085
:10336C0010BD00BFABAAAAAA400800208C320020D6
:10337C00FC030020284B2DE9F04F1B6883B01A4644
:10338C0001934368D31A182B43D9824680460121F6
:10339C0000253AF80A0F00F0D1F90AE0237A4BEA3B
:1033AC00030B019B84F808B0C8F8043001350A2DD2
:1033BC0027D0C5F3C4043AF8020F00F0F1F905F078
:1033CC00070601224444031E814602FA06F6207ABF
:1033DC0018BF012300210642EAB25FFA86FB404681
:1033EC0014BF01270F469F42E0D0D8F80070BF6889
:1033FC00B847B9F1000FD1D194F808B02BEA060BFD
:10340C00CFE70021B8F80A0003B0BDE8F04F00F098
:10341C0095B903B0BDE8F08F303C00200C3008B5F6
:10342C00FFF7A8FF08BD00BF344B2DE9F04F1B6818
:10343C0087B01A4604934368D31A182B55D900F158
:10344C000803824602930023039300F110030593B3
:10345C00029B00279DF80CB00121059E33F8020F4A
:10346C005C46029300F06AF90096009B0AEBD408C4
:10347C0004F0070533F8020F009300F091F90122D4
:10348C00031E98F80810814602FA05F518BF0123AF
:10349C00FAB20D42E9B2019114BF01210021994207
:1034AC0013D0DAF800108868594606465046B047E3
:1034BC00B9F1000F1CD098F80830019941EA0309C2
:1034CC00049B88F80890CAF8043001370434042FA0
:1034DC00E4B2CAD1039B002101331C460393029B27
:1034EC00188800F02BF9042CB2D107B0BDE8F08F8E
:1034FC0098F8089029EA0509E2E700BF303C002063
:10350C000C3008B5FFF790FF08BD00BF2DE9F8435C
:10351C003F4840F204793F4C3F4E404D22463146E5
:10352C00A0F80490056006F071FA3D484FF604339C
:10353C00224631460560838006F068FA39484FF61A
:10354C00F833224631460560838006F05FFA364830
:10355C0040F20373224631460560838006F056FA2A
:10356C0032484FF60333224631460560838006F01D
:10357C004DFA2F484FF6F7332246314605608380CB
:10358C0006F044FA2B4840F20363224631460560AC
:10359C00838006F03BFA284840F603032246314666
:1035AC000560838006F032FADFF8B08023480A23E6
:1035BC00234F22464146A0F804900760837106F021
:1035CC0025FA20480B2322464146A0F804900760B8
:1035DC00837106F01BFA1C481C4B22461C490360E5
:1035EC00F423037106F012FA1A483146224605609C
:1035FC004EF6F405858006F009FA1748DC232246BE
:10360C004146076085808371BDE8F84306F0FEB93A
:10361C0064320020E0220020E1020000AC07002010
:10362C001432002034320020743200202432002066
:10363C0044320020F4310020843200205432002027
:10364C00C407002004320020D4310020940700204D
:10365C00E5020000C4310020E4310020DD0200004E
:10366C0001210D2008B504F0F9F901210D2004F019
:10367C00B9F9322004F038F900210D2004F0B2F928
:10368C00322004F031F901210D2004F0ABF9322085
:10369C0004F02AF900210D2004F0A4F940F2523074
:1036AC0004F022F9E1E700BF036810B50446DB68BB
:1036BC009847236820465B6BBDE81040184700BF55
:1036CC0010B5036882B0044601919B6B9847236840
:1036DC0001992046DB6902B0BDE81040184700BFD5
:1036EC0010B5036882B0044601919B6B9847236820
:1036FC0001992046DB6A02B0BDE81040184700BFB4
:10370C0070B5064602F0CEFB046814B913E0646889
:10371C008CB1204602F0C4FBB0420CD8204602F01B
:10372C00BFFB0546204602F0B9FBB542EFD8B042CC
:10373C00EDD9204670BDFFF793FF00BFB0F5004FE9
:10374C0021D048282DE9F041044617D90D46FFF742
:10375C00D7FF036806469F6802F0A2FB0D4B241AA4
:10376C009F42A1B210D1336830462A46DB68984795
:10377C00336830465B6BBDE8F0411847C0B2BDE81A
:10378C00F04104F06BB970472A4630463B46BDE821
:10379C00F0411847A914000080B2FFF7CFBF00BF5B
:1037AC00B0F5004F22D0482870B5044682B018D925
:1037BC00FFF7A6FF036805469E6902F071FB0E4BEE
:1037CC00211A9E4289B213D12B68284601919B6B1A
:1037DC0098472B6801992846DB6902B0BDE8704018
:1037EC001847C0B204F028F902B070BD0020704731
:1037FC0028463346F1E700BFC1140000B0F5004F76
:10380C0023D0482870B5044682B018D9FFF778FF4A
:10381C00036805469E6A02F043FB0E4B211A9E423A
:10382C0089B214D12B68284601919B6B98472B6861
:10383C0001992846DB6A02B0BDE870401847C0B257
:10384C0003F052FE80B202B070BD002070472846D3
:10385C003346F0E7E114000080B2FFF7CFBF00BFA2
:10386C00704700BF704700BF704700BF704700BF74
:10387C00704700BF704700BF82B0836AADF8041078
:10388C0013B1019802B0184702B070472DE9F0430C
:10389C0085B0446A6B4683E806001CB193E80300CC
:1038AC00A04740BBDFF86090009ED9F800409DF81F
:1038BC000550BDF80470F4B10DF1080801E064681E
:1038CC00CCB1237B0296AB42ADF80C70F7D12368D8
:1038DC00204698E806005B6998470028EFD0A3685B
:1038EC004BB19968626849B14C60C3E90124C4E9E1
:1038FC00013132B1936005B0BDE8F083C9F80040E6
:10390C00F3E7C9F80430F6E7AC310020034B10B5EF
:10391C000446036002F0A0F9204610BDC405002047
:10392C00054B10B50446036002F096F908212046B9
:10393C0004F06EF9204610BDC4050020043000F0E0
:10394C001FBC00BF38B5244B0025244C4FF47A72B1
:10395C0003F108012C3365602160A360E560C4E9C4
:10396C00042504F015F8226944F21A13E561801A53
:10397C00C4E9050304F00CF8194BA26904F15401D5
:10398C00E362801A236503F1340204F15C03E06105
:10399C000120A366134B6263186004F1380004F134
:1039AC003003E166A5622563A563A4F84C506565F8
:1039BC00A4F870500C49C4E91625C4E91103C4E9F4
:1039CC0008552046094AC4E90F55C4E91855BDE805
:1039DC00384006F01BB800BFD00500209432002000
:1039EC00DC07002098300020F1170000E0220020B6
:1039FC000E4B10B503F1080204462C3350302260F4
:103A0C00A36002F07DF804F12C0002F079F8084A6A
:103A1C002046084B226040F8083F02F01DF9064B87
:103A2C002046236001F0B2FF204610BDD0050020D7
:103A3C007C060020C40500203405002038B5104B4E
:103A4C0005460446483003F108022C3340F8502C4C
:103A5C0045F8083902F054F804F1240002F050F84B
:103A6C00084A094B204644F8082C236002F0F4F86D
:103A7C00064B284644F8083C01F088FF284638BD20
:103A8C00D00500207C060020C40500203405002051
:103A9C00104B10B503F1080204462C335030226051
:103AAC00A36002F02DF804F12C0002F029F80A4A68
:103ABC0020460A4B226040F8083F02F0CDF8084B34
:103ACC002046236001F062FF2046742104F0A0F828
:103ADC00204610BDD00500207C060020C405002027
:103AEC003405002038B5124B0446A0F1080503F14B
:103AFC0008022C3340F8082C40F8483B02F000F840
:103B0C0004F1240001F0FCFF0A4A0B4B204644F858
:103B1C00082C236002F0A0F8084B284644F8083C17
:103B2C0001F034FF2846742104F072F8284638BDA1
:103B3C00D00500207C060020C405002034050020A0
:103B4C000A460B462DE9F041C2F3074286B0046ADF
:103B5C00C1F307208DF813200A0E8DF8120003F024
:103B6C00F0039DF811008DF81420CAB2019162F394
:103B7C0003008DF810308DF8110024B10846A047D1
:103B8C0060B99DF81030B02B0BD003F0EF02802AF7
:103B9C0047D0D02B00F0A280C02B6DD006B0BDE872
:103BAC00F0819DF81230792B00F0C3807B2B00F054
:103BBC00E680DFF8F481D8F80040002CEED004AE9B
:103BCC00784F03AD2368314620469B69984723689C
:103BDC0002462946DB69201DADF80C20BB4279D189
:103BEC0000F0CEFA034620462A463146002B6CD014
:103BFC0023685B699847002867D02369002BCDD0D8
:103C0C001969E268002900F0B780CC60C3E903248D
:103C1C00C4E90331002A00F0AC80136106B0BDE8A2
:103C2C00F081DFF89081D8F80040002CB6D004AEBB
:103C3C005C4F03AD0EE000F0A3FA034620462A4683
:103C4C00314623B123685B6998470028D5D1E468D5
:103C5C00002CA3D02368314620469B6998472368E3
:103C6C0002462946DB69201DADF80C20BB42E2D090
:103C7C00204698470346E1E7DFF83C81D8F800403E
:103C8C00002C8BD004AE474F03AD0FE0201D00F08D
:103C9C0077FA2A4630B12368204631465B6998474B
:103CAC000028AAD1E468002C3FF478AF2368314691
:103CBC0020469B69984723682946ADF80C00DB69C0
:103CCC00BB42E3D020469847E3E7E468002C7FF43E
:103CDC0079AF63E720469847034684E7DFF8D08046
:103CEC00D8F80040002C3FF459AF04AE2D4F03AD73
:103CFC0010E0201D00F044FA2A4638B12368204613
:103D0C0031465B69984700287FF477AFE468002C54
:103D1C003FF444AF2368314620469B69984723689B
:103D2C002946ADF80C00DB69BB42E2D0204698472F
:103D3C00E2E71D4B1C6854B11C4D01E0E46834B142
:103D4C002368DB68AB42F9D020469847F6E7184B5E
:103D5C001C68002C3FF422AF144D03E0E468002CE7
:103D6C003FF41CAF2368DB68AB42F7D02046984782
:103D7C00F4E7C8F8043011E7C8F8004046E70D4BEB
:103D8C001C68002C3FF40AAF084D03E0E468002CDB
:103D9C003FF404AF2368DB68AB42F7D0204698476A
:103DAC00F4E700BF3D1700009431002069160000B5
:103DBC00B4310020A43100209C31002070B50446A1
:103DCC00C06882B010B1002002B070BD6368002BD7
:103DDC00FAD100F093FA0546C0B104F12C0120464B
:103DEC0004F15006019101F075F9019905F10800F3
:103DFC0001F07EF904F10800314601F079F928460A
:103E0C00314601F067F9012002B070BDFFF728FCC4
:103E1C0070B50546FFF7D2FF0C2003F0BDFB02F096
:103E2C0013F8474B1C6834B1236820469B689847AD
:103E3C006468002CF8D100F0BBF9424B1C6864B1EB
:103E4C00414E01E0E46844B123689B68B342F9D069
:103E5C0020469847E468002CF6D13C4B1C6864B1B2
:103E6C00394E01E0E46844B123689B68B342F9D051
:103E7C0020469847E468002CF6D1354B1C6864B199
:103E8C00314E01E0E46844B123689B68B342F9D039
:103E9C0020469847E468002CF6D12E4B1C6864B180
:103EAC00294E01E0E46844B123689B68B342F9D021
:103EBC0020469847E468002CF6D1274B1C6864B167
:103ECC00264E01E0646844B123689B68B342F9D084
:103EDC00204698476468002CF6D1214B1C6834B1FD
:103EEC00236820469B6898476468002CF8D11D4BCA
:103EFC001C6834B1236820469B6898476468002C82
:103F0C00F8D1194B1C6834B1236820469B6898473C
:103F1C006468002CF8D1154B1C6834B1236820461A
:103F2C009B6898476468002CF8D103F031FD2B692D
:103F3C00C01A686103F02CFDAB69C01AE86170BD52
:103F4C006431002094310020651600009C31002063
:103F5C00B4310020A4310020AC31002071160000D7
:103F6C00743100205C310020543100206C31002071
:103F7C0082B008309DF808C08DF804108DF805202B
:103F8C008DF806308DF807C0019902B001F008B920
:103F9C0038B5284B1C6864B1274D01E0E46844B186
:103FAC0023681B69AB42F9D020469847E468002C83
:103FBC00F6D1224B1C6864B11F4D01E0E46844B19A
:103FCC0023681B69AB42F9D020469847E468002C63
:103FDC00F6D11B4B1C6864B1174D01E0E46844B189
:103FEC0023681B69AB42F9D020469847E468002C43
:103FFC00F6D1144B1C6864B10F4D01E0E46844B178
:10400C0023681B69AB42F9D020469847E468002C22
:10401C00F6D10D4B1C6864B10C4D01E0646844B1E1
:10402C0023681B69AB42F9D0204698476468002C82
:10403C00F6D138BD943100206D160000A43100205B
:10404C00B43100209C310020AC31002075160000EA
:10405C001C4B2DE9F0411D68002D30D000231A4E69
:10406C001A4F14E09C420BD013B11B685B6A984743
:10407C0023682046DB69984723681B6ABB421BD127
:10408C002B6828469B6898476D6823466DB1EC6891
:10409C0018463268A242E5D0E268002AE2D12269D1
:1040AC00002ADFD16D68002DF1D143B11A68184692
:1040BC00BDE8F041536A184720469847E0E7BDE851
:1040CC00F08100BF7C3100208C3100206116000093
:1040DC0038B5054601F0D4FE1D4B1C6834B123687D
:1040EC002046DB6898476468002CF8D103F050FC3C
:1040FC00D5E90423C01A90421CD2164B1C6834B16B
:10410C0023682046DB6898476468002CF8D1284661
:10411C00FFF73EFF03F03CFCD5E90623C01A9042A2
:10412C0004D313442846EB61FFF792FFBDE83840F7
:10413C0001F098BE084913440C686B61002CDCD06C
:10414C0023682046DB6898476468002CF8D1D4E7D4
:10415C0074310020643100205C31002008B5054B1F
:10416C001B68DB0703D5044B044A1A6008BDFFF734
:10417C00E9FBF8E7983000208831002094320020C9
:10418C000B78024613F0010011D092F800C01CF01D
:10419C0001000CD083EA0C0313F0FE0F06D1487813
:1041AC005378C01AB0FA80F040097047002070476D
:1041BC00054B10B51C6834B1236820469B699847A1
:1041CC00E468002CF8D110BD8C310020704700BF82
:1041DC0082B00368C1F30722ADF80410C9B25B6B5F
:1041EC0002B018478C46C1F307220B0E30B50CF009
:1041FC00F0050C4685B08646B02DC4F307440391F8
:10420C00C9B208D9E02D06D00468E46AA44605B00A
:10421C00BDE83040604700932346DEF8004070460E
:10422C00A46AA04705B030BD10B582B002AB03E95B
:10423C0006009DF804209DF8053042B1012A08D0F3
:10424C000468246BA44602B0BDE81040604702B07D
:10425C0010BDFFF705FA00BF70B51E4A04461E4D8F
:10426C0002F140012B68816002601C4963B39C42DF
:10427C0027D004F110020D68194BAA422361D4E92E
:10428C00053000D0D3B108B1436063694E68B242C7
:10429C0008BF486003B19860AA4208BF0B60114A7E
:1042AC002046114B226040F8083F01F0D5FC0F4B23
:1042BC002046236001F06AFB204670BD0028E3D144
:1042CC00EDE700232B60D4E74B68002BD1D0103BDB
:1042DC00CDE700BF58050020843100206431002058
:1042EC00000500207C060020C405002034050020B9
:1042FC00014B1860704700BF84310020044B1868D4
:10430C0000B17047034B58680028FAD0103870473A
:10431C008431002064310020C36970B500F10806B7
:10432C0082B05A680446D9793046019200F0F0FE0A
:10433C00054610B9284602B070BD3046019900F010
:10434C002FFF206A0028F5D00368034A1B689342AC
:10435C00F0D021469847EDE7CD1F0000F0B504469C
:10436C0083B0E1696E4604F108070B6830461B68A0
:10437C0098479DF80510384600F0CAFE054610B95E
:10438C00284603B0F0BD384696E8060000F0C2FFA0
:10439C00206A0028F4D00368034A5B689342EFD08C
:1043AC0021469847ECE700BF1D02000090F824302E
:1043BC0070B5044682B033B903689B6B98470346CB
:1043CC0084F8240040B304F10805174E09E0012BD2
:1043DC001DD0236820469B6B9847034684F8240025
:1043EC00D0B1022B1AD0032BF1D1E36928461B89DB
:1043FC00ADF80430019901F00DF9206A0028E8D0DD
:10440C0003689B68B342E4D021469847E1E7204615
:10441C00FFF782FF0028DCD102B070BD2046FFF709
:10442C009DFF0028D5D1F7E721020000A0F1100074
:10443C00FFF7BCBF006910B103689B691847704750
:10444C00406910B103689B6818477047C06810B189
:10445C0003689B681847704701F0070C012310B5DF
:10446C0003FA0CF34FEAD10C62B10F29DBB21CD862
:10447C0084449CF820E043EA0E038CF82030006959
:10448C0070B910BD0F296FEA03030ED884449CF851
:10449C0020E00EEA03038CF8203000690028F0D0ED
:1044AC000368BDE810405B691847FFF7D9F800BFF7
:1044BC0010B5006986B00191002839D00368234AF1
:1044CC009B68934238D19DF804E09DF805C09DF897
:1044DC0006109DF8072000698DF808E08DF809C0DA
:1044EC008DF80A108DF80B2010B30468A4689C4258
:1044FC0020D100698DF80CE08DF80DC08DF80E10F0
:10450C008DF80F20A0B103689B68A34218D10069F5
:10451C008DF810E08DF811C08DF812108DF8132065
:10452C0030B10268049992689A420BD1FFF7C0FF30
:10453C0006B010BD0299234606B0BDE810401847DE
:10454C000399F9E706B0BDE810401047B924000004
:10455C00836930B504468DB01868019108B1FFF736
:10456C00F7FF2368524ADB69934240F082809DF842
:10457C0004C09DF805109DF806209DF807302069B1
:10458C008DF80CC08DF80D108DF80E208DF80F30B5
:10459C0000286CD00468A568464CA5426FD1006910
:1045AC008DF810C08DF811108DF812208DF8133085
:1045BC0000285CD00568AD68A54266D100698DF80D
:1045CC0014C08DF815108DF816208DF817300028B2
:1045DC004DD00568AD68A5425DD100698DF818C055
:1045EC008DF819108DF81A208DF81B3000283ED04C
:1045FC000568AD68A54251D100698DF81CC08DF8D5
:10460C001D108DF81E208DF81F3080B30568AD6825
:10461C00A5423DD100698DF820C08DF821108DF890
:10462C0022208DF8233010B30568AD68A54238D12F
:10463C0000698DF824C08DF825108DF826208DF892
:10464C002730A0B10568AD68A5422DD100698DF861
:10465C0028C08DF829108DF82A208DF82B3030B118
:10466C0003680A999B68A34205D1FFF721FF0DB09F
:10467C0030BD019920460DB0BDE830401847039974
:10468C002B460DB0BDE83040184704992B46F2E795
:10469C0007992B46EFE705992B46ECE706992B4635
:1046AC00E9E708992B46E6E709992B46E3E700BFB3
:1046BC0055250000B924000010B500698CB001919B
:1046CC00039100283AD00468214AA468944238D156
:1046DC0000690B460491002830D00468A468944209
:1046EC002FD10069059148B30468A468944228D17D
:1046FC000069069110B30468A468944221D1006942
:10470C000791D8B101688C68944219D1006908935B
:10471C00A0B101688C68944218D10069099368B102
:10472C0001688C68944211D100690A9330B1016818
:10473C008C681946944204D1FFF7BAFE0CB010BD38
:10474C00079923460CB0BDE8104018471946F8E706
:10475C00B924000010B500698CB0019102910028B9
:10476C0042D00468254AA468944240D100690B46A3
:10477C000391002838D00468A468944237D10069AA
:10478C000491002830D00468A46894422FD10069A9
:10479C00059148B30468A468944228D10069069135
:1047AC0010B301688C68944226D100690793D8B184
:1047BC0001688C68944219D100690893A0B1016812
:1047CC008C68944212D10069099368B101688C68B5
:1047DC0094420BD100690A9330B101688C68194678
:1047EC00944204D1FFF764FE0CB010BD1946234669
:1047FC000CB0BDE8104018470699F8E7B924000042
:10480C0030B58BB000696B4683E80600002835D0C4
:10481C000168234ACC68944233D100999DF8042056
:10482C009DF80530006902918DF80C208DF80D3043
:10483C0020B30568ED68A5422AD1006904918DF872
:10484C0014208DF81530C8B10468E468AC4217D157
:10485C00056906918DF81C208DF81D3075B12B68FB
:10486C0006AADB68A34218D108AB92E8030083E8E0
:10487C000300284693E80600FFF7C2FF0BB030BDDB
:10488C0004AB93E8060023460BB0BDE83040184754
:10489C0002AB93E806002B46F6E7284606CAF3E778
:1048AC001128000030B5836995B004466D46186830
:1048BC0085E8060018B195E80600FFF7F3FF2368BA
:1048CC00514A1B6A93426ED100999DF804209DF8C1
:1048DC000530206902918DF80C208DF80D300028E0
:1048EC005FD00468E568494CA54263D10069049126
:1048FC008DF814208DF81530002852D00568ED681D
:10490C00A5425FD1006906918DF81C208DF81D30F1
:10491C00002846D00568ED68A5425DD10069089174
:10492C008DF824208DF8253000283AD00568ED68E4
:10493C00A54256D100690A918DF82C208DF82D30A6
:10494C0078B30568ED68A54241D100690C918DF8EA
:10495C0034208DF8353020B30568ED68A54245D17B
:10496C0000690E918DF83C208DF83D30C8B105687A
:10497C00ED68A5423FD1056910918DF844208DF862
:10498C00453075B12B6810AADB68A34238D112AB45
:10499C0092E8030083E80300284693E80600FFF73B
:1049AC002FFF15B030BD95E80600204615B0BDE8C8
:1049BC003040184702AB93E806002B4615B0BDE813
:1049CC003040184704AB93E806002B46EEE70AABE1
:1049DC0093E806002B46E9E706AB93E806002B4666
:1049EC00E4E708AB93E806002B46DFE70CAB93E853
:1049FC0006002B46DAE70EAB93E806002B46D5E70C
:104A0C00284606CAD2E700BF55290000112800002D
:104A1C0030B595B004696B460DF1080C83E80600BF
:104A2C0093E803008CE80500002C64D02268484B06
:104A3C00D5689D4261D105469DF80C109DF80D205E
:104A4C00206904958DF814108DF81520002852D08B
:104A5C000468E4689C4258D1006906958DF81C10D6
:104A6C008DF81D20002846D00468E4689C4251D182
:104A7C00006908958DF824108DF8252000283AD06F
:104A8C000468E4689C424AD100690A958DF82C10A0
:104A9C008DF82D2078B30468E4689C4244D10069F9
:104AAC000C958DF834108DF8352020B30468E4682B
:104ABC009C423ED100690E958DF83C108DF83D203E
:104ACC00C8B10468E4689C4238D1046910958DF82B
:104ADC0044108DF8452074B12268D5689D4232D1BE
:104AEC0010AA12AB92E8030083E80300204693E877
:104AFC000600FFF785FE15B030BD9CE80600204689
:104B0C002B4615B0BDE83040184704AB93E80600BF
:104B1C002346F6E706AB93E806002346F1E708AB1D
:104B2C0093E806002346ECE70AAB93E8060023461D
:104B3C00E7E70CAB93E806002346E2E70EAB93E8FD
:104B4C0006002346DDE710AB204693E80600D7E7C6
:104B5C001128000030B597B004696B460DF1080CB4
:104B6C0083E8060093E803008CE80500002C70D065
:104B7C002268514BD5689D426DD105469DF80C10AD
:104B8C009DF80D20206904958DF814108DF81520D2
:104B9C0000285ED00468E4689C4264D100690695E4
:104BAC008DF81C108DF81D20002852D00468E46884
:104BBC009C425DD1006908958DF824108DF8252054
:104BCC00002846D00468E4689C4256D100690A95D6
:104BDC008DF82C108DF82D2000283AD00468E4684C
:104BEC009C424FD100690C958DF834108DF835200E
:104BFC0078B30468E4689C4249D100690E958DF83D
:104C0C003C108DF83D2020B30468E4689C4243D1ED
:104C1C00006910958DF844108DF84520C8B10468D2
:104C2C00E4689C423DD1046912958DF84C108DF8C6
:104C3C004D2074B12268D5689D4237D112AA14ABAD
:104C4C0092E8030083E80300204693E80600FFF790
:104C5C00D7FD17B030BD9CE8060020462B4617B098
:104C6C00BDE83040184704AB93E806002346F6E74E
:104C7C0006AB93E806002346F1E708AB93E8060081
:104C8C002346ECE70AAB93E806002346E7E70CABB8
:104C9C0093E806002346E2E70EAB93E806002346B2
:104CAC00DDE710AB93E806002346D8E712AB2046AD
:104CBC0093E80600D2E700BF1128000010B5006988
:104CCC0086B0ADF8041068B303681F4A1B699342A1
:104CDC002AD19DF804109DF8052000698DF8081064
:104CEC008DF80920F0B1046824699C4221D1006937
:104CFC008DF80C108DF80D20A0B103681B69A34230
:104D0C001AD100698DF810108DF8112050B102687D
:104D1C0012699A4212D1BDF81030ADF814300599D1
:104D2C00FFF7CCFF06B010BD019906B0BDE81040EE
:104D3C00184702992346F8E70399F6E7049906B059
:104D4C00BDE81040104700BF792C0000836910B5F6
:104D5C0004468CB01868ADF8041010B10199FFF737
:104D6C00F5FF2368424A5B6A934261D19DF80420A7
:104D7C009DF8053020698DF80C208DF80D30002839
:104D8C0054D004683B4924698C4257D100698DF892
:104D9C0010208DF81130002848D0046824698C420A
:104DAC0052D100698DF814208DF8153000283DD0B3
:104DBC00046824698C424DD100698DF818208DF857
:104DCC001930002832D0046824698C4245D100691E
:104DDC008DF81C208DF81D3040B3046824698C427A
:104DEC0035D100698DF820208DF82130F0B10468A0
:104DFC0024698C4234D100698DF824208DF825303B
:104E0C00A0B1046824698C422DD100698DF828204A
:104E1C008DF8293050B103681B698B4226D1BDF83F
:104E2C002830ADF82C300B99FFF748FF0CB010BDB3
:104E3C00019920460CB0BDE8104018470399234651
:104E4C000CB0BDE81040184704992346F2E70799C7
:104E5C002346EFE705992346ECE706992346E9E755
:104E6C0008992346E6E709992346E3E70A99E1E71F
:104E7C00752D0000792C000010B500698CB0ADF8D0
:104E8C000410ADF80C10002858D00268384B126989
:104E9C009A4255D19DF80C109DF80D2000698DF8A3
:104EAC0010108DF81120002848D0046824699C4209
:104EBC004BD100698DF814108DF8152000283DD0C9
:104ECC00046824699C4246D100698DF818108DF84D
:104EDC001920002832D0046824699C423DD1006915
:104EEC008DF81C108DF81D2040B3046824699C4279
:104EFC0035D100698DF820108DF82120F0B10468AF
:104F0C0024699C422DD100698DF824108DF8252040
:104F1C00A0B1046824699C4225D100698DF8281041
:104F2C008DF8292050B1026812699A421DD1BDF842
:104F3C002830ADF82C300B99FFF7C0FE0CB010BD2B
:104F4C0003990CB0BDE810401047049923460CB0EF
:104F5C00BDE8104018470599F8E70699F6E7079958
:104F6C00F4E70899F2E70999F0E70A99E9E700BF35
:104F7C00792C000010B500698CB0ADF80410ADF8B8
:104F8C000810002863D002683E4B12699A4260D127
:104F9C009DF808109DF8092000698DF80C108DF80B
:104FAC000D20002853D0046824699C4256D1006916
:104FBC008DF810108DF81120002848D00468246951
:104FCC009C4251D100698DF814108DF815200028E1
:104FDC003DD0046824699C4248D100698DF81810B2
:104FEC008DF81920002832D0046824699C423FD1E6
:104FFC0000698DF81C108DF81D2040B304682469DD
:10500C009C4237D100698DF820108DF82120F0B129
:10501C00046824699C422FD100698DF824108DF806
:10502C002520A0B1046824699C4227D100698DF821
:10503C0028108DF8292050B1026812699A421FD1AC
:10504C00BDF82830ADF82C300B99FFF737FE0CB0BB
:10505C0010BD02990CB0BDE81040104703992346CF
:10506C000CB0BDE8104018470499F8E70599F6E72D
:10507C000699F4E70799F2E70899F0E70999EEE742
:10508C000A99E7E7792C000001F007024FEAD10CEE
:10509C0008B501239340DBB20F2919D800EB0C02A1
:1050AC0092F820201A400FD18069006850B100EBB3
:1050BC000C0E9EF820E013EA0E0F07D182691068DF
:1050CC000028E9D1012008BD002008BD104608BD0C
:1050DC00FEF7C6FA08B543681BB118465B68002B8F
:1050EC00FBD10B6913B90861416008BDFEF7B8FA32
:1050FC0008B5436823B11846DB68002BFBD1083098
:10510C004B6913B94861416008BDFEF7A9FA00BFAD
:10511C004268002A3DD00F2910B54FEAD10E3CD879
:10512C0001F00703012002EB0E0C00FA03F39CF8CC
:10513C0020C0DCB213EA0C0329D1926912682AB39D
:10514C0002EB0E0C9CF820C014EA0C0C1FD19369D6
:10515C001B68DBB103EB0E0292F82020224016D123
:10516C009B691B6893B103EB0E0090F8200004427E
:10517C000DD19B691B6873B19E449EF8202014428C
:10518C0005D19B69186830B1FFF77EFF10BD002078
:10519C0010BD01207047012010BDFEF761FA00BF61
:1051AC0070B544688EB00191002C63D0A269039154
:1051BC001568002D4DD0AA690491106808B1FFF74D
:1051CC00C7F92B68514EDB690499B34240F09880C3
:1051DC002869059100283DD003689A684C4B9A4287
:1051EC0040F0878000690691002833D002689268ED
:1051FC009A427ED10069079100282BD002689268F0
:10520C009A4276D10069089120B3026892689A425A
:10521C006FD100690991E8B1026892689A4272D123
:10522C0000690A91B0B1026892689A4261D1006932
:10523C000B9178B1026892689A425AD100690C912C
:10524C0040B1026892689A4253D10D91FFF730F940
:10525C0000E02E4E23680399DB69B3424BD12069E1
:10526C00059138B102682A4B92689A423DD1006987
:10527C00069108B90EB070BD026892689A4234D19A
:10528C00006907910028F5D0026892689A422CD1E7
:10529C00006908910028EDD0026892689A4224D1E6
:1052AC00006909910028E5D0026892689A421BD1E6
:1052BC0000690A910028DDD0026892689A4214D1E4
:1052CC0000690B910028D5D0026892689A420CD1E3
:1052DC0000690C910028CDD0026892689A4204D1E2
:1052EC000D91FFF7E5F8C5E709990EB0BDE87040E0
:1052FC0010479047AEE720460EB0BDE87040184707
:10530C0028469847A6E709999047A3E7552500003A
:10531C00B92400002DE9F04198B044686B4683E84D
:10532C000600002C00F0BA80A66902AD93E80300D9
:10533C00366885E80500002E00F09380B3690DF106
:10534C00100895E803001B6888E8050023B118468F
:10535C0098E80600FFF7A6FA3368A44F1B6ABB4215
:10536C0040F00381DDF810C09DF814109DF8152055
:10537C003069CDF818C08DF81C108DF81D20002850
:10538C0070D00368DE689A4B9E4240F0028100693F
:10539C00CDF820C08DF824108DF82520002861D080
:1053AC000668F6689E4240F0FE800069CDF828C081
:1053BC008DF82C108DF82D20002853D00668F66837
:1053CC009E4240F0DC800069CDF830C08DF834107E
:1053DC008DF83520002845D00668F6689E4240F0CE
:1053EC00EC800069CDF838C08DF83C108DF83D206C
:1053FC00002837D00668F6689E4240F0E8800069C5
:10540C00CDF840C08DF844108DF8452050B3066897
:10541C00F6689E4240F0E0800069CDF848C08DF8F7
:10542C004C108DF84D20E8B10668F6689E4240F0AD
:10543C00E7808DF855200269CDF850C08DF85410D6
:10544C0082B11168CE689E4240F0DE8014A916AB82
:10545C0003C983E80300104693E80600FFF7D0F970
:10546C0000E0624F23681B6ABB4272D1029D9DF81B
:10547C000C109DF80D20206906958DF81C108DF8E8
:10548C001D2058B10368DC68594B9C4268D10069F7
:10549C0008958DF824108DF8252010B918B0BDE8AA
:1054AC00F0810468E4689C426ED100690A958DF81D
:1054BC002C108DF82D200028F0D00468E4689C4254
:1054CC006CD100690C958DF834108DF835200028BE
:1054DC00E4D00468E4689C424CD100690E958DF8C8
:1054EC003C108DF83D200028D8D00468E4689C421C
:1054FC005ED1006910958DF844108DF84520002878
:10550C00CCD00468E4689C425CD1006912958DF89B
:10551C004C108DF84D200028C0D00468E4689C42E3
:10552C005FD1046914958DF854108DF85520002C1A
:10553C00B4D02268D5689D425CD114AA16AB92E80F
:10554C00030083E80300204693E80600FFF758F9B0
:10555C00A4E795E80600204618B0BDE8F0411847CE
:10556C0006AB93E806002346F6E7304698E80600BB
:10557C00984777E70CAB93E806002346ECE70AABB9
:10558C0093E80600B0476DE708AB93E806002346A6
:10559C00E2E706AB93E80600B04763E70AAB93E893
:1055AC0006002346D8E708AB93E80600B04759E756
:1055BC000EAB93E806002346CEE70CAB93E806004F
:1055CC00B0474FE710AB93E806002346C4E70EAB99
:1055DC0093E80600B04745E710AB93E80600B047E8
:1055EC0040E712AB93E806002346B5E755290000C7
:1055FC001128000014AB204693E806002B46ABE7BD
:10560C00DDE91212B0472DE71046DDE91412B04760
:10561C0028E700BF70B544688EB0ADF80410002CBC
:10562C0000F09780A369ADF80C101D68002D76D0A2
:10563C00AB69ADF81010186810B10499FFF786FB30
:10564C002B688A4E5B6AB34240F0DC809DF81010E8
:10565C009DF8112028698DF814108DF8152000285C
:10566C005ED003681D69824B9D4240F0D880006972
:10567C008DF818108DF81920002851D005682D6967
:10568C009D4240F0D28000698DF81C108DF81D20D1
:10569C00002845D005682D699D4240F0BA8000690C
:1056AC008DF820108DF82120002839D005682D693F
:1056BC009D4240F0C08000698DF824108DF82520A3
:1056CC0070B305682D699D4240F0BB8000698DF870
:1056DC0028108DF8292018B305682D699D4240F0DB
:1056EC00B38000698DF82C108DF82D20C0B10568A1
:1056FC002D699D4240F0B38000698DF830108DF813
:10570C00312068B1026812699A4240F0AB80BDF852
:10571C003030ADF834300D99FFF7D0FA00E0534E2D
:10572C0023685B6AB34264D19DF80C109DF80D2080
:10573C0020698DF814108DF8152050B104684C4B6D
:10574C0024699C425BD100698DF818108DF81920E2
:10575C0008B90EB070BD046824699C425CD1006924
:10576C008DF81C108DF81D200028F2D004682469D7
:10577C009C4257D100698DF820108DF8212000280B
:10578C00E7D0046824699C4240D100698DF824104C
:10579C008DF825200028DCD0046824699C4247D170
:1057AC0000698DF828108DF829200028D1D00468C4
:1057BC0024699C4242D100698DF82C108DF82D2063
:1057CC000028C6D0046824699C4240D100698DF839
:1057DC0030108DF831200028BBD0026812699A4233
:1057EC0038D1BDF83030ADF834300D99FFF766FA8A
:1057FC00AFE7039920460EB0BDE8704018470599F5
:10580C002346F8E704992846984789E708992346E0
:10581C00F1E70799A84783E706992346EBE7059933
:10582C00A8477DE707992346E5E70699A84777E758
:10583C0009992346DFE70899A84771E70A99234697
:10584C00D9E70999A8476BE70A99A84768E70B9924
:10585C002346D0E70C990EB0BDE8704010470B9969
:10586C00A8475DE70C9990475AE700BF752D0000DB
:10587C00792C0000026938B5002A5AD0C1690C682D
:10588C00A4B1536813B100251D615560436843B141
:10589C0000251D61456053681BB11A465B68002BDF
:1058AC00FBD12369002B4BD1226154604269002A41
:1058BC002FD083691968002934D0536813B10024A0
:1058CC005C615460C3684BB100245C61C460536874
:1058DC0023B11A46DB68002BFBD108324B69002B35
:1058EC002ED103694A615160002B27D05968426957
:1058FC0011B100240C615C60F2B15368E3B1002477
:10590C00C1695C6154600B68D3B983691B68BBB90E
:10591C0038BD0369002BF6D05C68002CF3D02261F3
:10592C005A60F0E70369002BE7D059680029E0D1F1
:10593C00E3E74269002ABCD1C169E4E74269DBE7CD
:10594C00FDF78EFEF8B54568FDB16E680446BEB134
:10595C0077687FB1786838B1FFF7F4FF7868FFF7A4
:10596C0089FF00237B6077683846FFF783FF0023AD
:10597C0073606E683046FFF77DFF00236B606568CF
:10598C002846FFF777FF00236360F8BD2DE9F0414F
:10599C00194B0446456803605DB36E6836B377688F
:1059AC00F7B1D7F80480B8F1000F13D0D8F8040081
:1059BC0050B1FFF7C7FFD8F80400FFF75BFF0023D7
:1059CC00C8F80430D7F804804046FFF753FF002393
:1059DC007B6077683846FFF74DFF002373606E6875
:1059EC003046FFF747FF00236B6065682846FFF7DA
:1059FC0041FF2046BDE8F08124080020F8B5456839
:105A0C0005B3EE680446C6B1F76887B1F86840B1D3
:105A1C000830FFF7F3FFF868FFF72CFF0023FB605B
:105A2C00F7683846FFF726FF0023F360EE68304630
:105A3C00FFF720FF0023EB6065682846FFF71AFF8D
:105A4C0000236360F8BD00BF38B5124BA0F1080508
:105A5C00044603F1340240F8083C02602846FFF784
:105A6C0009FF0D4B6068236028B10830FFF7C6FFB3
:105A7C006068FFF7FFFE094B54F8040C44F8083C2F
:105A8C0028B1FFF75FFF54F8040CFFF7F3FE28462C
:105A9C0038BD00BFDC0700202005002024080020B2
:105AAC0038B5144BA0F10805044603F1340240F854
:105ABC00083C02602846FFF7DDFE0F4B6068236050
:105ACC0028B10830FFF79AFF6068FFF7D3FE0B4B45
:105ADC0054F8040C44F8083C28B1FFF733FF54F891
:105AEC00040CFFF7C7FE2846242102F091F8284643
:105AFC0038BD00BFDC070020200500202408002052
:105B0C00F8B5264B044603F1340203608260FFF7BC
:105B1C00B1FE234BE568A360EDB1EE68C6B1F76842
:105B2C0087B1F86840B10830FFF768FFF868FFF7F5
:105B3C00A1FE0023FB60F7683846FFF79BFE0023AD
:105B4C00F360EE683046FFF795FE0023EB60E568E6
:105B5C002846FFF78FFE134B65682360E5B16E682E
:105B6C00BEB177687FB1786838B1FFF7EBFE786823
:105B7C00FFF780FE00237B6077683846FFF77AFEDC
:105B8C00002373606E683046FFF774FE00236B6071
:105B9C0065682846FFF76EFE2046F8BDDC0700203E
:105BAC002005002024080020F8B5284B044603F1FA
:105BBC00340203608260FFF75DFE254BE568A3604D
:105BCC00EDB1EE68C6B1F76887B1F86840B108303E
:105BDC00FFF714FFF868FFF74DFE0023FB60F76832
:105BEC003846FFF747FE0023F360EE683046FFF7B8
:105BFC0041FE0023EB60E5682846FFF73BFE154BA2
:105C0C0065682360E5B16E68BEB177687FB178686E
:105C1C0038B1FFF797FE7868FFF72CFE00237B6006
:105C2C0077683846FFF726FE002373606E683046AF
:105C3C00FFF720FE00236B6065682846FFF71AFE0D
:105C4C002046242101F0E4FF2046F8BDDC070020AB
:105C5C0020050020240800202DE9F0411A4B0446B1
:105C6C004568036065B3EE683EB3F768FFB1D7F8DB
:105C7C000C80B8F1000F14D0D8F80C0058B10830D3
:105C8C00FFF7BCFED8F80C00FFF7F4FD0023C8F8B2
:105C9C000C30D7F80C804046FFF7ECFD0023FB607E
:105CAC00F7683846FFF7E6FD0023F360EE683046F0
:105CBC00FFF7E0FD0023EB6065682846FFF7DAFD8F
:105CCC002046BDE8F08100BF200500202DE9F04101
:105CDC001C4B04464568036065B3EE683EB3F76839
:105CEC00FFB1D7F80C80B8F1000F14D0D8F80C0025
:105CFC0058B10830FFF782FED8F80C00FFF7BAFD58
:105D0C000023C8F80C30D7F80C804046FFF7B2FDE2
:105D1C000023FB60F7683846FFF7ACFD0023F36007
:105D2C00EE683046FFF7A6FD0023EB606568284659
:105D3C00FFF7A0FD2046082101F06AFF2046BDE8D0
:105D4C00F08100BF20050020F8B5067904460D4609
:105D5C00F02E32D02B061DD423790BB90020F8BDC0
:105D6C0094F89420C2BB03F0F002B02A3AD9A2F105
:105D7C00E006B6FA86F67609A6BB82F08002602AA7
:105D8C0039D9F02BEAD1294604F10C0000F042F885
:105D9C003046F8BDF72D2BD8237900222571F02B36
:105DAC0084F89420DAD10C34F721204600F032F834
:105DBC00204600F02BF80220F8BD00F10C07384605
:105DCC0000F038F80028C5D1384600F017F83146F5
:105DDC00384600F01FF8BDE700230120A57184F8B8
:105DEC009430F8BD01230020657184F89430F8BD1F
:105DFC0003202572F8BD01206571F8BD0022012336
:105E0C00C0F8802080F88430704700BF002380F8F1
:105E1C0084307047D0F880207F2A09D8034610B40C
:105E2C00541C81540120C3F880405DF8044B70472A
:105E3C000020704790F88400704700BF704700BF87
:105E4C00D0F88000704700BF054B10B51C6834B10A
:105E5C00236820461B6B98476468002CF8D110BD52
:105E6C004C310020054B10B51C6834B1236820461A
:105E7C005B6B98476468002CF8D110BD4C31002046
:105E8C00054B10B51C6834B1236820469B6B9847B2
:105E9C006468002CF8D110BD4C310020008A70478A
:105EAC00C0897047004870474C310020A1F128038D
:105EBC0030B5054683B0252B28D8DFE803F05265B2
:105ECC002424136B2727272727272727272727272C
:105EDC002727272727272727272727272727272746
:105EEC0027273F3F4249003A424B434C18BF0122FF
:105EFC0048681B68A4FB03439B0C03FB02F24B6832
:105F0C001B1A9A42FBD8012003B030BD3F295AD945
:105F1C0001F03F03E81890F82C00FF28F3D011F0A3
:105F2C00300F5CD0102B5ED001F086FD03460120B3
:105F3C00003B18BF012385F82730E5E70192002AC2
:105F4C0043D101F03F0401212C4494F82C0001F0C2
:105F5C0085FD019A94F82C00114601F043FD0120B7
:105F6C00D2E72B35012405E00F2A26D801F076FD67
:105F7C000134E4B215F8013F621E0121FF2B1846D3
:105F8C00F2D1162CF4D1BEE7104601F0ADFC012085
:105F9C0003B030BD174C032A1549174B48682268CB
:105FAC0034BF05240224A3FB0232920C04FB02F240
:105FBC004B681B1A9A42FBD8A5E7022101F04EFD53
:105FCC00162CD5D19FE700209EE701F03F0302215C
:105FDC002B4493F82C0001F041FD012094E711466D
:105FEC0001F000FD8FE7019003F082F801989BE728
:105FFC00001000E0A41E002083DE1B4380F8371045
:10600C0080F8382080F83930704700BFA1F1140CAB
:10601C0038B50446BCF10C0F08D8DFE80CF01507B6
:10602C000709220F0707070707070D00002038BDD7
:10603C001946154803F02AFD012038BD01211248EC
:10604C0003F0E6FD012038BD83692BB903680F4AC4
:10605C005B7B02FB03F383610B480AF0E1F8012040
:10606C0038BD094D8169284603F0BAFE94F8242006
:10607C00012302F0FE02184685F8303185F8A52080
:10608C0085F82F3138BD00BF181F0020A0860100F5
:10609C002DE9F04383B01F46CB188046BDF82890FD
:1060AC0014469BB20E4602EB0905ADB2009500F00A
:1060BC00F1FD80B1B9F1000F0DD04FF0000922466F
:1060CC0001343B463146A4B24046CDF8009000F076
:1060DC006BFDA542F3D103B0BDE8F0832DE9F0438D
:1060EC0085B0CF181E468046BDF83090BFB20D4625
:1060FC00144602EB09039BB200933B4600F0CAFD29
:10610C0010B905B0BDE8F08300232246294640466D
:10611C000093334600F048FDB9F1010FF1D9A9F114
:10612C000209621C1FFA89F492B24CB9002433465E
:10613C00294640460C9405B0BDE8F04300F034BD50
:10614C004FF00109234629464046CDF800900392B2
:10615C0000F02AFD791E039A2346404689B2CDF8F9
:10616C00009000F021FD039A224492B2DEE700BFBA
:10617C0003682DE9F043064683B090F85090002454
:10618C0090F8515093F8118000E033681B7C2A463C
:10619C00F76C002104FB03FC0134304601354FEA57
:1061AC00CC0CE4B21FFA8CFCEDB2BC44CDF800C0B0
:1061BC0001F08CF8A14501D9A845E6D803B0BDE89B
:1061CC00F08300BF0268002190F85030127CC06C44
:1061DC0012FB03F2D20004F0D3B900BF10B5044691
:1061EC00FFF7C6FF2046BDE8104001F09FB800BF86
:1061FC00836C10B5044680F851101B689847A36C4B
:10620C0020465B68BDE81040184700BF10B590F8F9
:10621C00AB3004462BB920460021BDE81040FFF7F7
:10622C00E7BF0268002190F85030127CC06C12FB62
:10623C0003F2D20004F0A4F920460021BDE810407E
:10624C00FFF7D6BF38B50446FFF792FF94F85150CC
:10625C0094F8503022681D44517CEDB2A94211D9FA
:10626C0094F8AB1029B920462946FFF7C1FF01204D
:10627C0038BD127C0021E06C12FB03F2D20004F05A
:10628C007FF9F0E7204601F051F8002038BD00BF3F
:10629C0010B50446FFF7BAFF2046FFF7D3FF0028DE
:1062AC00FAD101462046BDE81040FFF7A1BF00BF60
:1062BC0030B51C4685B0134605460A4A00940C4678
:1062CC00094901F045F80DF10F0001F05DF8074B9D
:1062DC0001469DF80F202846009400F0DBFD05B028
:1062EC0030BD00BF694E000021500000F14A000093
:1062FC004218435C507800EB032080B2704700BF1B
:10630C000020704738B50D46044611212B782846DD
:10631C0023706B786370AB78A370EB78E3702B7998
:10632C0023716B796371AB79A371EB79E3712B7A80
:10633C0023726B7A6372AB7AA372EB7AE3722B7B68
:10634C0023736B7B6373AB7BA373EB7BE3732B7C50
:10635C002374FFF7CDFF0346132128466382FFF712
:10636C00C7FF034615212846A382FFF7C1FFE08231
:10637C0038BD00BF012B05D0022B09D02BB1411A1F
:10638C0088B27047014488B27047024490B270479B
:10639C00821A90B2704700BF012B05D0022B09D096
:1063AC002BB1024490B27047821A90B270470144EC
:1063BC0088B27047411A88B2704700BF2DE9F04F80
:1063CC0087B004460E4690F8807090F881B0059224
:1063DC000FE094F88510002949D0F319AE420BF167
:1063EC00010BA3EB0A033AD35FFA8BFB002703F0F4
:1063FC00FF0694F882A04FFA87FC31464FFA8BF9CE
:10640C00AAEB070594F888304A46B4F87C00EDB244
:10641C00B4F87E80CDF80CC0AE4228BF294604915A
:10642C006146FFF7B9FF02460399404690464A463B
:10643C00FFF7A0FF059902460029CAD000934146F8
:10644C0094F886C02046049B0BF1010B84F8AAC07B
:10645C0000F0AAFBF319AE42A3EB0A03C4D23E44EC
:10646C0084F8819084F8806007B0BDE8F08F0093C9
:10647C00414694F88700049B84F8AA00204600F05B
:10648C0093FBAAE72DE9F04F044690F89000002307
:10649C0085B00728A16784F884300D7840F24E81CE
:1064AC00A0F108030131DBB2A1674FF0FF3294F881
:1064BC00916084F88430824025EA0205F2186DB2AE
:1064CC00D2B284F88250072A087840FA03F000F21E
:1064DC002781C3B24FF0FF3084F88420B04094F889
:1064EC00926023EA000394F8AA0084F88600B0FABC
:1064FC0080F04FFA83F9400984F8839084F8870080
:10650C00B0180F78C0B21741072800F2F6805FFA76
:10651C0087FE94F893C084F884000CEB00020F788B
:10652C00D2B20741072A00F2D880F8B294F894A0AE
:10653C0084F884200AEB020891F800B05FFA88F81E
:10654C004BFA02FBB8F1070F00F2B8805FFA8BF739
:10655C004FF0FF3284F884800121002D0AEB0208F1
:10656C0002FA0AFA5FFA88F827EA0A0701FA08F829
:10657C00A7EB08074FFA87FB40F39C800CEB020853
:10658C0002FA0CFCB240013E20EA0C0C5FFA88F0D7
:10659C002EEA020EF6B201FA00F2B4F87C00B14019
:1065AC00D21A94F88830AEEB0101A2EB0C0249B27E
:1065BC0052B202910392FFF7EFFEA4F87C0006465C
:1065CC00B4F87E00DDE90212FFF7D4FE0246A4F80F
:1065DC007E00032B00F2EC80DFE803F0B2B8C102BE
:1065EC00C5F10103411C034489B29AB206EB0903BD
:1065FC009BB200912046314600F04CFB002859D04C
:10660C00002294F884304FF0FF38A4F8802094F8DE
:10661C008E50A16FEA180878D2B21841072A00F2FE
:10662C00B880C6B294F88F0008FA05F584F8842077
:10663C00831891F800C026EA0506DBB24CFA02FC7E
:10664C00072B00F299805FFA8CF508FA00F084F8B9
:10665C00843025EA0005314620460022FFF7AEFEC5
:10666C00012229462046FFF7A9FE94F88420A76F43
:10667C00531CC2F108003978A2F1070EDBB207F106
:10668C00010A1141C0B2072BCAB207D9C4F878A0CD
:10669C005FFA8EF37A7882400A43D2B2D20784F83A
:1066AC008430D8D494F981204A45B0DB94F88630F4
:1066BC0084F8AA30584605B0BDE8F08F4F1CC2F1E3
:1066CC000802A8F10808D2B2A7674F785FFA88F8D9
:1066DC00974047EA0B07FFB23AE701F10108C0F116
:1066EC000800083AC0B2C4F878804978D2B201FAEE
:1066FC0000F041463843C0B218E701F1010CC2F179
:10670C0008020838D2B2C4F878C091F801E0C0B2DF
:10671C0061460EFA02FE4EEA070E5FFA8EFEF8E6AE
:10672C004F1CC3F10803083ADBB2A7674978D2B211
:10673C0001FA03F339460343DBB2CBE60346B4E676
:10674C00731900EB09019BB289B252E74119C9F1E7
:10675C000100731C304489B29BB286B249E7C5F183
:10676C000101C9F10100731C314410449BB28EB27B
:10677C00511C82B289B23CE74D1CC2F10802083BA5
:10678C00D2B2A5674D78DBB2954045EA0C05EDB267
:10679C005BE701F1010CC3F10803083ADBB2C4F862
:1067AC0078C04E78D2B261469E400643F6B239E7C5
:1067BC00014633461DE700BF70B5FF29046F0D4637
:1067CC0004F117040ED8602930D9B0F8A0301C445D
:1067DC00607830B12378AB422ED004446078002826
:1067EC00F8D170BDB0F8A2301C44264600213046CA
:1067FC00FFF77EFD0346022130461C44FFF778FD6F
:10680C00854206F10406F1D8208840BA80B20028EF
:10681C00E7D0854208D0A3781C44208840BA80B2C7
:10682C000028DED08542F6D1E01C70BD4029D5D9B8
:10683C00B0F89E301C44D1E7A01C70BD38B504469E
:10684C00FFF7BAFF00287AD094F890C00023A06715
:10685C00BCF1070F84F88430027871D863464FF08E
:10686C00FF3184F8843001FA0CF194F891C022EADB
:10687C00010284F882200CEB030290F800E0D2B203
:10688C004EFA03FE072A6FD85FFA8EF394F8AA101B
:10689C0084F8842084F88610B1FA81F1490984F8CF
:1068AC0087104FF0FF3101FA0CF194F892C023EAF3
:1068BC00010384F883300CEB020390F800E0DBB2A8
:1068CC004EFA02FE072B41D85FFA8EF24FF0FF31E1
:1068DC0001FA0CF10CF1FF3C22EA01025FFA8CFC8C
:1068EC00012101FA0CF1521A94F893100B4484F81C
:1068FC00A820DBB2072B03D9083B0130DBB2A06721
:10690C0094F894C084F884300CEB030190F800E008
:10691C00C9B24EFA03FE072935D85FFA8EF34FF051
:10692C00FF3084F8841001220CEB000100FA0CF00B
:10693C00C9B223EA000002FA01F3C01A40B238BD12
:10694C000130ACF10803A067DBB288E7C2F10802A2
:10695C00451C083BD1B2A5674278DBB228468A4079
:10696C0042EA0E02D2B2B1E7451CC3F10803083A61
:10697C00DBB2A5674178D2B2284601FA03F343EAA9
:10698C000E03DBB282E7C3F108030839DAB2431C09
:10699C00C9B2A3674378934043EA0E03DBB2BEE768
:1069AC002DE9F04700256FF03F094FF6FF774FF6C2
:1069BC00FE782E4680F8825082464C1E00F09AFAE1
:1069CC0014F8011F5046DAF8043098470346504635
:1069DC00BB4219460CD04345F2D0FFF72FFF19F1FB
:1069EC00400F85B208BF9AF9A8902E44B6B2E7E7DB
:1069FC009AF9822062B19AF9A830B9F1000F1344C8
:106A0C003344A3EB05039EB202DDB1441FFA89F6B1
:106A1C003046BDE8F08700BF70B50E46194690F8B9
:106A2C00883082B004461546032B09D8DFE803F002
:106A3C00251E0217436F01919847281A019985B2B8
:106A4C002046A4F87C60A4F87E50FFF7B5FE20B178
:106A5C0001462046FFF716FD80B202B070BD436FB1
:106A6C00019198473044019986B2E9E7436F01914F
:106A7C009847301A019986B2E2E7436F0191984723
:106A8C002844019985B2DBE72DE9F0474FF0000966
:106A9C004FF6FF784FF6FE7A04460F4616465D1EFB
:106AAC0000F028FA15F8011F2046636898478446C1
:106ABC0032463946C445204663461AD0D445F1D0F7
:106ACC00FFF7AAFF94F88830032B05D8DFE803F012
:106ADC000B080E02361AB6B248441FFA80F9E1E7E9
:106AEC000644B6B2F8E70744BFB2F5E73F1ABFB2A7
:106AFC00F2E74846BDE8F08710B4034C44605DF8FB
:106B0C00044BFFF7C1BF00BFE54C0000014B4367CE
:106B1C00704700BF01410000026F8A4222D010B5BD
:106B2C0004468C302167FFF7EDFB236FCBB194F952
:106B3C00991094F99A2094F8A53084F8A61084F84A
:106B4C00A72073B1012B0ED094F9980094F99630CC
:106B5C0003449942B8BF84F8A630824201DD84F820
:106B6C00A70010BD704794F99B3094F99C008B42A0
:106B7C00B8BF0B46824284F8A630F0DC10BD00BFD3
:106B8C00014B4360FFF70CBFE54C000010B49DF8BF
:106B9C0004400194B0F85640121B446C92B2A446C7
:106BAC005DF8044B604700BF30B590F8A4409DF8E9
:106BBC000CC004B103B930BD012B05D0BCF1020FE0
:106BCC002CD0BCF1030F5CD01CF0010F29D0B0F815
:106BDC0060408C42EFD8B0F862408C42EBD9134441
:106BEC00B0F86450B0F866401FFA83FC944505D2A7
:106BFC0094424AD904F1FF3C1FFA8CFC9442DAD936
:106C0C006545D8D2AA4238BF2A46644594BFC2EB28
:106C1C000403C2EB0C0301249BB22BE00131C91A13
:106C2C0089B2B0F864409442C5D8B0F8664094423A
:106C3C00C1D90B44B0F86050B0F862E01FFA83FC85
