:0200000460009A
:100000004643464200000156000000000103030081
:1000100000000000000000000000000000000000E0
:1000200000000000000000000000000000000000D0
:1000300000000000000000000000000000000000C0
:1000400000000000010408000000000000000000A3
:100050000000800000000000000000000000000020
:100060000000000000000000000000000000000090
:100070000000000000000000000000000000000080
:10008000EB04180A063204260000000000000000FD
:10009000050404240000000000000000000000002F
:1000A0000000000000000000000000000000000050
:1000B0000604000000000000000000000000000036
:1000C0000000000000000000000000000000000030
:1000D00020041808000000000000000000000000DC
:1000E0000000000000000000000000000000000010
:1000F0000000000000000000000000000000000000
:10010000D8041808000000000000000000000000F3
:100110000204180804200000000000000000000095
:1001200000000000000000000000000000000000CF
:10013000600400000000000000000000000000005B
:1001400000000000000000000000000000000000AF
:10015000000000000000000000000000000000009F
:10016000000000000000000000000000000000008F
:10017000000000000000000000000000000000007F
:10018000000000000000000000000000000000006F
:10019000000000000000000000000000000000005F
:1001A000000000000000000000000000000000004F
:1001B000000000000000000000000000000000003F
:1001C000000100000010000001000000000000001D
:1001D000000001000000000000000000000000001E
:1001E000000000000000000000000000000000000F
:1001F00000000000000000000000000000000000FF
:10020000FFFFFFFFFFFFFFFFFFFFFFFFFFFFFFFFFE
:10021000FFFFFFFFFFFFFFFFFFFFFFFFFFFFFFFFEE
:10100000D10020434D1600600000000000000000E9
:10101000201000600010006000240160000000004B
:10102000000000600030010000000000FFFFFFFF33
:10103000FFFFFFFFFFFFFFFFFFFFFFFFFFFFFFFFC0
:10104000FFFFFFFFFFFFFFFFFFFFFFFFFFFFFFFFB0
:10105000FFFFFFFFFFFFFFFFFFFFFFFFFFFFFFFFA0
:10106000FFFFFFFFFFFFFFFFFFFFFFFFFFFFFFFF90
:10140000814205D051F8043B40F8043B8242F9D8B0
:10141000704700BF044A05494FF0000342F8043BFF
:101420009142FBD8704700BFC0220020403000200E
:101430002DE98848BFF34F8F00BF00BF00BF00BF3A
:1014400000F042F9684B0822C3F8542100BF00BFE6
:1014500000BF00BF00BF00BF00BF00BF00BF00BF94
:1014600000BF00BF00BF00BF00BF00BF5F4A6049B0
:101470006048FFF7C5FF604A60496148FFF7C0FF59
:10148000604CFFF7C7FF4FF470004FF0E0210023DE
:101490005D4AC1F8880D44F823200133B02BFAD1FE
:1014A0005A4B80215A4A03F8011B9342FBD14FF05B
:1014B000E0254D4E4FF08039DFF884B1DFF884A18C
:1014C0004FF0FF31C5F8084D0027C6F80491C6F863
:1014D00000B1C6F8F490C6F8F0A0D5F8243DDFF8C6
:1014E000688143F4E0234B4AC5F8243DD8F81C300A
:1014F00023F07F0343F04003C8F81C30D8F82430B1
:1015000023F07F0343F04003C8F824309166D1668E
:101510001167516700F0E0F83F4B4049A363404B2F
:10152000E36363236B610323AF612B613D4BC5F81C
:10153000203DD5F8FC3D43F08073C5F8FC3D3A4BA7
:101540001A6842F001021A605B680B6000F00EFB43
:10155000C6F804913548C6F800B1C6F8F490C6F84C
:10156000F0A000F039FDD8F86C10314B314A41F44D
:101570004051C8F86C101F60C3F80871C3F81871A7
:10158000C3F82871C3F83871936BDB0708D442F6AF
:101590001563294951651365936B43F00103936308
:1015A000244A264C936843F00113936000F01CF921
:1015B00000F060F800F008FD00F006FB00F086F88F
:1015C0002368132BFCD900F097FB2368B3F5967FB3
:1015D000FBD300F07FF800F07BF800F0F1FC00F0A6
:1015E00003FD30BFFDE700BF00800D4038DE000086
:1015F0000C22006000000000C022002048000160B2
:1016000000000020002000209D61000000E400E0B8
:10161000A0E400E000C00A40C9750000102F0020BF
:10162000CD75000000002020001000E00046C3231C
:101630000040084000400D400000C056142F00201C
:101640001B1018200C0D111300C00F40054B4FF458
:101650002A01054A05485A641864054A9963954663
:10166000FFF7E6FE00C00A40AFAAAAAA07002000C2
:1016700000000720104BA020104AD96E41F44031E1
:1016800010B4D96640F23764D96E41F44071D9661E
:1016900054649064936C1B06FCD4094A40F2376191
:1016A000A02351649364936C13F08003FBD1054A2B
:1016B00013705DF8044B704700C00F4000400C40B1
:1016C00000800C40F52F0020704700BF704700BF1E
:1016D000704700BF00BF704710B44FF0E0230021F7
:1016E00010243148C3F8941DC3F89C4D1124C3F84D
:1016F000A00D2E48C3F89C4D1224C3F8A00D2C4811
:10170000C3F89C4D2B4AC3F8A00D2B4C42F0150298
:101710002A48C3F89C4DC3F8A00D294C2948C3F8AA
:101720009C4DC3F8A00D284CC3F89C2D2748284A8F
:10173000C3F8A04DC3F89C0DC3F8A02D02F5A0225C
:10174000244C0C322448C3F89C4DC3F8A02D234AE6
:10175000C3F89C0D224CC3F8A02D02F14062C3F8DF
:101760009C4D2048C3F8A02D0C32C3F89C0DC3F843
:10177000A02D00BF00BF00BF00BF00BF0122C3F803
:10178000942DBFF34F8FBFF36F8FC3F8501FBFF37C
:101790004F8FBFF36F8FD3F8142D5DF8044B42F4D5
:1017A0004032C3F8142D70473F0000102500080791
:1017B0000900100040300020130020002100020723
:1017C0001400002025000813090000101600202036
:1017D00027000B1317000040180000602F000B07B4
:1017E000190000701A000080F0B5B84B1822B84EEE
:1017F0000120B84F83B0C3F85C62B749C3F8607288
:10180000B64DC3F86462A6F53046B54CC3F86862BD
:10181000C3F86C52C3F87052C3F87452C3F87852CC
:1018200048F20C75DA661A675A679A67DA67C3F87E
:101830008020C3F88420C3F88820C1F82C03A94A6B
:10184000C1F83003C1F83403C1F83803C1F83C03D0
:10185000C1F85003A169A44B0A40A448A44913430A
:10186000A44AA361D4F8843043F00C03C4F8843054
:101870004FF0FF34036843F00203036003682B401A
:101880004FF400551A439C4B026044608A689B4C9D
:1018900013409B4A43F000538360C36823F07803EE
:1018A000C360036A134023430362036A1340954AEB
:1018B0002343954C43628262C2620022D1F8B83061
:1018C00023F03F0343F00103C0F8B830D1F8BC3037
:1018D0008E4923F03F0343F00103C0F8BC3040F2CF
:1018E0000563026105660467C0F880304566446799
:1018F0000224C0F88430036823F00203036081618E
:10190000834B8449C46143F8042B8B42FBD1774A53
:10191000136843F001031360136813F00103FBD154
:101920007A48022140F2F564906140F29940D16119
:1019300040F26641C2F8004242F20144C2F810127D
:101940007549C2F82002C2F8301240F2354173489E
:10195000C2F83442C2F84012714CC2F8500242F24E
:1019600001207049C2F854120121C2F86042C2F845
:1019700064025E48C2F8A030C2F8A430C2F8B010C9
:101980004369DA07FCD5012300244FF4803257491C
:101990004361C0F8A040C0F8A420C0F8B0304B6943
:1019A000DB07FCD5012300244FF400304F4A4B6184
:1019B000C1F8A040C1F8A400C1F8B0305369DF07F6
:1019C000FCD501230024584848495361C2F8A0407F
:1019D000C2F8A400C2F8B0304B69DE07FCD5D1F8DC
:1019E000003145F60D5221209BB24861934265D1EA
:1019F00000244FF4802201233C48C1F8A040C1F8E4
:101A0000A420C1F8B0304369DD07FCD501234FF4B1
:101A100000040021354A4361C0F8A040C0F8A4107A
:101A2000C0F8B0305369DC07FCD501234FF4000443
:101A30004FF480302D495361C2F8A040C2F8A40091
:101A4000C2F8B0304B69D807FCD501234FF400042D
:101A50004FF40030254A4B61C1F8A040C1F8A40002
:101A6000C1F8B0305369D907FCD501234FF4000405
:101A70002D481E495361C2F8A040C2F8A400C2F824
:101A8000B0304B69DA07FCD5D1F8003145F60D527C
:101A900021209BB24861934250D008254FF40004A6
:101AA00022490020224B234A009015705A1A012324
:101AB0002148224400F09CFA03B0F0BD1E4B0022E6
:101AC000C3E90022C3E9022203B0F0BD00801F4039
:101AD000F9B00100F910010000841F40F970010005
:101AE00000C00F40FFFCFF1F000300A000402A4081
:101AF00000802A401200FFFFFF37F70040000080FF
:101B000000FFF07CFF000F8363000200F05AF05AE0
:101B100000422A4000432A409F041830EB06180A6E
:101B20003806180A0632012604000300000000707F
:101B300000000070F62F0020542E00204FF4000407
:101B40004FF4802201230848C1F8A040C1F8A42026
:101B5000C1F8B0304369DB07FCD5012310254FF0F5
:101B6000807443619CE700BF00402A40F0B4154AEE
:101B700040274FF480314FF480564FF400554FF416
:101B8000404443F24200136913F0020F0ED113F4E4
:101B9000005F0FD013F4805F0ED0002BF3DA13F444
:101BA000803F0BD15B060BD5F0BC7047946151614F
:101BB0009061E8E75561E6E75661E4E79161E2E7A5
:101BC0005761E0E700800D403F4A03203F49F3EEB4
:101BD000095AD2F880304FF0000C9FED3D6A23F097
:101BE00001039FED3C5A30B4C2F88030C2F8900037
:101BF000D1F8E010384DCBB2384C39482B6007EEA5
:101C0000903A0B0DC1F30B21F8EEE77A06EE903A0D
:101C100007EE101A334BB8EEC77A2160F8EEE66A89
:101C2000314937EEC66A37EEC55A76EEC76A77EEA7
:101C3000E57A26EE266AC3ED006A25EE265AD2F82A
:101C4000803067EEA64AC0ED007AC6EE275A2748D4
:101C500085EE276AC4EEA76A75EE875AFCEEE55A50
:101C600036EE076A15EE904ABCEEC66A43EA0453A4
:101C700076EE877AC2F8803016EE103AD2F89041AC
:101C8000FCEEE77A01EA0341214317EE903AC2F8ED
:101C90009011C3F30B03D2F890110B431449C2F80F
:101CA0009031D2F8803043F00203C2F88030114BFB
:101CB00080F840C0C1F840314FF0E023012230BC31
:101CC000C3F80821704700BF00810D4000441F4049
:101CD0000000AA420000B442002F0020FC2E002089
:101CE000042F0020082F00200000FF0F00E400E078
:101CF0000020002089630000314B40F6617210B56E
:101D0000C3F8202140F2044400F076F92D4A2E4910
:101D1000D2F880302D4843F00303C2F880302C4BBA
:101D2000C1F8604102681A4203D1D1F8A8319A077C
:101D30001BD0254A4FF00041244B5963D2F8403163
:101D400043F00203C2F84031D2F840319B07FBD484
:101D50004FF400304FF0E0211C4B4FF00042C1F82F
:101D60008C0219209A6300F03BF9184A4FF080402A
:101D7000154C002190630A20164B11604FF420721D
:101D8000C4F8A801184600F023F94FF48002034676
:101D90004FF4810040F243111860C4F858311A64BE
:101DA0000D4B0E4AC4F84811C3F804224FF0E0224C
:101DB0004FF400310123C2F80C11C4F8403110BDBA
:101DC00000800D4000C00F4000002E4000900D40EC
:101DD000001C1E0000000020002000207165000093
:101DE00008B50E4B1B6E9B0700D4FBBE72B60C4BA6
:101DF00000200C4AC3F8400103F160430A49A3F5EF
:101E00005F2311649D46BFF34F8F4FF400130748C3
:101E1000074ADB6902609B68984700BF00441F4087
:101E200000002E4000C00A40030020000080202057
:101E3000000012EB43690A4A03EB011010B4037A65
:101E4000084C02EB0313D3E901321460C2681A6034
:101E500003690BB142691A605DF8044B704700BF1B
:101E6000F408002061F801004369027E03EB0212CE
:101E700092F808C08C451CD01A7AFF2A19D09142DA
:101E800010B5044616D01A7EFF2A06D00121D3E9E8
:101E9000002312681A4201D1217610BD064B05229B
:101EA000204603EB0C135B681A60FFF7C3FF217633
:101EB000F3E770470021EAE7F408002043690A4A83
:101EC00003EB011010B490F82830084C02EB031318
:101ED000D3E901321460C26A1A60036B0BB1426B22
:101EE0001A605DF8044B7047F408002061F80100A7
:101EF0004369427E03EB021292F828C08C451ED043
:101F000093F82820FF2A1AD0914210B5044617D022
:101F100093F83820FF2A06D00121D3E90023126864
:101F20001A4201D1617610BD064B0522204603EB13
:101F30000C135B681A60FFF7C1FF6176F3E7704727
:101F40000021EAE7F4080020164942698B6B23F46C
:101F50007C0343F4802370B58B630446124DD2E9B1
:101F600000130A681A4303690A60022200211A61F9
:101F70000E4A19619A6401225A629D624FF430350B
:101F8000DD624FF001159E6C1E6519629D651A6138
:101F9000017EFFF74FFF617E2046BDE87040FFF7EE
:101FA0008DBF00BF00C00F40B80B05053B37281997
:101FB000F8B500BFF8BC08BC9E46704700000000A2
:101FC0005FF800F0F58200005FF800F0A960000003
:101FD0005FF800F0458200005FF800F0A5580000AF
:101FE0005FF800F0955B00005FF800F0815E000094
:101FF0005FF800F05D7600005FF800F0E16C000033
:1020000005010000290100003D2E0000252F0000E1
:042010001536000081
:10201400160355005300420020005300650072006F
:10202400690061006C00000018035400650065003D
:102034006E00730079006400750069006E006F0023
:102044000403090409026200030100C032080B0002
:102054000202020100090400000102020100052439
:1020640000100105240101010424020605240600D0
:10207400010705820310001009040100020A000090
:102084000007050302400000070584024000000920
:1020940004020002FF6AFF000705810240000107F5
:1020A400050102400001000009026200030100C0B2
:1020B40032080B00020202010009040000010202BE
:1020C4000100052400100105240101010424020675
:1020D4000524060001070582031000050904010018
:1020E400020A00000007050302000200070584023B
:1020F4000002000904020002FF6AC700070581020A
:102104000002010705010200020100000A060002A4
:10211400EF0201400100000080C00F4000000003F6
:102124001900000010000000E8841F4001000000B6
:10213400FF000000FF00000000000000000000009D
:102144001800000010000000E4841F40010000009B
:10215400FF000000FF00000000000000000000007D
:102164001F000000A97A000070C00F40000C00009E
:102174001100000011000000E0841F400200000074
:102184002C00000012000000E0841F400100000049
:102194001000000011000000DC841F400200000059
:1021A4002D00000012000000DC841F40010000002C
:1021B4001E0000009D7A000070C00F40C0000000A7
:1021C4001200000013000000D0841F400100000032
:1021D400FF000000FF0000000000000000000000FD
:1021E4001300000013000000CC841F400100000015
:1021F400FF000000FF0000000000000000000000DD
:082204001C000000917A0000AB
:10220C0000000000000000000000000000000000C2
:10221C0000000000000000000000000000000000B2
:10222C00F8B54FF084439D695A6915400DD0254F80
:10223C0001269D6195FAA5F4B4FA84F457F824307C
:10224C0006FA04F49847A543F4D11F4B9D695A69CB
:10225C0015400DD01D4F01269D6195FAA5F4B4FAD9
:10226C0084F457F8243006FA04F49847A543F4D1C3
:10227C00174B9D695A6915400DD0164F01269D616B
:10228C0095FAA5F4B4FA84F457F8243006FA04F459
:10229C009847A543F4D1104B9D695A6915400DD050
:1022AC000E4F01269D6195FAA5F4B4FA84F457F803
:1022BC00243006FA04F49847A543F4D1BFF34F8FAA
:1022CC00F8BD00BF8C1C0020004000420C1D0020FB
:1022DC00008000428C1D002000C000420C1E00201B
:1022EC000548064B1B1AD90F01EBA301491002D06C
:1022FC00034B03B118477047C0220020C0220020B6
:10230C000000000008B5054B1BB105490548AFF3AB
:10231C000080BDE80840FFF7E3BF00BF00000000ED
:10232C00AC2E002000300160044BFF204FF0FF3139
:10233C0000221860C3E90212704700BF88240020F5
:10234C0000207047704700BF38B500F10805D0F881
:10235C00B4300446284698474FF6FD73984201D98D
:10236C00012038BD0346B4F8BA20B4F8B81028469A
:10237C0004F0D6FD94F89030032BF1D8DFE803F08D
:10238C00140E0802B4F8BA301B1AA4F8BA30E7E7F6
:10239C00B4F8B8301B1AA4F8B830E1E7B4F8BA3086
:1023AC001844A4F8BA00DBE7B4F8B8301844A4F821
:1023BC00B800D5E72DE9F047002A4ED004460D466B
:1023CC008F180026DFF89C9000F108084FF6FD7A74
:1023DC0003E00120AF42064420D0236815F8011B0E
:1023EC001B684B4515D1D4F8B4304046984750453E
:1023FC00EFD80346B4F8BA20B4F8B810404604F04D
:10240C008FFD94F89030032BE3D8DFE803F01F180E
:10241C00110A20469847AF420644DED13046BDE84B
:10242C00F087B4F8BA301B1A0120A4F8BA30D1E7FF
:10243C00B4F8B8301B1A0120A4F8B830CAE7B4F8C5
:10244C00BA301844A4F8BA000120C3E7B4F8B83085
:10245C001844A4F8B8000120BCE716463046BDE885
:10246C00F08700BF49010000224BD3F8D820D2E9F5
:10247C000010D3680968006810B41842946801EA27
:10248C0004012ED0137C03F00303D9B943F00803E5
:10249C009908013B11740D2B0BD8DFE803F00D07E5
:1024AC001C070A160D0D160A071C070D5369013B74
:1024BC0053615DF8044B704753695DF8044B01336D
:1024CC005361704743F00403E0E753695DF8044B34
:1024DC00023B5361704753695DF8044B02335361FF
:1024EC007047137C03F003030029D1D043F004039D
:1024FC00CEE700BF60250020224BD3F8C820D2E9DC
:10250C000010D3680968006810B41842946801EA96
:10251C0004012ED0137C03F00303D9B943F0080354
:10252C009908013B11740D2B0BD8DFE803F00D0754
:10253C001C070A160D0D160A071C070D5369013BE3
:10254C0053615DF8044B704753695DF8044B0133DC
:10255C005361704743F00403E0E753695DF8044BA3
:10256C00023B5361704753695DF8044B023353616E
:10257C007047137C03F003030029D1D043F004030C
:10258C00CEE700BF60250020224BD3F8CC20D2E947
:10259C000010D3680968006810B41842946801EA06
:1025AC0004012ED0137C03F00303D9B943F00803C4
:1025BC009908013B11740D2B0BD8DFE803F00D07C4
:1025CC001C070A160D0D160A071C070D5369013B53
:1025DC0053615DF8044B704753695DF8044B01334C
:1025EC005361704743F00403E0E753695DF8044B13
:1025FC00023B5361704753695DF8044B02335361DE
:10260C007047137C03F003030029D1D043F004037B
:10261C00CEE700BF60250020224BD3F8D020D2E9B2
:10262C000010D3680968006810B41842946801EA75
:10263C0004012ED0137C03F00303D9B943F0080333
:10264C009908013B11740D2B0BD8DFE803F00D0733
:10265C001C070A160D0D160A071C070D5369013BC2
:10266C0053615DF8044B704753695DF8044B0133BB
:10267C005361704743F00403E0E753695DF8044B82
:10268C00023B5361704753695DF8044B023353614D
:10269C007047137C03F003030029D1D043F00403EB
:1026AC00CEE700BF60250020224BD3F8D420D2E91E
:1026BC000010D3680968006810B41842946801EAE5
:1026CC0004012ED0137C03F00303D9B943F00803A3
:1026DC009908013B11740D2B0BD8DFE803F00D07A3
:1026EC001C070A160D0D160A071C070D5369013B32
:1026FC0053615DF8044B704753695DF8044B01332B
:10270C005361704743F00403E0E753695DF8044BF1
:10271C00023B5361704753695DF8044B02335361BC
:10272C007047137C03F003030029D1D043F004035A
:10273C00CEE700BF60250020214B1A68D2E90010BB
:10274C00D3680968006810B41842946801EA04015F
:10275C002ED0137C03F00303D9B943F00803990876
:10276C00013B11740D2B0BD8DFE803F00D071C0790
:10277C000A160D0D160A071C070D5369013B536110
:10278C005DF8044B704753695DF8044B013353619A
:10279C00704743F00403E0E753695DF8044B023BD8
:1027AC005361704753695DF8044B023353617047B2
:1027BC00137C03F003030029D1D043F00403CEE7CC
:1027CC0060250020214B5A68D2E90010D3680968B3
:1027DC00006810B41842946801EA04012ED0137CEE
:1027EC0003F00303D9B943F008039908013B1174B2
:1027FC000D2B0BD8DFE803F00D071C070A160D0D87
:10280C00160A071C070D5369013B53615DF8044B15
:10281C00704753695DF8044B01335361704743F0C3
:10282C000403E0E753695DF8044B023B53617047C6
:10283C0053695DF8044B023353617047137C03F00A
:10284C0003030029D1D043F00403CEE76025002018
:10285C00214B9A68D2E90010D3680968006810B45B
:10286C001842946801EA04012ED0137C03F0030390
:10287C00D9B943F008039908013B11740D2B0BD8FF
:10288C00DFE803F00D071C070A160D0D160A071CCE
:10289C00070D5369013B53615DF8044B7047536955
:1028AC005DF8044B01335361704743F00403E0E7D8
:1028BC0053695DF8044B023B5361704753695DF8F3
:1028CC00044B023353617047137C03F0030300295C
:1028DC00D1D043F00403CEE760250020214BDA6809
:1028EC00D2E90010D3680968006810B418429468E3
:1028FC0001EA04012ED0137C03F00303D9B943F091
:10290C0008039908013B11740D2B0BD8DFE803F079
:10291C000D071C070A160D0D160A071C070D536927
:10292C00013B53615DF8044B704753695DF8044BF0
:10293C0001335361704743F00403E0E753695DF8DA
:10294C00044B023B5361704753695DF8044B0233EF
:10295C0053617047137C03F003030029D1D043F07B
:10296C000403CEE760250020214B1A69D2E9001040
:10297C00D3680968006810B41842946801EA04012D
:10298C002ED0137C03F00303D9B943F00803990844
:10299C00013B11740D2B0BD8DFE803F00D071C075E
:1029AC000A160D0D160A071C070D5369013B5361DE
:1029BC005DF8044B704753695DF8044B0133536168
:1029CC00704743F00403E0E753695DF8044B023BA6
:1029DC005361704753695DF8044B02335361704780
:1029EC00137C03F003030029D1D043F00403CEE79A
:1029FC0060250020214B5A69D2E90010D368096880
:102A0C00006810B41842946801EA04012ED0137CBB
:102A1C0003F00303D9B943F008039908013B11747F
:102A2C000D2B0BD8DFE803F00D071C070A160D0D54
:102A3C00160A071C070D5369013B53615DF8044BE3
:102A4C00704753695DF8044B01335361704743F091
:102A5C000403E0E753695DF8044B023B5361704794
:102A6C0053695DF8044B023353617047137C03F0D8
:102A7C0003030029D1D043F00403CEE760250020E6
:102A8C00214B9A69D2E90010D3680968006810B428
:102A9C001842946801EA04012ED0137C03F003035E
:102AAC00D9B943F008039908013B11740D2B0BD8CD
:102ABC00DFE803F00D071C070A160D0D160A071C9C
:102ACC00070D5369013B53615DF8044B7047536923
:102ADC005DF8044B01335361704743F00403E0E7A6
:102AEC0053695DF8044B023B5361704753695DF8C1
:102AFC00044B023353617047137C03F0030300292A
:102B0C00D1D043F00403CEE760250020214BDA69D5
:102B1C00D2E90010D3680968006810B418429468B0
:102B2C0001EA04012ED0137C03F00303D9B943F05E
:102B3C0008039908013B11740D2B0BD8DFE803F047
:102B4C000D071C070A160D0D160A071C070D5369F5
:102B5C00013B53615DF8044B704753695DF8044BBE
:102B6C0001335361704743F00403E0E753695DF8A8
:102B7C00044B023B5361704753695DF8044B0233BD
:102B8C0053617047137C03F003030029D1D043F049
:102B9C000403CEE760250020214B1A6AD2E900100D
:102BAC00D3680968006810B41842946801EA0401FB
:102BBC002ED0137C03F00303D9B943F00803990812
:102BCC00013B11740D2B0BD8DFE803F00D071C072C
:102BDC000A160D0D160A071C070D5369013B5361AC
:102BEC005DF8044B704753695DF8044B0133536136
:102BFC00704743F00403E0E753695DF8044B023B74
:102C0C005361704753695DF8044B0233536170474D
:102C1C00137C03F003030029D1D043F00403CEE767
:102C2C0060250020214B5A6AD2E90010D36809684C
:102C3C00006810B41842946801EA04012ED0137C89
:102C4C0003F00303D9B943F008039908013B11744D
:102C5C000D2B0BD8DFE803F00D071C070A160D0D22
:102C6C00160A071C070D5369013B53615DF8044BB1
:102C7C00704753695DF8044B01335361704743F05F
:102C8C000403E0E753695DF8044B023B5361704762
:102C9C0053695DF8044B023353617047137C03F0A6
:102CAC0003030029D1D043F00403CEE760250020B4
:102CBC00214B9A6AD2E90010D3680968006810B4F5
:102CCC001842946801EA04012ED0137C03F003032C
:102CDC00D9B943F008039908013B11740D2B0BD89B
:102CEC00DFE803F00D071C070A160D0D160A071C6A
:102CFC00070D5369013B53615DF8044B70475369F1
:102D0C005DF8044B01335361704743F00403E0E773
:102D1C0053695DF8044B023B5361704753695DF88E
:102D2C00044B023353617047137C03F003030029F7
:102D3C00D1D043F00403CEE760250020214BDA6AA2
:102D4C00D2E90010D3680968006810B4184294687E
:102D5C0001EA04012ED0137C03F00303D9B943F02C
:102D6C0008039908013B11740D2B0BD8DFE803F015
:102D7C000D071C070A160D0D160A071C070D5369C3
:102D8C00013B53615DF8044B704753695DF8044B8C
:102D9C0001335361704743F00403E0E753695DF876
:102DAC00044B023B5361704753695DF8044B02338B
:102DBC0053617047137C03F003030029D1D043F017
:102DCC000403CEE760250020214B1A6BD2E90010DA
:102DDC00D3680968006810B41842946801EA0401C9
:102DEC002ED0137C03F00303D9B943F008039908E0
:102DFC00013B11740D2B0BD8DFE803F00D071C07FA
:102E0C000A160D0D160A071C070D5369013B536179
:102E1C005DF8044B704753695DF8044B0133536103
:102E2C00704743F00403E0E753695DF8044B023B41
:102E3C005361704753695DF8044B0233536170471B
:102E4C00137C03F003030029D1D043F00403CEE735
:102E5C0060250020214B5A6BD2E90010D368096819
:102E6C00006810B41842946801EA04012ED0137C57
:102E7C0003F00303D9B943F008039908013B11741B
:102E8C000D2B0BD8DFE803F00D071C070A160D0DF0
:102E9C00160A071C070D5369013B53615DF8044B7F
:102EAC00704753695DF8044B01335361704743F02D
:102EBC000403E0E753695DF8044B023B5361704730
:102ECC0053695DF8044B023353617047137C03F074
:102EDC0003030029D1D043F00403CEE76025002082
:102EEC00214B9A6BD2E90010D3680968006810B4C2
:102EFC001842946801EA04012ED0137C03F00303FA
:102F0C00D9B943F008039908013B11740D2B0BD868
:102F1C00DFE803F00D071C070A160D0D160A071C37
:102F2C00070D5369013B53615DF8044B70475369BE
:102F3C005DF8044B01335361704743F00403E0E741
:102F4C0053695DF8044B023B5361704753695DF85C
:102F5C00044B023353617047137C03F003030029C5
:102F6C00D1D043F00403CEE760250020214BDA6B6F
:102F7C00D2E90010D3680968006810B4184294684C
:102F8C0001EA04012ED0137C03F00303D9B943F0FA
:102F9C0008039908013B11740D2B0BD8DFE803F0E3
:102FAC000D071C070A160D0D160A071C070D536991
:102FBC00013B53615DF8044B704753695DF8044B5A
:102FCC0001335361704743F00403E0E753695DF844
:102FDC00044B023B5361704753695DF8044B023359
:102FEC0053617047137C03F003030029D1D043F0E5
:102FFC000403CEE760250020214B1A6CD2E90010A7
:10300C00D3680968006810B41842946801EA040196
:10301C002ED0137C03F00303D9B943F008039908AD
:10302C00013B11740D2B0BD8DFE803F00D071C07C7
:10303C000A160D0D160A071C070D5369013B536147
:10304C005DF8044B704753695DF8044B01335361D1
:10305C00704743F00403E0E753695DF8044B023B0F
:10306C005361704753695DF8044B023353617047E9
:10307C00137C03F003030029D1D043F00403CEE703
:10308C0060250020214B5A6CD2E90010D3680968E6
:10309C00006810B41842946801EA04012ED0137C25
:1030AC0003F00303D9B943F008039908013B1174E9
:1030BC000D2B0BD8DFE803F00D071C070A160D0DBE
:1030CC00160A071C070D5369013B53615DF8044B4D
:1030DC00704753695DF8044B01335361704743F0FB
:1030EC000403E0E753695DF8044B023B53617047FE
:1030FC0053695DF8044B023353617047137C03F042
:10310C0003030029D1D043F00403CEE7602500204F
:10311C00214B9A6CD2E90010D3680968006810B48E
:10312C001842946801EA04012ED0137C03F00303C7
:10313C00D9B943F008039908013B11740D2B0BD836
:10314C00DFE803F00D071C070A160D0D160A071C05
:10315C00070D5369013B53615DF8044B704753698C
:10316C005DF8044B01335361704743F00403E0E70F
:10317C0053695DF8044B023B5361704753695DF82A
:10318C00044B023353617047137C03F00303002993
:10319C00D1D043F00403CEE760250020214BDA6C3C
:1031AC00D2E90010D3680968006810B4184294681A
:1031BC0001EA04012ED0137C03F00303D9B943F0C8
:1031CC0008039908013B11740D2B0BD8DFE803F0B1
:1031DC000D071C070A160D0D160A071C070D53695F
:1031EC00013B53615DF8044B704753695DF8044B28
:1031FC0001335361704743F00403E0E753695DF812
:10320C00044B023B5361704753695DF8044B023326
:10321C0053617047137C03F003030029D1D043F0B2
:10322C000403CEE760250020214B1A6DD2E9001073
:10323C00D3680968006810B41842946801EA040164
:10324C002ED0137C03F00303D9B943F0080399087B
:10325C00013B11740D2B0BD8DFE803F00D071C0795
:10326C000A160D0D160A071C070D5369013B536115
:10327C005DF8044B704753695DF8044B013353619F
:10328C00704743F00403E0E753695DF8044B023BDD
:10329C005361704753695DF8044B023353617047B7
:1032AC00137C03F003030029D1D043F00403CEE7D1
:1032BC0060250020214B5A6DD2E90010D3680968B3
:1032CC00006810B41842946801EA04012ED0137CF3
:1032DC0003F00303D9B943F008039908013B1174B7
:1032EC000D2B0BD8DFE803F00D071C070A160D0D8C
:1032FC00160A071C070D5369013B53615DF8044B1B
:10330C00704753695DF8044B01335361704743F0C8
:10331C000403E0E753695DF8044B023B53617047CB
:10332C0053695DF8044B023353617047137C03F00F
:10333C0003030029D1D043F00403CEE7602500201D
:10334C00214B9A6DD2E90010D3680968006810B45B
:10335C001842946801EA04012ED0137C03F0030395
:10336C00D9B943F008039908013B11740D2B0BD804
:10337C00DFE803F00D071C070A160D0D160A071CD3
:10338C00070D5369013B53615DF8044B704753695A
:10339C005DF8044B01335361704743F00403E0E7DD
:1033AC0053695DF8044B023B5361704753695DF8F8
:1033BC00044B023353617047137C03F00303002961
:1033CC00D1D043F00403CEE760250020214BDA6D09
:1033DC00D2E90010D3680968006810B418429468E8
:1033EC0001EA04012ED0137C03F00303D9B943F096
:1033FC0008039908013B11740D2B0BD8DFE803F07F
:10340C000D071C070A160D0D160A071C070D53692C
:10341C00013B53615DF8044B704753695DF8044BF5
:10342C0001335361704743F00403E0E753695DF8DF
:10343C00044B023B5361704753695DF8044B0233F4
:10344C0053617047137C03F003030029D1D043F080
:10345C000403CEE760250020214B1A6ED2E9001040
:10346C00D3680968006810B41842946801EA040132
:10347C002ED0137C03F00303D9B943F00803990849
:10348C00013B11740D2B0BD8DFE803F00D071C0763
:10349C000A160D0D160A071C070D5369013B5361E3
:1034AC005DF8044B704753695DF8044B013353616D
:1034BC00704743F00403E0E753695DF8044B023BAB
:1034CC005361704753695DF8044B02335361704785
:1034DC00137C03F003030029D1D043F00403CEE79F
:1034EC0060250020214B5A6ED2E90010D368096880
:1034FC00006810B41842946801EA04012ED0137CC1
:10350C0003F00303D9B943F008039908013B117484
:10351C000D2B0BD8DFE803F00D071C070A160D0D59
:10352C00160A071C070D5369013B53615DF8044BE8
:10353C00704753695DF8044B01335361704743F096
:10354C000403E0E753695DF8044B023B5361704799
:10355C0053695DF8044B023353617047137C03F0DD
:10356C0003030029D1D043F00403CEE760250020EB
:10357C00214B9A6ED2E90010D3680968006810B428
:10358C001842946801EA04012ED0137C03F0030363
:10359C00D9B943F008039908013B11740D2B0BD8D2
:1035AC00DFE803F00D071C070A160D0D160A071CA1
:1035BC00070D5369013B53615DF8044B7047536928
:1035CC005DF8044B01335361704743F00403E0E7AB
:1035DC0053695DF8044B023B5361704753695DF8C6
:1035EC00044B023353617047137C03F0030300292F
:1035FC00D1D043F00403CEE760250020214BDA6ED6
:10360C00D2E90010D3680968006810B418429468B5
:10361C0001EA04012ED0137C03F00303D9B943F063
:10362C0008039908013B11740D2B0BD8DFE803F04C
:10363C000D071C070A160D0D160A071C070D5369FA
:10364C00013B53615DF8044B704753695DF8044BC3
:10365C0001335361704743F00403E0E753695DF8AD
:10366C00044B023B5361704753695DF8044B0233C2
:10367C0053617047137C03F003030029D1D043F04E
:10368C000403CEE760250020214B1A6FD2E900100D
:10369C00D3680968006810B41842946801EA040100
:1036AC002ED0137C03F00303D9B943F00803990817
:1036BC00013B11740D2B0BD8DFE803F00D071C0731
:1036CC000A160D0D160A071C070D5369013B5361B1
:1036DC005DF8044B704753695DF8044B013353613B
:1036EC00704743F00403E0E753695DF8044B023B79
:1036FC005361704753695DF8044B02335361704753
:10370C00137C03F003030029D1D043F00403CEE76C
:10371C0060250020214B5A6FD2E90010D36809684C
:10372C00006810B41842946801EA04012ED0137C8E
:10373C0003F00303D9B943F008039908013B117452
:10374C000D2B0BD8DFE803F00D071C070A160D0D27
:10375C00160A071C070D5369013B53615DF8044BB6
:10376C00704753695DF8044B01335361704743F064
:10377C000403E0E753695DF8044B023B5361704767
:10378C0053695DF8044B023353617047137C03F0AB
:10379C0003030029D1D043F00403CEE760250020B9
:1037AC00214B9A6FD2E90010D3680968006810B4F5
:1037BC001842946801EA04012ED0137C03F0030331
:1037CC00D9B943F008039908013B11740D2B0BD8A0
:1037DC00DFE803F00D071C070A160D0D160A071C6F
:1037EC00070D5369013B53615DF8044B70475369F6
:1037FC005DF8044B01335361704743F00403E0E779
:10380C0053695DF8044B023B5361704753695DF893
:10381C00044B023353617047137C03F003030029FC
:10382C00D1D043F00403CEE760250020214BDA6FA2
:10383C00D2E90010D3680968006810B41842946883
:10384C0001EA04012ED0137C03F00303D9B943F031
:10385C0008039908013B11740D2B0BD8DFE803F01A
:10386C000D071C070A160D0D160A071C070D5369C8
:10387C00013B53615DF8044B704753695DF8044B91
:10388C0001335361704743F00403E0E753695DF87B
:10389C00044B023B5361704753695DF8044B023390
:1038AC0053617047137C03F003030029D1D043F01C
:1038BC000403CEE760250020224BD3F88020D2E908
:1038CC000010D3680968006810B41842946801EAC3
:1038DC0004012ED0137C03F00303D9B943F0080381
:1038EC009908013B11740D2B0BD8DFE803F00D0781
:1038FC001C070A160D0D160A071C070D5369013B10
:10390C0053615DF8044B704753695DF8044B013308
:10391C005361704743F00403E0E753695DF8044BCF
:10392C00023B5361704753695DF8044B023353619A
:10393C007047137C03F003030029D1D043F0040338
:10394C00CEE700BF60250020224BD3F88420D2E9BB
:10395C000010D3680968006810B41842946801EA32
:10396C0004012ED0137C03F00303D9B943F00803F0
:10397C009908013B11740D2B0BD8DFE803F00D07F0
:10398C001C070A160D0D160A071C070D5369013B7F
:10399C0053615DF8044B704753695DF8044B013378
:1039AC005361704743F00403E0E753695DF8044B3F
:1039BC00023B5361704753695DF8044B023353610A
:1039CC007047137C03F003030029D1D043F00403A8
:1039DC00CEE700BF60250020224BD3F88820D2E927
:1039EC000010D3680968006810B41842946801EAA2
:1039FC0004012ED0137C03F00303D9B943F0080360
:103A0C009908013B11740D2B0BD8DFE803F00D075F
:103A1C001C070A160D0D160A071C070D5369013BEE
:103A2C0053615DF8044B704753695DF8044B0133E7
:103A3C005361704743F00403E0E753695DF8044BAE
:103A4C00023B5361704753695DF8044B0233536179
:103A5C007047137C03F003030029D1D043F0040317
:103A6C00CEE700BF60250020224BD3F88C20D2E992
:103A7C000010D3680968006810B41842946801EA11
:103A8C0004012ED0137C03F00303D9B943F00803CF
:103A9C009908013B11740D2B0BD8DFE803F00D07CF
:103AAC001C070A160D0D160A071C070D5369013B5E
:103ABC0053615DF8044B704753695DF8044B013357
:103ACC005361704743F00403E0E753695DF8044B1E
:103ADC00023B5361704753695DF8044B02335361E9
:103AEC007047137C03F003030029D1D043F0040387
:103AFC00CEE700BF60250020224BD3F89020D2E9FE
:103B0C000010D3680968006810B41842946801EA80
:103B1C0004012ED0137C03F00303D9B943F008033E
:103B2C009908013B11740D2B0BD8DFE803F00D073E
:103B3C001C070A160D0D160A071C070D5369013BCD
:103B4C0053615DF8044B704753695DF8044B0133C6
:103B5C005361704743F00403E0E753695DF8044B8D
:103B6C00023B5361704753695DF8044B0233536158
:103B7C007047137C03F003030029D1D043F00403F6
:103B8C00CEE700BF60250020224BD3F89420D2E969
:103B9C000010D3680968006810B41842946801EAF0
:103BAC0004012ED0137C03F00303D9B943F00803AE
:103BBC009908013B11740D2B0BD8DFE803F00D07AE
:103BCC001C070A160D0D160A071C070D5369013B3D
:103BDC0053615DF8044B704753695DF8044B013336
:103BEC005361704743F00403E0E753695DF8044BFD
:103BFC00023B5361704753695DF8044B02335361C8
:103C0C007047137C03F003030029D1D043F0040365
:103C1C00CEE700BF60250020224BD3F89820D2E9D4
:103C2C000010D3680968006810B41842946801EA5F
:103C3C0004012ED0137C03F00303D9B943F008031D
:103C4C009908013B11740D2B0BD8DFE803F00D071D
:103C5C001C070A160D0D160A071C070D5369013BAC
:103C6C0053615DF8044B704753695DF8044B0133A5
:103C7C005361704743F00403E0E753695DF8044B6C
:103C8C00023B5361704753695DF8044B0233536137
:103C9C007047137C03F003030029D1D043F00403D5
:103CAC00CEE700BF60250020224BD3F89C20D2E940
:103CBC000010D3680968006810B41842946801EACF
:103CCC0004012ED0137C03F00303D9B943F008038D
:103CDC009908013B11740D2B0BD8DFE803F00D078D
:103CEC001C070A160D0D160A071C070D5369013B1C
:103CFC0053615DF8044B704753695DF8044B013315
:103D0C005361704743F00403E0E753695DF8044BDB
:103D1C00023B5361704753695DF8044B02335361A6
:103D2C007047137C03F003030029D1D043F0040344
:103D3C00CEE700BF60250020224BD3F8A020D2E9AB
:103D4C000010D3680968006810B41842946801EA3E
:103D5C0004012ED0137C03F00303D9B943F00803FC
:103D6C009908013B11740D2B0BD8DFE803F00D07FC
:103D7C001C070A160D0D160A071C070D5369013B8B
:103D8C0053615DF8044B704753695DF8044B013384
:103D9C005361704743F00403E0E753695DF8044B4B
:103DAC00023B5361704753695DF8044B0233536116
:103DBC007047137C03F003030029D1D043F00403B4
:103DCC00CEE700BF60250020224BD3F8A420D2E917
:103DDC000010D3680968006810B41842946801EAAE
:103DEC0004012ED0137C03F00303D9B943F008036C
:103DFC009908013B11740D2B0BD8DFE803F00D076C
:103E0C001C070A160D0D160A071C070D5369013BFA
:103E1C0053615DF8044B704753695DF8044B0133F3
:103E2C005361704743F00403E0E753695DF8044BBA
:103E3C00023B5361704753695DF8044B0233536185
:103E4C007047137C03F003030029D1D043F0040323
:103E5C00CEE700BF60250020224BD3F8A820D2E982
:103E6C000010D3680968006810B41842946801EA1D
:103E7C0004012ED0137C03F00303D9B943F00803DB
:103E8C009908013B11740D2B0BD8DFE803F00D07DB
:103E9C001C070A160D0D160A071C070D5369013B6A
:103EAC0053615DF8044B704753695DF8044B013363
:103EBC005361704743F00403E0E753695DF8044B2A
:103ECC00023B5361704753695DF8044B02335361F5
:103EDC007047137C03F003030029D1D043F0040393
:103EEC00CEE700BF60250020224BD3F8AC20D2E9EE
:103EFC000010D3680968006810B41842946801EA8D
:103F0C0004012ED0137C03F00303D9B943F008034A
:103F1C009908013B11740D2B0BD8DFE803F00D074A
:103F2C001C070A160D0D160A071C070D5369013BD9
:103F3C0053615DF8044B704753695DF8044B0133D2
:103F4C005361704743F00403E0E753695DF8044B99
:103F5C00023B5361704753695DF8044B0233536164
:103F6C007047137C03F003030029D1D043F0040302
:103F7C00CEE700BF60250020224BD3F8B020D2E959
:103F8C000010D3680968006810B41842946801EAFC
:103F9C0004012ED0137C03F00303D9B943F00803BA
:103FAC009908013B11740D2B0BD8DFE803F00D07BA
:103FBC001C070A160D0D160A071C070D5369013B49
:103FCC0053615DF8044B704753695DF8044B013342
:103FDC005361704743F00403E0E753695DF8044B09
:103FEC00023B5361704753695DF8044B02335361D4
:103FFC007047137C03F003030029D1D043F0040372
:10400C00CEE700BF60250020224BD3F8B420D2E9C4
:10401C000010D3680968006810B41842946801EA6B
:10402C0004012ED0137C03F00303D9B943F0080329
:10403C009908013B11740D2B0BD8DFE803F00D0729
:10404C001C070A160D0D160A071C070D5369013BB8
:10405C0053615DF8044B704753695DF8044B0133B1
:10406C005361704743F00403E0E753695DF8044B78
:10407C00023B5361704753695DF8044B0233536143
:10408C007047137C03F003030029D1D043F00403E1
:10409C00CEE700BF60250020224BD3F8B820D2E930
:1040AC000010D3680968006810B41842946801EADB
:1040BC0004012ED0137C03F00303D9B943F0080399
:1040CC009908013B11740D2B0BD8DFE803F00D0799
:1040DC001C070A160D0D160A071C070D5369013B28
:1040EC0053615DF8044B704753695DF8044B013321
:1040FC005361704743F00403E0E753695DF8044BE8
:10410C00023B5361704753695DF8044B02335361B2
:10411C007047137C03F003030029D1D043F0040350
:10412C00CEE700BF60250020224BD3F8BC20D2E99B
:10413C000010D3680968006810B41842946801EA4A
:10414C0004012ED0137C03F00303D9B943F0080308
:10415C009908013B11740D2B0BD8DFE803F00D0708
:10416C001C070A160D0D160A071C070D5369013B97
:10417C0053615DF8044B704753695DF8044B013390
:10418C005361704743F00403E0E753695DF8044B57
:10419C00023B5361704753695DF8044B0233536122
:1041AC007047137C03F003030029D1D043F00403C0
:1041BC00CEE700BF60250020224BD3F8C020D2E907
:1041CC000010D3680968006810B41842946801EABA
:1041DC0004012ED0137C03F00303D9B943F0080378
:1041EC009908013B11740D2B0BD8DFE803F00D0778
:1041FC001C070A160D0D160A071C070D5369013B07
:10420C0053615DF8044B704753695DF8044B0133FF
:10421C005361704743F00403E0E753695DF8044BC6
:10422C00023B5361704753695DF8044B0233536191
:10423C007047137C03F003030029D1D043F004032F
:10424C00CEE700BF60250020224BD3F8C420D2E972
:10425C000010D3680968006810B41842946801EA29
:10426C0004012ED0137C03F00303D9B943F00803E7
:10427C009908013B11740D2B0BD8DFE803F00D07E7
:10428C001C070A160D0D160A071C070D5369013B76
:10429C0053615DF8044B704753695DF8044B01336F
:1042AC005361704743F00403E0E753695DF8044B36
:1042BC00023B5361704753695DF8044B0233536101
:1042CC007047137C03F003030029D1D043F004039F
:1042DC00CEE700BF602500200B4610B5362800F253
:1042EC009782DFE810F08C0282027902700267027A
:1042FC005E0255024C0243023A02310228021F02AE
:10430C00BF01B601AD01A4019B019201890180019D
:10431C0077016E0165015C0153014A0141013801CD
:10432C002F0126011D0113010901FF00F500EB000F
:10433C00E100D700CD00C300B900AF00A5009B0081
:10434C00910087007D00730069005F0055004B00F1
:10435C0041003700C84C0422C8493620C4F8D83074
:10436C0003F00CFE012010BDC34C0422C4493520BF
:10437C00C4F8D43003F002FE012010BDBE4C042260
:10438C00C0493420C4F8D03003F0F8FD012010BD32
:10439C00B94C0422BC493320C4F8CC3003F0EEFDF8
:1043AC00012010BDB44C0422B8493220C4F8C830E6
:1043BC0003F0E4FD012010BDAF4C0422B4493120C0
:1043CC00C4F8C43003F0DAFD012010BDAA4C04225D
:1043DC00B0493020C4F8C03003F0D0FD012010BD2E
:1043EC00A54C0422AC492F20C4F8BC3003F0C6FD08
:1043FC00012010BDA04C0422A8492E20C4F8B830CE
:10440C0003F0BCFD012010BD9B4C0422A4492D20BF
:10441C00C4F8B43003F0B2FD012010BD964C042258
:10442C00A0492C20C4F8B03003F0A8FD012010BD29
:10443C00914C04229C492B20C4F8AC3003F09EFD17
:10444C00012010BD8C4C042298492A20C4F8A830B5
:10445C0003F094FD012010BD874C042294492920BF
:10446C00C4F8A43003F08AFD012010BD824C042254
:10447C0090492820C4F8A03003F080FD012010BD25
:10448C007D4C04228C492720C4F89C3003F076FD27
:10449C00012010BD784C042288492620C4F898309D
:1044AC0003F06CFD012010BD734C042284492520BF
:1044BC00C4F8943003F062FD012010BD6E4C042250
:1044CC0080492420C4F8903003F058FD012010BD21
:1044DC00694C04227C492320C4F88C3003F04EFD37
:1044EC00012010BD644C042278492220C4F8883085
:1044FC0003F044FD012010BD5F4C042274492120BF
:10450C00C4F8843003F03AFD012010BD5A4C04224B
:10451C0070492020C4F8803003F030FD012010BD1C
:10452C00554C04226C491F20E36703F027FD012042
:10453C0010BD514C042269491E20A36703F01EFDD7
:10454C00012010BD4C4C042265491D20636703F00B
:10455C0015FD012010BD484C042262491C20236724
:10456C0003F00CFD012010BD434C04225E491B20BE
:10457C00E36603F003FD012010BD3F4C04225B49B0
:10458C001A20A36603F0FAFC012010BD3A4C042259
:10459C0057491920636603F0F1FC012010BD364C1D
:1045AC00042254491820236603F0E8FC012010BDB6
:1045BC00314C042250491720E36503F0DFFC012045
:1045CC0010BD2D4C04224D491620A36503F0D6FCDA
:1045DC00012010BD284C042249491520636503F0C5
:1045EC00CDFC012010BD244C042246491420236527
:1045FC0003F0C4FC012010BD1F4C042242491320BF
:10460C00E36403F0BBFC012010BD1B4C04223F49AA
:10461C001220A36403F0B2FC012010BD164C04223E
:10462C003B491120636403F0A9FC012010BD124C1E
:10463C00042238491020236403F0A0FC012010BD93
:10464C000D4C042234490F20E36303F097FC012046
:10465C0010BD094C042231490E20A36303F08EFCDB
:10466C00012010BD044C04222D490D20636303F07E
:10467C0085FC012010BD00BF6025002069020000F0
:10468C00A90400001904000089030000F9020000CD
:10469C0049200000B91F0000291F0000991E0000CE
:1046AC00091E0000791D0000E91C0000591C0000C7
:1046BC00C91B0000391B0000A91A0000191A0000C0
:1046CC0089190000F918000069180000D9170000BA
:1046DC0049170000B91600002D160000A1150000A6
:1046EC001515000089140000FD1300007113000063
:1046FC00E512000059120000CD110000411100001C
:10470C00B5100000291000009D0F0000110F0000D3
:10471C00850E0000F90D00006D0D0000E10C00008D
:10472C00550C00003B4C04223B490C20236303F046
:10473C0025FC012010BD374C042238490B20E362C4
:10474C0003F01CFC012010BD324C042234490A2019
:10475C00A36203F013FC012010BD2E4C042231493E
:10476C000920636203F00AFC012010BD294C0422CD
:10477C002D490820236203F001FC012010BD254CBB
:10478C0004222A490720E36103F0F8FB012010BD45
:10479C00204C042226490620A36103F0EFFB0120E4
:1047AC0010BD1C4C042223490520636103F0E6FB79
:1047BC00012010BD0422174C1F491046236103F041
:1047CC00DDFB012010BD134C04221C490320E360C7
:1047DC0003F0D4FB012010BD0E4C0422184902201A
:1047EC00A36003F0CBFB012010BD04460948042252
:1047FC0014494360012003F0C1FB204610BD054C59
:10480C00042211490020236003F0B8FB012010BDE5
:10481C00002010BD60250020C90B00003D0B0000DE
:10482C00B10A0000250A0000990900000D090000DA
:10483C0081080000F507000069070000DD06000094
:10484C0051060000C5050000390500002DE9F041B6
:10485C000F46164604460221384603F055FB02214A
:10486C00304603F051FB224B3A0122483101DFF86C
:10487C008CC053F8028003EB0712C4F80080D2F806
:10488C000CE003EB061259580023C4F808E0D26878
:10489C006361194BE26045681B686160ACFB033CCB
:1048AC004FF4FA634FEA9C4C03FB0CFC43685B1B14
:1048BC009C45FBD8D8F80030384609681EEA030F2F
:1048CC0014BF012300230A42214618BF43F0020300
:1048DC002374FFF701FD0346214630462376FFF78C
:1048EC00FBFC227E0346204613442376BDE8F08170
:1048FC00F4080020001000E00C13002083DE1B43A2
:10490C0030B50F4C83B0092004F10D0501E014F80B
:10491C00010F022103F0F8FAAC42F8D1094C18202F
:10492C00251D0121019003F0EFFA0198012103F0FC
:10493C00AFFAAC4202D014F8010FF2E703B030BD6D
:10494C006C0400207C04002070B51F4B0C460546FF
:10495C0082B00B211D481E5D04F02AFE00230A22A2
:10496C0029461B4803F002F808211A4804F020FEDF
:10497C0000230A222146164802F0F8FF08211648A7
:10498C0004F016FE00230A223146114802F0EEFF15
:10499C000F4802F0CFFFA6F12503012B0BD9212ED6
:1049AC0009D02B460D4A18210D48CDE9004606F0DA
:1049BC0015FB02B070BD26210A4804F0F9FD04482D
:1049CC0002F0B8FFEDE700BF6C04002014040020D7
:1049DC0010130020200400202C0400206004002070
:1049EC00901E0020380400202DE9F04F344E83B087
:1049FC00344B4FF00008DFF8DC90A6F10D07009364
:104A0C00314B002418209B460193E1B20134B1EBE9
:104A1C00080118BF012103F03BFA052C02D01BF84A
:104A2C00010FF2E7294BD9F8041029481A683223F0
:104A3C00A0FB0202920C03FB02F2D9F804305B1AC1
:104A4C009A42FAD8DDF800A00920DFF88CB005E016
:104A5C00B3450AF8015F17D01BF8010FABEB070148
:104A6C00CCB203F03FFA00280CBF01250025EFD192
:104A7C009AF80130002BEBD121464046FFF764FF3A
:104A8C00B3450AF8015FE7D108F10108009B5FFA12
:104A9C0088F80E33B8F1050F0093B1D1019D1820A1
:104AAC0001212C1D03F0F4F9A54206D015F8010FD5
:104ABC00012103F0EDF9A542F8D103B0BDE8F08F68
:104ACC0079040020632E00207C0400200C130020AD
:104ADC0083DE1B43001000E06C04002038B50D4D44
:104AEC000F2002F057FF04462B68002B05DBC31A7E
:104AFC00002BB8BF5B42052B0BDD0D21064804F0E3
:104B0C0057FD2146054802F009FF044802F012FF48
:104B1C002C6038BD8C1E0020D40300201013002004
:104B2C00B34B2DE9F0411A7E012A40F2988072B6FF
:104B3C005C6962B6AF4B1A7E012A7DD972B65D698B
:104B4C0062B6AD4B1A7E012A62D972B65E6962B644
:104B5C00AA4B1A7E012A47D972B65F6962B6DFF892
:104B6C00C082D8F80030A3420CD01221A44804F023
:104B7C001FFD2146A34802F0D1FEA24802F0DAFE46
:104B8C00C8F80040A04C2368AB420BD012219F48C0
:104B9C0004F00EFD29469B4802F0C0FE994802F035
:104BAC00C9FE25609A4C2368B3420BD01221994858
:104BBC0004F0FEFC3146934802F0B0FE914802F03E
:104BCC00B9FE2660944C2368BB420BD0122193484B
:104BDC0004F0EEFC39468B4802F0A0FE894802F046
:104BEC00A9FE2760BDE8F08172B659681A68126890
:104BFC00086899681140DA68104200F0C7801A7C86
:104C0C0002F0030209B142F0040242F00802C3E0D0
:104C1C0072B61A689968126811405A681068DA6896
:104C2C00104200F087801A7C02F0030209B142F0B6
:104C3C00040242F0080283E072B6D3E900209968BE
:104C4C00126800681140DA68104247D01A7C02F0F2
:104C5C00030209B142F0040242F0080244E072B6C9
:104C6C00D3E90024D3E902101268246811400442ED
:104C7C0008D01A7C02F0030209B142F0040242F09F
:104C8C00080205E01A7C02F0030209B142F00402AA
:104C9C009108013A5C6919740D2A3FF64AAF01A1DB
:104CAC0051F822F0432C00003D2C00005B2C00003E
:104CBC003D2C000033290000552C0000432C000033
:104CCC00432C0000552C0000332900003D2C000023
:104CDC005B2C00003D2C0000432C00001A7C02F0E1
:104CEC00030209B142F004029108013A5D6919749A
:104CFC000D2A3FF625AF01A151F822F0372C000008
:104D0C00312C00004F2C0000312C000041290000F8
:104D1C00492C0000372C0000372C0000492C0000D7
:104D2C0041290000312C00004F2C0000312C0000D8
:104D3C00372C00001A7C02F0030209B142F0040285
:104D4C009108013A5E6919740D2A3FF600AF01A172
:104D5C0051F822F02B2C0000252C0000732C0000A5
:104D6C00252C00004F2900006D2C00002B2C00007E
:104D7C002B2C00006D2C00004F290000252C00006E
:104D8C00732C0000252C00002B2C00001A7C02F048
:104D9C00030209B142F004029108013A5F691974E7
:104DAC000D2A3FF6DBAE01A151F822F0EB2B0000EF
:104DBC00E52B0000672C0000E52B00005D290000AE
:104DCC00612C0000EB2B0000EB2B0000612C000091
:104DDC005D290000E52B0000672C0000E52B00008E
:104DEC00EB2B0000013F5F61B8E601375F61B5E670
:104DFC00C02D0020E02D0020002E0020202E0020B1
:104E0C008403002010130020FC2D002098030020A8
:104E1C001C2E0020AC0300203C2E0020C0030020E0
:104E2C00DC2D0020013E5E6191E601365E618EE66E
:104E3C00013D5D6184E601355D6181E6013C5C61AB
:104E4C0077E601345C6174E6023D5D6178E602351B
:104E5C005D6175E6023C5C616BE602345C6168E6A0
:104E6C00023F5F617AE602375F6177E6023E5E6180
:104E7C006DE602365E616AE670B5334D94B0334C24
:104E8C000A26284601F010FD2846314902F0C8F8E0
:104E9C00304B0C220021284602F0B2F82E4B0C228B
:104EAC002021284602F0ACF823682C4A142123EA6E
:104EBC00E37303A806F092F803AB1E2200212846E8
:104ECC0002F09EF821682846782321EAE17122221B
:104EDC000096C1EB0111CC00042101F071FC2048BB
:104EEC0004F2FF112222009680FB0140CB170144F3
:104EFC002846C3EB61230421DBB201F03BFC194AC9
:104F0C00194B08A811681B68184A0091302106F04B
:104F1C0065F808AB34220021284602F071F81449D8
:104F2C00144B08A809681B68134A0091302106F03D
:104F3C0055F808AB40220021284602F061F82846BB
:104F4C0001F0BEFC14B070BD242F00208C1E00207C
:104F5C00040D0020E4030020901E0020EC03002030
:104F6C0003082080FC2D0020DC2D0020F403002001
:104F7C003C2E00201C2E0020040400202DE9F843B8
:104F8C00214D40F2EE28214C214FDFF894902E68F1
:104F9C0004F08CFB23784BB33B78DB0726D52B68CE
:104FAC00D9F800209B1A0E2B20D90A2002F04AFDBA
:104FBC00FFF7A6FC174802F023FC164801F0DAFCB8
:104FCC000021144802F026FC124801F06DFC124935
:104FDC00104802F025F8114B0C2200210D4802F06C
:104FEC000FF80C48BDE8F84301F06ABC2B68227836
:104FFC009B1B2AB1B3F5FA6FD7D804F057FBC7E760
:10500C004345FAD9D1E700BF142F0020FF2F002011
:10501C00FE2F0020242F0020040D00209C0C0020CB
:10502C00E02F002008B5FFF7DFFCFFF757FDFFF777
:10503C0077FDBDE80840FFF71FBF00BF10B5062283
:10504C0005211848FFF702FC1B221A211648FFF70E
:10505C00FDFB1E221D211548154CFFF7F7FB2022E6
:10506C001F211448FFF7F2FB0023134904F1080039
:10507C00124AC4E90013C4E92D2302F0B9F910490E
:10508C0004F108000F4B21600F4A104901F082FC1B
:10509C0004F1080012231322FF21BDE8104001F097
:1050AC001FBB00BFC02D0020E02D0020002E0020D3
:1050BC001C2F0020202E0020CC040020E1510000E9
:1050CC00B404002091430000F1440000F80C0020CF
:1050DC00704700BF704700BF704700BF0430704777
:1050EC000730704704307047063070470430704703
:1050FC000530704710B50446082103F063F82046CC
:10510C0010BD00BF10B50446082103F05BF8204623
:10511C0010BD00BF10B50446082103F053F820461B
:10512C0010BD00BF2DE9F8433F4840F204793F4CD5
:10513C003F4E404D22463146A0F80490056004F0E5
:10514C00CFFB3D484FF60433224631460560838041
:10515C0004F0C6FB39484FF6F83322463146056059
:10516C00838004F0BDFB364840F20373224631467F
:10517C000560838004F0B4FB32484FF603332246BB
:10518C0031460560838004F0ABFB2F484FF6F733B4
:10519C00224631460560838004F0A2FB2B4840F286
:1051AC000363224631460560838004F099FB28484E
:1051BC0040F60303224631460560838004F090FBE1
:1051CC00DFF8B08023480A23234F22464146A0F83B
:1051DC0004900760837104F083FB20480B23224664
:1051EC004146A0F804900760837104F079FB1C48D9
:1051FC001C4B22461C490360F423037104F070FB22
:10520C001A483146224605604EF6F405858004F0B6
:10521C0067FB1748DC232246414607608580837173
:10522C00BDE8F84304F05CBB48250020E8160020DC
:10523C00D52E0000DC050020202500203025002084
:10524C00502500202825002038250020102500207E
:10525C005825002040250020F405002018250020AA
:10526C0000250020C4050020D92E0000F8240020C1
:10527C0008250020D12E000001210D2008B502F0D8
:10528C0043FE01210D2002F003FE322002F082FDCC
:10529C0000210D2002F0FCFD322002F07BFD0121EB
:1052AC000D2002F0F5FD322002F074FD00210D20DE
:1052BC0002F0EEFD40F2523002F06CFDE1E700BF6F
:1052CC00704700BF704700BF704700BF704700BFFA
:1052DC0082B0836AADF8041013B1019802B018477C
:1052EC0002B070472DE9F04385B0446A6B4683E801
:1052FC0006001CB193E80300A04740BBDFF86090A8
:10530C00009ED9F800409DF80550BDF80470F4B12A
:10531C000DF1080801E06468CCB1237B0296AB4226
:10532C00ADF80C70F7D12368204698E806005B694D
:10533C0098470028EFD0A3684BB19968626849B1CF
:10534C004C60C3E90124C4E9013132B1936005B06A
:10535C00BDE8F083C9F80040F3E7C9F80430F6E77C
:10536C00E8240020034B10B50446036001F098F8C4
:10537C00204610BD40050020054B10B504460360C7
:10538C0001F08EF80821204602F01CFF204610BDCB
:10539C0040050020043000F04FBA00BF38B5244B54
:1053AC000025244C4FF47A7203F108012C3365600C
:1053BC002160A360E560C4E9042502F03FFD226989
:1053CC0044F21A13E561801AC4E9050302F036FDB4
:1053DC00194BA26904F15401E362801A236503F1AD
:1053EC00340204F15C03E0610120A366134B626399
:1053FC00186004F1380004F13003E166A5622563FE
:10540C00A563A4F84C506565A4F870500C49C4E928
:10541C001625C4E91103C4E908552046094AC4E914
:10542C000F55C4E91855BDE8384004F059BA00BF0F
:10543C004C0500203C2600200C060020982400205F
:10544C0049320000E81600200E4B10B503F108029B
:10545C0004462C3350302260A36000F075FF04F139
:10546C002C0000F071FF084A2046084B226040F8DF
:10547C00083F01F015F8064B2046236000F0AAFE09
:10548C00204610BD4C0500208C0500204005002056
:10549C001C05002038B5104B05460446483003F176
:1054AC0008022C3340F8502C45F8083900F04CFF1A
:1054BC0004F1240000F048FF084A094B204644F848
:1054CC00082C236000F0ECFF064B284644F8083CFF
:1054DC0000F080FE284638BD4C0500208C050020CD
:1054EC00400500201C050020104B10B503F10802EC
:1054FC0004462C3350302260A36000F025FF04F1E9
:10550C002C0000F021FF0A4A20460A4B226040F88A
:10551C00083F00F0C5FF084B2046236000F05AFE00
:10552C002046742102F04EFE204610BD4C05002092
:10553C008C050020400500201C05002038B5124BBE
:10554C000446A0F1080503F108022C3340F8082C9E
:10555C0040F8483B00F0F8FE04F1240000F0F4FEA3
:10556C000A4A0B4B204644F8082C236000F098FFA5
:10557C00084B284644F8083C00F02CFE28467421C1
:10558C0002F020FE284638BD4C0500208C0500207A
:10559C00400500201C0500200A460B462DE9F04171
:1055AC00C2F3074286B0046AC1F307208DF81320BA
:1055BC000A0E8DF8120003F0F0039DF811008DF81F
:1055CC001420CAB2019162F303008DF810308DF8EB
:1055DC00110024B10846A04760B99DF81030B02BDB
:1055EC000BD003F0EF02802A47D0D02B00F0A28022
:1055FC00C02B6DD006B0BDE8F0819DF81230792B30
:10560C0000F0C3807B2B00F0E680DFF8F481D8F843
:10561C000040002CEED004AE784F03AD2368314629
:10562C0020469B699847236802462946DB69201D62
:10563C00ADF80C20BB4279D100F0FEF803462046B1
:10564C002A463146002B6CD023685B6998470028AA
:10565C0067D02369002BCDD01969E268002900F0CE
:10566C00B780CC60C3E90324C4E90331002A00F0FD
:10567C00AC80136106B0BDE8F081DFF89081D8F8FA
:10568C000040002CB6D004AE5C4F03AD0EE000F031
:10569C00D3F8034620462A46314623B123685B697A
:1056AC0098470028D5D1E468002CA3D02368314654
:1056BC0020469B699847236802462946DB69201DD2
:1056CC00ADF80C20BB42E2D0204698470346E1E7F8
:1056DC00DFF83C81D8F80040002C8BD004AE474F4B
:1056EC0003AD0FE0201D00F0A7F82A4630B1236867
:1056FC00204631465B6998470028AAD1E468002C03
:10570C003FF478AF2368314620469B69984723685D
:10571C002946ADF80C00DB69BB42E3D02046984724
:10572C00E3E7E468002C7FF479AF63E72046984701
:10573C00034684E7DFF8D080D8F80040002C3FF413
:10574C0059AF04AE2D4F03AD10E0201D00F074F8DE
:10575C002A4638B12368204631465B6998470028B1
:10576C007FF477AFE468002C3FF444AF23683146F4
:10577C0020469B69984723682946ADF80C00DB69E5
:10578C00BB42E2D020469847E2E71D4B1C6854B15F
:10579C001C4D01E0E46834B12368DB68AB42F9D0FE
:1057AC0020469847F6E7184B1C68002C3FF422AFB4
:1057BC00144D03E0E468002C3FF41CAF2368DB6855
:1057CC00AB42F7D020469847F4E7C8F8043011E70D
:1057DC00C8F8004046E70D4B1C68002C3FF40AAF9C
:1057EC00084D03E0E468002C3FF404AF2368DB6849
:1057FC00AB42F7D020469847F4E700BF9531000044
:10580C00D0240020CD300000F0240020E024002023
:10581C00D824002008B5054B1B68DB0703D5044BC7
:10582C00044A1A6008BDFFF7B9FDF8E79824002078
:10583C00CC2400203C2600200B78024613F00100FB
:10584C0011D092F800C01CF001000CD083EA0C03BC
:10585C0013F0FE0F06D148785378C01AB0FA80F0D6
:10586C004009704700207047006910B103689B69BC
:10587C0018477047406910B103689B681847704718
:10588C00C06810B103689B681847704701F0070C9B
:10589C00012310B503FA0CF34FEAD10C62B10F29B6
:1058AC00DBB21CD884449CF820E043EA0E038CF84D
:1058BC002030006970B910BD0F296FEA03030ED8B0
:1058CC0084449CF820E00EEA03038CF82030006935
:1058DC000028F0D00368BDE810405B691847FFF75B
:1058EC00CBFC00BF10B5006986B00191002839D0FF
:1058FC000368234A9B68934238D19DF804E09DF8D5
:10590C0005C09DF806109DF8072000698DF808E089
:10591C008DF809C08DF80A108DF80B2010B30468AF
:10592C00A4689C4220D100698DF80CE08DF80DC064
:10593C008DF80E108DF80F20A0B103689B68A34260
:10594C0018D100698DF810E08DF811C08DF8121087
:10595C008DF8132030B10268049992689A420BD1E9
:10596C00FFF7C0FF06B010BD0299234606B0BDE894
:10597C00104018470399F9E706B0BDE810401047EE
:10598C008537000010B500698CB001910391002897
:10599C003AD00468214AA468944238D100690B4675
:1059AC000491002830D00468A46894422FD1006977
:1059BC00059148B30468A468944228D10069069103
:1059CC0010B30468A468944221D100690791D8B13E
:1059DC0001688C68944219D100690893A0B10168E0
:1059EC008C68944218D10069099368B101688C687D
:1059FC00944211D100690A9330B101688C68194640
:105A0C00944204D1FFF76EFF0CB010BD07992346EA
:105A1C000CB0BDE8104018471946F8E78537000070
:105A2C0010B500698CB001910291002842D0046835
:105A3C00254AA468944240D100690B460391002882
:105A4C0038D00468A468944237D1006904910028C6
:105A5C0030D00468A46894422FD10069059148B3F2
:105A6C000468A468944228D10069069110B30168B7
:105A7C008C68944226D100690793D8B101688C6870
:105A8C00944219D100690893A0B101688C689442C2
:105A9C0012D10069099368B101688C6894420BD1EA
:105AAC0000690A9330B101688C681946944204D19C
:105ABC00FFF718FF0CB010BD194623460CB0BDE81B
:105ACC00104018470699F8E78537000030B58BB0C1
:105ADC0000696B4683E80600002835D00168234A2C
:105AEC00CC68944233D100999DF804209DF8053080
:105AFC00006902918DF80C208DF80D3020B30568EB
:105B0C00ED68A5422AD1006904918DF814208DF816
:105B1C001530C8B10468E468AC4217D10569069128
:105B2C008DF81C208DF81D3075B12B6806AADB682A
:105B3C00A34218D108AB92E8030083E8030028467F
:105B4C0093E80600FFF7C2FF0BB030BD04AB93E83F
:105B5C00060023460BB0BDE83040184702AB93E873
:105B6C0006002B46F6E7284606CAF3E77139000013
:105B7C0030B595B004696B460DF1080C83E806004E
:105B8C0093E803008CE80500002C64D02268484B95
:105B9C00D5689D4261D105469DF80C109DF80D20ED
:105BAC00206904958DF814108DF81520002852D01A
:105BBC000468E4689C4258D1006906958DF81C1065
:105BCC008DF81D20002846D00468E4689C4251D111
:105BDC00006908958DF824108DF8252000283AD0FE
:105BEC000468E4689C424AD100690A958DF82C102F
:105BFC008DF82D2078B30468E4689C4244D1006988
:105C0C000C958DF834108DF8352020B30468E468B9
:105C1C009C423ED100690E958DF83C108DF83D20CC
:105C2C00C8B10468E4689C4238D1046910958DF8B9
:105C3C0044108DF8452074B12268D5689D4232D14C
:105C4C0010AA12AB92E8030083E80300204693E805
:105C5C000600FFF73BFF15B030BD9CE80600204660
:105C6C002B4615B0BDE83040184704AB93E806004E
:105C7C002346F6E706AB93E806002346F1E708ABAC
:105C8C0093E806002346ECE70AAB93E806002346AC
:105C9C00E7E70CAB93E806002346E2E70EAB93E88C
:105CAC0006002346DDE710AB204693E80600D7E755
:105CBC007139000030B597B004696B460DF1080CD2
:105CCC0083E8060093E803008CE80500002C70D0F4
:105CDC002268514BD5689D426DD105469DF80C103C
:105CEC009DF80D20206904958DF814108DF8152061
:105CFC0000285ED00468E4689C4264D10069069573
:105D0C008DF81C108DF81D20002852D00468E46812
:105D1C009C425DD1006908958DF824108DF82520E2
:105D2C00002846D00468E4689C4256D100690A9564
:105D3C008DF82C108DF82D2000283AD00468E468DA
:105D4C009C424FD100690C958DF834108DF835209C
:105D5C0078B30468E4689C4249D100690E958DF8CB
:105D6C003C108DF83D2020B30468E4689C4243D17C
:105D7C00006910958DF844108DF84520C8B1046861
:105D8C00E4689C423DD1046912958DF84C108DF855
:105D9C004D2074B12268D5689D4237D112AA14AB3C
:105DAC0092E8030083E80300204693E80600FFF71F
:105DBC008DFE17B030BD9CE8060020462B4617B070
:105DCC00BDE83040184704AB93E806002346F6E7DD
:105DDC0006AB93E806002346F1E708AB93E8060010
:105DEC002346ECE70AAB93E806002346E7E70CAB47
:105DFC0093E806002346E2E70EAB93E80600234641
:105E0C00DDE710AB93E806002346D8E712AB20463B
:105E1C0093E80600D2E700BF7139000010B50069A5
:105E2C0086B0ADF8041068B303681F4A1B6993422F
:105E3C002AD19DF804109DF8052000698DF80810F2
:105E4C008DF80920F0B1046824699C4221D10069C5
:105E5C008DF80C108DF80D20A0B103681B69A342BE
:105E6C001AD100698DF810108DF8112050B102680C
:105E7C0012699A4212D1BDF81030ADF81430059960
:105E8C00FFF7CCFF06B010BD019906B0BDE810407D
:105E9C00184702992346F8E70399F6E7049906B0E8
:105EAC00BDE81040104700BFAD3C000010B50069C4
:105EBC008CB0ADF80410ADF80C10002858D0026866
:105ECC00384B12699A4255D19DF80C109DF80D2053
:105EDC0000698DF810108DF81120002848D0046846
:105EEC0024699C424BD100698DF814108DF8152053
:105EFC0000283DD0046824699C4246D100698DF885
:105F0C0018108DF81920002832D0046824699C429E
:105F1C003DD100698DF81C108DF81D2040B304682C
:105F2C0024699C4235D100698DF820108DF8212010
:105F3C00F0B1046824699C422DD100698DF82410BD
:105F4C008DF82520A0B1046824699C4225D10069F4
:105F5C008DF828108DF8292050B1026812699A42E8
:105F6C001DD1BDF82830ADF82C300B99FFF756FF3A
:105F7C000CB010BD03990CB0BDE81040104704994B
:105F8C0023460CB0BDE8104018470599F8E7069970
:105F9C00F6E70799F4E70899F2E70999F0E70A9907
:105FAC00E9E700BFAD3C000010B500698CB0ADF85E
:105FBC000410ADF80810002863D002683E4B12693B
:105FCC009A4260D19DF808109DF8092000698DF85F
:105FDC000C108DF80D20002853D0046824699C42C5
:105FEC0056D100698DF810108DF81120002848D07A
:105FFC00046824699C4251D100698DF814108DF805
:10600C00152000283DD0046824699C4248D10069C1
:10601C008DF818108DF81920002832D004682469E6
:10602C009C423FD100698DF81C108DF81D2040B3A7
:10603C00046824699C4237D100698DF820108DF8D2
:10604C002120F0B1046824699C422FD100698DF89D
:10605C0024108DF82520A0B1046824699C4227D116
:10606C0000698DF828108DF8292050B1026812694A
:10607C009A421FD1BDF82830ADF82C300B99FFF7A0
:10608C00CDFE0CB010BD02990CB0BDE8104010470D
:10609C00039923460CB0BDE8104018470499F8E763
:1060AC000599F6E70699F4E70799F2E70899F0E7FE
:1060BC000999EEE70A99E7E7AD3C0000026938B5AB
:1060CC00002A5AD0C1690C68A4B1536813B10025D9
:1060DC001D615560436843B100251D6145605368DF
:1060EC001BB11A465B68002BFBD12369002B4BD1EB
:1060FC00226154604269002A2FD0836919680029F3
:10610C0034D0536813B100245C615460C3684BB144
:10611C0000245C61C460536823B11A46DB68002B11
:10612C00FBD108324B69002B2ED103694A615160B7
:10613C00002B27D05968426911B100240C615C60B6
:10614C00F2B15368E3B10024C1695C6154600B681F
:10615C00D3B983691B68BBB938BD0369002BF6D072
:10616C005C68002CF3D022615A60F0E70369002BC5
:10617C00E7D059680029E0D1E3E74269002ABCD195
:10618C00C169E4E74269DBE7FFF776F8F8B54568E3
:10619C00FDB16E680446BEB177687FB1786838B1DE
:1061AC00FFF7F4FF7868FFF789FF00237B607768BF
:1061BC003846FFF783FF002373606E683046FFF7A5
:1061CC007DFF00236B6065682846FFF777FF00238F
:1061DC006360F8BD2DE9F041194B04464568036036
:1061EC005DB36E6836B37768F7B1D7F80480B8F151
:1061FC00000F13D0D8F8040050B1FFF7C7FFD8F840
:10620C000400FFF75BFF0023C8F80430D7F80480C4
:10621C004046FFF753FF00237B6077683846FFF753
:10622C004DFF002373606E683046FFF747FF002375
:10623C006B6065682846FFF741FF2046BDE8F0819A
:10624C0054060020F8B5456805B3EE680446C6B19F
:10625C00F76887B1F86840B10830FFF7F3FFF868CA
:10626C00FFF72CFF0023FB60F7683846FFF726FF8B
:10627C000023F360EE683046FFF720FF0023EB604D
:10628C0065682846FFF71AFF00236360F8BD00BF5E
:10629C0038B5124BA0F10805044603F1340240F85E
:1062AC00083C02602846FFF709FF0D4B606823602D
:1062BC0028B10830FFF7C6FF6068FFF7FFFE094BF7
:1062CC0054F8040C44F8083C28B1FFF75FFF54F86D
:1062DC00040CFFF7F3FE284638BD00BF0C06002067
:1062EC00080500205406002038B5144BA0F1080511
:1062FC00044603F1340240F8083C02602846FFF7DC
:10630C00DDFE0F4B6068236028B10830FFF79AFF61
:10631C006068FFF7D3FE0B4B54F8040C44F8083CB0
:10632C0028B1FFF733FF54F8040CFFF7C7FE2846DB
:10633C00242101F047FF284638BD00BF0C06002081
:10634C000805002054060020F8B5264B044603F13E
:10635C00340203608260FFF7B1FE234BE568A36053
:10636C00EDB1EE68C6B1F76887B1F86840B1083096
:10637C00FFF768FFF868FFF7A1FE0023FB60F768E2
:10638C003846FFF79BFE0023F360EE683046FFF7BC
:10639C0095FE0023EB60E5682846FFF78FFE134B54
:1063AC0065682360E5B16E68BEB177687FB17868C7
:1063BC0038B1FFF7EBFE7868FFF780FE00237B60B7
:1063CC0077683846FFF77AFE002373606E683046B4
:1063DC00FFF774FE00236B6065682846FFF76EFEBE
:1063EC002046F8BD0C0600200805002054060020AD
:1063FC00F8B5284B044603F1340203608260FFF7C2
:10640C005DFE254BE568A360EDB1EE68C6B1F7689B
:10641C0087B1F86840B10830FFF714FFF868FFF750
:10642C004DFE0023FB60F7683846FFF747FE00235C
:10643C00F360EE683046FFF741FE0023EB60E56841
:10644C002846FFF73BFE154B65682360E5B16E6887
:10645C00BEB177687FB1786838B1FFF797FE78687E
:10646C00FFF72CFE00237B6077683846FFF726FE8B
:10647C00002373606E683046FFF720FE00236B60CC
:10648C0065682846FFF71AFE2046242101F09AFE83
:10649C002046F8BD0C0600200805002054060020FC
:1064AC002DE9F0411A4B04464568036065B3EE686C
:1064BC003EB3F768FFB1D7F80C80B8F1000F14D0D9
:1064CC00D8F80C0058B10830FFF7BCFED8F80C0017
:1064DC00FFF7F4FD0023C8F80C30D7F80C804046C9
:1064EC00FFF7ECFD0023FB60F7683846FFF7E6FD8D
:1064FC000023F360EE683046FFF7E0FD0023EB600D
:10650C0065682846FFF7DAFD2046BDE8F08100BF3C
:10651C00080500202DE9F0411C4B0446456803603A
:10652C0065B3EE683EB3F768FFB1D7F80C80B8F1ED
:10653C00000F14D0D8F80C0058B10830FFF782FEC9
:10654C00D8F80C00FFF7BAFD0023C8F80C30D7F8C8
:10655C000C804046FFF7B2FD0023FB60F76838461D
:10656C00FFF7ACFD0023F360EE683046FFF7A6FDA5
:10657C000023EB6065682846FFF7A0FD2046082144
:10658C0001F020FE2046BDE8F08100BF0805002088
:10659C00A1F1280330B5054683B0252B28D8DFE8B8
:1065AC0003F052652424136B272727272727272737
:1065BC00272727272727272727272727272727275F
:1065CC002727272727273F3F4249003A424B434C76
:1065DC0018BF012248681B68A4FB03439B0C03FBF8
:1065EC0002F24B681B1A9A42FBD8012003B030BD53
:1065FC003F295AD901F03F03E81890F82C00FF28E6
:10660C00F3D011F0300F5CD0102B5ED001F06AFC8F
:10661C0003460120003B18BF012385F82730E5E72E
:10662C000192002A43D101F03F0401212C4494F83B
:10663C002C0001F069FC019A94F82C00114601F031
:10664C0027FC0120D2E72B35012405E00F2A26D8A0
:10665C0001F05AFC0134E4B215F8013F621E01212D
:10666C00FF2B1846F2D1162CF4D1BEE7104601F0E0
:10667C0091FB012003B030BD174C032A1549174B71
:10668C004868226834BF05240224A3FB0232920C12
:10669C0004FB02F24B681B1A9A42FBD8A5E70221B5
:1066AC0001F032FC162CD5D19FE700209EE701F0BB
:1066BC003F0302212B4493F82C0001F025FC012010
:1066CC0094E7114601F0E4FB8FE7019002F0EEFF36
:1066DC0001989BE7001000E00C13002083DE1B43A5
:1066EC0080F8371080F8382080F83930704700BFB8
:1066FC00A1F1140C38B50446BCF10C0F08D8DFE836
:10670C000CF015070709220F0707070707070D00ED
:10671C00002038BD1946154803F022F9012038BD78
:10672C000121124803F0DEF9012038BD83692BB931
:10673C0003680F4A5B7B02FB03F383610B4809F090
:10674C0073FC012038BD094D8169284603F0B2FA6B
:10675C0094F82420012302F0FE02184685F830310B
:10676C0085F8A52085F82F3138BD00BF20130020F7
:10677C00A08601002DE9F04383B01F46CB1880465C
:10678C00BDF8289014469BB20E4602EB0905ADB23B
:10679C00009500F0FDFC80B1B9F1000F0DD04FF069
:1067AC000009224601343B463146A4B24046CDF89E
:1067BC00009000F077FCA542F3D103B0BDE8F08364
:1067CC002DE9F04385B0CF181E468046BDF83090B9
:1067DC00BFB20D46144602EB09039BB200933B4635
:1067EC0000F0D6FC10B905B0BDE8F08300232246BA
:1067FC00294640460093334600F054FCB9F1010F92
:10680C00F1D9A9F10209621C1FFA89F492B24CB9B0
:10681C0000243346294640460C9405B0BDE8F043AD
:10682C0000F040BC4FF00109234629464046CDF804
:10683C000090039200F036FC791E039A23464046E2
:10684C0089B2CDF8009000F02DFC039A224492B24C
:10685C00DEE700BF03682DE9F043064683B090F8ED
:10686C005090002490F8515093F8118000E0336858
:10687C001B7C2A46F76C002104FB03FC01343046D8
:10688C0001354FEACC0CE4B21FFA8CFCEDB2BC44DF
:10689C00CDF800C000F098FFA14501D9A845E6D875
:1068AC0003B0BDE8F08300BF0268002190F85030BF
:1068BC00127CC06C12FB03F2D20003F0C3BD00BF0C
:1068CC0010B50446FFF7C6FF2046BDE8104000F0A7
:1068DC00ABBF00BF836C10B5044680F851101B6829
:1068EC009847A36C20465B68BDE81040184700BF72
:1068FC0010B590F8AB3004462BB920460021BDE80A
:10690C001040FFF7E7BF0268002190F85030127C6E
:10691C00C06C12FB03F2D20003F094FD2046002160
:10692C00BDE81040FFF7D6BF38B50446FFF792FF1D
:10693C0094F8515094F8503022681D44517CEDB2BB
:10694C00A94211D994F8AB1029B920462946FFF772
:10695C00C1FF012038BD127C0021E06C12FB03F258
:10696C00D20003F06FFDF0E7204600F05DFF002041
:10697C0038BD00BF10B50446FFF7BAFF2046FFF73D
:10698C00D3FF0028FAD101462046BDE81040FFF79E
:10699C00A1BF00BF30B51C4685B0134605460A4A58
:1069AC0000940C46094900F051FF0DF10F0000F066
:1069BC0069FF074B01469DF80F202846009400F014
:1069CC00E7FC05B030BD00BF655300001D5500004D
:1069DC00ED4F00004218435C507800EB032080B26E
:1069EC00704700BF0020704738B50D460446112192
:1069FC002B78284623706B786370AB78A370EB7898
:106A0C00E3702B7923716B796371AB79A371EB799B
:106A1C00E3712B7A23726B7A6372AB7AA372EB7A83
:106A2C00E3722B7B23736B7B6373AB7BA373EB7B6B
:106A3C00E3732B7C2374FFF7CDFF03461321284609
:106A4C006382FFF7C7FF034615212846A382FFF791
:106A5C00C1FFE08238BD00BF012B05D0022B09D04D
:106A6C002BB1411A88B27047014488B27047024476
:106A7C0090B27047821A90B2704700BF012B05D0BC
:106A8C00022B09D02BB1024490B27047821A90B2FB
:106A9C007047014488B27047411A88B2704700BFF2
:106AAC002DE9F04F87B004460E4690F8807090F8B0
:106ABC0081B005920FE094F88510002949D0F319A4
:106ACC00AE420BF1010BA3EB0A033AD35FFA8BFB3B
:106ADC00002703F0FF0694F882A04FFA87FC31469A
:106AEC004FFA8BF9AAEB070594F888304A46B4F8AC
:106AFC007C00EDB2B4F87E80CDF80CC0AE4228BF5D
:106B0C00294604916146FFF7B9FF024603994046B6
:106B1C0090464A46FFF7A0FF059902460029CAD0C5
:106B2C000093414694F886C02046049B0BF1010B60
:106B3C0084F8AAC000F0B6FAF319AE42A3EB0A032C
:106B4C00C4D23E4484F8819084F8806007B0BDE8DC
:106B5C00F08F0093414694F88700049B84F8AA00B8
:106B6C00204600F09FFAAAE72DE9F04F044690F872
:106B7C009000002385B00728A16784F884300D7835
:106B8C0040F24E81A0F108030131DBB2A1674FF056
:106B9C00FF3294F8916084F88430824025EA020533
:106BAC00F2186DB2D2B284F88250072A087840FAF3
:106BBC0003F000F22781C3B24FF0FF3084F8842039
:106BCC00B04094F8926023EA000394F8AA0084F889
:106BDC008600B0FA80F04FFA83F9400984F883906C
:106BEC0084F88700B0180F78C0B21741072800F25C
:106BFC00F6805FFA87FE94F893C084F884000CEB5F
:106C0C0000020F78D2B20741072A00F2D880F8B2FE
:106C1C0094F894A084F884200AEB020891F800B050
:106C2C005FFA88F84BFA02FBB8F1070F00F2B88054
:106C3C005FFA8BF74FF0FF3284F884800121002D2E
