:0200000460009A
:100000004643464200000156000000000103030081
:1000100000000000000000000000000000000000E0
:1000200000000000000000000000000000000000D0
:1000300000000000000000000000000000000000C0
:1000400000000000010408000000000000000000A3
:100050000000800000000000000000000000000020
:100060000000000000000000000000000000000090
:100070000000000000000000000000000000000080
:10008000EB04180A063204260000000000000000FD
:10009000050404240000000000000000000000002F
:1000A0000000000000000000000000000000000050
:1000B0000604000000000000000000000000000036
:1000C0000000000000000000000000000000000030
:1000D00020041808000000000000000000000000DC
:1000E0000000000000000000000000000000000010
:1000F0000000000000000000000000000000000000
:10010000D8041808000000000000000000000000F3
:100110000204180804200000000000000000000095
:1001200000000000000000000000000000000000CF
:10013000600400000000000000000000000000005B
:1001400000000000000000000000000000000000AF
:10015000000000000000000000000000000000009F
:10016000000000000000000000000000000000008F
:10017000000000000000000000000000000000007F
:10018000000000000000000000000000000000006F
:10019000000000000000000000000000000000005F
:1001A000000000000000000000000000000000004F
:1001B000000000000000000000000000000000003F
:1001C000000100000010000001000000000000001D
:1001D000000001000000000000000000000000001E
:1001E000000000000000000000000000000000000F
:1001F00000000000000000000000000000000000FF
:10020000FFFFFFFFFFFFFFFFFFFFFFFFFFFFFFFFFE
:10021000FFFFFFFFFFFFFFFFFFFFFFFFFFFFFFFFEE
:10100000D10020434D1600600000000000000000E9
:10101000201000600010006000440160000000002B
:10102000000000600050010000000000FFFFFFFF13
:10103000FFFFFFFFFFFFFFFFFFFFFFFFFFFFFFFFC0
:10104000FFFFFFFFFFFFFFFFFFFFFFFFFFFFFFFFB0
:10105000FFFFFFFFFFFFFFFFFFFFFFFFFFFFFFFFA0
:10106000FFFFFFFFFFFFFFFFFFFFFFFFFFFFFFFF90
:10140000814205D051F8043B40F8043B8242F9D8B0
:10141000704700BF044A05494FF0000342F8043BFF
:101420009142FBD8704700BFC03A0020E046002040
:101430002DE98848BFF34F8F00BF00BF00BF00BF3A
:1014400000F042F9684B0822C3F8542100BF00BFE6
:1014500000BF00BF00BF00BF00BF00BF00BF00BF94
:1014600000BF00BF00BF00BF00BF00BF5F4A6049B0
:101470006048FFF7C5FF604A60496148FFF7C0FF59
:10148000604CFFF7C7FF4FF470004FF0E0210023DE
:101490005D4AC1F8880D44F823200133B02BFAD1FE
:1014A0005A4B80215A4A03F8011B9342FBD14FF05B
:1014B000E0254D4E4FF08039DFF884B1DFF884A18C
:1014C0004FF0FF31C5F8084D0027C6F80491C6F863
:1014D00000B1C6F8F490C6F8F0A0D5F8243DDFF8C6
:1014E000688143F4E0234B4AC5F8243DD8F81C300A
:1014F00023F07F0343F04003C8F81C30D8F82430B1
:1015000023F07F0343F04003C8F824309166D1668E
:101510001167516700F0E0F83F4B4049A363404B2F
:10152000E36363236B610323AF612B613D4BC5F81C
:10153000203DD5F8FC3D43F08073C5F8FC3D3A4BA7
:101540001A6842F001021A605B680B6000F00EFB43
:10155000C6F804913548C6F800B1C6F8F490C6F84C
:10156000F0A000F031FDD8F86C10314B314A41F455
:101570004051C8F86C101F60C3F80871C3F81871A7
:10158000C3F82871C3F83871936BDB0708D442F6AF
:101590001563294951651365936B43F00103936308
:1015A000244A264C936843F00113936000F01CF921
:1015B00000F060F800F01CFD00F006FB00F086F87B
:1015C0002368132BFCD900F097FB2368B3F5967FB3
:1015D000FBD300F07FF800F07BF800F005FD00F091
:1015E000F7FC30BFFDE700BF00800D40E0E40000E5
:1015F0000422006000000000C03A0020E8060160FC
:1016000000000020003800203565000000E400E004
:10161000A0E400E000C00A405579000068460020C0
:101620005979000000002020001000E00046C3238C
:101630000040084000400D400000C0566C460020AD
:101640001B1018200C0D111300C00F40054B4FF458
:101650002A01054A05485A641864054A9963954663
:10166000FFF7E6FE00C00A40AFAAAAAA07002000C2
:1016700000000720104BA020104AD96E41F44031E1
:1016800010B4D96640F23764D96E41F44071D9661E
:1016900054649064936C1B06FCD4094A40F2376191
:1016A000A02351649364936C13F08003FBD1054A2B
:1016B00013705DF8044B704700C00F4000400C40B1
:1016C00000800C4091460020704700BF704700BF6B
:1016D000704700BF00BF704710B44FF0E0230021F7
:1016E00010243148C3F8941DC3F89C4D1124C3F84D
:1016F000A00D2E48C3F89C4D1224C3F8A00D2C4811
:10170000C3F89C4D2B4AC3F8A00D2B4C42F0150298
:101710002A48C3F89C4DC3F8A00D294C2948C3F8AA
:101720009C4DC3F8A00D284CC3F89C2D2748284A8F
:10173000C3F8A04DC3F89C0DC3F8A02D02F5A0225C
:10174000244C0C322448C3F89C4DC3F8A02D234AE6
:10175000C3F89C0D224CC3F8A02D02F14062C3F8DF
:101760009C4D2048C3F8A02D0C32C3F89C0DC3F843
:10177000A02D00BF00BF00BF00BF00BF0122C3F803
:10178000942DBFF34F8FBFF36F8FC3F8501FBFF37C
:101790004F8FBFF36F8FD3F8142D5DF8044B42F4D5
:1017A0004032C3F8142D70473F0000102500080791
:1017B00009001000E046002013002000210002076D
:1017C0001400002025000813090000101600202036
:1017D00027000B1317000040180000602F000B07B4
:1017E000190000701A000080F0B5B84B1822B84EEE
:1017F0000120B84F83B0C3F85C62B749C3F8607288
:10180000B64DC3F86462A6F53046B54CC3F86862BD
:10181000C3F86C52C3F87052C3F87452C3F87852CC
:1018200048F20C75DA661A675A679A67DA67C3F87E
:101830008020C3F88420C3F88820C1F82C03A94A6B
:10184000C1F83003C1F83403C1F83803C1F83C03D0
:10185000C1F85003A169A44B0A40A448A44913430A
:10186000A44AA361D4F8843043F00C03C4F8843054
:101870004FF0FF34036843F00203036003682B401A
:101880004FF400551A439C4B026044608A689B4C9D
:1018900013409B4A43F000538360C36823F07803EE
:1018A000C360036A134023430362036A1340954AEB
:1018B0002343954C43628262C2620022D1F8B83061
:1018C00023F03F0343F00103C0F8B830D1F8BC3037
:1018D0008E4923F03F0343F00103C0F8BC3040F2CF
:1018E0000563026105660467C0F880304566446799
:1018F0000224C0F88430036823F00203036081618E
:10190000834B8449C46143F8042B8B42FBD1774A53
:10191000136843F001031360136813F00103FBD154
:101920007A48022140F2F564906140F29940D16119
:1019300040F26641C2F8004242F20144C2F810127D
:101940007549C2F82002C2F8301240F2354173489E
:10195000C2F83442C2F84012714CC2F8500242F24E
:1019600001207049C2F854120121C2F86042C2F845
:1019700064025E48C2F8A030C2F8A430C2F8B010C9
:101980004369DA07FCD5012300244FF4803257491C
:101990004361C0F8A040C0F8A420C0F8B0304B6943
:1019A000DB07FCD5012300244FF400304F4A4B6184
:1019B000C1F8A040C1F8A400C1F8B0305369DF07F6
:1019C000FCD501230024584848495361C2F8A0407F
:1019D000C2F8A400C2F8B0304B69DE07FCD5D1F8DC
:1019E000003145F60D5221209BB24861934265D1EA
:1019F00000244FF4802201233C48C1F8A040C1F8E4
:101A0000A420C1F8B0304369DD07FCD501234FF4B1
:101A100000040021354A4361C0F8A040C0F8A4107A
:101A2000C0F8B0305369DC07FCD501234FF4000443
:101A30004FF480302D495361C2F8A040C2F8A40091
:101A4000C2F8B0304B69D807FCD501234FF400042D
:101A50004FF40030254A4B61C1F8A040C1F8A40002
:101A6000C1F8B0305369D907FCD501234FF4000405
:101A70002D481E495361C2F8A040C2F8A400C2F824
:101A8000B0304B69DA07FCD5D1F8003145F60D527C
:101A900021209BB24861934250D008254FF40004A6
:101AA00022490020224B234A009015705A1A012324
:101AB0002148224400F084FA03B0F0BD1E4B0022FE
:101AC000C3E90022C3E9022203B0F0BD00801F4039
:101AD000F9B00100F910010000841F40F970010005
:101AE00000C00F40FFFCFF1F000300A000402A4081
:101AF00000802A401200FFFFFF37F70040000080FF
:101B000000FFF07CFF000F8363000200F05AF05AE0
:101B100000422A4000432A409F041830EB06180A6E
:101B20003806180A0632012604000300000000707F
:101B30000000007093460020284400204FF4000469
:101B40004FF4802201230848C1F8A040C1F8A42026
:101B5000C1F8B0304369DB07FCD5012310254FF0F5
:101B6000807443619CE700BF00402A40F0B4154AEE
:101B700040274FF480314FF480564FF400554FF416
:101B8000404443F24200136913F0020F0ED113F4E4
:101B9000005F0FD013F4805F0ED0002BF3DA13F444
:101BA000803F0BD15B060BD5F0BC7047946151614F
:101BB0009061E8E75561E6E75661E4E79161E2E7A5
:101BC0005761E0E700800D403F4A03203F49F3EEB4
:101BD000095AD2F880304FF0000C9FED3D6A23F097
:101BE00001039FED3C5A30B4C2F88030C2F8900037
:101BF000D1F8E010384DCBB2384C39482B6007EEA5
:101C0000903A0B0DC1F30B21F8EEE77A06EE903A0D
:101C100007EE101A334BB8EEC77A2160F8EEE66A89
:101C2000314937EEC66A37EEC55A76EEC76A77EEA7
:101C3000E57A26EE266AC3ED006A25EE265AD2F82A
:101C4000803067EEA64AC0ED007AC6EE275A2748D4
:101C500085EE276AC4EEA76A75EE875AFCEEE55A50
:101C600036EE076A15EE904ABCEEC66A43EA0453A4
:101C700076EE877AC2F8803016EE103AD2F89041AC
:101C8000FCEEE77A01EA0341214317EE903AC2F8ED
:101C90009011C3F30B03D2F890110B431449C2F80F
:101CA0009031D2F8803043F00203C2F88030114BFB
:101CB00080F840C0C1F840314FF0E023012230BC31
:101CC000C3F80821704700BF00810D4000441F4049
:101CD0000000AA420000B4425846002054460020AA
:101CE0005C460020604600200000FF0F00E400E09A
:101CF000003800201D670000314B40F6617210B5BE
:101D0000C3F8202140F2044400F06AF92D4A2E491C
:101D1000D2F880302D4843F00303C2F880302C4BBA
:101D2000C1F8604102681A4203D1D1F8A8319A077C
:101D30001BD0254A4FF00041244B5963D2F8403163
:101D400043F00203C2F84031D2F840319B07FBD484
:101D50004FF400304FF0E0211C4B4FF00042C1F82F
:101D60008C0219209A6300F047F9184A4FF080401E
:101D7000154C002190630A20164B11604FF420721D
:101D8000C4F8A801184600F027F94FF48002034672
:101D90004FF4810040F243111860C4F858311A64BE
:101DA0000D4B0E4AC4F84811C3F804224FF0E0224C
:101DB0004FF400310123C2F80C11C4F8403110BDBA
:101DC00000800D4000C00F4000002E4000900D40EC
:101DD000001C1E00000000200038002005690000E3
:101DE00008B50E4B1B6E9B0700D4FBBE72B60C4BA6
:101DF00000200C4AC3F8400103F160430A49A3F5EF
:101E00005F2311649D46BFF34F8F4FF400130748C3
:101E1000074ADB6902609B68984700BF00441F4087
:101E200000002E4000C00A40030020000080202057
:101E3000000012EB43690A4A03EB011010B4037A65
:101E4000084C02EB0313D3E901321460C2681A6034
:101E500003690BB142691A605DF8044B704700BF1B
:101E6000A00A002061F801004369027E03EB021220
:101E700092F808C08C451CD01A7AFF2A19D09142DA
:101E800010B5044616D01A7EFF2A06D00121D3E9E8
:101E9000002312681A4201D1217610BD064B05229B
:101EA000204603EB0C135B681A60FFF7C3FF217633
:101EB000F3E770470021EAE7A00A002043690A4AD5
:101EC00003EB011010B490F82830084C02EB031318
:101ED000D3E901321460C26A1A60036B0BB1426B22
:101EE0001A605DF8044B7047A00A002061F80100F9
:101EF0004369427E03EB021292F828C08C451ED043
:101F000093F82820FF2A1AD0914210B5044617D022
:101F100093F83820FF2A06D00121D3E90023126864
:101F20001A4201D1617610BD064B0522204603EB13
:101F30000C135B681A60FFF7C1FF6176F3E7704727
:101F40000021EAE7A00A0020164942698B6B23F4BE
:101F50007C0343F4802370B58B630446124DD2E9B1
:101F600000130A681A4303690A60022200211A61F9
:101F70000E4A19619A6401225A629D624FF430350B
:101F8000DD624FF001159E6C1E6519629D651A6138
:101F9000017EFFF74FFF617E2046BDE87040FFF7EE
:101FA0008DBF00BF00C00F40B80B05053B37281997
:101FB000F8B500BFF8BC08BC9E46704700000000A2
:101FC0005FF800F0E97900005FF800F0955C000030
:101FD0005FF800F01D6200005FF800F0E58500008A
:101FE0005FF800F0757000005FF800F0898600006F
:101FF0005FF800F0416400005FF800F0855F0000CA
:0C2000000501000029010000092A000071
:10200C001603550053004200200053006500720077
:10201C00690061006C000000180354006500650045
:10202C006E00730079006400750069006E006F002B
:10203C000403090409026200030100C032080B000A
:10204C000202020100090400000102020100052441
:10205C0000100105240101010424020605240600D8
:10206C00010705820310001009040100020A000098
:10207C000007050302400000070584024000000928
:10208C0004020002FF6AFF000705810240000107FD
:10209C00050102400001000009026200030100C0BA
:1020AC0032080B00020202010009040000010202C6
:1020BC00010005240010010524010101042402067D
:1020CC000524060001070582031000050904010020
:1020DC00020A000000070503020002000705840243
:1020EC000002000904020002FF6AC7000705810212
:1020FC000002010705010200020100000A060002AD
:10210C00EF0201400100000080C00F4000000003FE
:10211C001900000010000000E8841F4001000000BE
:10212C00FF000000FF0000000000000000000000A5
:10213C001800000010000000E4841F4001000000A3
:10214C00FF000000FF000000000000000000000085
:10215C001F000000297E000070C00F40000C000022
:10216C001100000011000000E0841F40020000007C
:10217C002C00000012000000E0841F400100000051
:10218C001000000011000000DC841F400200000061
:10219C002D00000012000000DC841F400100000034
:1021AC001E0000001D7E000070C00F40C00000002B
:1021BC001200000013000000D0841F40010000003A
:1021CC00FF000000FF000000000000000000000005
:1021DC001300000013000000CC841F40010000001D
:1021EC00FF000000FF0000000000000000000000E5
:0821FC001C000000117E000030
:1022040000000000000000000000000000000000CA
:1022140000000000000000000000000000000000BA
:10222400F8B54FF084439D695A6915400DD0254F88
:1022340001269D6195FAA5F4B4FA84F457F8243084
:1022440006FA04F49847A543F4D11F4B9D695A69D3
:1022540015400DD01D4F01269D6195FAA5F4B4FAE1
:1022640084F457F8243006FA04F49847A543F4D1CB
:10227400174B9D695A6915400DD0164F01269D6173
:1022840095FAA5F4B4FA84F457F8243006FA04F461
:102294009847A543F4D1104B9D695A6915400DD058
:1022A4000E4F01269D6195FAA5F4B4FA84F457F80B
:1022B400243006FA04F49847A543F4D1BFF34F8FB2
:1022C400F8BD00BF5032002000400042D032002050
:1022D400008000425033002000C00042D033002070
:1022E4000548064B1B1AD90F01EBA301491002D074
:1022F400034B03B118477047C03A0020C03A00208E
:102304000000000008B5054B1BB105490548AFF3B3
:102314000080BDE80840FFF7E3BF00BF00000000F5
:10232400FC44002000500160044BFF204FF0FF31BB
:1023340000221860C3E90212704700BF883C0020E5
:1023440000207047704700BF38B500F10805D0F889
:10235400B4300446284698474FF6FD73984201D995
:10236400012038BD0346B4F8BA20B4F8B8102846A2
:1023740004F034FB94F89030032BF1D8DFE803F039
:10238400140E0802B4F8BA301B1AA4F8BA30E7E7FE
:10239400B4F8B8301B1AA4F8B830E1E7B4F8BA308E
:1023A4001844A4F8BA00DBE7B4F8B8301844A4F829
:1023B400B800D5E72DE9F047002A4ED004460D4673
:1023C4008F180026DFF89C9000F108084FF6FD7A7C
:1023D40003E00120AF42064420D0236815F8011B16
:1023E4001B684B4515D1D4F8B43040469847504546
:1023F400EFD80346B4F8BA20B4F8B810404604F055
:10240400EDFA94F89030032BE3D8DFE803F01F18BB
:10241400110A20469847AF420644DED13046BDE853
:10242400F087B4F8BA301B1A0120A4F8BA30D1E707
:10243400B4F8B8301B1A0120A4F8B830CAE7B4F8CD
:10244400BA301844A4F8BA000120C3E7B4F8B8308D
:102454001844A4F8B8000120BCE716463046BDE88D
:10246400F08700BF49010000214B1A68D2E900102F
:10247400D3680968006810B41842946801EA04013A
:102484002ED0137C03F00303D9B943F00803990851
:10249400013B11740D2B0BD8DFE803F00D071C076B
:1024A4000A160D0D160A071C070D5369013B5361EB
:1024B4005DF8044B704753695DF8044B0133536175
:1024C400704743F00403E0E753695DF8044B023BB3
:1024D4005361704753695DF8044B0233536170478D
:1024E400137C03F003030029D1D043F00403CEE7A7
:1024F400483D0020214B5A68D2E90010D36809688E
:10250400006810B41842946801EA04012ED0137CC8
:1025140003F00303D9B943F008039908013B11748C
:102524000D2B0BD8DFE803F00D071C070A160D0D61
:10253400160A071C070D5369013B53615DF8044BF0
:10254400704753695DF8044B01335361704743F09E
:102554000403E0E753695DF8044B023B53617047A1
:1025640053695DF8044B023353617047137C03F0E5
:1025740003030029D1D043F00403CEE7483D0020F3
:10258400224BD3F8D820D2E90010D3680968006838
:1025940010B41842946801EA04012ED0137C03F0AD
:1025A4000303D9B943F008039908013B11740D2BB7
:1025B4000BD8DFE803F00D071C070A160D0D160AE9
:1025C400071C070D5369013B53615DF8044B7047C9
:1025D40053695DF8044B01335361704743F00403BE
:1025E400E0E753695DF8044B023B5361704753695C
:1025F4005DF8044B023353617047137C03F003030B
:102604000029D1D043F00403CEE700BF483D0020A9
:10261400224BD3F8C820D2E90010D36809680068B7
:1026240010B41842946801EA04012ED0137C03F01C
:102634000303D9B943F008039908013B11740D2B26
:102644000BD8DFE803F00D071C070A160D0D160A58
:10265400071C070D5369013B53615DF8044B704738
:1026640053695DF8044B01335361704743F004032D
:10267400E0E753695DF8044B023B536170475369CB
:102684005DF8044B023353617047137C03F003037A
:102694000029D1D043F00403CEE700BF483D002019
:1026A400224BD3F8CC20D2E90010D3680968006823
:1026B40010B41842946801EA04012ED0137C03F08C
:1026C4000303D9B943F008039908013B11740D2B96
:1026D4000BD8DFE803F00D071C070A160D0D160AC8
:1026E400071C070D5369013B53615DF8044B7047A8
:1026F40053695DF8044B01335361704743F004039D
:10270400E0E753695DF8044B023B5361704753693A
:102714005DF8044B023353617047137C03F00303E9
:102724000029D1D043F00403CEE700BF483D002088
:10273400224BD3F8D020D2E90010D368096800688E
:1027440010B41842946801EA04012ED0137C03F0FB
:102754000303D9B943F008039908013B11740D2B05
:102764000BD8DFE803F00D071C070A160D0D160A37
:10277400071C070D5369013B53615DF8044B704717
:1027840053695DF8044B01335361704743F004030C
:10279400E0E753695DF8044B023B536170475369AA
:1027A4005DF8044B023353617047137C03F0030359
:1027B4000029D1D043F00403CEE700BF483D0020F8
:1027C400224BD3F8D420D2E90010D36809680068FA
:1027D40010B41842946801EA04012ED0137C03F06B
:1027E4000303D9B943F008039908013B11740D2B75
:1027F4000BD8DFE803F00D071C070A160D0D160AA7
:10280400071C070D5369013B53615DF8044B704786
:1028140053695DF8044B01335361704743F004037B
:10282400E0E753695DF8044B023B53617047536919
:102834005DF8044B023353617047137C03F00303C8
:102844000029D1D043F00403CEE700BF483D002067
:10285400224BD3F88820D2E90010D36809680068B5
:1028640010B41842946801EA04012ED0137C03F0DA
:102874000303D9B943F008039908013B11740D2BE4
:102884000BD8DFE803F00D071C070A160D0D160A16
:10289400071C070D5369013B53615DF8044B7047F6
:1028A40053695DF8044B01335361704743F00403EB
:1028B400E0E753695DF8044B023B53617047536989
:1028C4005DF8044B023353617047137C03F0030338
:1028D4000029D1D043F00403CEE700BF483D0020D7
:1028E400224BD3F88C20D2E90010D3680968006821
:1028F40010B41842946801EA04012ED0137C03F04A
:102904000303D9B943F008039908013B11740D2B53
:102914000BD8DFE803F00D071C070A160D0D160A85
:10292400071C070D5369013B53615DF8044B704765
:1029340053695DF8044B01335361704743F004035A
:10294400E0E753695DF8044B023B536170475369F8
:102954005DF8044B023353617047137C03F00303A7
:102964000029D1D043F00403CEE700BF483D002046
:10297400224BD3F89020D2E90010D368096800688C
:1029840010B41842946801EA04012ED0137C03F0B9
:102994000303D9B943F008039908013B11740D2BC3
:1029A4000BD8DFE803F00D071C070A160D0D160AF5
:1029B400071C070D5369013B53615DF8044B7047D5
:1029C40053695DF8044B01335361704743F00403CA
:1029D400E0E753695DF8044B023B53617047536968
:1029E4005DF8044B023353617047137C03F0030317
:1029F4000029D1D043F00403CEE700BF483D0020B6
:102A0400224BD3F89420D2E90010D36809680068F7
:102A140010B41842946801EA04012ED0137C03F028
:102A24000303D9B943F008039908013B11740D2B32
:102A34000BD8DFE803F00D071C070A160D0D160A64
:102A4400071C070D5369013B53615DF8044B704744
:102A540053695DF8044B01335361704743F0040339
:102A6400E0E753695DF8044B023B536170475369D7
:102A74005DF8044B023353617047137C03F0030386
:102A84000029D1D043F00403CEE700BF483D002025
:102A9400224BD3F89820D2E90010D3680968006863
:102AA40010B41842946801EA04012ED0137C03F098
:102AB4000303D9B943F008039908013B11740D2BA2
:102AC4000BD8DFE803F00D071C070A160D0D160AD4
:102AD400071C070D5369013B53615DF8044B7047B4
:102AE40053695DF8044B01335361704743F00403A9
:102AF400E0E753695DF8044B023B53617047536947
:102B04005DF8044B023353617047137C03F00303F5
:102B14000029D1D043F00403CEE700BF483D002094
:102B2400224BD3F89C20D2E90010D36809680068CE
:102B340010B41842946801EA04012ED0137C03F007
:102B44000303D9B943F008039908013B11740D2B11
:102B54000BD8DFE803F00D071C070A160D0D160A43
:102B6400071C070D5369013B53615DF8044B704723
:102B740053695DF8044B01335361704743F0040318
:102B8400E0E753695DF8044B023B536170475369B6
:102B94005DF8044B023353617047137C03F0030365
:102BA4000029D1D043F00403CEE700BF483D002004
:102BB400224BD3F8A020D2E90010D368096800683A
:102BC40010B41842946801EA04012ED0137C03F077
:102BD4000303D9B943F008039908013B11740D2B81
:102BE4000BD8DFE803F00D071C070A160D0D160AB3
:102BF400071C070D5369013B53615DF8044B704793
:102C040053695DF8044B01335361704743F0040387
:102C1400E0E753695DF8044B023B53617047536925
:102C24005DF8044B023353617047137C03F00303D4
:102C34000029D1D043F00403CEE700BF483D002073
:102C4400224BD3F8A420D2E90010D36809680068A5
:102C540010B41842946801EA04012ED0137C03F0E6
:102C64000303D9B943F008039908013B11740D2BF0
:102C74000BD8DFE803F00D071C070A160D0D160A22
:102C8400071C070D5369013B53615DF8044B704702
:102C940053695DF8044B01335361704743F00403F7
:102CA400E0E753695DF8044B023B53617047536995
:102CB4005DF8044B023353617047137C03F0030344
:102CC4000029D1D043F00403CEE700BF483D0020E3
:102CD400224BD3F8A820D2E90010D3680968006811
:102CE40010B41842946801EA04012ED0137C03F056
:102CF4000303D9B943F008039908013B11740D2B60
:102D04000BD8DFE803F00D071C070A160D0D160A91
:102D1400071C070D5369013B53615DF8044B704771
:102D240053695DF8044B01335361704743F0040366
:102D3400E0E753695DF8044B023B53617047536904
:102D44005DF8044B023353617047137C03F00303B3
:102D54000029D1D043F00403CEE700BF483D002052
:102D6400224BD3F8AC20D2E90010D368096800687C
:102D740010B41842946801EA04012ED0137C03F0C5
:102D84000303D9B943F008039908013B11740D2BCF
:102D94000BD8DFE803F00D071C070A160D0D160A01
:102DA400071C070D5369013B53615DF8044B7047E1
:102DB40053695DF8044B01335361704743F00403D6
:102DC400E0E753695DF8044B023B53617047536974
:102DD4005DF8044B023353617047137C03F0030323
:102DE4000029D1D043F00403CEE700BF483D0020C2
:102DF400224BD3F8B020D2E90010D36809680068E8
:102E040010B41842946801EA04012ED0137C03F034
:102E14000303D9B943F008039908013B11740D2B3E
:102E24000BD8DFE803F00D071C070A160D0D160A70
:102E3400071C070D5369013B53615DF8044B704750
:102E440053695DF8044B01335361704743F0040345
:102E5400E0E753695DF8044B023B536170475369E3
:102E64005DF8044B023353617047137C03F0030392
:102E74000029D1D043F00403CEE700BF483D002031
:102E8400224BD3F8B420D2E90010D3680968006853
:102E940010B41842946801EA04012ED0137C03F0A4
:102EA4000303D9B943F008039908013B11740D2BAE
:102EB4000BD8DFE803F00D071C070A160D0D160AE0
:102EC400071C070D5369013B53615DF8044B7047C0
:102ED40053695DF8044B01335361704743F00403B5
:102EE400E0E753695DF8044B023B53617047536953
:102EF4005DF8044B023353617047137C03F0030302
:102F04000029D1D043F00403CEE700BF483D0020A0
:102F1400224BD3F8B820D2E90010D36809680068BE
:102F240010B41842946801EA04012ED0137C03F013
:102F34000303D9B943F008039908013B11740D2B1D
:102F44000BD8DFE803F00D071C070A160D0D160A4F
:102F5400071C070D5369013B53615DF8044B70472F
:102F640053695DF8044B01335361704743F0040324
:102F7400E0E753695DF8044B023B536170475369C2
:102F84005DF8044B023353617047137C03F0030371
:102F94000029D1D043F00403CEE700BF483D002010
:102FA400224BD3F8BC20D2E90010D368096800682A
:102FB40010B41842946801EA04012ED0137C03F083
:102FC4000303D9B943F008039908013B11740D2B8D
:102FD4000BD8DFE803F00D071C070A160D0D160ABF
:102FE400071C070D5369013B53615DF8044B70479F
:102FF40053695DF8044B01335361704743F0040394
:10300400E0E753695DF8044B023B53617047536931
:103014005DF8044B023353617047137C03F00303E0
:103024000029D1D043F00403CEE700BF483D00207F
:10303400224BD3F8C020D2E90010D3680968006895
:1030440010B41842946801EA04012ED0137C03F0F2
:103054000303D9B943F008039908013B11740D2BFC
:103064000BD8DFE803F00D071C070A160D0D160A2E
:10307400071C070D5369013B53615DF8044B70470E
:1030840053695DF8044B01335361704743F0040303
:10309400E0E753695DF8044B023B536170475369A1
:1030A4005DF8044B023353617047137C03F0030350
:1030B4000029D1D043F00403CEE700BF483D0020EF
:1030C400224BD3F8C420D2E90010D3680968006801
:1030D40010B41842946801EA04012ED0137C03F062
:1030E4000303D9B943F008039908013B11740D2B6C
:1030F4000BD8DFE803F00D071C070A160D0D160A9E
:10310400071C070D5369013B53615DF8044B70477D
:1031140053695DF8044B01335361704743F0040372
:10312400E0E753695DF8044B023B53617047536910
:103134005DF8044B023353617047137C03F00303BF
:103144000029D1D043F00403CEE700BF483D00205E
:10315400214B9A68D2E90010D3680968006810B45A
:103164001842946801EA04012ED0137C03F003038F
:10317400D9B943F008039908013B11740D2B0BD8FE
:10318400DFE803F00D071C070A160D0D160A071CCD
:10319400070D5369013B53615DF8044B7047536954
:1031A4005DF8044B01335361704743F00403E0E7D7
:1031B40053695DF8044B023B5361704753695DF8F2
:1031C400044B023353617047137C03F0030300295B
:1031D400D1D043F00403CEE7483D0020214BDA6808
:1031E400D2E90010D3680968006810B418429468E2
:1031F40001EA04012ED0137C03F00303D9B943F090
:1032040008039908013B11740D2B0BD8DFE803F078
:103214000D071C070A160D0D160A071C070D536926
:10322400013B53615DF8044B704753695DF8044BEF
:1032340001335361704743F00403E0E753695DF8D9
:10324400044B023B5361704753695DF8044B0233EE
:1032540053617047137C03F003030029D1D043F07A
:103264000403CEE7483D0020214B1A69D2E900103F
:10327400D3680968006810B41842946801EA04012C
:103284002ED0137C03F00303D9B943F00803990843
:10329400013B11740D2B0BD8DFE803F00D071C075D
:1032A4000A160D0D160A071C070D5369013B5361DD
:1032B4005DF8044B704753695DF8044B0133536167
:1032C400704743F00403E0E753695DF8044B023BA5
:1032D4005361704753695DF8044B0233536170477F
:1032E400137C03F003030029D1D043F00403CEE799
:1032F400483D0020214B5A69D2E90010D36809687F
:10330400006810B41842946801EA04012ED0137CBA
:1033140003F00303D9B943F008039908013B11747E
:103324000D2B0BD8DFE803F00D071C070A160D0D53
:10333400160A071C070D5369013B53615DF8044BE2
:10334400704753695DF8044B01335361704743F090
:103354000403E0E753695DF8044B023B5361704793
:1033640053695DF8044B023353617047137C03F0D7
:1033740003030029D1D043F00403CEE7483D0020E5
:10338400214B9A69D2E90010D3680968006810B427
:103394001842946801EA04012ED0137C03F003035D
:1033A400D9B943F008039908013B11740D2B0BD8CC
:1033B400DFE803F00D071C070A160D0D160A071C9B
:1033C400070D5369013B53615DF8044B7047536922
:1033D4005DF8044B01335361704743F00403E0E7A5
:1033E40053695DF8044B023B5361704753695DF8C0
:1033F400044B023353617047137C03F00303002929
:10340400D1D043F00403CEE7483D0020214BDA69D4
:10341400D2E90010D3680968006810B418429468AF
:1034240001EA04012ED0137C03F00303D9B943F05D
:1034340008039908013B11740D2B0BD8DFE803F046
:103444000D071C070A160D0D160A071C070D5369F4
:10345400013B53615DF8044B704753695DF8044BBD
:1034640001335361704743F00403E0E753695DF8A7
:10347400044B023B5361704753695DF8044B0233BC
:1034840053617047137C03F003030029D1D043F048
:103494000403CEE7483D0020214B1A6AD2E900100C
:1034A400D3680968006810B41842946801EA0401FA
:1034B4002ED0137C03F00303D9B943F00803990811
:1034C400013B11740D2B0BD8DFE803F00D071C072B
:1034D4000A160D0D160A071C070D5369013B5361AB
:1034E4005DF8044B704753695DF8044B0133536135
:1034F400704743F00403E0E753695DF8044B023B73
:103504005361704753695DF8044B0233536170474C
:10351400137C03F003030029D1D043F00403CEE766
:10352400483D0020214B5A6AD2E90010D36809684B
:10353400006810B41842946801EA04012ED0137C88
:1035440003F00303D9B943F008039908013B11744C
:103554000D2B0BD8DFE803F00D071C070A160D0D21
:10356400160A071C070D5369013B53615DF8044BB0
:10357400704753695DF8044B01335361704743F05E
:103584000403E0E753695DF8044B023B5361704761
:1035940053695DF8044B023353617047137C03F0A5
:1035A40003030029D1D043F00403CEE7483D0020B3
:1035B400214B9A6AD2E90010D3680968006810B4F4
:1035C4001842946801EA04012ED0137C03F003032B
:1035D400D9B943F008039908013B11740D2B0BD89A
:1035E400DFE803F00D071C070A160D0D160A071C69
:1035F400070D5369013B53615DF8044B70475369F0
:103604005DF8044B01335361704743F00403E0E772
:1036140053695DF8044B023B5361704753695DF88D
:10362400044B023353617047137C03F003030029F6
:10363400D1D043F00403CEE7483D0020214BDA6AA1
:10364400D2E90010D3680968006810B4184294687D
:1036540001EA04012ED0137C03F00303D9B943F02B
:1036640008039908013B11740D2B0BD8DFE803F014
:103674000D071C070A160D0D160A071C070D5369C2
:10368400013B53615DF8044B704753695DF8044B8B
:1036940001335361704743F00403E0E753695DF875
:1036A400044B023B5361704753695DF8044B02338A
:1036B40053617047137C03F003030029D1D043F016
:1036C4000403CEE7483D0020214B1A6BD2E90010D9
:1036D400D3680968006810B41842946801EA0401C8
:1036E4002ED0137C03F00303D9B943F008039908DF
:1036F400013B11740D2B0BD8DFE803F00D071C07F9
:103704000A160D0D160A071C070D5369013B536178
:103714005DF8044B704753695DF8044B0133536102
:10372400704743F00403E0E753695DF8044B023B40
:103734005361704753695DF8044B0233536170471A
:10374400137C03F003030029D1D043F00403CEE734
:10375400483D0020214B5A6BD2E90010D368096818
:10376400006810B41842946801EA04012ED0137C56
:1037740003F00303D9B943F008039908013B11741A
:103784000D2B0BD8DFE803F00D071C070A160D0DEF
:10379400160A071C070D5369013B53615DF8044B7E
:1037A400704753695DF8044B01335361704743F02C
:1037B4000403E0E753695DF8044B023B536170472F
:1037C40053695DF8044B023353617047137C03F073
:1037D40003030029D1D043F00403CEE7483D002081
:1037E400214B9A6BD2E90010D3680968006810B4C1
:1037F4001842946801EA04012ED0137C03F00303F9
:10380400D9B943F008039908013B11740D2B0BD867
:10381400DFE803F00D071C070A160D0D160A071C36
:10382400070D5369013B53615DF8044B70475369BD
:103834005DF8044B01335361704743F00403E0E740
:1038440053695DF8044B023B5361704753695DF85B
:10385400044B023353617047137C03F003030029C4
:10386400D1D043F00403CEE7483D0020214BDA6B6E
:10387400D2E90010D3680968006810B4184294684B
:1038840001EA04012ED0137C03F00303D9B943F0F9
:1038940008039908013B11740D2B0BD8DFE803F0E2
:1038A4000D071C070A160D0D160A071C070D536990
:1038B400013B53615DF8044B704753695DF8044B59
:1038C40001335361704743F00403E0E753695DF843
:1038D400044B023B5361704753695DF8044B023358
:1038E40053617047137C03F003030029D1D043F0E4
:1038F4000403CEE7483D0020214B1A6CD2E90010A6
:10390400D3680968006810B41842946801EA040195
:103914002ED0137C03F00303D9B943F008039908AC
:10392400013B11740D2B0BD8DFE803F00D071C07C6
:103934000A160D0D160A071C070D5369013B536146
:103944005DF8044B704753695DF8044B01335361D0
:10395400704743F00403E0E753695DF8044B023B0E
:103964005361704753695DF8044B023353617047E8
:10397400137C03F003030029D1D043F00403CEE702
:10398400483D0020214B5A6CD2E90010D3680968E5
:10399400006810B41842946801EA04012ED0137C24
:1039A40003F00303D9B943F008039908013B1174E8
:1039B4000D2B0BD8DFE803F00D071C070A160D0DBD
:1039C400160A071C070D5369013B53615DF8044B4C
:1039D400704753695DF8044B01335361704743F0FA
:1039E4000403E0E753695DF8044B023B53617047FD
:1039F40053695DF8044B023353617047137C03F041
:103A040003030029D1D043F00403CEE7483D00204E
:103A1400214B9A6CD2E90010D3680968006810B48D
:103A24001842946801EA04012ED0137C03F00303C6
:103A3400D9B943F008039908013B11740D2B0BD835
:103A4400DFE803F00D071C070A160D0D160A071C04
:103A5400070D5369013B53615DF8044B704753698B
:103A64005DF8044B01335361704743F00403E0E70E
:103A740053695DF8044B023B5361704753695DF829
:103A8400044B023353617047137C03F00303002992
:103A9400D1D043F00403CEE7483D0020214BDA6C3B
:103AA400D2E90010D3680968006810B41842946819
:103AB40001EA04012ED0137C03F00303D9B943F0C7
:103AC40008039908013B11740D2B0BD8DFE803F0B0
:103AD4000D071C070A160D0D160A071C070D53695E
:103AE400013B53615DF8044B704753695DF8044B27
:103AF40001335361704743F00403E0E753695DF811
:103B0400044B023B5361704753695DF8044B023325
:103B140053617047137C03F003030029D1D043F0B1
:103B24000403CEE7483D0020214B1A6DD2E9001072
:103B3400D3680968006810B41842946801EA040163
:103B44002ED0137C03F00303D9B943F0080399087A
:103B5400013B11740D2B0BD8DFE803F00D071C0794
:103B64000A160D0D160A071C070D5369013B536114
:103B74005DF8044B704753695DF8044B013353619E
:103B8400704743F00403E0E753695DF8044B023BDC
:103B94005361704753695DF8044B023353617047B6
:103BA400137C03F003030029D1D043F00403CEE7D0
:103BB400483D0020214B5A6DD2E90010D3680968B2
:103BC400006810B41842946801EA04012ED0137CF2
:103BD40003F00303D9B943F008039908013B1174B6
:103BE4000D2B0BD8DFE803F00D071C070A160D0D8B
:103BF400160A071C070D5369013B53615DF8044B1A
:103C0400704753695DF8044B01335361704743F0C7
:103C14000403E0E753695DF8044B023B53617047CA
:103C240053695DF8044B023353617047137C03F00E
:103C340003030029D1D043F00403CEE7483D00201C
:103C4400214B9A6DD2E90010D3680968006810B45A
:103C54001842946801EA04012ED0137C03F0030394
:103C6400D9B943F008039908013B11740D2B0BD803
:103C7400DFE803F00D071C070A160D0D160A071CD2
:103C8400070D5369013B53615DF8044B7047536959
:103C94005DF8044B01335361704743F00403E0E7DC
:103CA40053695DF8044B023B5361704753695DF8F7
:103CB400044B023353617047137C03F00303002960
:103CC400D1D043F00403CEE7483D0020214BDA6D08
:103CD400D2E90010D3680968006810B418429468E7
:103CE40001EA04012ED0137C03F00303D9B943F095
:103CF40008039908013B11740D2B0BD8DFE803F07E
:103D04000D071C070A160D0D160A071C070D53692B
:103D1400013B53615DF8044B704753695DF8044BF4
:103D240001335361704743F00403E0E753695DF8DE
:103D3400044B023B5361704753695DF8044B0233F3
:103D440053617047137C03F003030029D1D043F07F
:103D54000403CEE7483D0020214B1A6ED2E900103F
:103D6400D3680968006810B41842946801EA040131
:103D74002ED0137C03F00303D9B943F00803990848
:103D8400013B11740D2B0BD8DFE803F00D071C0762
:103D94000A160D0D160A071C070D5369013B5361E2
:103DA4005DF8044B704753695DF8044B013353616C
:103DB400704743F00403E0E753695DF8044B023BAA
:103DC4005361704753695DF8044B02335361704784
:103DD400137C03F003030029D1D043F00403CEE79E
:103DE400483D0020214B5A6ED2E90010D36809687F
:103DF400006810B41842946801EA04012ED0137CC0
:103E040003F00303D9B943F008039908013B117483
:103E14000D2B0BD8DFE803F00D071C070A160D0D58
:103E2400160A071C070D5369013B53615DF8044BE7
:103E3400704753695DF8044B01335361704743F095
:103E44000403E0E753695DF8044B023B5361704798
:103E540053695DF8044B023353617047137C03F0DC
:103E640003030029D1D043F00403CEE7483D0020EA
:103E7400214B9A6ED2E90010D3680968006810B427
:103E84001842946801EA04012ED0137C03F0030362
:103E9400D9B943F008039908013B11740D2B0BD8D1
:103EA400DFE803F00D071C070A160D0D160A071CA0
:103EB400070D5369013B53615DF8044B7047536927
:103EC4005DF8044B01335361704743F00403E0E7AA
:103ED40053695DF8044B023B5361704753695DF8C5
:103EE400044B023353617047137C03F0030300292E
:103EF400D1D043F00403CEE7483D0020214BDA6ED5
:103F0400D2E90010D3680968006810B418429468B4
:103F140001EA04012ED0137C03F00303D9B943F062
:103F240008039908013B11740D2B0BD8DFE803F04B
:103F34000D071C070A160D0D160A071C070D5369F9
:103F4400013B53615DF8044B704753695DF8044BC2
:103F540001335361704743F00403E0E753695DF8AC
:103F6400044B023B5361704753695DF8044B0233C1
:103F740053617047137C03F003030029D1D043F04D
:103F84000403CEE7483D0020214B1A6FD2E900100C
:103F9400D3680968006810B41842946801EA0401FF
:103FA4002ED0137C03F00303D9B943F00803990816
:103FB400013B11740D2B0BD8DFE803F00D071C0730
:103FC4000A160D0D160A071C070D5369013B5361B0
:103FD4005DF8044B704753695DF8044B013353613A
:103FE400704743F00403E0E753695DF8044B023B78
:103FF4005361704753695DF8044B02335361704752
:10400400137C03F003030029D1D043F00403CEE76B
:10401400483D0020214B5A6FD2E90010D36809684B
:10402400006810B41842946801EA04012ED0137C8D
:1040340003F00303D9B943F008039908013B117451
:104044000D2B0BD8DFE803F00D071C070A160D0D26
:10405400160A071C070D5369013B53615DF8044BB5
:10406400704753695DF8044B01335361704743F063
:104074000403E0E753695DF8044B023B5361704766
:1040840053695DF8044B023353617047137C03F0AA
:1040940003030029D1D043F00403CEE7483D0020B8
:1040A400214B9A6FD2E90010D3680968006810B4F4
:1040B4001842946801EA04012ED0137C03F0030330
:1040C400D9B943F008039908013B11740D2B0BD89F
:1040D400DFE803F00D071C070A160D0D160A071C6E
:1040E400070D5369013B53615DF8044B70475369F5
:1040F4005DF8044B01335361704743F00403E0E778
:1041040053695DF8044B023B5361704753695DF892
:10411400044B023353617047137C03F003030029FB
:10412400D1D043F00403CEE7483D0020214BDA6FA1
:10413400D2E90010D3680968006810B41842946882
:1041440001EA04012ED0137C03F00303D9B943F030
:1041540008039908013B11740D2B0BD8DFE803F019
:104164000D071C070A160D0D160A071C070D5369C7
:10417400013B53615DF8044B704753695DF8044B90
:1041840001335361704743F00403E0E753695DF87A
:10419400044B023B5361704753695DF8044B02338F
:1041A40053617047137C03F003030029D1D043F01B
:1041B4000403CEE7483D0020224BD3F88020D2E907
:1041C4000010D3680968006810B41842946801EAC2
:1041D40004012ED0137C03F00303D9B943F0080380
:1041E4009908013B11740D2B0BD8DFE803F00D0780
:1041F4001C070A160D0D160A071C070D5369013B0F
:1042040053615DF8044B704753695DF8044B013307
:104214005361704743F00403E0E753695DF8044BCE
:10422400023B5361704753695DF8044B0233536199
:104234007047137C03F003030029D1D043F0040337
:10424400CEE700BF483D0020224BD3F88420D2E9BA
:104254000010D3680968006810B41842946801EA31
:1042640004012ED0137C03F00303D9B943F00803EF
:104274009908013B11740D2B0BD8DFE803F00D07EF
:104284001C070A160D0D160A071C070D5369013B7E
:1042940053615DF8044B704753695DF8044B013377
:1042A4005361704743F00403E0E753695DF8044B3E
:1042B400023B5361704753695DF8044B0233536109
:1042C4007047137C03F003030029D1D043F00403A7
:1042D400CEE700BF483D0020F0B504461E4600234B
:1042E40083B0083015466360C4F8B8300D4B9DF8B0
:1042F400207023600C4B0191C4F8B430009002F09C
:1043040005FE0A4B019900982360094A094B02F003
:104314009FF800983B463246294601F03FFF20466D
:1043240003B0F0BDB8070020FD4C0000A00700203A
:10433400AD3F00004D3E00000B4610B5362800F29C
:104344009782DFE810F08C02820279027002670221
:104354005E0255024C0243023A02310228021F0255
:10436400BF01B601AD01A4019B0192018901800145
:1043740077016E0165015C0153014A014101380175
:104384002F0126011D0113010901FF00F500EB00B7
:10439400E100D700CD00C300B900AF00A5009B0029
:1043A400910087007D00730069005F0055004B0099
:1043B40041003700C84C0422C8493620C4F8D8301C
:1043C40003F0AAFF012010BDC34C0422C4493520C8
:1043D400C4F8D43003F0A0FF012010BDBE4C042269
:1043E400C0493420C4F8D03003F096FF012010BD3A
:1043F400B94C0422BC493320C4F8CC3003F08CFF00
:10440400012010BDB44C0422B8493220C4F8C8308D
:1044140003F082FF012010BDAF4C0422B4493120C7
:10442400C4F8C43003F078FF012010BDAA4C042264
:10443400B0493020C4F8C03003F06EFF012010BD35
:10444400A54C0422AC492F20C4F8BC3003F064FF0F
:10445400012010BDA04C0422A8492E20C4F8B83075
:1044640003F05AFF012010BD9B4C0422A4492D20C7
:10447400C4F8B43003F050FF012010BD964C042260
:10448400A0492C20C4F8B03003F046FF012010BD31
:10449400914C04229C492B20C4F8AC3003F03CFF1F
:1044A400012010BD8C4C042298492A20C4F8A8305D
:1044B40003F032FF012010BD874C042294492920C7
:1044C400C4F8A43003F028FF012010BD824C04225C
:1044D40090492820C4F8A03003F01EFF012010BD2D
:1044E4007D4C04228C492720C4F89C3003F014FF2F
:1044F400012010BD784C042288492620C4F8983045
:1045040003F00AFF012010BD734C042284492520C6
:10451400C4F8943003F000FF012010BD6E4C042257
:1045240080492420C4F8903003F0F6FE012010BD29
:10453400694C04227C492320C4F88C3003F0ECFE3F
:10454400012010BD644C042278492220C4F888302C
:1045540003F0E2FE012010BD5F4C042274492120C7
:10456400C4F8843003F0D8FE012010BD5A4C042254
:1045740070492020C4F8803003F0CEFE012010BD25
:10458400554C04226C491F20E36703F0C5FE01204B
:1045940010BD514C042269491E20A36703F0BCFEE0
:1045A400012010BD4C4C042265491D20636703F0B3
:1045B400B3FE012010BD484C042262491C2023672D
:1045C40003F0AAFE012010BD434C04225E491B20C7
:1045D400E36603F0A1FE012010BD3F4C04225B49B9
:1045E4001A20A36603F098FE012010BD3A4C042261
:1045F40057491920636603F08FFE012010BD364C25
:10460400042254491820236603F086FE012010BDBD
:10461400314C042250491720E36503F07DFE01204C
:1046240010BD2D4C04224D491620A36503F074FEE1
:10463400012010BD284C042249491520636503F06C
:104644006BFE012010BD244C04224649142023652E
:1046540003F062FE012010BD1F4C042242491320C6
:10466400E36403F059FE012010BD1B4C04223F49B2
:104674001220A36403F050FE012010BD164C042246
:104684003B491120636403F047FE012010BD124C26
:10469400042238491020236403F03EFE012010BD9B
:1046A4000D4C042234490F20E36303F035FE01204E
:1046B40010BD094C042231490E20A36303F02CFEE3
:1046C400012010BD044C04222D490D20636303F026
:1046D40023FE012010BD00BF483D002081030000DF
:1046E400C105000031050000A10400001104000010
:1046F400C10E0000310E0000A10D0000110D0000DC
:10470400810C0000F10B0000610B0000D10A0000D5
:10471400410A0000B10900002109000091080000CD
:104724000108000071070000E106000051060000C6
:1047340049200000B91F00002D1F0000A11E000029
:10474400151E0000891D0000FD1C0000711C0000E6
:10475400E51B0000591B0000CD1A0000411A00009F
:10476400B5190000291900009D1800001118000057
:1047740085170000F91600006D160000E115000011
:10478400551500003B4C04223B490C20236303F0E5
:10479400C3FD012010BD374C042238490B20E362CD
:1047A40003F0BAFD012010BD324C042234490A2022
:1047B400A36203F0B1FD012010BD2E4C0422314947
:1047C4000920636203F0A8FD012010BD294C0422D6
:1047D4002D490820236203F09FFD012010BD254CC4
:1047E40004222A490720E36103F096FD012010BD4D
:1047F400204C042226490620A36103F08DFD0120EC
:1048040010BD1C4C042223490520636103F084FD80
:10481400012010BD0422174C1F491046236103F0E8
:104824007BFD012010BD134C04221C490320E360CE
:1048340003F072FD012010BD0E4C04221849022021
:10484400A36003F069FD012010BD04460948042259
:1048540014494360012003F05FFD204610BD054C60
:10486400042211490020236003F056FD012010BDED
:10487400002010BD483D0020C91400003D14000074
:10488400B113000025130000991200000D1200005E
:1048940081110000F510000069100000DD0F000018
:1048A400510F0000F5020000690200002DE9F041FB
:1048B4000F46164604460221384603F0F3FC022153
:1048C400304603F0EFFC224B3A0122483101DFF875
:1048D4008CC053F8028003EB0712C4F80080D2F8AE
:1048E4000CE003EB061259580023C4F808E0D26820
:1048F4006361194BE26045681B686160ACFB033C73
:104904004FF4FA634FEA9C4C03FB0CFC43685B1BBB
:104914009C45FBD8D8F80030384609681EEA030FD6
:1049240014BF012300230A42214618BF43F00203A7
:104934002374FFF701FD0346214630462376FFF733
:10494400FBFC227E0346204613442376BDE8F08117
:10495400A00A0020001000E07428002083DE1B431E
:10496400A0F118035F2B31D8DFE803F05C5E5A3006
:104974003030303030303030303030303030303033
:104984003030303030303030303030303030303023
:104994003030303030303030303030303030303013
:1049A400303030303030303030585630545250304F
:1049B400303030303030303030304E4C4A4846445D
:1049C40042403E3C3830303030363A347F282DD99E
:1049D400234870472348704723487047234870474B
:1049E400234870472348704723487047234870473B
:1049F400234870472348704723487047234870472B
:104A0400234870472348704723487047234870471A
:104A1400234870472348704723487047234870470A
:104A2400234870472348704723487047234AC317D5
:104A340082FB00120621C3EB620303EB4302013B3A
:104A440010B5A0EB820082B01D4C00931D4A54F8AF
:104A540020301D4806F062FE1B4802B010BD00BFA6
:104A640028040020240400201C0400201404002036
:104A7400200400200C040020040400200004002072
:104A8400F8030020F0030020EC030020E4030020DE
:104A9400D8030020D0030020CC030020C003002052
:104AA400B8030020B0030020A80300209C030020CA
:104AB40094030020840300208C030020ABAAAA2ABC
:104AC400EC07002030040020243E002010B52748C5
:104AD40001F048FC2649254802F000F8254B0F2236
:104AE4001421224801F0EAFF234C802312220021E2
:104AF4001E4802F0ABF821491C4801F0EFFF206882
:104B04001F4923221F4B002818BF0B4605211748B5
:104B140001F0D4FF20681C492F221C4B012818BF28
:104B24000B460521114801F0C9FF246818483B22AF
:104B3400184B0521022C18BF03460C4801F0BEFF98
:104B44000A4801F01BFC144801F00CFC13491248FC
:104B540001F0C4FF124B282214210F4801F0AEFFCC
:104B64000D48BDE8104001F009BC00BF70450020AD
:104B7400FC17002064050020F8440020400F0020AA
:104B840010050020040500202C0500201C05002031
:104B9400500500203C05002044440020141E002041
:104BA4007405002010B5124C204601F0DBFB2046B2
:104BB400104901F093FF104B0A220021204601F016
:104BC4007DFF0E4B19220021204601F077FF0C4B8C
:104BD40028220021204601F071FF2046094B3C2287
:104BE400002101F06BFF2046BDE8104001F0C6BB78
:104BF40070450020400F0020C0040020D004002095
:104C0400E0040020F404002030B5062283B005211E
:104C14001148FFF74BFE1E221D211048FF24FFF709
:104C240045FE0F4D20221F210E48FFF73FFE1B2299
:104C34001A210D48FFF73AFE2346224629460094DE
:104C44000A48FFF749FB23462246294600940848B0
:104C5400FFF742FB03B030BDA4430020C043002053
:104C6400340F0020DC430020F84300203C440020A3
:104C7400684500202DE9F04F27208DB003F0B2F8ED
:104C8400814A1368C31A002BB8BF5B42082B00F398
:104C940019857E4B1A7E012A40F24E8572B65E69F2
:104CA40062B67B4B1A7E012A40F2818572B65F6937
:104CB40062B6784B1A7E012A40F2668572B6D3F842
:104CC400148062B6744B1A7E012A40F2498572B68A
:104CD400D3F8149062B6714A1368B34240F02D833E
:104CE4006F4B1A68BA4240F080836E4B1A68424593
:104CF40040F02E846C4B1A684A4540F0BF836B4BDE
:104D0400DFF8D8A16A4A0A93AAF1080B0023069394
:104D1400CDE90823674C00259DF8186018200B94F2
:104D24000796E9B20135C0B2891B18BF012103F00F
:104D34007DFA052D02D054F8040FF2E75E4B596852
:104D44005E4B1A685E4BA3FB0232920C02EB8202AA
:104D5400D200594B5B685B1A9A42FAD8594B4FF010
:104D6400000905930A9B0293092303939DF80C0001
:104D740003F086FA029AB0FA80F8044612F8013F6A
:104D84004FEA581804900292434500F0BB80504605
:104D94004FF6FD7501F0E6FA4B49504601F09EFED0
:104DA4004A4A4B4B00215046002C08BF13460C22A4
:104DB40001F084FE474C4FF4D0135221261DCBF84A
:104DC400B83003E0A6421FD014F8011FDBF8B4305A
:104DD40050469847A842F5D80346BBF8BA20BBF81A
:104DE400B810504601F0FAFD9BF89030032BE9D837
:104DF400DFE803F0433D3702BBF8BA30A642A3EB29
:104E04000003ABF8BA30DFD1002306990A225846D2
:104E140002F0DCFE304C4FF418134321261D4FF6EC
:104E2400FD75CBF8B83004E0B44200F0378114F8D3
:104E3400011FDBF8B43050469847A842F4D8034623
:104E4400BBF8BA20BBF8B810504601F0C7FD9BF878
:104E54009030032BE8D8DFE813F0570151014B01E0
:104E64001801BBF8B8301B1AABF8B830AAE7BBF886
:104E7400BA301844ABF8BA00A4E7BBF8B830184409
:104E8400ABF8B8009EE700BFA82C0020A443002084
:104E9400C0430020DC430020F84300209434002069
:104EA400983400209C340020A034002017450020B2
:104EB400140600202C070020001000E074280020B5
:104EC40083DE1B43DC050020400F00203804002053
:104ED4004404002078040020800400207045002051
:104EE400049BFFB2B121AC48002B0CBF7F240024EB
:104EF40002F02AFD3946A84802F026FD2146A648BC
:104F040002F022FD5FFA89F3079A002A08BF0D2BED
:104F14000CBF0123002340F0A980049A4646002ACE
:104F240040F0CD819D4A1178002940F0F88101219B
:104F34009B48117001689B4A11600268521A0999D2
:104F4400B2F5487F28BF19460991069B964AC3EBE0
:104F5400C30302EB430303F80960089A069B383243
:104F6400013308920A9A052B069302F10E020A9263
:104F74007FF4D0AE0B9D1820012105F11004C0B2BE
:104F840003F054F9A54207D055F8040F0121C0B22B
:104F940003F04CF9A542F7D1099B002B40F01A8489
:104FA4000DB0BDE8F08F504601F0E8F906217F48C6
:104FB40004F0C4FC049B7E48002B7E4B0EBF0421EE
:104FC4001846022104F0BAFC02217B4804F0B6FC26
:104FD40000230A220699794802F0F8FD0221784854
:104FE40004F0ACFC00230A224946744802F0EEFDAA
:104FF4000521744804F0A2FC0399704802F0BEFD38
:105004000421714804F09AFC39466C4802F0B6FD5C
:1050140002216E4804F092FC3846FFF7A1FC0446D6
:1050240028B106F00DFB0146204604F087FC01215F
:10503400674804F083FC614802F0ACFD1F2F3FF485
:1050440061AF079B022B7FF64BAF049BFFB2002B93
:1050540040F069819021504802F076FC39464E4870
:1050640002F072FC64214C4802F06EFC029B594A27
:1050740083F80080059B93423FF46FAF53F8042FED
:1050840009F101090392059370E6BBF8BA30B44202
:10509400A3EB0003ABF8BA307FF4C9AE0023494652
:1050A4000A22584602F092FD4B4C4FF4481350210B
:1050B400261D4FF6FD75CBF8B83003E0A64231D07B
:1050C40014F8011FDBF8B43050469847A842F5D8CD
:1050D4000346BBF8BA20BBF8B810504601F07EFC7A
:1050E4009BF89030032BE9D8DFE803F0504A4414CE
:1050F400BBF8B8301B1AABF8B83095E6BBF8BA3039
:105104001844ABF8BA008FE6BBF8B8301844ABF8D3
:10511400B80089E6BBF8BA30A642A3EB0003ABF8AB
:10512400BA30CDD10399584602F028FD2B4C4FF4E8
:1051340078134321E61C4FF6FD75CBF8B83003E035
:10514400B44255D014F8011FDBF8B43050469847E8
:10515400A842F5D80346BBF8BA20BBF8B8105046AD
:1051640001F03CFC9BF89030032BE9D8DFE803F016
:1051740089837D38BBF8B8301B1AABF8B8309DE78B
:10518400BBF8BA301844ABF8BA0097E7BBF8B830AC
:105194001844ABF8B80091E7882800209646002010
:1051A4006C46002038440020184500209804002054
:1051B4003C04002048040020A40400207828002097
:1051C400A8040020AC040020B4040020BC04002087
:1051D400A004002010060020880400209004002071
:1051E400BBF8BA30B442A3EB0003ABF8BA30A9D190
:1051F400089B584653F82970394602F0BFFCDBF887
:10520400B4302021504698474FF6FD7398425ED93A
:105214003846FFF7A5FB054600283FF4C4AE06F068
:105224000FFA064600283FF4BEAE2C4603E02B1BC3
:10523400F3423FF4B8AEDBF8B430504614F8011B27
:1052440098474FF6FD739842F1D80346BBF8BA204D
:10525400BBF8B810504601F0C1FB9BF89030032B0B
:10526400E5D8DFE803F026201A14BBF8B8301B1A7F
:10527400ABF8B83064E7BBF8BA301844ABF8BA00FE
:105284005EE7BBF8B8301844ABF8B80058E7BBF891
:10529400BA301B1AABF8BA30C9E7BBF8B8301B1ADE
:1052A400ABF8B830C3E7BBF8BA300344ABF8BA3054
:1052B400BDE7BBF8B8300344ABF8B830B7E7B24B3E
:1052C4001A78002A3FF441AE00221A703DE60346E4
:1052D400BBF8BA20BBF8B810504601F07FFB9BF82E
:1052E4009030032B94D8DFE803F0140E0802BBF8C7
:1052F400BA301B1AABF8BA308AE7BBF8B8301B1ABD
:10530400ABF8B83084E7BBF8BA300344ABF8BA3032
:105314007EE7BBF8B8301844ABF8B80078E79B4A8E
:105324009B48116809E680219A4802F00DFB394632
:10533400984802F009FB002195E6974CF31A166091
:105344004FF6FD7B04F10800029301F00BF893493A
:1053540004F10800924D01F0C1FB4FF420134521E4
:1053640004F1080AC4F8B83004E08E4BAB421FD0F5
:1053740015F8011FD4F8B430504698475845F4D86E
:105384000346B4F8BA20B4F8B810504601F026FB2E
:1053940094F89030032BE8D8DFE803F06A645E02E7
:1053A400B4F8BA301B1AA4F8BA307E4BAB42DFD142
:1053B4003146794802F0E2FB7B4800F0DFFF029BB4
:1053C400B0217448002BCCBF0124412402F0BCFA64
:1053D4004A21704802F0B8FA21466E4802F0B4FA45
:1053E400724B1A68BA423FF480AC6B4CBA1A1F6015
:1053F4004FF6FD7B04F10800029200F0B3FF674909
:1054040004F108006A4D01F069FB4FF4201305F123
:10541400060A452104F10806C4F8B83004E05545ED
:1054240000F0248115F8011FD4F8B43030469847B1
:105434005845F4D80346B4F8BA20B4F8B810304646
:1054440001F0CCFA94F89030032BE8D8DFE813F09D
:1054540034012E0128010501B4F8B8301B1AA4F850
:10546400B83082E7B4F8BA300344A4F8BA307CE721
:10547400B4F8B8300344A4F8B83076E7464CA9EB46
:10548400020AC3F800904FF6FD7704F10800494D75
:1054940000F068FF414904F1080005F1060801F035
:1054A4001DFB4FF42013452104F10806C4F8B8305D
:1054B40003E0A8451FD015F8011FD4F8B4303046D6
:1054C4009847B842F5D80346B4F8BA20B4F8B810EF
:1054D400304601F083FA94F89030032BE9D8DFE8E2
:1054E40003F0312B2502B4F8BA30A845A3EB00032E
:1054F400A4F8BA30DFD14946274802F03FFB2A48D6
:1055040000F03CFFBAF1000F4FF0B0012148CCBFCE
:105514000124412402F018FA07211E4802F014FA6B
:1055240021461C4802F010FAFFF7E9BBB4F8B83082
:105534001B1AA4F8B830BCE7B4F8BA301844A4F87D
:10554400BA00B6E7B4F8B8301844A4F8B800B0E725
:10555400114CA8EB020BC3F800804FF6FD7704F161
:105564000800154D00F0FEFE0C4904F1080005F199
:10557400060A01F0B3FA4FF42013452104F108069A
:10558400C4F8B8301EE000BF96460020384400201E
:105594006C4600208828002068450020141E002046
:1055A400580400205E040020704500209834002038
:1055B400600400207004002068040020AA451FD065
:1055C40015F8011FD4F8B43030469847B842F5D8DE
:1055D4000346B4F8BA20B4F8B810304601F0FEF926
:1055E40094F89030032BE9D8DFE803F0312B25023F
:1055F400B4F8BA30AA45A3EB0003A4F8BA30DFD15B
:105604004146BA4802F0BAFAB94800F0B7FEBBF115
:10561400000F4FF0B001B748CCBF0124412402F081
:1056240093F95B21B34802F08FF92146B14802F0A7
:105634008BF9FFF75FBBB4F8B8301B1AA4F8B83085
:10564400BCE7B4F8BA300344A4F8BA30B6E7B4F807
:10565400B8300344A4F8B830B0E7B4F8BA305545CC
:10566400A3EB0003A4F8BA307FF4DCAE39469F48BC
:1056740002F084FA9E4800F081FE029BB0219D480E
:10568400002BCCBF0124412402F05EF94721994844
:1056940002F05AF92146974802F056F9FFF725BB64
:1056A400B4F8B8301B1AA4F8B830B8E6B4F8BA3075
:1056B4000344A4F8BA30B2E6B4F8B8300344A4F80A
:1056C400B830ACE604468C48146000F04BFE8B49BD
:1056D400894801F003FA8A4B0F220021864801F021
:1056E400EDF9142080231E2200210090824800F04E
:1056F400C5FD6FF4FF73C4EB4462824914247E48F1
:10570400D20100941A4481FB0231D317002A1144B8
:105714004FF01E02C3EB61234FF00001B4BF80338E
:1057240081339BB200F084FD734800F027FE764B72
:105734001A7E012A3FF6B2AA72B6D3E90010D3E961
:105744000242096800682140104200F0E1801A7C9E
:1057540002F0030209B142F0040242F00802DDE063
:1057640072B61A6811685A6810689A681140DA6843
:10577400104200F08F801A7C02F0030209B142F05B
:10578400040242F008028BE072B619689A6809684C
:1057940011405A681068DA6810424FD01A7C02F03F
:1057A400030209B142F0040242F008024CE072B66E
:1057B400D3E900109A68096800681140DA68104259
:1057C40010D01A7C02F0030209B142F0040242F044
:1057D40008020DE04D4B00221A700DB0BDE8F04FE9
:1057E400FFF774B91A7C02F0030209B142F0040213
:1057F4009108013A5F6919740D2A3FF659AA01A16B
:1058040051F822F0B9370000B1370000E537000045
:10581400B1370000B12A0000DD370000B9370000BD
:10582400B9370000DD370000B12A0000B1370000AD
:10583400E5370000B1370000B93700001A7C02F0E8
:10584400030209B142F004029108013A19740D2AC5
:105854003FF635AA01A151F822F000BFA33700009A
:1058640095370000CF37000095370000BF2A0000AD
:10587400C1370000A3370000A3370000C137000080
:10588400BF2A000095370000CF370000953700008D
:10589400A33700001A7C02F0030209B142F00402AB
:1058A4009108013A19740D2A3FF612AA01A151F880
:1058B40022F000BF87370000793700000B38000062
:1058C40079370000D12A0000FD3700008737000037
:1058D40087370000FD370000D12A00007937000027
:1058E4000B38000079370000873700006845002036
:1058F4007045002088280020444400200C13002018
:105904004C04002003082080A44300209246002079
:105914001A7C02F0030209B142F004029108013A30
:105924005E6919740D2A3FF6BBA901A151F822F052
:105934007137000069370000F5370000693700004F
:10594400A12A0000ED370000713700007137000014
:10595400ED370000A12A000069370000F537000088
:105964006937000071370000013E5E61FFF798B9A6
:1059740001365E61FFF794B95A6902F1FF39C3F841
:105984001490FFF7A7B95A6902F10109C3F81490FA
:10599400FFF7A0B95A6902F1FF38C3F81480FFF782
:1059A40090B95A6902F10108C3F81480FFF789B964
:1059B400013F5F61FFF77CB901375F61FFF778B999
:1059C4005A69A2F10208C3F81480FFF77AB95A6938
:1059D40002F10208C3F81480FFF773B9023F5F6154
:1059E400FFF766B902375F61FFF762B9023E5E6195
:1059F400FFF756B902365E61FFF752B95A69A2F150
:105A04000209C3F81490FFF765B95A6902F1020953
:105A1400C3F81490FFF75EB92DE9F04FA84C83B09A
:105A2400272002F0DFF92368002BC0F2A880C31AF4
:105A3400002BB8BF5B42082B00F3A1800E2002F0BC
:105A4400D1F9A0490B68002B11DBC31A002BB8BF96
:105A54005B42082B0BDC9C4B1B784BB3022B00F0F6
:105A6400C080012B00F0838103B0BDE8F08FC0EB50
:105A7400C013964A086003F2FF13954882FB031291
:105A8400DC17002B4FF0B0011A44C4EB6224B8BFFA
:105A940004F1FF3401F058FF01218D4801F054FF57
:105AA4008B48E1B201F050FF874B1B78002BD5D116
:105AB400884A137E012B40F25F8172B6536962B645
:105AC400002B8549B8BF03330A689B109A420FD054
:105AD40082480268B4BF013202F1FF32022A00F3A5
:105AE4004381002AB8BF022202600B60FEF7EEFF7A
:105AF40000247B4BDFF8008218262746A146794D07
:105B04009B46CDF804805FFA86FA0021504602F0E5
:105B14008DFB019B69681A68734BA3FB0232920CDC
:105B240002EB820292006B685B1A9A42FBD8DFF8A0
:105B3400CC810026092002F0A3FB0136F6B20E2E1A
:105B440000F0DE8058F8040FC0B202F099FB002C7C
:105B5400F3D10D2EF1D1002840F0A180634B1A78C7
:105B64002AB9634A012112681970624B1A60012430
:105B74000121504602F05AFB5BF8046FC3E76FF44F
:105B8400FF73A0EB802251491A442060504881FBE6
:105B94000231D317002A11444C4AC3EB6123B4BF2A
:105BA40003F2FF3303F58063C3EB833303F2FF1384
:105BB40082FB0312DC17002B4FF0E0011A44C4EB04
:105BC4006224B8BF04F1FF3401F0BEFE404804F083
:105BD4007F0101F0B9FEC4F3C6113D4801F0B4FEE3
:105BE4002CE70024DFF810813E4EDFF8F4A0A14634
:105BF4003E4DDFF8ECB000271820F9B20137C0B2EF
:105C0400091B18BF012102F011FB052F02D05BF81C
:105C1400040FF2E77168344BD8F80020A3FB02327A
:105C2400920C02EB8202920073685B1A9A42FBD8D0
:105C3400DFF8C8B00027092002F022FB0137FFB2C9
:105C44000E2F7AD05BF8040FC0B202F019FB002CBF
:105C540008BF0D2F0CBF01230023EFD1A8B92A7868
:105C6400CAB90121224A23482970116801601268C7
:105C7400521AB2F5487F28BF99465AF8040B0121FD
:105C84000124C0B202F0D2FAB3E72B78002BF4D08F
:105C940000232B70F1E7174A1168154AE7E7134A06
:105CA4001378002B3FF463AF82F800901149104A37
:105CB40009681268521AB2F5487F38BF1F4656E782
:105CC40050340020543400209246002003082080E1
:105CD40088280020DC43002014450020F8440020DC
:105CE4002C070020001000E083DE1B4396460020B2
:105CF4006C4600203844002074280020DC05002075
:105D0400013450460121E4B202F090FA052C7FF4EC
:105D140033AF002F3FF4A8AE584B1B68002B3ED086
:105D2400012B00F08980022B7FF49EAE544A13703D
:105D340003B0BDE8F04FFEF735BF01345AF8040B49
:105D44000121E4B2C0B202F071FA052C7FF451AF24
:105D5400B9F1000F3FF488AE0023494A137003B031
:105D6400BDE8F04FFEF7B2BE00220260BDE603B00C
:105D7400BDE8F04FFEF77EBF72B6D2E900309168FD
:105D84001B6800681940D368184219D0137C03F0CB
:105D9400030309B143F0040343F0080316E0394850
:105DA40000F0E0FA384B1E220A21364800F086FE45
:105DB400344800F0E3FA4FF47A7002F0E3F9CEE7E6
:105DC400137C03F0030309B143F004039908013B76
:105DD40011740D2B3FF672AE01A151F823F000BFF0
:105DE400213C0000193C0000313C0000193C00003B
:105DF400BD380000293C0000213C0000213C00008B
:105E0400293C0000BD380000193C0000313C000072
:105E1400193C0000213C00005369013B53614EE6EC
:105E24005369013353614AE65369023B536146E6C1
:105E340053690233536142E6114A1448137000F067
:105E440091FA134B1E220021104800F037FE0F4830
:105E540000F094FA0B4800F085FA0E4B1E22002144
:105E6400084800F02BFE074800F088FA4FF47A70D7
:105E740003B0BDE8F04F02F085B900BFF84400203C
:105E84009246002070450020100E0020444400205B
:105E9400200E0020300E00202DE9F0435B4C87B02B
:105EA4005B4D40F2EE285B4FDFF89C91266803F0CF
:105EB400C3FD2B78002B5FD03B78DB075CD52368D0
:105EC400D9F800209B1A0E2B56D900225249534868
:105ED40001F05EFB052252495048256801F026FE78
:105EE4004E4801F057FE23685B1BC72B0ED84B4E60
:105EF40005E002F047F923685B1BC72B06D8304640
:105F040001F068FA03460120002BF2D0434801F067
:105F140061FA002864D1434C2278434B002A434859
:105F2400434C12BF11212621184604F1340503F015
:105F340005FD404801F02EFE2720002102F0B2F9B1
:105F4400092001E054F8040FC0B2022102F0AAF9BA
:105F5400A542F7D1384C182004F11005C0B2012134
:105F6400019002F09FF90121019802F05FF9A54226
:105F74000FD054F8040FF1E723682A789B1B2AB149
:105F8400B3F5FA6FA1D803F057FD90E74345FAD96A
:105F94009BE72A4D78232A4C85F82C3005F108001C
:105FA40001F0BCF905F1080000F042FA002105F106
:105FB400080001F0BDF97A2304F1080084F82C30BC
:105FC40001F0ACF904F1080000F032FA002104F108
:105FD400080001F0ADF907B0BDE8F043FEF776BD67
:105FE40000230A220D4903A801F008FE03A801F0CA
:105FF400CDFE144903A80B4C01F0B2FE08B10123F5
:10600400237003A801F054FE86E700BF6C4600200D
:106014009E4600209D46002080841E008828002083
:10602400B40E002095460020780E0020A00E00201B
:10603400DC050020782800202C0700203C440020A8
:1060440068450020BC0E00207C460020A1F12803F6
:1060540030B5054683B0252B28D8DFE803F0526518
:106064002424136B27272727272727272727272792
:1060740027272727272727272727272727272727AC
:1060840027273F3F4249003A424B434C18BF012265
:1060940048681B68A4FB03439B0C03FB02F24B6898
:1060A4001B1A9A42FBD8012003B030BD3F295AD9AC
:1060B40001F03F03E81890F82C00FF28F3D011F00A
:1060C400300F5CD0102B5ED002F0DAF803460120CA
:1060D400003B18BF012385F82730E5E70192002A29
:1060E40043D101F03F0401212C4494F82C0002F028
:1060F400D9F8019A94F82C00114602F097F801207F
:10610400D2E72B35012405E00F2A26D802F0CAF87D
:106114000134E4B215F8013F621E0121FF2B184639
:10612400F2D1162CF4D1BEE7104602F02BF8012070
:1061340003B030BD174C032A1549174B4868226831
:1061440034BF05240224A3FB0232920C04FB02F2A6
:106154004B681B1A9A42FBD8A5E7022102F0A2F869
:10616400162CD5D19FE700209EE701F03F030221C2
:106174002B4493F82C0002F095F8012094E7114683
:1061840002F054F88FE7019003F056FC01989BE766
:10619400001000E07428002083DE1B4380F83710D1
:1061A40080F8382080F83930704700BFA1F1140C12
:1061B40038B50446BCF10C0F08D8DFE80CF015071D
:1061C4000709220F0707070707070D00002038BD3E
:1061D4001946154803F084FD012038BD01211248F9
:1061E40003F040FE012038BD83692BB903680F4AD0
:1061F4005B7B02FB03F383610B480AF069FA01201D
:1062040038BD094D8169284603F014FF94F8242011
:10621400012302F0FE02184685F8303185F8A520E6
:1062240085F82F3138BD00BFE8280020A086010082
:106234002DE9F04383B01F46CB188046BDF8289063
:1062440014469BB20E4602EB0905ADB2009500F070
:1062540005FD80B1B9F1000F0DD04FF000092246C1
:1062640001343B463146A4B24046CDF8009000F0DC
:1062740077FCA542F3D103B0BDE8F0832DE9F043E8
:1062840085B0CF181E468046BDF83090BFB20D468B
:10629400144602EB09039BB200933B4600F0DEFC7C
:1062A40010B905B0BDE8F0830023224629464046D4
:1062B4000093334600F054FCB9F1010FF1D9A9F170
:1062C4000209621C1FFA89F492B24CB900243346C5
:1062D400294640460C9405B0BDE8F04300F040BCAC
:1062E4004FF00109234629464046CDF80090039219
:1062F40000F036FC791E039A2346404689B2CDF855
:10630400009000F02DFC039A224492B2DEE700BF15
:1063140003682DE9F043064683B090F850900024BA
:1063240090F8515093F8118000E033681B7C2A46A2
:10633400F76C002104FB03FC0134304601354FEABD
:10634400CC0CE4B21FFA8CFCEDB2BC44CDF800C016
:1063540000F0C8FFA14501D9A845E6D803B0BDE8BF
:10636400F08300BF0268002190F85030127CC06CAA
:1063740012FB03F2D20004F035BA00BF10B5044694
:10638400FFF7C6FF2046BDE8104000F0DBBF00BFAA
:10639400836C10B5044680F851101B689847A36CB1
:1063A40020465B68BDE81040184700BF10B590F860
:1063B400AB3004462BB920460021BDE81040FFF75E
:1063C400E7BF0268002190F85030127CC06C12FBC9
:1063D40003F2D20004F006FA20460021BDE8104082
:1063E400FFF7D6BF38B50446FFF792FF94F8515033
:1063F40094F8503022681D44517CEDB2A94211D961
:1064040094F8AB1029B920462946FFF7C1FF0120B3
:1064140038BD127C0021E06C12FB03F2D20004F0C0
:10642400E1F9F0E7204600F08DFF002038BD00BF01
:1064340010B50446FFF7BAFF2046FFF7D3FF002844
:10644400FAD101462046BDE81040FFF7A1BF00BFC6
:1064540030B51C4685B0134605460A4A00940C46DE
:10646400094900F081FF0DF10F0000F099FF074B7F
:1064740001469DF80F202846009400F017FD05B052
:1064840030BD00BF814E000039500000B94A000001
:106494004218435C507800EB032080B2704700BF81
:1064A4000020704738B50D46044611212B78284644
:1064B40023706B786370AB78A370EB78E3702B79FF
:1064C40023716B796371AB79A371EB79E3712B7AE7
:1064D40023726B7A6372AB7AA372EB7AE3722B7BCF
:1064E40023736B7B6373AB7BA373EB7BE3732B7CB7
:1064F4002374FFF7CDFF0346132128466382FFF779
:10650400C7FF034615212846A382FFF7C1FFE08297
:1065140038BD00BF012B05D0022B09D02BB1411A85
:1065240088B27047014488B27047024490B2704701
:10653400821A90B2704700BF012B05D0022B09D0FC
:106544002BB1024490B27047821A90B27047014452
:1065540088B27047411A88B2704700BF2DE9F04FE6
:1065640087B004460E4690F8807090F881B005928A
:106574000FE094F88510002949D0F319AE420BF1CD
:10658400010BA3EB0A033AD35FFA8BFB002703F05A
:10659400FF0694F882A04FFA87FC31464FFA8BF934
:1065A400AAEB070594F888304A46B4F87C00EDB2AB
:1065B400B4F87E80CDF80CC0AE4228BF29460491C1
:1065C4006146FFF7B9FF02460399404690464A46A2
:1065D400FFF7A0FF059902460029CAD0009341465F
:1065E40094F886C02046049B0BF1010B84F8AAC0E2
:1065F40000F0B6FAF319AE42A3EB0A03C4D23E4448
:1066040084F8819084F8806007B0BDE8F08F00932F
:10661400414694F88700049B84F8AA00204600F0C1
:106624009FFAAAE72DE9F04F044690F89000002362
:1066340085B00728A16784F884300D7840F24E8134
:10664400A0F108030131DBB2A1674FF0FF3294F8E7
:10665400916084F88430824025EA0205F2186DB214
:10666400D2B284F88250072A087840FA03F000F284
:106674002781C3B24FF0FF3084F88420B04094F8EF
:10668400926023EA000394F8AA0084F88600B0FA22
:1066940080F04FFA83F9400984F8839084F88700E6
:1066A400B0180F78C0B21741072800F2F6805FFADD
:1066B40087FE94F893C084F884000CEB00020F78F2
:1066C400D2B20741072A00F2D880F8B294F894A015
:1066D40084F884200AEB020891F800B05FFA88F885
:1066E4004BFA02FBB8F1070F00F2B8805FFA8BF7A0
:1066F4004FF0FF3284F884800121002D0AEB020858
:1067040002FA0AFA5FFA88F827EA0A0701FA08F88F
:10671400A7EB08074FFA87FB40F39C800CEB0208B9
:1067240002FA0CFCB240013E20EA0C0C5FFA88F03D
:106734002EEA020EF6B201FA00F2B4F87C00B1407F
:10674400D21A94F88830AEEB0101A2EB0C0249B2E4
:1067540052B202910392FFF7EFFEA4F87C000646C2
:10676400B4F87E00DDE90212FFF7D4FE0246A4F875
:106774007E00032B00F2EC80DFE803F0B2B8C10224
:10678400C5F10103411C034489B29AB206EB090323
:106794009BB200912046314600F060FA002859D09F
:1067A400002294F884304FF0FF38A4F8802094F845
:1067B4008E50A16FEA180878D2B21841072A00F265
:1067C400B880C6B294F88F0008FA05F584F88420DE
:1067D400831891F800C026EA0506DBB24CFA02FCE5
:1067E400072B00F299805FFA8CF508FA00F084F820
:1067F400843025EA0005314620460022FFF7AEFE2C
:10680400012229462046FFF7A9FE94F88420A76FA9
:10681400531CC2F108003978A2F1070EDBB207F16C
:10682400010A1141C0B2072BCAB207D9C4F878A033
:106834005FFA8EF37A7882400A43D2B2D20784F8A0
:106844008430D8D494F981204A45B0DB94F886305A
:1068540084F8AA30584605B0BDE8F08F4F1CC2F149
:106864000802A8F10808D2B2A7674F785FFA88F83F
:10687400974047EA0B07FFB23AE701F10108C0F17C
:106884000800083AC0B2C4F878804978D2B201FA54
:1068940000F041463843C0B218E701F1010CC2F1DF
:1068A40008020838D2B2C4F878C091F801E0C0B246
:1068B40061460EFA02FE4EEA070E5FFA8EFEF8E615
:1068C4004F1CC3F10803083ADBB2A7674978D2B278
:1068D40001FA03F339460343DBB2CBE60346B4E6DD
:1068E400731900EB09019BB289B252E74119C9F14E
:1068F4000100731C304489B29BB286B249E7C5F1EA
:106904000101C9F10100731C314410449BB28EB2E1
:10691400511C82B289B23CE74D1CC2F10802083B0B
:10692400D2B2A5674D78DBB2954045EA0C05EDB2CD
:106934005BE701F1010CC3F10803083ADBB2C4F8C8
:1069440078C04E78D2B261469E400643F6B239E72B
:10695400014633461DE700BF70B5FF29046F0D469D
:1069640004F117040ED8602930D9B0F8A0301C44C3
:10697400607830B12378AB422ED00444607800288C
:10698400F8D170BDB0F8A2301C4426460021304630
:10699400FFF77EFD0346022130461C44FFF778FDD5
:1069A400854206F10406F1D8208840BA80B2002856
:1069B400E7D0854208D0A3781C44208840BA80B22E
:1069C4000028DED08542F6D1E01C70BD4029D5D91F
:1069D400B0F89E301C44D1E7A01C70BD70B50E46C3
:1069E400194690F8883082B004461546032B09D81E
:1069F400DFE803F0251E0217436F01919847281A18
:106A0400019985B22046A4F87C60A4F87E50FFF773
:106A1400A3FF20B101462046FFF704FE80B202B076
:106A240070BD436F019198473044019986B2E9E7FC
:106A3400436F01919847301A019986B2E2E7436F98
:106A4400019198472844019985B2DBE72DE9F04785
:106A54004FF000094FF6FF784FF6FE7A04460F46D2
:106A640016465D1E00F052FA15F8011F20466368B1
:106A74009847844632463946C445204663461AD070
:106A8400D445F1D0FFF7AAFF94F88830032B05D83A
:106A9400DFE803F00B080E02361AB6B248441FFAB8
:106AA40080F9E1E70644B6B2F8E70744BFB2F5E778
:106AB4003F1ABFB2F2E74846BDE8F08710B4034C72
:106AC40044605DF8044BFFF7C1BF00BFFD4C0000FC
:106AD400014B4367704700BFA1420000026F8A4226
:106AE40022D010B504468C302167FFF7DBFC236FFE
:106AF400CBB194F9991094F99A2094F8A53084F8BC
:106B0400A61084F8A72073B1012B0ED094F9980035
:106B140094F9963003449942B8BF84F8A63082426F
:106B240001DD84F8A70010BD704794F99B3094F9F7
:106B34009C008B42B8BF0B46824284F8A630F0DC3E
:106B440010BD00BF10B49DF804400194B0F8564045
:106B5400121B446C92B2A4465DF8044B604700BF1C
:106B640030B590F8A4409DF80CC004B103B930BD11
:106B7400012B05D0BCF1020F2CD0BCF1030F5CD06B
:106B84001CF0010F29D0B0F860408C42EFD8B0F867
:106B940062408C42EBD91344B0F86450B0F86640BC
:106BA4001FFA83FC944505D294424AD904F1FF3C70
:106BB4001FFA8CFC9442DAD96545D8D2AA4238BF70
:106BC4002A46644594BFC2EB0403C2EB0C030124C0
:106BD4009BB22BE00131C91A89B2B0F864409442E7
:106BE400C5D8B0F866409442C1D90B44B0F860509F
:106BF400B0F862E01FFA83FC8C4505D28E4522D999
:106C04000EF1FF3C1FFA8CFC6545B0D28E458CBF5B
:106C140000240124002CAAD1A94238BF2946E64504
:106C240094BFC1EB0E03C1EB0C039BB20394846CC1
:106C3400A468A446BDE8304060470132D21A92B23B
