:0200000460009A
:100000004643464200000156000000000103030081
:1000100000000000000000000000000000000000E0
:1000200000000000000000000000000000000000D0
:1000300000000000000000000000000000000000C0
:1000400000000000010408000000000000000000A3
:100050000000800000000000000000000000000020
:100060000000000000000000000000000000000090
:100070000000000000000000000000000000000080
:10008000EB04180A063204260000000000000000FD
:10009000050404240000000000000000000000002F
:1000A0000000000000000000000000000000000050
:1000B0000604000000000000000000000000000036
:1000C0000000000000000000000000000000000030
:1000D00020041808000000000000000000000000DC
:1000E0000000000000000000000000000000000010
:1000F0000000000000000000000000000000000000
:10010000D8041808000000000000000000000000F3
:100110000204180804200000000000000000000095
:1001200000000000000000000000000000000000CF
:10013000600400000000000000000000000000005B
:1001400000000000000000000000000000000000AF
:10015000000000000000000000000000000000009F
:10016000000000000000000000000000000000008F
:10017000000000000000000000000000000000007F
:10018000000000000000000000000000000000006F
:10019000000000000000000000000000000000005F
:1001A000000000000000000000000000000000004F
:1001B000000000000000000000000000000000003F
:1001C000000100000010000001000000000000001D
:1001D000000001000000000000000000000000001E
:1001E000000000000000000000000000000000000F
:1001F00000000000000000000000000000000000FF
:10020000FFFFFFFFFFFFFFFFFFFFFFFFFFFFFFFFFE
:10021000FFFFFFFFFFFFFFFFFFFFFFFFFFFFFFFFEE
:10100000D10020434D1600600000000000000000E9
:10101000201000600010006000C8006000000000A8
:101020000000006000D4000000000000FFFFFFFF90
:10103000FFFFFFFFFFFFFFFFFFFFFFFFFFFFFFFFC0
:10104000FFFFFFFFFFFFFFFFFFFFFFFFFFFFFFFFB0
:10105000FFFFFFFFFFFFFFFFFFFFFFFFFFFFFFFFA0
:10106000FFFFFFFFFFFFFFFFFFFFFFFFFFFFFFFF90
:10140000814205D051F8043B40F8043B8242F9D8B0
:10141000704700BF044A05494FF0000342F8043BFF
:101420009142FBD8704700BFC02E0020003A002038
:101430002DE98848BFF34F8F00BF00BF00BF00BF3A
:1014400000F042F9684B0822C3F8542100BF00BFE6
:1014500000BF00BF00BF00BF00BF00BF00BF00BF94
:1014600000BF00BF00BF00BF00BF00BF5F4A6049B0
:101470006048FFF7C5FF604A60496148FFF7C0FF59
:10148000604CFFF7C7FF4FF470004FF0E0210023DE
:101490005D4AC1F8880D44F823200133B02BFAD1FE
:1014A0005A4B80215A4A03F8011B9342FBD14FF05B
:1014B000E0254D4E4FF08039DFF884B1DFF884A18C
:1014C0004FF0FF31C5F8084D0027C6F80491C6F863
:1014D00000B1C6F8F490C6F8F0A0D5F8243DDFF8C6
:1014E000688143F4E0234B4AC5F8243DD8F81C300A
:1014F00023F07F0343F04003C8F81C30D8F82430B1
:1015000023F07F0343F04003C8F824309166D1668E
:101510001167516700F0E0F83F4B4049A363404B2F
:10152000E36363236B610323AF612B613D4BC5F81C
:10153000203DD5F8FC3D43F08073C5F8FC3D3A4BA7
:101540001A6842F001021A605B680B6000F00EFB43
:10155000C6F804913548C6F800B1C6F8F490C6F84C
:10156000F0A000F03DFDD8F86C10314B314A41F449
:101570004051C8F86C101F60C3F80871C3F81871A7
:10158000C3F82871C3F83871936BDB0708D442F6AF
:101590001563294951651365936B43F00103936308
:1015A000244A264C936843F00113936000F01CF921
:1015B00000F060F800F018FD00F006FB00F086F87F
:1015C0002368132BFCD900F097FB2368B3F5967FB3
:1015D000FBD300F07FF800F07BF800F0FDFC00F09A
:1015E000F3FC30BFFDE700BF00800D40C07300007A
:1015F0000422006000000000C02E0020C89500609A
:1016000000000020002C00201957000000E400E03A
:10161000A0E400E000C00A40E56A00009C39002018
:10162000E96A000000002020001000E00046C3230B
:101630000040084000400D400000C056A039002086
:101640001B1018200C0D111300C00F40054B4FF458
:101650002A01054A05485A641864054A9963954663
:10166000FFF7E6FE00C00A40ABAAAAAA07002000C6
:1016700000800720104BA020104AD96E41F4403161
:1016800010B4D96640F23764D96E41F44071D9661E
:1016900054649064936C1B06FCD4094A40F2376191
:1016A000A02351649364936C13F08003FBD1054A2B
:1016B00013705DF8044B704700C00F4000400C40B1
:1016C00000800C40C5390020704700BF704700BF44
:1016D000704700BF00BF704710B44FF0E0230021F7
:1016E00010243148C3F8941DC3F89C4D1124C3F84D
:1016F000A00D2E48C3F89C4D1224C3F8A00D2C4811
:10170000C3F89C4D2B4AC3F8A00D2B4C42F0150298
:101710002A48C3F89C4DC3F8A00D294C2948C3F8AA
:101720009C4DC3F8A00D284CC3F89C2D2748284A8F
:10173000C3F8A04DC3F89C0DC3F8A02D02F5A0225C
:10174000244C0C322448C3F89C4DC3F8A02D234AE6
:10175000C3F89C0D224CC3F8A02D02F14062C3F8DF
:101760009C4D2048C3F8A02D0C32C3F89C0DC3F843
:10177000A02D00BF00BF00BF00BF00BF0122C3F803
:10178000942DBFF34F8FBFF36F8FC3F8501FBFF37C
:101790004F8FBFF36F8FD3F8142D5DF8044B42F4D5
:1017A0004032C3F8142D70473F0000102500080791
:1017B00009001000003A0020130020002100020759
:1017C0001400002025000813090000101600202036
:1017D00027000B1317000040180000602F000B07B4
:1017E000190000701A000080F0B5B84B1822B84EEE
:1017F0000120B84F83B0C3F85C62B749C3F8607288
:10180000B64DC3F86462A6F53046B54CC3F86862BD
:10181000C3F86C52C3F87052C3F87452C3F87852CC
:1018200048F20C75DA661A675A679A67DA67C3F87E
:101830008020C3F88420C3F88820C1F82C03A94A6B
:10184000C1F83003C1F83403C1F83803C1F83C03D0
:10185000C1F85003A169A44B0A40A448A44913430A
:10186000A44AA361D4F8843043F00C03C4F8843054
:101870004FF0FF34036843F00203036003682B401A
:101880004FF400551A439C4B026044608A689B4C9D
:1018900013409B4A43F000538360C36823F07803EE
:1018A000C360036A134023430362036A1340954AEB
:1018B0002343954C43628262C2620022D1F8B83061
:1018C00023F03F0343F00103C0F8B830D1F8BC3037
:1018D0008E4923F03F0343F00103C0F8BC3040F2CF
:1018E0000563026105660467C0F880304566446799
:1018F0000224C0F88430036823F00203036081618E
:10190000834B8449C46143F8042B8B42FBD1774A53
:10191000136843F001031360136813F00103FBD154
:101920007A48022140F2F564906140F29940D16119
:1019300040F26641C2F8004242F20144C2F810127D
:101940007549C2F82002C2F8301240F2354173489E
:10195000C2F83442C2F84012714CC2F8500242F24E
:1019600001207049C2F854120121C2F86042C2F845
:1019700064025E48C2F8A030C2F8A430C2F8B010C9
:101980004369DA07FCD5012300244FF4803257491C
:101990004361C0F8A040C0F8A420C0F8B0304B6943
:1019A000DB07FCD5012300244FF400304F4A4B6184
:1019B000C1F8A040C1F8A400C1F8B0305369DF07F6
:1019C000FCD501230024584848495361C2F8A0407F
:1019D000C2F8A400C2F8B0304B69DE07FCD5D1F8DC
:1019E000003145F60D5221209BB24861934265D1EA
:1019F00000244FF4802201233C48C1F8A040C1F8E4
:101A0000A420C1F8B0304369DD07FCD501234FF4B1
:101A100000040021354A4361C0F8A040C0F8A4107A
:101A2000C0F8B0305369DC07FCD501234FF4000443
:101A30004FF480302D495361C2F8A040C2F8A40091
:101A4000C2F8B0304B69D807FCD501234FF400042D
:101A50004FF40030254A4B61C1F8A040C1F8A40002
:101A6000C1F8B0305369D907FCD501234FF4000405
:101A70002D481E495361C2F8A040C2F8A400C2F824
:101A8000B0304B69DA07FCD5D1F8003145F60D527C
:101A900021209BB24861934250D008254FF40004A6
:101AA00022490020224B234A009015705A1A012324
:101AB0002148224400F09CFA03B0F0BD1E4B0022E6
:101AC000C3E90022C3E9022203B0F0BD00801F4039
:101AD000F9B00100F910010000841F40F970010005
:101AE00000C00F40FFFCFF1F000300A000402A4081
:101AF00000802A401200FFFFFF37F70040000080FF
:101B000000FFF07CFF000F8363000200F05AF05AE0
:101B100000422A4000432A409F041830EB06180A6E
:101B20003806180A0632012604000300000000707F
:101B300000000070C73900205C3700204FF400041B
:101B40004FF4802201230848C1F8A040C1F8A42026
:101B5000C1F8B0304369DB07FCD5012310254FF0F5
:101B6000807443619CE700BF00402A40F0B4154AEE
:101B700040274FF480314FF480564FF400554FF416
:101B8000404443F24200136913F0020F0ED113F4E4
:101B9000005F0FD013F4805F0ED0002BF3DA13F444
:101BA000803F0BD15B060BD5F0BC7047946151614F
:101BB0009061E8E75561E6E75661E4E79161E2E7A5
:101BC0005761E0E700800D403F4A03203F49F3EEB4
:101BD000095AD2F880304FF0000C9FED3D6A23F097
:101BE00001039FED3C5A30B4C2F88030C2F8900037
:101BF000D1F8E010384DCBB2384C39482B6007EEA5
:101C0000903A0B0DC1F30B21F8EEE77A06EE903A0D
:101C100007EE101A334BB8EEC77A2160F8EEE66A89
:101C2000314937EEC66A37EEC55A76EEC76A77EEA7
:101C3000E57A26EE266AC3ED006A25EE265AD2F82A
:101C4000803067EEA64AC0ED007AC6EE275A2748D4
:101C500085EE276AC4EEA76A75EE875AFCEEE55A50
:101C600036EE076A15EE904ABCEEC66A43EA0453A4
:101C700076EE877AC2F8803016EE103AD2F89041AC
:101C8000FCEEE77A01EA0341214317EE903AC2F8ED
:101C90009011C3F30B03D2F890110B431449C2F80F
:101CA0009031D2F8803043F00203C2F88030114BFB
:101CB00080F840C0C1F840314FF0E023012230BC31
:101CC000C3F80821704700BF00810D4000441F4049
:101CD0000000AA420000B4428C390020883900205C
:101CE00090390020943900200000FF0F00E400E04C
:101CF000002C0020A5580000314B40F6617210B551
:101D0000C3F8202140F2044400F062F92D4A2E4924
:101D1000D2F880302D4843F00303C2F880302C4BBA
:101D2000C1F8604102681A4203D1D1F8A8319A077C
:101D30001BD0254A4FF00041244B5963D2F8403163
:101D400043F00203C2F84031D2F840319B07FBD484
:101D50004FF400304FF0E0211C4B4FF00042C1F82F
:101D60008C0219209A6300F047F9184A4FF080401E
:101D7000154C002190630A20164B11604FF420721D
:101D8000C4F8A801184600F01BF94FF4800203467E
:101D90004FF4810040F243111860C4F858311A64BE
:101DA0000D4B0E4AC4F84811C3F804224FF0E0224C
:101DB0004FF400310123C2F80C11C4F8403110BDBA
:101DC00000800D4000C00F4000002E4000900D40EC
:101DD000001C1E0000000020002C00208D5A000076
:101DE00008B50E4B1B6E9B0700D4FBBE72B60C4BA6
:101DF00000200C4AC3F8400103F160430A49A3F5EF
:101E00005F2311649D46BFF34F8F4FF400130748C3
:101E1000074ADB6902609B68984700BF00441F4087
:101E200000002E4000C00A40030020000080202057
:101E3000000012EB43690A4A03EB011010B4037A65
:101E4000084C02EB0313D3E901321460C2681A6034
:101E500003690BB142691A605DF8044B704700BF1B
:101E60004007002061F801004369027E03EB021283
:101E700092F808C08C451CD01A7AFF2A19D09142DA
:101E800010B5044616D01A7EFF2A06D00121D3E9E8
:101E9000002312681A4201D1217610BD064B05229B
:101EA000204603EB0C135B681A60FFF7C3FF217633
:101EB000F3E770470021EAE74007002043690A4A38
:101EC00003EB011010B490F82830084C02EB031318
:101ED000D3E901321460C26A1A60036B0BB1426B22
:101EE0001A605DF8044B70474007002061F801005C
:101EF0004369427E03EB021292F828C08C451ED043
:101F000093F82820FF2A1AD0914210B5044617D022
:101F100093F83820FF2A06D00121D3E90023126864
:101F20001A4201D1617610BD064B0522204603EB13
:101F30000C135B681A60FFF7C1FF6176F3E7704727
:101F40000021EAE740070020164942698B6B23F421
:101F50007C0343F4802370B58B630446124DD2E9B1
:101F600000130A681A4303690A60022200211A61F9
:101F70000E4A19619A6401225A629D624FF430350B
:101F8000DD624FF001159E6C1E6519629D651A6138
:101F9000017EFFF74FFF617E2046BDE87040FFF7EE
:101FA0008DBF00BF00C00F40B80B05053B37281997
:101FB000F8B500BFF8BC08BC9E46704700000000A2
:101FC0005FF800F0B97100005FF800F07155000093
:101FD0005FF800F0FD6100005FF800F05D72000046
:101FE0005FF800F0E94F00005FF800F0856B00003B
:101FF0005FF800F0E96C00005FF800F0D9520000D3
:0C2000000501000029010000853A0000E5
:10200C001603550053004200200053006500720077
:10201C00690061006C000000180354006500650045
:10202C006E00730079006400750069006E006F002B
:10203C000403090409026200030100C032080B000A
:10204C000202020100090400000102020100052441
:10205C0000100105240101010424020605240600D8
:10206C00010705820310001009040100020A000098
:10207C000007050302400000070584024000000928
:10208C0004020002FF6AFF000705810240000107FD
:10209C00050102400001000009026200030100C0BA
:1020AC0032080B00020202010009040000010202C6
:1020BC00010005240010010524010101042402067D
:1020CC000524060001070582031000050904010020
:1020DC00020A000000070503020002000705840243
:1020EC000002000904020002FF6AC7000705810212
:1020FC000002010705010200020100000A060002AD
:10210C00EF0201400100000080C00F4000000003FE
:10211C001900000010000000E8841F4001000000BE
:10212C00FF000000FF0000000000000000000000A5
:10213C001800000010000000E4841F4001000000A3
:10214C00FF000000FF000000000000000000000085
:10215C001F0000002971000070C00F40000C00002F
:10216C001100000011000000E0841F40020000007C
:10217C002C00000012000000E0841F400100000051
:10218C001000000011000000DC841F400200000061
:10219C002D00000012000000DC841F400100000034
:1021AC001E0000001D71000070C00F40C000000038
:1021BC001200000013000000D0841F40010000003A
:1021CC00FF000000FF000000000000000000000005
:1021DC001300000013000000CC841F40010000001D
:1021EC00FF000000FF0000000000000000000000E5
:0821FC001C000000117100003D
:1022040000000000000000000000000000000000CA
:1022140000000000000000000000000000000000BA
:10222400F8B54FF084439D695A6915400DD0254F88
:1022340001269D6195FAA5F4B4FA84F457F8243084
:1022440006FA04F49847A543F4D11F4B9D695A69D3
:1022540015400DD01D4F01269D6195FAA5F4B4FAE1
:1022640084F457F8243006FA04F49847A543F4D1CB
:10227400174B9D695A6915400DD0164F01269D6173
:1022840095FAA5F4B4FA84F457F8243006FA04F461
:102294009847A543F4D1104B9D695A6915400DD058
:1022A4000E4F01269D6195FAA5F4B4FA84F457F80B
:1022B400243006FA04F49847A543F4D1BFF34F8FB2
:1022C400F8BD00BFC428002000400042442900207B
:1022D40000800042C429002000C00042442A00209B
:1022E4000548064B1B1AD90F01EBA301491002D074
:1022F400034B03B118477047C02E0020C02E0020A6
:102304000000000008B5054B1BB105490548AFF3B3
:102314000080BDE80840FFF7E3BF00BF00000000F5
:102324003038002000D40060044BFF204FF0FF3110
:1023340000221860C3E90212704700BF88300020F1
:1023440000207047704700BF38B500F10805D0F889
:10235400B4300446284698474FF6FD73984201D995
:10236400012038BD0346B4F8BA20B4F8B8102846A2
:1023740004F086F994F89030032BF1D8DFE803F0E9
:10238400140E0802B4F8BA301B1AA4F8BA30E7E7FE
:10239400B4F8B8301B1AA4F8B830E1E7B4F8BA308E
:1023A4001844A4F8BA00DBE7B4F8B8301844A4F829
:1023B400B800D5E72DE9F047002A4ED004460D4673
:1023C4008F180026DFF89C9000F108084FF6FD7A7C
:1023D40003E00120AF42064420D0236815F8011B16
:1023E4001B684B4515D1D4F8B43040469847504546
:1023F400EFD80346B4F8BA20B4F8B810404604F055
:102404003FF994F89030032BE3D8DFE803F01F186A
:10241400110A20469847AF420644DED13046BDE853
:10242400F087B4F8BA301B1A0120A4F8BA30D1E707
:10243400B4F8B8301B1A0120A4F8B830CAE7B4F8CD
:10244400BA301844A4F8BA000120C3E7B4F8B8308D
:102454001844A4F8B8000120BCE716463046BDE88D
:10246400F08700BF49010000214B1A68D2E900102F
:10247400D3680968006810B41842946801EA04013A
:102484002ED0137C03F00303D9B943F00803990851
:10249400013B11740D2B0BD8DFE803F00D071C076B
:1024A4000A160D0D160A071C070D5369013B5361EB
:1024B4005DF8044B704753695DF8044B0133536175
:1024C400704743F00403E0E753695DF8044B023BB3
:1024D4005361704753695DF8044B0233536170478D
:1024E400137C03F003030029D1D043F00403CEE7A7
:1024F400C8300020214B5A68D2E90010D36809681B
:10250400006810B41842946801EA04012ED0137CC8
:1025140003F00303D9B943F008039908013B11748C
:102524000D2B0BD8DFE803F00D071C070A160D0D61
:10253400160A071C070D5369013B53615DF8044BF0
:10254400704753695DF8044B01335361704743F09E
:102554000403E0E753695DF8044B023B53617047A1
:1025640053695DF8044B023353617047137C03F0E5
:1025740003030029D1D043F00403CEE7C830002080
:10258400214B9A68D2E90010D3680968006810B436
:102594001842946801EA04012ED0137C03F003036B
:1025A400D9B943F008039908013B11740D2B0BD8DA
:1025B400DFE803F00D071C070A160D0D160A071CA9
:1025C400070D5369013B53615DF8044B7047536930
:1025D4005DF8044B01335361704743F00403E0E7B3
:1025E40053695DF8044B023B5361704753695DF8CE
:1025F400044B023353617047137C03F00303002937
:10260400D1D043F00403CEE7C8300020214BDA6870
:10261400D2E90010D3680968006810B418429468BD
:1026240001EA04012ED0137C03F00303D9B943F06B
:1026340008039908013B11740D2B0BD8DFE803F054
:102644000D071C070A160D0D160A071C070D536902
:10265400013B53615DF8044B704753695DF8044BCB
:1026640001335361704743F00403E0E753695DF8B5
:10267400044B023B5361704753695DF8044B0233CA
:1026840053617047137C03F003030029D1D043F056
:102694000403CEE7C8300020214B1A69D2E90010A8
:1026A400D3680968006810B41842946801EA040108
:1026B4002ED0137C03F00303D9B943F0080399081F
:1026C400013B11740D2B0BD8DFE803F00D071C0739
:1026D4000A160D0D160A071C070D5369013B5361B9
:1026E4005DF8044B704753695DF8044B0133536143
:1026F400704743F00403E0E753695DF8044B023B81
:102704005361704753695DF8044B0233536170475A
:10271400137C03F003030029D1D043F00403CEE774
:10272400C8300020214B5A69D2E90010D3680968E7
:10273400006810B41842946801EA04012ED0137C96
:1027440003F00303D9B943F008039908013B11745A
:102754000D2B0BD8DFE803F00D071C070A160D0D2F
:10276400160A071C070D5369013B53615DF8044BBE
:10277400704753695DF8044B01335361704743F06C
:102784000403E0E753695DF8044B023B536170476F
:1027940053695DF8044B023353617047137C03F0B3
:1027A40003030029D1D043F00403CEE7C83000204E
:1027B400214B9A69D2E90010D3680968006810B403
:1027C4001842946801EA04012ED0137C03F0030339
:1027D400D9B943F008039908013B11740D2B0BD8A8
:1027E400DFE803F00D071C070A160D0D160A071C77
:1027F400070D5369013B53615DF8044B70475369FE
:102804005DF8044B01335361704743F00403E0E780
:1028140053695DF8044B023B5361704753695DF89B
:10282400044B023353617047137C03F00303002904
:10283400D1D043F00403CEE7C8300020214BDA693D
:10284400D2E90010D3680968006810B4184294688B
:1028540001EA04012ED0137C03F00303D9B943F039
:1028640008039908013B11740D2B0BD8DFE803F022
:102874000D071C070A160D0D160A071C070D5369D0
:10288400013B53615DF8044B704753695DF8044B99
:1028940001335361704743F00403E0E753695DF883
:1028A400044B023B5361704753695DF8044B023398
:1028B40053617047137C03F003030029D1D043F024
:1028C4000403CEE7C8300020214B1A6AD2E9001075
:1028D400D3680968006810B41842946801EA0401D6
:1028E4002ED0137C03F00303D9B943F008039908ED
:1028F400013B11740D2B0BD8DFE803F00D071C0707
:102904000A160D0D160A071C070D5369013B536186
:102914005DF8044B704753695DF8044B0133536110
:10292400704743F00403E0E753695DF8044B023B4E
:102934005361704753695DF8044B02335361704728
:10294400137C03F003030029D1D043F00403CEE742
:10295400C8300020214B5A6AD2E90010D3680968B4
:10296400006810B41842946801EA04012ED0137C64
:1029740003F00303D9B943F008039908013B117428
:102984000D2B0BD8DFE803F00D071C070A160D0DFD
:10299400160A071C070D5369013B53615DF8044B8C
:1029A400704753695DF8044B01335361704743F03A
:1029B4000403E0E753695DF8044B023B536170473D
:1029C40053695DF8044B023353617047137C03F081
:1029D40003030029D1D043F00403CEE7C83000201C
:1029E400214B9A6AD2E90010D3680968006810B4D0
:1029F4001842946801EA04012ED0137C03F0030307
:102A0400D9B943F008039908013B11740D2B0BD875
:102A1400DFE803F00D071C070A160D0D160A071C44
:102A2400070D5369013B53615DF8044B70475369CB
:102A34005DF8044B01335361704743F00403E0E74E
:102A440053695DF8044B023B5361704753695DF869
:102A5400044B023353617047137C03F003030029D2
:102A6400D1D043F00403CEE7C8300020214BDA6A0A
:102A7400D2E90010D3680968006810B41842946859
:102A840001EA04012ED0137C03F00303D9B943F007
:102A940008039908013B11740D2B0BD8DFE803F0F0
:102AA4000D071C070A160D0D160A071C070D53699E
:102AB400013B53615DF8044B704753695DF8044B67
:102AC40001335361704743F00403E0E753695DF851
:102AD400044B023B5361704753695DF8044B023366
:102AE40053617047137C03F003030029D1D043F0F2
:102AF4000403CEE7C8300020214B1A6BD2E9001042
:102B0400D3680968006810B41842946801EA0401A3
:102B14002ED0137C03F00303D9B943F008039908BA
:102B2400013B11740D2B0BD8DFE803F00D071C07D4
:102B34000A160D0D160A071C070D5369013B536154
:102B44005DF8044B704753695DF8044B01335361DE
:102B5400704743F00403E0E753695DF8044B023B1C
:102B64005361704753695DF8044B023353617047F6
:102B7400137C03F003030029D1D043F00403CEE710
:102B8400C8300020214B5A6BD2E90010D368096881
:102B9400006810B41842946801EA04012ED0137C32
:102BA40003F00303D9B943F008039908013B1174F6
:102BB4000D2B0BD8DFE803F00D071C070A160D0DCB
:102BC400160A071C070D5369013B53615DF8044B5A
:102BD400704753695DF8044B01335361704743F008
:102BE4000403E0E753695DF8044B023B536170470B
:102BF40053695DF8044B023353617047137C03F04F
:102C040003030029D1D043F00403CEE7C8300020E9
:102C1400214B9A6BD2E90010D3680968006810B49C
:102C24001842946801EA04012ED0137C03F00303D4
:102C3400D9B943F008039908013B11740D2B0BD843
:102C4400DFE803F00D071C070A160D0D160A071C12
:102C5400070D5369013B53615DF8044B7047536999
:102C64005DF8044B01335361704743F00403E0E71C
:102C740053695DF8044B023B5361704753695DF837
:102C8400044B023353617047137C03F003030029A0
:102C9400D1D043F00403CEE7C8300020214BDA6BD7
:102CA400D2E90010D3680968006810B41842946827
:102CB40001EA04012ED0137C03F00303D9B943F0D5
:102CC40008039908013B11740D2B0BD8DFE803F0BE
:102CD4000D071C070A160D0D160A071C070D53696C
:102CE400013B53615DF8044B704753695DF8044B35
:102CF40001335361704743F00403E0E753695DF81F
:102D0400044B023B5361704753695DF8044B023333
:102D140053617047137C03F003030029D1D043F0BF
:102D24000403CEE7C8300020214B1A6CD2E900100E
:102D3400D3680968006810B41842946801EA040171
:102D44002ED0137C03F00303D9B943F00803990888
:102D5400013B11740D2B0BD8DFE803F00D071C07A2
:102D64000A160D0D160A071C070D5369013B536122
:102D74005DF8044B704753695DF8044B01335361AC
:102D8400704743F00403E0E753695DF8044B023BEA
:102D94005361704753695DF8044B023353617047C4
:102DA400137C03F003030029D1D043F00403CEE7DE
:102DB400C8300020214B5A6CD2E90010D36809684E
:102DC400006810B41842946801EA04012ED0137C00
:102DD40003F00303D9B943F008039908013B1174C4
:102DE4000D2B0BD8DFE803F00D071C070A160D0D99
:102DF400160A071C070D5369013B53615DF8044B28
:102E0400704753695DF8044B01335361704743F0D5
:102E14000403E0E753695DF8044B023B53617047D8
:102E240053695DF8044B023353617047137C03F01C
:102E340003030029D1D043F00403CEE7C8300020B7
:102E4400214B9A6CD2E90010D3680968006810B469
:102E54001842946801EA04012ED0137C03F00303A2
:102E6400D9B943F008039908013B11740D2B0BD811
:102E7400DFE803F00D071C070A160D0D160A071CE0
:102E8400070D5369013B53615DF8044B7047536967
:102E94005DF8044B01335361704743F00403E0E7EA
:102EA40053695DF8044B023B5361704753695DF805
:102EB400044B023353617047137C03F0030300296E
:102EC400D1D043F00403CEE7C8300020214BDA6CA4
:102ED400D2E90010D3680968006810B418429468F5
:102EE40001EA04012ED0137C03F00303D9B943F0A3
:102EF40008039908013B11740D2B0BD8DFE803F08C
:102F04000D071C070A160D0D160A071C070D536939
:102F1400013B53615DF8044B704753695DF8044B02
:102F240001335361704743F00403E0E753695DF8EC
:102F3400044B023B5361704753695DF8044B023301
:102F440053617047137C03F003030029D1D043F08D
:102F54000403CEE7C8300020214B1A6DD2E90010DB
:102F6400D3680968006810B41842946801EA04013F
:102F74002ED0137C03F00303D9B943F00803990856
:102F8400013B11740D2B0BD8DFE803F00D071C0770
:102F94000A160D0D160A071C070D5369013B5361F0
:102FA4005DF8044B704753695DF8044B013353617A
:102FB400704743F00403E0E753695DF8044B023BB8
:102FC4005361704753695DF8044B02335361704792
:102FD400137C03F003030029D1D043F00403CEE7AC
:102FE400C8300020214B5A6DD2E90010D36809681B
:102FF400006810B41842946801EA04012ED0137CCE
:1030040003F00303D9B943F008039908013B117491
:103014000D2B0BD8DFE803F00D071C070A160D0D66
:10302400160A071C070D5369013B53615DF8044BF5
:10303400704753695DF8044B01335361704743F0A3
:103044000403E0E753695DF8044B023B53617047A6
:1030540053695DF8044B023353617047137C03F0EA
:1030640003030029D1D043F00403CEE7C830002085
:10307400214B9A6DD2E90010D3680968006810B436
:103084001842946801EA04012ED0137C03F0030370
:10309400D9B943F008039908013B11740D2B0BD8DF
:1030A400DFE803F00D071C070A160D0D160A071CAE
:1030B400070D5369013B53615DF8044B7047536935
:1030C4005DF8044B01335361704743F00403E0E7B8
:1030D40053695DF8044B023B5361704753695DF8D3
:1030E400044B023353617047137C03F0030300293C
:1030F400D1D043F00403CEE7C8300020214BDA6D71
:10310400D2E90010D3680968006810B418429468C2
:1031140001EA04012ED0137C03F00303D9B943F070
:1031240008039908013B11740D2B0BD8DFE803F059
:103134000D071C070A160D0D160A071C070D536907
:10314400013B53615DF8044B704753695DF8044BD0
:1031540001335361704743F00403E0E753695DF8BA
:10316400044B023B5361704753695DF8044B0233CF
:1031740053617047137C03F003030029D1D043F05B
:103184000403CEE7C8300020214B1A6ED2E90010A8
:10319400D3680968006810B41842946801EA04010D
:1031A4002ED0137C03F00303D9B943F00803990824
:1031B400013B11740D2B0BD8DFE803F00D071C073E
:1031C4000A160D0D160A071C070D5369013B5361BE
:1031D4005DF8044B704753695DF8044B0133536148
:1031E400704743F00403E0E753695DF8044B023B86
:1031F4005361704753695DF8044B02335361704760
:10320400137C03F003030029D1D043F00403CEE779
:10321400C8300020214B5A6ED2E90010D3680968E7
:10322400006810B41842946801EA04012ED0137C9B
:1032340003F00303D9B943F008039908013B11745F
:103244000D2B0BD8DFE803F00D071C070A160D0D34
:10325400160A071C070D5369013B53615DF8044BC3
:10326400704753695DF8044B01335361704743F071
:103274000403E0E753695DF8044B023B5361704774
:1032840053695DF8044B023353617047137C03F0B8
:1032940003030029D1D043F00403CEE7C830002053
:1032A400214B9A6ED2E90010D3680968006810B403
:1032B4001842946801EA04012ED0137C03F003033E
:1032C400D9B943F008039908013B11740D2B0BD8AD
:1032D400DFE803F00D071C070A160D0D160A071C7C
:1032E400070D5369013B53615DF8044B7047536903
:1032F4005DF8044B01335361704743F00403E0E786
:1033040053695DF8044B023B5361704753695DF8A0
:10331400044B023353617047137C03F00303002909
:10332400D1D043F00403CEE7C8300020214BDA6E3D
:10333400D2E90010D3680968006810B41842946890
:1033440001EA04012ED0137C03F00303D9B943F03E
:1033540008039908013B11740D2B0BD8DFE803F027
:103364000D071C070A160D0D160A071C070D5369D5
:10337400013B53615DF8044B704753695DF8044B9E
:1033840001335361704743F00403E0E753695DF888
:10339400044B023B5361704753695DF8044B02339D
:1033A40053617047137C03F003030029D1D043F029
:1033B4000403CEE7C8300020214B1A6FD2E9001075
:1033C400D3680968006810B41842946801EA0401DB
:1033D4002ED0137C03F00303D9B943F008039908F2
:1033E400013B11740D2B0BD8DFE803F00D071C070C
:1033F4000A160D0D160A071C070D5369013B53618C
:103404005DF8044B704753695DF8044B0133536115
:10341400704743F00403E0E753695DF8044B023B53
:103424005361704753695DF8044B0233536170472D
:10343400137C03F003030029D1D043F00403CEE747
:10344400C8300020214B5A6FD2E90010D3680968B4
:10345400006810B41842946801EA04012ED0137C69
:1034640003F00303D9B943F008039908013B11742D
:103474000D2B0BD8DFE803F00D071C070A160D0D02
:10348400160A071C070D5369013B53615DF8044B91
:10349400704753695DF8044B01335361704743F03F
:1034A4000403E0E753695DF8044B023B5361704742
:1034B40053695DF8044B023353617047137C03F086
:1034C40003030029D1D043F00403CEE7C830002021
:1034D400214B9A6FD2E90010D3680968006810B4D0
:1034E4001842946801EA04012ED0137C03F003030C
:1034F400D9B943F008039908013B11740D2B0BD87B
:10350400DFE803F00D071C070A160D0D160A071C49
:10351400070D5369013B53615DF8044B70475369D0
:103524005DF8044B01335361704743F00403E0E753
:1035340053695DF8044B023B5361704753695DF86E
:10354400044B023353617047137C03F003030029D7
:10355400D1D043F00403CEE7C8300020214BDA6F0A
:10356400D2E90010D3680968006810B4184294685E
:1035740001EA04012ED0137C03F00303D9B943F00C
:1035840008039908013B11740D2B0BD8DFE803F0F5
:103594000D071C070A160D0D160A071C070D5369A3
:1035A400013B53615DF8044B704753695DF8044B6C
:1035B40001335361704743F00403E0E753695DF856
:1035C400044B023B5361704753695DF8044B02336B
:1035D40053617047137C03F003030029D1D043F0F7
:1035E4000403CEE7C8300020224BD3F88020D2E970
:1035F4000010D3680968006810B41842946801EA9E
:1036040004012ED0137C03F00303D9B943F008035B
:103614009908013B11740D2B0BD8DFE803F00D075B
:103624001C070A160D0D160A071C070D5369013BEA
:1036340053615DF8044B704753695DF8044B0133E3
:103644005361704743F00403E0E753695DF8044BAA
:10365400023B5361704753695DF8044B0233536175
:103664007047137C03F003030029D1D043F0040313
:10367400CEE700BFC8300020224BD3F88420D2E923
:103684000010D3680968006810B41842946801EA0D
:1036940004012ED0137C03F00303D9B943F00803CB
:1036A4009908013B11740D2B0BD8DFE803F00D07CB
:1036B4001C070A160D0D160A071C070D5369013B5A
:1036C40053615DF8044B704753695DF8044B013353
:1036D4005361704743F00403E0E753695DF8044B1A
:1036E400023B5361704753695DF8044B02335361E5
:1036F4007047137C03F003030029D1D043F0040383
:10370400CEE700BFC8300020224BD3F88820D2E98E
:103714000010D3680968006810B41842946801EA7C
:1037240004012ED0137C03F00303D9B943F008033A
:103734009908013B11740D2B0BD8DFE803F00D073A
:103744001C070A160D0D160A071C070D5369013BC9
:1037540053615DF8044B704753695DF8044B0133C2
:103764005361704743F00403E0E753695DF8044B89
:10377400023B5361704753695DF8044B0233536154
:103784007047137C03F003030029D1D043F00403F2
:10379400CEE700BFC8300020224BD3F88C20D2E9FA
:1037A4000010D3680968006810B41842946801EAEC
:1037B40004012ED0137C03F00303D9B943F00803AA
:1037C4009908013B11740D2B0BD8DFE803F00D07AA
:1037D4001C070A160D0D160A071C070D5369013B39
:1037E40053615DF8044B704753695DF8044B013332
:1037F4005361704743F00403E0E753695DF8044BF9
:10380400023B5361704753695DF8044B02335361C3
:103814007047137C03F003030029D1D043F0040361
:10382400CEE700BFC8300020224BD3F89020D2E965
:103834000010D3680968006810B41842946801EA5B
:1038440004012ED0137C03F00303D9B943F0080319
:103854009908013B11740D2B0BD8DFE803F00D0719
:103864001C070A160D0D160A071C070D5369013BA8
:1038740053615DF8044B704753695DF8044B0133A1
:103884005361704743F00403E0E753695DF8044B68
:10389400023B5361704753695DF8044B0233536133
:1038A4007047137C03F003030029D1D043F00403D1
:1038B400CEE700BFC8300020224BD3F89420D2E9D1
:1038C4000010D3680968006810B41842946801EACB
:1038D40004012ED0137C03F00303D9B943F0080389
:1038E4009908013B11740D2B0BD8DFE803F00D0789
:1038F4001C070A160D0D160A071C070D5369013B18
:1039040053615DF8044B704753695DF8044B013310
:103914005361704743F00403E0E753695DF8044BD7
:10392400023B5361704753695DF8044B02335361A2
:103934007047137C03F003030029D1D043F0040340
:10394400CEE700BFC8300020224BD3F89820D2E93C
:103954000010D3680968006810B41842946801EA3A
:1039640004012ED0137C03F00303D9B943F00803F8
:103974009908013B11740D2B0BD8DFE803F00D07F8
:103984001C070A160D0D160A071C070D5369013B87
:1039940053615DF8044B704753695DF8044B013380
:1039A4005361704743F00403E0E753695DF8044B47
:1039B400023B5361704753695DF8044B0233536112
:1039C4007047137C03F003030029D1D043F00403B0
:1039D400CEE700BFC8300020224BD3F89C20D2E9A8
:1039E4000010D3680968006810B41842946801EAAA
:1039F40004012ED0137C03F00303D9B943F0080368
:103A04009908013B11740D2B0BD8DFE803F00D0767
:103A14001C070A160D0D160A071C070D5369013BF6
:103A240053615DF8044B704753695DF8044B0133EF
:103A34005361704743F00403E0E753695DF8044BB6
:103A4400023B5361704753695DF8044B0233536181
:103A54007047137C03F003030029D1D043F004031F
:103A6400CEE700BFC8300020224BD3F8A020D2E913
:103A74000010D3680968006810B41842946801EA19
:103A840004012ED0137C03F00303D9B943F00803D7
:103A94009908013B11740D2B0BD8DFE803F00D07D7
:103AA4001C070A160D0D160A071C070D5369013B66
:103AB40053615DF8044B704753695DF8044B01335F
:103AC4005361704743F00403E0E753695DF8044B26
:103AD400023B5361704753695DF8044B02335361F1
:103AE4007047137C03F003030029D1D043F004038F
:103AF400CEE700BFC8300020224BD3F8A420D2E97F
:103B04000010D3680968006810B41842946801EA88
:103B140004012ED0137C03F00303D9B943F0080346
:103B24009908013B11740D2B0BD8DFE803F00D0746
:103B34001C070A160D0D160A071C070D5369013BD5
:103B440053615DF8044B704753695DF8044B0133CE
:103B54005361704743F00403E0E753695DF8044B95
:103B6400023B5361704753695DF8044B0233536160
:103B74007047137C03F003030029D1D043F00403FE
:103B8400CEE700BFC8300020224BD3F8A820D2E9EA
:103B94000010D3680968006810B41842946801EAF8
:103BA40004012ED0137C03F00303D9B943F00803B6
:103BB4009908013B11740D2B0BD8DFE803F00D07B6
:103BC4001C070A160D0D160A071C070D5369013B45
:103BD40053615DF8044B704753695DF8044B01333E
:103BE4005361704743F00403E0E753695DF8044B05
:103BF400023B5361704753695DF8044B02335361D0
:103C04007047137C03F003030029D1D043F004036D
:103C1400CEE700BFC8300020224BD3F8AC20D2E955
:103C24000010D3680968006810B41842946801EA67
:103C340004012ED0137C03F00303D9B943F0080325
:103C44009908013B11740D2B0BD8DFE803F00D0725
:103C54001C070A160D0D160A071C070D5369013BB4
:103C640053615DF8044B704753695DF8044B0133AD
:103C74005361704743F00403E0E753695DF8044B74
:103C8400023B5361704753695DF8044B023353613F
:103C94007047137C03F003030029D1D043F00403DD
:103CA400CEE700BFC8300020224BD3F8B020D2E9C1
:103CB4000010D3680968006810B41842946801EAD7
:103CC40004012ED0137C03F00303D9B943F0080395
:103CD4009908013B11740D2B0BD8DFE803F00D0795
:103CE4001C070A160D0D160A071C070D5369013B24
:103CF40053615DF8044B704753695DF8044B01331D
:103D04005361704743F00403E0E753695DF8044BE3
:103D1400023B5361704753695DF8044B02335361AE
:103D24007047137C03F003030029D1D043F004034C
:103D3400CEE700BFC8300020224BD3F8B420D2E92C
:103D44000010D3680968006810B41842946801EA46
:103D540004012ED0137C03F00303D9B943F0080304
:103D64009908013B11740D2B0BD8DFE803F00D0704
:103D74001C070A160D0D160A071C070D5369013B93
:103D840053615DF8044B704753695DF8044B01338C
:103D94005361704743F00403E0E753695DF8044B53
:103DA400023B5361704753695DF8044B023353611E
:103DB4007047137C03F003030029D1D043F00403BC
:103DC400CEE700BFC8300020224BD3F8B820D2E998
:103DD4000010D3680968006810B41842946801EAB6
:103DE40004012ED0137C03F00303D9B943F0080374
:103DF4009908013B11740D2B0BD8DFE803F00D0774
:103E04001C070A160D0D160A071C070D5369013B02
:103E140053615DF8044B704753695DF8044B0133FB
:103E24005361704743F00403E0E753695DF8044BC2
:103E3400023B5361704753695DF8044B023353618D
:103E44007047137C03F003030029D1D043F004032B
:103E5400CEE700BFC8300020224BD3F8BC20D2E903
:103E64000010D3680968006810B41842946801EA25
:103E740004012ED0137C03F00303D9B943F00803E3
:103E84009908013B11740D2B0BD8DFE803F00D07E3
:103E94001C070A160D0D160A071C070D5369013B72
:103EA40053615DF8044B704753695DF8044B01336B
:103EB4005361704743F00403E0E753695DF8044B32
:103EC400023B5361704753695DF8044B02335361FD
:103ED4007047137C03F003030029D1D043F004039B
:103EE400CEE700BFC8300020224BD3F8C020D2E96F
:103EF4000010D3680968006810B41842946801EA95
:103F040004012ED0137C03F00303D9B943F0080352
:103F14009908013B11740D2B0BD8DFE803F00D0752
:103F24001C070A160D0D160A071C070D5369013BE1
:103F340053615DF8044B704753695DF8044B0133DA
:103F44005361704743F00403E0E753695DF8044BA1
:103F5400023B5361704753695DF8044B023353616C
:103F64007047137C03F003030029D1D043F004030A
:103F7400CEE700BFC8300020224BD3F8C420D2E9DA
:103F84000010D3680968006810B41842946801EA04
:103F940004012ED0137C03F00303D9B943F00803C2
:103FA4009908013B11740D2B0BD8DFE803F00D07C2
:103FB4001C070A160D0D160A071C070D5369013B51
:103FC40053615DF8044B704753695DF8044B01334A
:103FD4005361704743F00403E0E753695DF8044B11
:103FE400023B5361704753695DF8044B02335361DC
:103FF4007047137C03F003030029D1D043F004037A
:10400400CEE700BFC8300020224BD3F8C820D2E945
:104014000010D3680968006810B41842946801EA73
:1040240004012ED0137C03F00303D9B943F0080331
:104034009908013B11740D2B0BD8DFE803F00D0731
:104044001C070A160D0D160A071C070D5369013BC0
:1040540053615DF8044B704753695DF8044B0133B9
:104064005361704743F00403E0E753695DF8044B80
:10407400023B5361704753695DF8044B023353614B
:104084007047137C03F003030029D1D043F00403E9
:10409400CEE700BFC8300020224BD3F8CC20D2E9B1
:1040A4000010D3680968006810B41842946801EAE3
:1040B40004012ED0137C03F00303D9B943F00803A1
:1040C4009908013B11740D2B0BD8DFE803F00D07A1
:1040D4001C070A160D0D160A071C070D5369013B30
:1040E40053615DF8044B704753695DF8044B013329
:1040F4005361704743F00403E0E753695DF8044BF0
:10410400023B5361704753695DF8044B02335361BA
:104114007047137C03F003030029D1D043F0040358
:10412400CEE700BFC8300020224BD3F8D020D2E91C
:104134000010D3680968006810B41842946801EA52
:1041440004012ED0137C03F00303D9B943F0080310
:104154009908013B11740D2B0BD8DFE803F00D0710
:104164001C070A160D0D160A071C070D5369013B9F
:1041740053615DF8044B704753695DF8044B013398
:104184005361704743F00403E0E753695DF8044B5F
:10419400023B5361704753695DF8044B023353612A
:1041A4007047137C03F003030029D1D043F00403C8
:1041B400CEE700BFC8300020224BD3F8D420D2E988
:1041C4000010D3680968006810B41842946801EAC2
:1041D40004012ED0137C03F00303D9B943F0080380
:1041E4009908013B11740D2B0BD8DFE803F00D0780
:1041F4001C070A160D0D160A071C070D5369013B0F
:1042040053615DF8044B704753695DF8044B013307
:104214005361704743F00403E0E753695DF8044BCE
:10422400023B5361704753695DF8044B0233536199
:104234007047137C03F003030029D1D043F0040337
:10424400CEE700BFC8300020224BD3F8D820D2E9F3
:104254000010D3680968006810B41842946801EA31
:1042640004012ED0137C03F00303D9B943F00803EF
:104274009908013B11740D2B0BD8DFE803F00D07EF
:104284001C070A160D0D160A071C070D5369013B7E
:1042940053615DF8044B704753695DF8044B013377
:1042A4005361704743F00403E0E753695DF8044B3E
:1042B400023B5361704753695DF8044B0233536109
:1042C4007047137C03F003030029D1D043F00403A7
:1042D400CEE700BFC8300020F0B504461E460023D8
:1042E40083B0083015466360C4F8B8300D4B9DF8B0
:1042F400207023600C4B0191C4F8B430009002F09C
:1043040057FC0A4B019900982360094A094B01F0B4
:10431400F1FE00983B463246294601F091FD2046C5
:1043240003B0F0BD0C070020A1490000F4060020F2
:10433400513C0000F13A00000B4610B5362800F25B
:104344009782DFE810F08C02820279027002670221
:104354005E0255024C0243023A02310228021F0255
:10436400BF01B601AD01A4019B0192018901800145
:1043740077016E0165015C0153014A014101380175
:104384002F0126011D0113010901FF00F500EB00B7
:10439400E100D700CD00C300B900AF00A5009B0029
:1043A400910087007D00730069005F0055004B0099
:1043B40041003700C84C0422C8493620C4F8D8301C
:1043C40003F054F9012010BDC34C0422C449352024
:1043D400C4F8D43003F04AF9012010BDBE4C0422C5
:1043E400C0493420C4F8D03003F040F9012010BD96
:1043F400B94C0422BC493320C4F8CC3003F036F95C
:10440400012010BDB44C0422B8493220C4F8C8308D
:1044140003F02CF9012010BDAF4C0422B449312023
:10442400C4F8C43003F022F9012010BDAA4C0422C0
:10443400B0493020C4F8C03003F018F9012010BD91
:10444400A54C0422AC492F20C4F8BC3003F00EF96B
:10445400012010BDA04C0422A8492E20C4F8B83075
:1044640003F004F9012010BD9B4C0422A4492D2023
:10447400C4F8B43003F0FAF8012010BD964C0422BD
:10448400A0492C20C4F8B03003F0F0F8012010BD8E
:10449400914C04229C492B20C4F8AC3003F0E6F87C
:1044A400012010BD8C4C042298492A20C4F8A8305D
:1044B40003F0DCF8012010BD874C04229449292024
:1044C400C4F8A43003F0D2F8012010BD824C0422B9
:1044D40090492820C4F8A03003F0C8F8012010BD8A
:1044E4007D4C04228C492720C4F89C3003F0BEF88C
:1044F400012010BD784C042288492620C4F8983045
:1045040003F0B4F8012010BD734C04228449252023
:10451400C4F8943003F0AAF8012010BD6E4C0422B4
:1045240080492420C4F8903003F0A0F8012010BD85
:10453400694C04227C492320C4F88C3003F096F89B
:10454400012010BD644C042278492220C4F888302C
:1045540003F08CF8012010BD5F4C04227449212023
:10456400C4F8843003F082F8012010BD5A4C0422B0
:1045740070492020C4F8803003F078F8012010BD81
:10458400554C04226C491F20E36703F06FF80120A7
:1045940010BD514C042269491E20A36703F066F83C
:1045A400012010BD4C4C042265491D20636703F0B3
:1045B4005DF8012010BD484C042262491C20236789
:1045C40003F054F8012010BD434C04225E491B2023
:1045D400E36603F04BF8012010BD3F4C04225B4915
:1045E4001A20A36603F042F8012010BD3A4C0422BD
:1045F40057491920636603F039F8012010BD364C81
:10460400042254491820236603F030F8012010BD19
:10461400314C042250491720E36503F027F80120A8
:1046240010BD2D4C04224D491620A36503F01EF83D
:10463400012010BD284C042249491520636503F06C
:1046440015F8012010BD244C04224649142023658A
:1046540003F00CF8012010BD1F4C04224249132022
:10466400E36403F003F8012010BD1B4C04223F490E
:104674001220A36402F0FAFF012010BD164C04229C
:104684003B491120636402F0F1FF012010BD124C7C
:10469400042238491020236402F0E8FF012010BDF1
:1046A4000D4C042234490F20E36302F0DFFF0120A4
:1046B40010BD094C042231490E20A36302F0D6FF39
:1046C400012010BD044C04222D490D20636302F027
:1046D400CDFF012010BD00BFC830002049200000DC
:1046E400B91F0000291F0000991E0000091E0000C8
:1046F400791D0000E91C0000591C0000C91B0000C2
:10470400391B0000A91A0000191A000089190000B9
:10471400F918000069180000D917000049170000B3
:10472400B9160000291600009915000009150000AB
:1047340079140000E91300005D130000D112000099
:1047440045120000B91100002D110000A110000055
:1047540015100000890F0000FD0E0000710E00000E
:10476400E50D0000590D0000CD0C0000410C0000C7
:10477400B50B0000290B00009D0A0000110A00007F
:10478400850900003B4C04223B490C20236302F0C2
:104794006DFF012010BD374C042238490B20E36221
:1047A40002F064FF012010BD324C042234490A2077
:1047B400A36202F05BFF012010BD2E4C042231499C
:1047C4000920636202F052FF012010BD294C04222B
:1047D4002D490820236202F049FF012010BD254C19
:1047E40004222A490720E36102F040FF012010BDA2
:1047F400204C042226490620A36102F037FF012041
:1048040010BD1C4C042223490520636102F02EFFD5
:10481400012010BD0422174C1F491046236102F0E9
:1048240025FF012010BD134C04221C490320E36022
:1048340002F01CFF012010BD0E4C04221849022076
:10484400A36002F013FF012010BD044609480422AE
:1048540014494360012002F009FF204610BD054CB5
:10486400042211490020236002F000FF012010BD42
:10487400002010BDC8300020F90800006D080000B9
:10488400E107000055070000C90600003D060000CE
:10489400B105000025050000990400000D04000086
:1048A40081030000F5020000690200002DE9F041D7
:1048B4000F46164604460221384602F09DFE0221A8
:1048C400304602F099FE224B3A0122483101DFF8CA
:1048D4008CC053F8028003EB0712C4F80080D2F8AE
:1048E4000CE003EB061259580023C4F808E0D26820
:1048F4006361194BE26045681B686160ACFB033C73
:104904004FF4FA634FEA9C4C03FB0CFC43685B1BBB
:104914009C45FBD8D8F80030384609681EEA030FD6
:1049240014BF012300230A42214618BF43F00203A7
:104934002374FFF701FD0346214630462376FFF733
:10494400FBFC227E0346204613442376BDE8F08117
:1049540040070020001000E0D424002083DE1B4325
:1049640010B5274801F050FB2649254801F008FFFF
:10497400254B0F221421224801F0F2FE234C802300
:10498400122200211E4801F0B3FF21491C4801F006
:10499400F7FE20681F4923221F4B002818BF0B462F
:1049A4000521174801F0DCFE20681C492F221C4B0E
:1049B400012818BF0B460521114801F0D1FE2468D7
:1049C40018483B22184B0521022C18BF03460C48FB
:1049D40001F0C6FE0A4801F023FB144801F014FB61
:1049E4001349124801F0CCFE124B282214210F481F
:1049F40001F0B6FE0D48BDE8104001F011BB00BF48
:104A0400A438002078140020480500202C38002009
:104A1400BC0B0020F4040020E80400201005002052
:104A240000050020340500202005002078370020F0
:104A3400901A00205805002010B5124C204601F0B1
:104A4400E3FA2046104901F09BFE104B0A22002194
:104A5400204601F085FE0E4B19220021204601F06C
:104A64007FFE0C4B28220021204601F079FE2046CF
:104A7400094B3C22002101F073FE2046BDE81040A2
:104A840001F0CEBAA4380020BC0B0020A4040020FE
:104A9400B4040020C4040020D80400202DE9F04F01
:104AA40027208FB002F048FB834A1368C31A002BF7
:104AB400B8BF5B42082B00F3F584804B1A7E012AB1
:104AC40040F2278572B65E6962B67D4B1A7E012A72
:104AD40040F25A8572B65F6962B67A4B1A7E012A31
:104AE40040F23F8572B6D3F8148062B6764B1A7ED4
:104AF400012A40F2228572B6D3F8149062B6734B41
:104B04001A68B24240F04883714B1A68BA4240F0C6
:104B14008883704B1A68424540F04A846E4B1A6889
:104B24004A4540F0C5836D4A0023DFF8E0A10A92AC
:104B3400AAF1080B6A4A0893CDE90B32694B0026A7
:104B440018209DF820401D460D93F1B20136C0B2E5
:104B5400091B18BF012102F013FD052E02D055F8E0
:104B6400040FF2E7604B5968604B1A68604BA3FB73
:104B74000232920C02EB8202D2005B4B5B685B1A3E
:104B84009A42FAD8B4FA84F34FF0090800265B0974
:104B9400C1460993574B05930C9B03935FFA89F025
:104BA40002F018FD039AB0FA80F8044612F8013FA7
:104BB4004FEA581804900392434500F0EF805046A2
:104BC4004FF6FD7501F020FA4B49504601F0D8FD2F
:104BD4004A4A4B4B00215046002C08BF13460C2276
:104BE40001F0BEFD474C4FF4D0135221271DCBF8E2
:104BF400B83003E0A7421FD014F8011FDBF8B4302B
:104C040050469847A842F5D80346BBF8BA20BBF8EB
:104C1400B810504601F034FD9BF89030032BE9D8CE
:104C2400DFE803F0433D3702BBF8BA30A742A3EBF9
:104C34000003ABF8BA30DFD1002308990A225846A2
:104C440002F066FA304C4FF418134321271D4FF637
:104C5400FD75CBF8B83004E0BC4200F0028114F8D2
:104C6400011FDBF8B43050469847A842F4D80346F5
:104C7400BBF8BA20BBF8B810504601F001FD9BF810
:104C84009030032BE8D8DFE813F022011C01160151
:104C9400E300BBF8B8301B1AABF8B830AAE7BBF88E
:104CA400BA300344ABF8BA30A4E7BBF8B8300344D5
:104CB400ABF8B8309EE700BFA8280020DC360020FF
:104CC400F83600201437002030370020002B002055
:104CD400042B0020082B00200C2B0020980500201A
:104CE4004B380020B0060020001000E0D42400203F
:104CF40083DE1B4360050020BC0B00201C04002045
:104D0400280400205C04002064040020A43800204F
:104D1400504601F085F90621B84803F0D7FE049BFC
:104D2400002B40F0C2810421B54803F0CFFE0221DC
:104D3400B44803F0CBFE00230A220899B24802F0DB
:104D4400E7F90221B14803F0C1FE00230A223146EB
:104D5400AD4802F0DDF90521AD4803F0B7FE494640
:104D6400A94802F0BBF90421AA4803F0AFFE069952
:104D7400A54802F0B3F90221A74803F0A7FE079C57
:104D8400204604F09DFB0146204603F09FFE0121CE
:104D9400A24803F09BFE9C4802F0ACF9F2B2099BD6
:104DA4000D2A14BF002303F00103002B45D0049AFD
:104DB400C146002A40F06C81994A1178002940F0DC
:104DC400A6810121974811700168974A1160026811
:104DD400521A0B99B2F5487F28BF19460B91089ACD
:104DE400924BC2EBC20203EB420303F806900A9A09
:104DF400089B383201330A920C9A052B089302F16E
:104E04000E020C927FF49AAE0D9D1820012105F13B
:104E14001004C0B202F0B4FBAC4207D055F8040F42
:104E24000121C0B202F0ACFBAC42F7D10B9B002BCA
:104E340040F0BD830FB0BDE8F08F039B0D2E83F8C7
:104E44000080D4D0059B013653F8049F0593A5E652
:104E5400BBF8BA30BC42A3EB0003ABF8BA307FF422
:104E6400FEAE002331460A22584602F051F9704C36
:104E74004FF448135021271D4FF6FD75CBF8B83079
:104E840003E0BC4231D014F8011FDBF8B4305046C3
:104E94009847A842F5D80346BBF8BA20BBF8B81027
:104EA400504601F0EDFB9BF89030032BE9D8DFE886
:104EB40003F0504A4414BBF8B8301B1AABF8B830AE
:104EC400CAE6BBF8BA300344ABF8BA30C4E6BBF860
:104ED400B8300344ABF8B830BEE6BBF8BA30BC42D5
:104EE400A3EB0003ABF8BA30CDD14946584602F0E3
:104EF400F5F8504C4FF478134321E71C4FF6FD7539
:104F0400CBF8B83003E0BC4231D014F8011FDBF811
:104F1400B43050469847A842F5D80346BBF8BA20A7
:104F2400BBF8B810504601F0ABFB9BF89030032B54
:104F3400E9D8DFE803F08F898314BBF8B8301B1A73
:104F4400ABF8B8309DE7BBF8BA300344ABF8BA30DD
:104F540097E7BBF8B8300344ABF8B83091E7BBF837
:104F6400BA30BC42A3EB0003ABF8BA30CDD10A9BF4
:104F7400584653F826301946069302F0AFF8DBF88A
:104F8400B4302021504698474FF6FD73984240F2C2
:104F94009580069B183B5F2B00F28280264A52F8CC
:104FA40023301C460793002B00F0B580184604F00C
:104FB40087FA00283FF4ACAE21780138079C4FF6FD
:104FC400FD77051904E0A5423FF4A2AE14F8011FD1
:104FD400DBF8B43050469847B842F4D80346BBF8DF
:104FE400BA20BBF8B810504601F04AFB9BF8903049
:104FF400032BE8D8DFE803F046403A349C04002051
:105004002004002080040020D824002084040020F0
:105014008804002090040020980400207C040020D0
:10502400C9390020A03900206C3700204C380020FA
:105034006C0400207404002080020020BBF8B83007
:105044001B1AABF8B8305EE7BBF8BA300344ABF8D0
:10505400BA3058E7BBF8B8300344ABF8B83052E77D
:10506400BBF8BA301B1AABF8BA30ACE7BBF8B830AF
:105074001B1AABF8B830A6E7BBF8BA300344ABF858
:10508400BA30A0E7BBF8B8300344ABF8B8309AE7BD
:10509400B24B1A78002A3FF4A2AE00221A709EE6A0
:1050A400AF4B05204521079387E70221AD4803F064
:1050B4000DFD0221AC4803F009FD3CE60346BBF8B4
:1050C400BA20BBF8B810504601F0DAFA9BF89030D9
:1050D400032B3FF65EAFDFE803F0140E0802BBF8C3
:1050E400BA301B1AABF8BA3053E7BBF8B8301B1A06
:1050F400ABF8B8304DE7BBF8BA300344ABF8BA307C
:1051040047E7BBF8B8301844ABF8B80041E7974A12
:10511400974811685BE6504600F082FF06219548E7
:1051240003F0D4FC049B6BBB0421934803F0CEFC36
:1051340002218D4803F0CAFC049C23460A220899E4
:105144008E4801F0E5FF02218D4803F0BFFC2346A1
:105154000A223146894801F0DBFF0521894803F022
:10516400B5FC4946854801F0B9FF0421864803F09F
:10517400ADFC0699814801F0B1FF0221834803F098
:10518400A5FC04E60221774803F0A0FC022176483E
:1051940003F09CFC079CD0E77D4C4FF6FD7B1E6022
:1051A40004F108007B4D00F02FFF7B4904F1080057
:1051B40004F1080A01F0E4FA4FF420134521C4F87D
:1051C400B83004E0754BAB421FD015F8011FD4F87A
:1051D400B430504698475845F4D80346B4F8BA203A
:1051E400B4F8B810504601F04BFA94F89030032B01
:1051F400E8D8DFE803F057514B02B4F8BA301B1A71
:10520400A4F8BA30654BAB42DFD13146604801F0B7
:1052140065FF634800F004FF624B1A68BA423FF42A
:1052240078AC5B4C4FF6FD7B1F6004F108005E4DCB
:1052340000F0EAFE584904F1080005F1060A01F0FD
:105244009FFA4FF42013452104F10806C4F8B8303E
:1052540004E0AA4500F00B8115F8011FD4F8B4301E
:10526400304698475845F4D80346B4F8BA20B4F801
:10527400B810304601F004FA94F89030032BE8D8C3
:10528400DFE813F00A010401FE00EC00B4F8B830C2
:105294001B1AA4F8B83095E7B4F8BA300344A4F85C
:1052A400BA308FE7B4F8B8300344A4F8B83089E7CB
:1052B400374C4FF6FD77C3F8009004F108003B4DDE
:1052C40000F0A2FE344904F1080005F1060801F0DB
:1052D40057FA4FF42013452104F10806C4F8B830F6
:1052E40003E045451FD015F8011FD4F8B43030460B
:1052F4009847B842F5D80346B4F8BA20B4F8B810C1
:10530400304601F0BDF994F89030032BE9D8DFE87A
:1053140003F01F191302B4F8BA304545A3EB000398
:10532400A4F8BA30DFD14946194801F0D7FE1C4829
:1053340000F076FEFFF7F7BBB4F8B8301B1AA4F8F8
:10534400B830CEE7B4F8BA301844A4F8BA00C8E7C5
:10535400B4F8B8301844A4F8B800C2E7C93900203A
:10536400140400202C040020800400206C3700204A
:10537400A03900209C04002020040020D824002010
:105384008404002088040020900400209804002055
:105394009C3800203C040020901A00204204002085
:1053A400A4380020042B00204404002054040020CE
:1053B400AF4C4FF6FD77C3F8008004F10800AD4D03
:1053C40000F022FEAC4904F1080005F1060A01F0E0
:1053D400D7F94FF42013452104F10806C4F8B83076
:1053E40003E0AA451FD015F8011FD4F8B4303046A5
:1053F4009847B842F5D80346B4F8BA20B4F8B810C0
:10540400304601F03DF994F89030032BE9D8DFE8F9
:1054140003F01F191302B4F8BA30AA45A3EB000332
:10542400A4F8BA30DFD14146914801F057FE9348C1
:1054340000F0F6FDFFF772BBB4F8B8301B1AA4F8FD
:10544400B830CEE7B4F8BA301844A4F8BA00C8E7C4
:10545400B4F8B8301844A4F8B800C2E7B4F8BA30C5
:10546400AA45A3EB0003A4F8BA307FF4F5AE39469D
:105474007F4801F033FE814800F0D2FDFFF749BBBD
:10548400B4F8B8301B1AA4F8B830E2E6B4F8BA306D
:105494000344A4F8BA30DCE6B4F8B8300344A4F802
:1054A400B830D6E604467648146000F0ADFD754980
:1054B400734801F065F9744B0F220021704801F024
:1054C4004FF9142080231E22002100906C4800F024
:1054D40027FD6E49E2011424694802F2FF12009488
:1054E40081FB0231D317002A11444FF01E02C3EB93
:1054F40061234FF00001B8BF03F1FF339BB200F00A
:10550400E9FC5F4800F08CFD614B1A7E012A3FF6EE
:10551400D9AA72B6D3E90010D3E902420968006837
:105524002140104200F0E4801A7C02F0030209B129
:1055340042F0040242F00802E0E072B61A68116810
:105544005A6810689A681140DA68104200F0A48022
:105554001A7C02F0030209B142F0040242F008028C
:10556400A0E072B619689A68096811405A68106810
:10557400DA68104250D01A7C02F0030209B142F0FA
:10558400040242F008024DE072B6D3E900109A68B2
:10559400096800681140DA68104210D01A7C02F0E1
:1055A400030209B142F0040242F008020DE0394B53
:1055B40000221A700FB0BDE8F04FFFF7D1B91A7C82
:1055C40002F0030209B142F004029108013A5F6952
:1055D40019740D2A3FF680AA01A151F822F000BFE8
:1055E4009935000091350000C53500009135000063
:1055F400D9280000BD350000993500009935000018
:10560400BD350000D928000091350000C5350000E3
:1056140091350000993500001A7C02F0030209B1AB
:1056240042F004029108013A19740D2A3FF65BAA6C
:1056340001A151F822F000BF833500007535000048
:10564400AF35000075350000E7280000A1350000E3
:105654008335000083350000A1350000E7280000F1
:1056640075350000AF350000753500008335000046
:105674009C3800204C040020901A0020A4380020FC
:1056840078370020880F0020300400200308208091
:10569400DC360020C63900201A7C02F0030209B16E
:1056A40042F004029108013A19740D2A3FF624AA23
:1056B40001A151F822F000BF673500005935000000
:1056C400EB35000059350000F9280000DD350000F5
:1056D4006735000067350000DD350000F92800005B
:1056E40059350000EB3500005935000067350000DE
:1056F4001A7C02F0030209B142F004029108013A53
:105704005E6919740D2A3FF6DFA901A151F822F050
:105714005135000049350000D535000049350000F9
:10572400C9280000CD350000513500005135000076
:10573400CD350000C928000049350000D5350000EA
:105744004935000051350000013E5E61FFF7BCB9E8
:1057540001365E61FFF7B8B95A6902F1FF39C3F83F
:105764001490FFF7CBB95A6902F10109C3F81490F8
:10577400FFF7C4B95A6902F1FF38C3F81480FFF780
:10578400B4B95A6902F10108C3F81480FFF7ADB93E
:10579400013F5F61FFF7A0B901375F61FFF79CB973
:1057A4005A69A2F10208C3F81480FFF79EB95A6936
:1057B40002F10208C3F81480FFF797B9023F5F6152
:1057C400FFF78AB902375F61FFF786B9023E5E616F
:1057D400FFF77AB902365E61FFF776B95A69A2F12A
:1057E4000209C3F81490FFF789B95A6902F1020952
:1057F400C3F81490FFF782B92DE9F043364D83B016
:10580400364C40F2EE28364FDFF8E8902E6803F06D
:10581400DBF923785BB33B78DB0728D52B68D9F811
:1058240000209B1A0E2B22D92E4C2720002101F098
:10583400E3FE04F13405092001E054F8040FC0B27A
:10584400022101F0D9FEAC42F7D1274C182004F113
:105854001005C0B20121019001F0CEFE0121019892
:1058640001F08EFEAC420FD054F8040FF1E72B6820
:1058740022789B1B2AB1B3F5FA6FD5D803F0A4F9AB
:10588400C5E74345FAD9CFE7184D7823184C85F876
:105894002C3005F1080001F093FB05F1080000F03D
:1058A40019FC002105F1080001F094FB7A2304F1AE
:1058B400080084F82C3001F083FB04F1080000F0A8
:1058C40009FC002104F1080001F084FB03B0BDE8E9
:1058D400F043FFF745B800BFA0390020D1390020BC
:1058E400D039002060050020B00600207037002069
:1058F4009C380020B0390020A04B1B782DE9F04FD4
:1059040083B0002B66D0022B05D0012B00F00C8154
:1059140003B0BDE8F08F0024DFF89082984EDFF8E2
:1059240080A2A146974DDFF878B200271820F9B27B
:105934000137C0B2091B18BF012101F021FE052F58
:1059440002D05BF8040FF2E771688F4BD8F800209F
:10595400A3FB0232920C02EB8202920073685B1A80
:105964009A42FBD8DFF848B20027092001F032FE42
:105974000137FFB20E2F00F0BD805BF8040FC0B2F8
:1059840001F028FE002C08BF0D2F0CBF01230023BB
:10599400EED1A8B92A78CAB901217C4A7C48297079
:1059A400116801601268521AB2F5487F28BF9946FF
:1059B4005AF8040B01210124C0B201F0E1FDB2E761
:1059C4002B78002BF4D000232B70F1E7704A116878
:1059D4006E4AE7E76F4A137E012B40F2AA8072B643
:1059E400536962B6002B6C49B8BF03330A689B1035
:1059F4009A420FD069480268B4BF013202F1FF3203
:105A0400022A00F38E80002AB8BF022202600B60D3
:105A1400FEF7A6FF0024624BDFF890811826274684
:105A2400A146574D9B46CDF804805FFA86FA0021C3
:105A3400504601F0A5FD019B69681A68524BA3FB0F
:105A44000232920C02EB820292006B685B1A9A4259
:105A5400FBD8DFF85C810026092001F0BBFD01368C
:105A6400F6B20E2E2AD058F8040FC0B201F0B2FDDF
:105A7400002CF4D10D2EF2D180B9424B1A782AB9F8
:105A8400424A012112681970414B1A600124012114
:105A9400504601F075FD5BF8046FC6E7394A137888
:105AA400002BF3D082F800903949384A096812680B
:105AB400521AB2F5487F38BF1F46E7E70134504613
:105AC4000121E4B201F05CFD052CE4D1002F3FF488
:105AD4001FAF324B1B68002B3ED0012B00F0A68079
:105AE400022B7FF415AF254A137003B0BDE8F04FC5
:105AF400FEF7A2BF01345AF8040B0121E4B2C0B28C
:105B040001F03EFD052C7FF40EAFB9F1000F3FF418
:105B1400FFAE0023194A137003B0BDE8F04FFEF73F
:105B24001FBF0022026072E703B0BDE8F04FFEF72A
:105B3400B5BF72B6D2E9003091681B68006819409D
:105B4400D368184236D0137C03F0030309B143F041
:105B5400040343F0080333E0124800F055FA124BF3
:105B64001E220A210F4800F0FBFD0E4800F058FAEF
:105B74004FF47A7001F0B0FCCEE700BFC6390020C4
:105B8400001000E0C939002083DE1B43A039002047
:105B94006C37002014370020483800202C380020AF
:105BA400B0060020A4380020B00A0020D42400202D
:105BB40060050020137C03F0030309B143F00403E0
:105BC4009908013B11740D2B3FF60AAF01A151F85E
:105BD40023F000BF153A00000D3A0000253A0000FA
:105BE4000D3A0000E13700001D3A0000153A0000AC
:105BF400153A00001D3A0000E13700000D3A00009C
:105C0400253A00000D3A0000153A00005369013BA3
:105C14005361E6E6536901335361E2E65369023B9B
:105C24005361DEE6536902335361DAE6104A1148E0
:105C3400137000F0E9F9104B1E2200210D4800F00A
:105C44008FFD0C4800F0ECF90C4800F0DDF90C4B2A
:105C54001E220021094800F083FD084800F0E0F905
:105C64004FF47A7003B0BDE8F04F01F035BC00BFCB
:105C7400C639002078370020C00A0020A43800204C
:105C8400D00A002030B5062283B005211148FEF762
:105C94000DFE1E221D211048FF24FEF707FE0F4DA6
:105CA40020221F210E48FEF701FE1B221A210D4857
:105CB400FEF7FCFD23462246294600940A48FEF7D7
:105CC4000BFB23462246294600940848FEF704FBB2
:105CD40003B030BDDC360020F8360020B00B0020C5
:105CE4001437002030370020703700209C38002003
:105CF400A1F1280330B5054683B0252B28D8DFE869
:105D040003F052652424136B2727272727272727E7
:105D1400272727272727272727272727272727270F
:105D24002727272727273F3F4249003A424B434C26
:105D340018BF012248681B68A4FB03439B0C03FBA8
:105D440002F24B681B1A9A42FBD8012003B030BD03
:105D54003F295AD901F03F03E81890F82C00FF2896
:105D6400F3D011F0300F5CD0102B5ED001F032FC78
:105D740003460120003B18BF012385F82730E5E7DF
:105D84000192002A43D101F03F0401212C4494F8EC
:105D94002C0001F031FC019A94F82C00114601F01A
:105DA400EFFB0120D2E72B35012405E00F2A26D88A
:105DB40001F022FC0134E4B215F8013F621E012116
:105DC400FF2B1846F2D1162CF4D1BEE7104601F091
:105DD40083FB012003B030BD174C032A1549174B30
:105DE4004868226834BF05240224A3FB0232920CC3
:105DF40004FB02F24B681B1A9A42FBD8A5E7022166
:105E040001F0FAFB162CD5D19FE700209EE701F0A4
:105E14003F0302212B4493F82C0001F0EDFB0120F9
:105E240094E7114601F0ACFB8FE7019002F0CCFE41
:105E340001989BE7001000E0D424002083DE1B437C
:105E440080F8371080F8382080F83930704700BF68
:105E5400A1F1140C38B50446BCF10C0F08D8DFE8E6
:105E64000CF015070709220F0707070707070D009E
:105E7400002038BD1946154803F0B2F8012038BD9A
:105E84000121124803F06EF9012038BD83692BB952
:105E940003680F4A5B7B02FB03F383610B4803F047
:105EA40083FB012038BD094D8169284603F042FA7D
:105EB40094F82420012302F0FE02184685F83031BC
:105EC40085F8A52085F82F3138BD00BFE8240020CF
:105ED400A08601002DE9F04383B01F46CB1880460D
:105EE400BDF8289014469BB20E4602EB0905ADB2EC
:105EF400009500F005FD80B1B9F1000F0DD04FF011
:105F04000009224601343B463146A4B24046CDF84E
:105F1400009000F077FCA542F3D103B0BDE8F08314
:105F24002DE9F04385B0CF181E468046BDF8309069
:105F3400BFB20D46144602EB09039BB200933B46E5
:105F440000F0DEFC10B905B0BDE8F0830023224662
:105F5400294640460093334600F054FCB9F1010F42
:105F6400F1D9A9F10209621C1FFA89F492B24CB961
:105F740000243346294640460C9405B0BDE8F0435E
:105F840000F040BC4FF00109234629464046CDF8B5
:105F94000090039200F036FC791E039A2346404693
:105FA40089B2CDF8009000F02DFC039A224492B2FD
:105FB400DEE700BF03682DE9F043064683B090F89E
:105FC4005090002490F8515093F8118000E0336809
:105FD4001B7C2A46F76C002104FB03FC0134304689
:105FE40001354FEACC0CE4B21FFA8CFCEDB2BC4490
:105FF400CDF800C000F0C8FFA14501D9A845E6D8F6
:1060040003B0BDE8F08300BF0268002190F850306F
:10601400127CC06C12FB03F2D20003F0CDB900BFB6
:1060240010B50446FFF7C6FF2046BDE8104000F057
:10603400DBBF00BF836C10B5044680F851101B68A9
:106044009847A36C20465B68BDE81040184700BF22
:1060540010B590F8AB3004462BB920460021BDE8BA
:106064001040FFF7E7BF0268002190F85030127C1F
:10607400C06C12FB03F2D20003F09EF9204600210B
:10608400BDE81040FFF7D6BF38B50446FFF792FFCE
:1060940094F8515094F8503022681D44517CEDB26C
:1060A400A94211D994F8AB1029B920462946FFF723
:1060B400C1FF012038BD127C0021E06C12FB03F209
:1060C400D20003F079F9F0E7204600F08DFF0020BC
:1060D40038BD00BF10B50446FFF7BAFF2046FFF7EE
:1060E400D3FF0028FAD101462046BDE81040FFF74F
:1060F400A1BF00BF30B51C4685B0134605460A4A09
:1061040000940C46094900F081FF0DF10F0000F0E6
:1061140099FF074B01469DF80F202846009400F094
:1061240017FD05B030BD00BF254B0000DD4C00005D
:106134005D4700004218435C507800EB032080B2B6
:10614400704700BF0020704738B50D460446112142
:106154002B78284623706B786370AB78A370EB7848
:10616400E3702B7923716B796371AB79A371EB794C
:10617400E3712B7A23726B7A6372AB7AA372EB7A34
:10618400E3722B7B23736B7B6373AB7BA373EB7B1C
:10619400E3732B7C2374FFF7CDFF034613212846BA
:1061A4006382FFF7C7FF034615212846A382FFF742
:1061B400C1FFE08238BD00BF012B05D0022B09D0FE
:1061C4002BB1411A88B27047014488B27047024427
:1061D40090B27047821A90B2704700BF012B05D06D
:1061E400022B09D02BB1024490B27047821A90B2AC
:1061F4007047014488B27047411A88B2704700BFA3
:106204002DE9F04F87B004460E4690F8807090F860
:1062140081B005920FE094F88510002949D0F31954
:10622400AE420BF1010BA3EB0A033AD35FFA8BFBEB
:10623400002703F0FF0694F882A04FFA87FC31464A
:106244004FFA8BF9AAEB070594F888304A46B4F85C
:106254007C00EDB2B4F87E80CDF80CC0AE4228BF0D
:10626400294604916146FFF7B9FF02460399404667
:1062740090464A46FFF7A0FF059902460029CAD076
:106284000093414694F886C02046049B0BF1010B11
:1062940084F8AAC000F0B6FAF319AE42A3EB0A03DD
:1062A400C4D23E4484F8819084F8806007B0BDE88D
:1062B400F08F0093414694F88700049B84F8AA0069
:1062C400204600F09FFAAAE72DE9F04F044690F823
:1062D4009000002385B00728A16784F884300D78E6
:1062E40040F24E81A0F108030131DBB2A1674FF007
:1062F400FF3294F8916084F88430824025EA0205E4
:10630400F2186DB2D2B284F88250072A087840FAA3
:1063140003F000F22781C3B24FF0FF3084F88420E9
:10632400B04094F8926023EA000394F8AA0084F839
:106334008600B0FA80F04FFA83F9400984F883901C
:1063440084F88700B0180F78C0B21741072800F20C
:10635400F6805FFA87FE94F893C084F884000CEB0F
:1063640000020F78D2B20741072A00F2D880F8B2AF
:1063740094F894A084F884200AEB020891F800B001
:106384005FFA88F84BFA02FBB8F1070F00F2B88005
:106394005FFA8BF74FF0FF3284F884800121002DDF
:1063A4000AEB020802FA0AFA5FFA88F827EA0A07EF
:1063B40001FA08F8A7EB08074FFA87FB40F39C8023
:1063C4000CEB020802FA0CFCB240013E20EA0C0C71
:1063D4005FFA88F02EEA020EF6B201FA00F2B4F87F
:1063E4007C00B140D21A94F88830AEEB0101A2EBE4
:1063F4000C0249B252B202910392FFF7EFFEA4F8E5
:106404007C000646B4F87E00DDE90212FFF7D4FEF4
:106414000246A4F87E00032B00F2EC80DFE803F0D0
:10642400B2B8C102C5F10103411C034489B29AB256
:1064340006EB09039BB200912046314600F060FA56
:10644400002859D0002294F884304FF0FF38A4F883
:10645400802094F88E50A16FEA180878D2B21841BF
:10646400072A00F2B880C6B294F88F0008FA05F53E
:1064740084F88420831891F800C026EA0506DBB26C
:106484004CFA02FC072B00F299805FFA8CF508FAAB
:1064940000F084F8843025EA0005314620460022C5
:1064A400FFF7AEFE012229462046FFF7A9FE94F825
:1064B4008420A76F531CC2F108003978A2F1070E9B
:1064C400DBB207F1010A1141C0B2072BCAB207D9E6
:1064D400C4F878A05FFA8EF37A7882400A43D2B285
:1064E400D20784F88430D8D494F981204A45B0DBAB
:1064F40094F8863084F8AA30584605B0BDE8F08F89
:106504004F1CC2F10802A8F10808D2B2A7674F785D
:106514005FFA88F8974047EA0B07FFB23AE701F1C0
:106524000108C0F10800083AC0B2C4F8788049787C
:10653400D2B201FA00F041463843C0B218E701F183
:10654400010CC2F108020838D2B2C4F878C091F83C
:1065540001E0C0B261460EFA02FE4EEA070E5FFA8F
:106564008EFEF8E64F1CC3F10803083ADBB2A767B6
:106574004978D2B201FA03F339460343DBB2CBE6DE
:106584000346B4E6731900EB09019BB289B252E7E2
:106594004119C9F10100731C304489B29BB286B21F
:1065A40049E7C5F10101C9F10100731C31441044EC
:1065B4009BB28EB2511C82B289B23CE74D1CC2F12F
:1065C4000802083BD2B2A5674D78DBB2954045EA94
:1065D4000C05EDB25BE701F1010CC3F10803083AC5
:1065E400DBB2C4F878C04E78D2B261469E4006430E
:1065F400F6B239E7014633461DE700BF70B5FF29FF
:10660400046F0D4604F117040ED8602930D9B0F890
:10661400A0301C44607830B12378AB422ED00444BF
:1066240060780028F8D170BDB0F8A2301C4426462A
:1066340000213046FFF77EFD0346022130461C440C
:10664400FFF778FD854206F10406F1D8208840BAA8
:1066540080B20028E7D0854208D0A3781C44208863
:1066640040BA80B20028DED08542F6D1E01C70BD6D
:106674004029D5D9B0F89E301C44D1E7A01C70BD88
:1066840070B50E46194690F8883082B00446154617
:10669400032B09D8DFE803F0251E0217436F01918D
:1066A4009847281A019985B22046A4F87C60A4F87A
:1066B4007E50FFF7A3FF20B101462046FFF704FEFA
:1066C40080B202B070BD436F019198473044019984
:1066D40086B2E9E7436F01919847301A019986B26F
:1066E400E2E7436F019198472844019985B2DBE7BB
:1066F4002DE9F0474FF000094FF6FF784FF6FE7A88
:1067040004460F4616465D1E00F052FA15F8011FA6
:10671400204663689847844632463946C445204635
:1067240063461AD0D445F1D0FFF7AAFF94F8883015
:10673400032B05D8DFE803F00B080E02361AB6B2B5
:1067440048441FFA80F9E1E70644B6B2F8E7074483
:10675400BFB2F5E73F1ABFB2F2E74846BDE8F0879B
:1067640010B4034C44605DF8044BFFF7C1BF00BF95
:10677400A1490000014B4367704700BF453F00003B
:10678400026F8A4222D010B504468C302167FFF78D
:10679400DBFC236FCBB194F9991094F99A2094F807
:1067A400A53084F8A61084F8A72073B1012B0ED06D
:1067B40094F9980094F9963003449942B8BF84F848
:1067C400A630824201DD84F8A70010BD704794F919
:1067D4009B3094F99C008B42B8BF0B46824284F8EC
:1067E400A630F0DC10BD00BF10B49DF80440019445
:1067F400B0F85640121B446C92B2A4465DF8044BA8
:10680400604700BF30B590F8A4409DF80CC004B1B7
:1068140003B930BD012B05D0BCF1020F2CD0BCF163
:10682400030F5CD01CF0010F29D0B0F860408C42FB
:10683400EFD8B0F862408C42EBD91344B0F86450FE
:10684400B0F866401FFA83FC944505D294424AD9B5
:1068540004F1FF3C1FFA8CFC9442DAD96545D8D286
:10686400AA4238BF2A46644594BFC2EB0403C2EB74
:106874000C0301249BB22BE00131C91A89B2B0F890
:1068840064409442C5D8B0F866409442C1D90B44E0
:10689400B0F86050B0F862E01FFA83FC8C4505D272
:1068A4008E4522D90EF1FF3C1FFA8CFC6545B0D20F
:1068B4008E458CBF00240124002CAAD1A94238BFE4
:1068C4002946E64594BFC1EB0E03C1EB0C039BB212
:1068D4000394846CA468A446BDE830406047013248
:1068E400D21A92B2A1E72A46B6E72946DEE700BFEC
:1068F40010B5002482B00094FFF784FF02B010BDED
:1069040010B5B0F86640BDF808C09442B0F864E031
:1069140016D9E64504D3624594BF002201229AB1F8
:10692400B0F86240B0F860208C420FD9994294BF0D
:10693400002101219A422CBF084641F0010010BDFC
:10694400E64501D26245EBD8002010BD994294BFC0
:10695400002001209A4228BF002010BD70B54FF0DE
:10696400010C02F0070490F8AA500CFA04FC9DF8FC
:106974001060012D5FFA8CFC46D94FF0000E0568BB
:1069840022F007022D7C02FB05F54FF6F8722A402F
:106994001144C26C11449EB95A1E92B201320A4487
:1069A4000B784EEA03038CEA030301F8013B91429E
:1069B400F6D170BD5FFA86FE5FFA85FC002BF8D035
:1069C4000A780134013B4FEA4E064EEA020214F003
:1069D40007049BB28CEA02024FEA4C050A70E9D123
:1069E40090F8AA20B0F85250012A294404D94FF053
:1069F400010C002BE4D1DCE79646DFD04FF0010C0C
:106A0400E646002BDCD1D4E7E646B8D14FF0000CC3
:106A1400B5E700BFB0F85EC0ACEB0202B0F85CC0F2
:106A240010B4ACEB01019DF8044092B289B244B9B0
:106A3400013AC91A92B289B201945DF8044BFFF786
:106A4400D3BE012CF8D10139D21A019489B25DF870
:106A5400044B92B2FFF7C8BE10B5B0F86E1082B006
:106A6400B0F86A300446B0F86C200091B0F86810B1
:106A7400FFF746FF18B984F8A40002B010BDB4F8BB
:106A840068300121B4F8602084F8A4109A42B4F864
:106A9400622038BFA4F86030B4F86A309A42B4F87F
:106AA400642088BFA4F86230B4F86C309A42B4F819
:106AB400662038BFA4F86430B4F86E309A4288BFB8
:106AC400A4F8663002B010BDB0F85E300021B0F812
:106AD4005A20B0F85CC09342A0F86010A0F862C0DD
:106AE400A0F8641002D39A1AA0F86420B0F85820D1
:106AF4009B1AA0F86630FFF7AFBF00BF90F850C0F4
:106B040001684FEACC0310B5A0F854300A7CD200D7
:106B1400A0F8522090F85120D4009444A0F8564094
:106B240091F811E0F44506DD92B2AEEB020E4FEAA5
:106B3400CE0E1FFA8EF3B1F814C02344CA8AA0F80B
:106B44005840A0F85A30A0F85CC0A0F85E2010BDF0
:106B540038B5436440F2011300250446A0F8AA3076
:106B6400049B80F85020C16480F8515080F885500F
:106B740080F8A55080F8A950836405671B6898477E
:106B8400A26C064B2046C4E91A3353689847204642
:106B9400FFF7F0FD84F8885038BD00BF0000FFFF08
:106BA40019B10A2901D088B270474FF6FF707047B7
:106BB400002380F82630704710B40C461346172182
:106BC40022460469A4465DF8044B604700B583B0CF
:106BD4000B4601210DF107028DF80730FFF7ECFF9A
:106BE40003B05DF804FB00BF10B40023046918214E
:106BF400A4461A465DF8044B604700BF10B4002356
:106C040004691921A4461A465DF8044B604700BF85
:106C140030B5044683B001920091FFF7E5FF4021AF
:106C24002046FFF7D3FF172120462569DDE900231D
:106C3400A847204603B0BDE83040FFF7DFBF00BFE0
