:0200000460009A
:100000004643464200000156000000000103030081
:1000100000000000000000000000000000000000E0
:1000200000000000000000000000000000000000D0
:1000300000000000000000000000000000000000C0
:1000400000000000010408000000000000000000A3
:100050000000800000000000000000000000000020
:100060000000000000000000000000000000000090
:100070000000000000000000000000000000000080
:10008000EB04180A063204260000000000000000FD
:10009000050404240000000000000000000000002F
:1000A0000000000000000000000000000000000050
:1000B0000604000000000000000000000000000036
:1000C0000000000000000000000000000000000030
:1000D00020041808000000000000000000000000DC
:1000E0000000000000000000000000000000000010
:1000F0000000000000000000000000000000000000
:10010000D8041808000000000000000000000000F3
:100110000204180804200000000000000000000095
:1001200000000000000000000000000000000000CF
:10013000600400000000000000000000000000005B
:1001400000000000000000000000000000000000AF
:10015000000000000000000000000000000000009F
:10016000000000000000000000000000000000008F
:10017000000000000000000000000000000000007F
:10018000000000000000000000000000000000006F
:10019000000000000000000000000000000000005F
:1001A000000000000000000000000000000000004F
:1001B000000000000000000000000000000000003F
:1001C000000100000010000001000000000000001D
:1001D000000001000000000000000000000000001E
:1001E000000000000000000000000000000000000F
:1001F00000000000000000000000000000000000FF
:10020000FFFFFFFFFFFFFFFFFFFFFFFFFFFFFFFFFE
:10021000FFFFFFFFFFFFFFFFFFFFFFFFFFFFFFFFEE
:10100000D10020434D1600600000000000000000E9
:10101000201000600010006000B8006000000000B8
:101020000000006000C4000000000000FFFFFFFFA0
:10103000FFFFFFFFFFFFFFFFFFFFFFFFFFFFFFFFC0
:10104000FFFFFFFFFFFFFFFFFFFFFFFFFFFFFFFFB0
:10105000FFFFFFFFFFFFFFFFFFFFFFFFFFFFFFFFA0
:10106000FFFFFFFFFFFFFFFFFFFFFFFFFFFFFFFF90
:10140000814205D051F8043B40F8043B8242F9D8B0
:10141000704700BF044A05494FF0000342F8043BFF
:101420009142FBD8704700BFC01A0020E02900207D
:101430002DE98848BFF34F8F00BF00BF00BF00BF3A
:1014400000F000FA684B0822C3F8542100BF00BF27
:1014500000BF00BF00BF00BF00BF00BF00BF00BF94
:1014600000BF00BF00BF00BF00BF00BF5F4A6049B0
:101470006048FFF7C5FF604A60496148FFF7C0FF59
:10148000604CFFF7C7FF4FF470004FF0E0210023DE
:101490005D4AC1F8880D44F823200133B02BFAD1FE
:1014A0005A4B80215A4A03F8011B9342FBD14FF05B
:1014B000E0254D4E4FF08039DFF884B1DFF884A18C
:1014C0004FF0FF31C5F8084D0027C6F80491C6F863
:1014D00000B1C6F8F490C6F8F0A0D5F8243DDFF8C6
:1014E000688143F4E0234B4AC5F8243DD8F81C300A
:1014F00023F07F0343F04003C8F81C30D8F82430B1
:1015000023F07F0343F04003C8F824309166D1668E
:101510001167516700F09EF93F4B4049A363404B70
:10152000E36363236B610323AF612B613D4BC5F81C
:10153000203DD5F8FC3D43F08073C5F8FC3D3A4BA7
:101540001A6842F001021A605B680B6000F0CCFB85
:10155000C6F804913548C6F800B1C6F8F490C6F84C
:10156000F0A000F03DFDD8F86C10314B314A41F449
:101570004051C8F86C101F60C3F80871C3F81871A7
:10158000C3F82871C3F83871936BDB0708D442F6AF
:101590001563294951651365936B43F00103936308
:1015A000244A264C936843F00113936000F0DAF963
:1015B00000F01EF900F00CFD00F0C4FB00F044F94F
:1015C0002368132BFCD900F055FC2368B3F5967FF4
:1015D000FBD300F03DF900F039F900F0F1FC00F028
:1015E000FBFC30BFFDE700BF00800D40D877000056
:1015F0000822006000000000C01A0020E49900608A
:101600000000002000180020055E000000E400E05B
:10161000A0E400E000C00A40097200007029002028
:101620000D72000000002020001000E00046C323DF
:101630000040084000400D400000C05674290020C2
:101640001B1018200C0D111300C00F40054B4FF458
:101650002A01054A05485A641864054A9963954663
:10166000FFF7E6FE00C00A40ABAAAAAA07002000C6
:101670000080072043690A4A03EB011010B4037A83
:10168000084C02EB0313D3E901321460C2681A60FC
:1016900003690BB142691A605DF8044B704700BFE3
:1016A000A407002061F801004369027E03EB0212E7
:1016B00092F808C08C451CD01A7AFF2A19D09142A2
:1016C00010B5044616D01A7EFF2A06D00121D3E9B0
:1016D000002312681A4201D1217610BD064B052263
:1016E000204603EB0C135B681A60FFF7C3FF2176FB
:1016F000F3E770470021EAE7A407002043690A4A9C
:1017000003EB011010B490F82830084C02EB0313DF
:10171000D3E901321460C26A1A60036B0BB1426BE9
:101720001A605DF8044B7047A407002061F80100BF
:101730004369427E03EB021292F828C08C451ED00A
:1017400093F82820FF2A1AD0914210B5044617D0EA
:1017500093F83820FF2A06D00121D3E9002312682C
:101760001A4201D1617610BD064B0522204603EBDB
:101770000C135B681A60FFF7C1FF6176F3E77047EF
:101780000021EAE7A4070020164942698B6B23F485
:101790007C0343F4802370B58B630446124DD2E979
:1017A00000130A681A4303690A60022200211A61C1
:1017B0000E4A19619A6401225A629D624FF43035D3
:1017C000DD624FF001159E6C1E6519629D651A6100
:1017D000017EFFF74FFF617E2046BDE87040FFF7B6
:1017E0008DBF00BF00C00F40B80B05053B3728195F
:1017F000104BA020104AD96E41F4403110B4D96684
:1018000040F23764D96E41F44071D96654649064F3
:10181000936C1B06FCD4094A40F23761A023516443
:101820009364936C13F08003FBD1054A13705DF849
:10183000044B704700C00F4000400C4000800C403B
:101840009A290020704700BF704700BF704700BF53
:1018500000BF704710B44FF0E0230021102431483E
:10186000C3F8941DC3F89C4D1124C3F8A00D2E4855
:10187000C3F89C4D1224C3F8A00D2C48C3F89C4D0E
:101880002B4AC3F8A00D2B4C42F015022A48C3F88E
:101890009C4DC3F8A00D294C2948C3F89C4DC3F8B2
:1018A000A00D284CC3F89C2D2748284AC3F8A04D0A
:1018B000C3F89C0DC3F8A02D02F5A022244C0C32D5
:1018C0002448C3F89C4DC3F8A02D234AC3F89C0DAF
:1018D000224CC3F8A02D02F14062C3F89C4D204871
:1018E000C3F8A02D0C32C3F89C0DC3F8A02D00BF87
:1018F00000BF00BF00BF00BF0122C3F8942DBFF39B
:101900004F8FBFF36F8FC3F8501FBFF34F8FBFF3DD
:101910006F8FD3F8142D5DF8044B42F44032C3F8B6
:10192000142D70473F000010250008070900100023
:10193000E0290020130020002100020714000020ED
:1019400025000813090000101600202027000B13A3
:1019500017000040180000602F000B0719000070EE
:101960001A000080F0B5B84B1822B84E0120B84FCD
:1019700083B0C3F85C62B749C3F86072B64DC3F870
:101980006462A6F53046B54CC3F86862C3F86C5281
:10199000C3F87052C3F87452C3F8785248F20C7509
:1019A000DA661A675A679A67DA67C3F88020C3F85D
:1019B0008420C3F88820C1F82C03A94AC1F8300359
:1019C000C1F83403C1F83803C1F83C03C1F850032F
:1019D000A169A44B0A40A448A4491343A44AA361A3
:1019E000D4F8843043F00C03C4F884304FF0FF3453
:1019F000036843F00203036003682B404FF4005573
:101A00001A439C4B026044608A689B4C13409B4A7B
:101A100043F000538360C36823F07803C360036A14
:101A2000134023430362036A1340954A2343954CB2
:101A300043628262C2620022D1F8B83023F03F03D1
:101A400043F00103C0F8B830D1F8BC308E4923F020
:101A50003F0343F00103C0F8BC3040F2056302616C
:101A600005660467C0F88030456644670224C0F804
:101A70008430036823F0020303608161834B84494F
:101A8000C46143F8042B8B42FBD1774A136843F0BF
:101A900001031360136813F00103FBD17A4802219C
:101AA00040F2F564906140F29940D16140F26641A4
:101AB000C2F8004242F20144C2F810127549C2F85D
:101AC0002002C2F8301240F235417348C2F8344265
:101AD000C2F84012714CC2F8500242F20120704923
:101AE000C2F854120121C2F86042C2F864025E4892
:101AF000C2F8A030C2F8A430C2F8B0104369DA07C7
:101B0000FCD5012300244FF4803257494361C0F8CB
:101B1000A040C0F8A420C0F8B0304B69DB07FCD56A
:101B2000012300244FF400304F4A4B61C1F8A0401C
:101B3000C1F8A400C1F8B0305369DF07FCD5012318
:101B40000024584848495361C2F8A040C2F8A40094
:101B5000C2F8B0304B69DE07FCD5D1F8003145F64C
:101B60000D5221209BB24861934265D100244FF46D
:101B7000802201233C48C1F8A040C1F8A420C1F84C
:101B8000B0304369DD07FCD501234FF40004002188
:101B9000354A4361C0F8A040C0F8A410C0F8B03086
:101BA0005369DC07FCD501234FF400044FF4803067
:101BB0002D495361C2F8A040C2F8A400C2F8B03069
:101BC0004B69D807FCD501234FF400044FF40030D3
:101BD000254A4B61C1F8A040C1F8A400C1F8B0305B
:101BE0005369D907FCD501234FF400042D481E4941
:101BF0005361C2F8A040C2F8A400C2F8B0304B69EB
:101C0000DA07FCD5D1F8003145F60D5221209BB200
:101C10004861934250D008254FF400042249002027
:101C2000224B234A009015705A1A0123214822445E
:101C300000F0DAF903B0F0BD1E4B0022C3E9002228
:101C4000C3E9022203B0F0BD00801F40F9B00100DB
:101C5000F910010000841F40F970010000C00F401E
:101C6000FFFCFF1F000300A000402A4000802A4024
:101C70001200FFFFFF37F7004000008000FFF07CFC
:101C8000FF000F8363000200F05AF05A00422A401E
:101C900000432A409F041830EB06180A3806180A39
:101CA00006320126040003000000007000000070EE
:101CB0009B290020AC2500204FF400044FF4802223
:101CC00001230848C1F8A040C1F8A420C1F8B030F1
:101CD0004369DB07FCD5012310254FF08074436175
:101CE0009CE700BF00402A40F0B4154A40274FF45B
:101CF00080314FF480564FF400554FF4404443F286
:101D00004200136913F0020F0ED113F4005F0FD0DD
:101D100013F4805F0ED0002BF3DA13F4803F0BD165
:101D20005B060BD5F0BC7047946151619061E8E7A8
:101D30005561E6E75661E4E79161E2E75761E0E764
:101D400000800D403F4A03203F49F3EE095AD2F884
:101D500080304FF0000C9FED3D6A23F001039FEDB2
:101D60003C5A30B4C2F88030C2F89000D1F8E0108C
:101D7000384DCBB2384C39482B6007EE903A0B0DFA
:101D8000C1F30B21F8EEE77A06EE903A07EE101A4F
:101D9000334BB8EEC77A2160F8EEE66A314937EE88
:101DA000C66A37EEC55A76EEC76A77EEE57A26EE52
:101DB000266AC3ED006A25EE265AD2F8803067EE17
:101DC000A64AC0ED007AC6EE275A274885EE276A54
:101DD000C4EEA76A75EE875AFCEEE55A36EE076A3E
:101DE00015EE904ABCEEC66A43EA045376EE877A53
:101DF000C2F8803016EE103AD2F89041FCEEE77A45
:101E000001EA0341214317EE903AC2F89011C3F35F
:101E10000B03D2F890110B431449C2F89031D2F859
:101E2000803043F00203C2F88030114B80F840C08C
:101E3000C1F840314FF0E023012230BCC3F8082143
:101E4000704700BF00810D4000441F400000AA42BF
:101E50000000B442602900205C2900206429002091
:101E6000682900200000FF0F00E400E000180020B7
:101E7000C95F0000314B40F6617210B5C3F82021F4
:101E800040F2044400F0B8F82D4A2E49D2F88030D0
:101E90002D4843F00303C2F880302C4BC1F8604159
:101EA00002681A4203D1D1F8A8319A071BD0254AFB
:101EB0004FF00041244B5963D2F8403143F0020304
:101EC000C2F84031D2F840319B07FBD44FF40030C8
:101ED0004FF0E0211C4B4FF00042C1F88C0219205A
:101EE0009A6300F085F8184A4FF08040154C0021A5
:101EF00090630A20164B11604FF42072C4F8A801B9
:101F0000184600F061F84FF4800203464FF4810058
:101F100040F243111860C4F858311A640D4B0E4A50
:101F2000C4F84811C3F804224FF0E0224FF4003106
:101F30000123C2F80C11C4F8403110BD00800D40DF
:101F400000C00F4000002E4000900D40001C1E00FD
:101F50000000002000180020B161000008B50E4B01
:101F60001B6E9B0700D4FBBE72B60C4B00200C4AC4
:101F7000C3F8400103F160430A49A3F55F231164EC
:101F80009D46BFF34F8F4FF400130748074ADB69A4
:101F900002609B68984700BF00441F4000002E402D
:101FA00000C00A400300200000802020000012EB47
:101FB000F8B500BFF8BC08BC9E46704700000000A2
:101FC0005FF800F0F97300005FF800F0497300005B
:101FD0005FF800F0115D00005FF800F0E95A0000C2
:101FE0005FF800F0155600005FF800F09D720000E9
:101FF0005FF800F0055900005FF800F0216900006B
:102000004500000069000000E10A0000951C000086
:1020100080C00F4000000003190000001000000005
:10202000E8841F4001000000FF000000FF000000E6
:102030000000000000000000180000001000000078
:10204000E4841F4001000000FF000000FF000000CA
:1020500000000000000000001F000000ED12000062
:1020600070C00F40000C00001100000011000000C3
:10207000E0841F40020000002C000000120000005D
:10208000E0841F400100000010000000110000006B
:10209000DC841F40020000002D0000001200000040
:1020A000DC841F40010000001E000000E11200005F
:1020B00070C00F40C00000001200000013000000BC
:1020C000D0841F4001000000FF000000FF0000005E
:1020D00000000000000000001300000013000000DA
:1020E000CC841F4001000000FF000000FF00000042
:1020F00000000000000000001C000000D5120000DD
:102100001603550053004200200053006500720082
:10211000690061006C000000180354006500650050
:102120006E00730079006400750069006E006F0036
:102130000403090409026200030100C032080B0015
:10214000020202010009040000010202010005244C
:1021500000100105240101010424020605240600E3
:10216000010705820310001009040100020A0000A3
:102170000007050302400000070584024000000933
:1021800004020002FF6AFF00070581024000010708
:10219000050102400001000009026200030100C0C5
:1021A00032080B00020202010009040000010202D1
:1021B0000100052400100105240101010424020688
:1021C000052406000107058203100005090401002B
:1021D000020A00000007050302000200070584024E
:1021E0000002000904020002FF6AC700070581021D
:1021F0000002010705010200020100000A060002B8
:08220000EF02014001000000A3
:1022080000000000000000000000000000000000C6
:1022180000000000000000000000000000000000B6
:102228000548064B1B1AD90F01EBA301491002D030
:10223800034B03B118477047C01A0020C01A00208A
:102248000000000008B5054B1BB105490548AFF370
:102258000080BDE80840FFF7E3BF00BF00000000B2
:10226800C428002000C40060044BFF204FF0FF3159
:1022780000221860C3E90212704700BF881C0020C2
:1022880000207047704700BF704700BF704700BF0D
:10229800704700BF704700BF704700BF01627047BA
:1022A80070B50446D0F8C0001D46164603681B6882
:1022B8009847D4F8C000314603681B689847D4F89B
:1022C800C00029460368BDE870401B68184700BF76
:1022D80070B50446D0F8C000154603681B689847D7
:1022E800D4F8C00029460368BDE870401B68184749
:1022F800D0F8C00003685B68184700BFD0F8C0007A
:1023080003681B68184700BF0D490E4B30B40C68B2
:102318000360A042D0E9013200D06BB10AB153602A
:1023280043684D68A84208BF4A6003B19A60A0425A
:1023380008BF0B6030BC7047002AF0D1FAE700BF35
:10234800641D0020F4030020704700BF704700BFE1
:10235800704700BF436A10B504461B68243098478D
:10236800204603F067FA204610BD00BFD0E930319F
:1023780010B41C6818460022E3695DF8044B18473E
:10238800D0E92C3110B41C6818460022E3695DF8C6
:10239800044B1847043070470730704704307047C3
:1023A80006307047043070470530704738B500F183
:1023B8000805D0F8B4300446284698474FF6FD7310
:1023C800984201D9012038BD0346B4F8BA20B4F8C0
:1023D800B810284604F076F994F89030032BF1D819
:1023E800DFE803F0140E0802B4F8BA301B1AA4F898
:1023F800BA30E7E7B4F8B8301B1AA4F8B830E1E708
:10240800B4F8BA301844A4F8BA00DBE7B4F8B83026
:102418001844A4F8B800D5E738B5044600F12805F3
:102428000AE0D4F8C00003685B699847014628466B
:10243800C9B203F023FB38B9D4F8C00003681B699C
:1024480098470028EDDC002038BD00BF10B50446D1
:10245800082105F0EBFC204610BD00BF10B504466E
:10246800082105F0E3FC204610BD00BF10B5044666
:10247800082105F0DBFC204610BD00BF064B03F128
:10248800440103F1580210B50446036081600261FB
:1024980001F082FD204610BD18060020084B10B53B
:1024A80003F14401044603F1580240F8103C40F897
:1024B800081C44F81029204601F06EFD204610BD86
:1024C80018060020084B10B503F1440103F1580227
:1024D800A0F1080440F8083C01608260204601F041
:1024E8005BFD204610BD00BF18060020084B03F115
:1024F800440103F1580210B504460360026181608B
:1025080001F04AFD2046C42105F090FC204610BD8C
:10251800180600200A4B10B503F1440103F15802D4
:10252800A0F1100440F8103C026040F8081C204656
:1025380001F032FD2046C42105F078FC204610BD8C
:10254800180600200A4B10B503F1440103F15802A4
:10255800A0F1080440F8083C82600160204601F0C0
:102568001BFD2046C42105F061FC204610BD00BFBC
:1025780018060020064B03F1440103F1580210B578
:10258800044603608160026101F006FD204610BD2B
:1025980018060020084B10B503F1440103F1580256
:1025A800A0F1080440F8083C01608260204601F070
:1025B800F3FC204610BD00BF18060020084B10B5DC
:1025C80003F14401044603F1580240F8103C40F876
:1025D800081C44F81029204601F0DEFC204610BDF6
:1025E80018060020084B03F1440103F1580210B506
:1025F800044603600261816001F0CEFC2046C821D8
:1026080005F014FC204610BD180600200A4B10B532
:1026180003F1440103F15802A0F1100440F8103C02
:10262800026040F8081C204601F0B6FC2046C8218C
:1026380005F0FCFB204610BD180600200A4B10B51B
:1026480003F1440103F15802A0F1080440F8083CE2
:1026580082600160204601F09FFC2046C82105F0F9
:10266800E5FB204610BD00BF18060020064B03F10D
:10267800440103F1580210B5044603608160026109
:1026880001F08AFC204610BD18060020084B10B542
:1026980003F14401044603F1580240F8103C40F8A5
:1026A800081C44F81029204601F076FC204610BD8D
:1026B80018060020084B10B503F1440103F1580235
:1026C800A0F1080440F8083C01608260204601F04F
:1026D80063FC204610BD00BF18060020084B03F11C
:1026E800440103F1580210B5044603600261816099
:1026F80001F052FC2046C82105F098FB204610BD89
:10270800180600200A4B10B503F1440103F15802E2
:10271800A0F1080440F8083C82600160204601F0FE
:102728003BFC2046C82105F081FB204610BD00BFB8
:10273800180600200A4B10B503F1440103F15802B2
:10274800A0F1100440F8103C026040F8081C204634
:1027580001F022FC2046C82105F068FB204610BD88
:102768001806002038B501F10C050446284603F088
:10277800FFF9034628461D4603F0FCF900230246EC
:10278800256020462271637138BD00BF0F4938B5F6
:10279800044608680E4B84422360D4E9013200D015
:1027A8008BB10AB1536063684D68AC4208BF4A6098
:1027B80003B19A60844208BF0B6020460C2105F0E3
:1027C80035FB204638BD002AECD1F6E7641D002011
:1027D800F40300202DE9F843124D40F2EE28124C84
:1027E800124FDFF84C902E6806F080FD237853B125
:1027F8003B78DB0707D52B68D9F800209B1A0E2BEE
:1028080001D9BDE8F8832B6822789B1B2AB1B3F560
:10281800FA6FF6D806F06AFDE6E74345FAD9BDE84F
:10282800F88300BF74290020A6290020A5290020CC
:10283800842900202DE9F843124D40F2EE28124C6D
:10284800124FDFF84C902E6806F050FD237853B1F4
:102858003B78DB0707D52B68D9F800209B1A0E2B8D
:1028680001D9BDE8F8832B6822789B1B2AB1B3F500
:10287800FA6FF6D806F03AFDE6E74345FAD9BDE81F
:10288800F88300BF74290020A6290020A52900206C
:10289800842900202DE9F047002A4ED004460D4631
:1028A8008F180026DFF89C9000F108084FF6FD7A93
:1028B80003E00120AF42064420D0236815F8011B2D
:1028C8001B684B4515D1D4F8B4304046984750455D
:1028D800EFD80346B4F8BA20B4F8B810404603F06D
:1028E800F1FE94F89030032BE3D8DFE803F01F18CB
:1028F800110A20469847AF420644DED13046BDE86B
:10290800F087B4F8BA301B1A0120A4F8BA30D1E71E
:10291800B4F8B8301B1A0120A4F8B830CAE7B4F8E4
:10292800BA301844A4F8BA000120C3E7B4F8B830A4
:102938001844A4F8B8000120BCE716463046BDE8A4
:10294800F08700BFAD01000000221B4B4260C2604F
:102958001A6830B400F1280500F1100452B35A681F
:10296800826102B15460154A5C60002302F144049C
:10297800C0F8C0100260FF2158328460104CC56155
:1029880084624361036280F82430026180F82C106D
:1029980080F82D3080F82E3080F82F3080F83010F5
:1029A80080F83130C0F8B43080F8B83080F8BC30E6
:1029B80030BC70471C60D2E7641D0020A8050020C9
:1029C800F4040020F0B504461E46002383B0083006
:1029D80015466360C4F8B8300D4B9DF8207023602D
:1029E8000C4B0191C4F8B430009004F089F80A4BFC
:1029F800019900982360094A094B03F0D5FB009818
:102A08003B463246294603F08BF9204603B0F0BD19
:102A1800B8030020F1480000A0030020313B00006B
:102A2800D13900002DE9F04F604A87B00023DFF864
:102A380094810192DFF890B15D4ADFF890A1DFF848
:102A480090910393029204935A4B002618209DF804
:102A58000C501C460593F1B20136691A18BF0121C2
:102A680005F0CEF8052E02D014F8010FF3E7524B0B
:102A7800DBF804101A68514BA3FB0232920C02EBEC
:102A88008202D200DBF804305B1A9A42FAD84C4D25
:102A98000920DDE9017407E0002A5ED1454504F804
:102AA800013F3BD015F8010F05F0D4F8002817F8BE
:102AB800016F62780CBF01230023EDD1002AEDD10C
:102AC800DAF8C0009021009306F07F0602681268C9
:102AD8009047DAF8C0003146026812689047DAF881
:102AE800C0007F21026812689047D9F8C000902181
:102AF800026812689047D9F8C0000123314602687D
:102B0800049312689047D9F8C0007F2102681268C0
:102B18009047009B454504F8013FC3D1019A039BA8
:102B28000E3201330192029A052B039302F10E0231
:102B3800029289D1059D182001212C1D05F060F80D
:102B4800A54206D015F8010F012105F059F8A54254
:102B5800F8D1049807B0BDE8F08FDAF8C0008021FA
:102B6800009306F07F06026812689047DAF8C00002
:102B78003146026812689047DAF8C00000210268FE
:102B880012689047D9F8C0008021026812689047FF
:102B9800D9F8C0003146026812689047D9F8C000D9
:102BA8000021026812689047009B77E7F70200202F
:102BB800DB280020F0020020640D002083DE1B4388
:102BC800E0020020ED020020001000E03427002081
:102BD800FC270020F0B5083085B01E461546039046
:102BE8000C4603F011F9039866B105F12401382366
:102BF800202289B203F028FE039805B0BDE8F04012
:102C080003F00EB905F140070F221E230390B9B255
:102C18000092202203F01CFA104AC4EB04130F247C
:102C280003985B000094039003F2FF1382FB0312E6
:102C3800D917002B1A444FF00A03C1EB62214FF059
:102C48002002ACBF0F391039394489B203F04EFA6B
:102C5800039805B0BDE8F04003F0E2B8030820800F
:102C6800194B70B5186801F0CFF8272004F04AFD19
:102C78000646FFF7D7FE50B9144B154D1B782C7834
:102C88006BB9144B1B78ABB900232B7070BD0123B3
:102C98000F4D04462B700D4B1B78002BF1D02346AB
:102CA8006FF0020231460C48FFF794FF094B1B787E
:102CB800002BE9D02346032231460848FFF78AFF54
:102CC80000232B7070BD00BF881D00209C290020A8
:102CD800992900209D290020BC2500207826002065
:102CE8002DE9F0435F4840F204795F4C83B05F4EB2
:102CF8005F4D22463146A0F80490056006F010FCAE
:102D08005C484FF60433224631460560838006F05E
:102D180007FC59484FF6F833224631460560838050
:102D280006F0FEFB554840F2037322463146056023
:102D3800838006F0F5FB52484FF6033322463146AE
:102D48000560838006F0ECFB4E484FF6F7332246C9
:102D580031460560838006F0E3FB4B4840F203638D
:102D6800224631460560838006F0DAFB474840F684
:102D78000303224631460560838006F0D1FBDFF865
:102D8800648143480A23434F22464146A0F80490F1
:102D98000760837106F0C4FB3F480B232246414677
:102DA800A0F804900760837106F0BAFB3B483C4BDF
:102DB80022463C490360F423037106F0B1FB3A480C
:102DC8003146224605604EF6F40547F61226858000
:102DD80006F0A6FB3548DC23224685804146344D63
:102DE8008371076006F09CFB32492846FFF7ACFD6B
:102DF800314BC5F8C460284603F144022B605833B0
:102E08002E49AA6022462B612D4D06F089FB2D49DB
:102E18002846FFF799FD2C4BC5F8C46003F144021E
:102E280003F158002B60AA602246286128462749EA
:102E380006F076FB264D2246FF242649264806F052
:102E48006FFB23462246294600942448FFF7BAFD23
:102E580023462246294600942148FFF7B3FD03B0D4
:102E6800BDE8F0830C1E0020A01100204D010000D9
:102E780010070020E41D0020F41D0020141E00206F
:102E8800EC1D0020FC1D0020D41D00201C1E00206D
:102E9800041E002028070020DC1D0020C41D00207F
:102EA800F806002051010000BC1D0020CC1D0020A8
:102EB800FC270020680D0020000500206D0400009C
:102EC80034270020780D00208806002075030000B4
:102ED800400B00205501000008160020BC250020EA
:102EE80078260020490100002DE9F0437E4D83B08B
:102EF8007E4C40F2EE287E4FDFF830922E6806F0C6
:102F0800F5F923784BB33B78DB0726D52B68D9F83E
:102F180000209B1A0E2B20D9764C00227648774940
:102F280004F10D0504F038F9092001E014F8010F47
:102F3800022104F0A1FEAC42F8D1714C1820251DE5
:102F48000121019004F098FE0121019804F058FE37
:102F5800A5420FD014F8010FF2E72B6822789B1BCB
:102F68002AB1B3F5FA6FD7D806F0C0F9C7E74345D9
:102F7800FAD9D1E7634CA36C012B00F2B28003EBC2
:102F8800C3010133604804EB8101A364019101F09E
:102F980049FF01995D4801F037FFA36C5C4A012B9A
:102FA800176800F29E8003EBC30107F1080501339F
:102FB80004EB81012846A364019101F033FF0199D4
:102FC800544801F021FFA16C012900F28A804B1CB2
:102FD80001EBC1012846504E04EB8101A3644F4D1B
:102FE8004FF07808019101F01DFF0199474801F061
:102FF8000BFF38467A2700F0B7FD05F1080085F881
:103008002C8086F82C7003F083FF05F1080003F08C
:10301800BBF8002105F10800414C03F083FF06F1DD
:10302800080003F075FF06F1080003F0ADF806F19B
:103038000800002103F076FF002105F1080003F0E5
:1030480071FF06F10800002103F06CFFFF2105F174
:10305800080003F071FF06F10800FF21012603F0C4
:103068006BFF204606F0B0FC3146204684F8A58068
:1030780084F8306184F82F6100F056F9B0FA80F3D3
:1030880084F8306184F82F6120465B0984F8A570C4
:10309800244C3146244E237000F046F9034627207D
:1030A800B3FA83F35B09337004F02CFB23780446EE
:1030B80023B9337863B903B0BDE8F08300236FF018
:1030C800020228462146FFF785FD3378002BF2D00F
:1030D800002303222146104803B0BDE8F043FFF760
:1030E80079BD00F045FA00BF74290020A629002008
:1030F800A5290020E0020020780D002080841E0011
:10310800F0020020081600203C270020FC270020A1
:10311800881D00203427002078260020BC250020A8
:10312800D80D00209C2900209D29002084290020FA
:1031380090F8A32090F8A200101A704790F8A230D7
:1031480090F8A3209A4205D95A1C034480F8A2207B
:10315800987E70474FF0FF30704700BF90F8A2305C
:1031680090F8A3209A4202D91844807E70474FF005
:10317800FF307047704700BF0346B0F8300178B1A0
:1031880093F82F21882A03D9012200205A6070471A
:1031980002F1010C01201A4483F82FC182F8A5100E
:1031A800704700BF38B5B0F830410CB9204638BD7B
:1031B80090F82F310546C3F18904A2420DD8144670
:1031C80005F1A5002246184404F096FD95F82F3124
:1031D8002046234485F82F3138BD01224260EFE7AD
:1031E8002DE9F04FD0F814A01524017E8146437EC6
:1031F80083B00AEB0111384A0AEB0313374F097AF7
:1032080093F8283002EB01150901E86852F80180AB
:1032180002EB0311D5F804B01B01CE68D558CBF8E2
:103228000040C8F88400D8F804304A6803432C49A1
:103238000192C8F804301460C5F884606B683343A1
:103248006B60284B4C683A68A3FB0232920C02EB85
:10325800820252004B681B1B9A42FBD84FF0090CA4
:103268001F4ADFF880E0D8F80830034202D0AB6884
:1032780033422FD1C5F8886054683968AEFB0131F4
:10328800890C01EB810153681B1B9942FBD8C5F8D7
:10329800846054683968AEFB0131890C01EB810107
:1032A80053681B1B9942FBD8BCF1010CDBD160466B
:1032B80099F81830019A0AEB0313DB68CBF8003051
:1032C80099F819300AEB031ADAF82C30136003B0B6
:1032D800BDE8F08F0120EBE7A4070020640D002073
:1032E800001000E083DE1B430E4A10B51168046924
:1032F80005E0DB0107D413685B1A102B08D8636953
:1033080013F0007FF5D14FF4FE430120636110BD37
:10331800FFF766FF0028FAD04FF4FE4301206361EF
:10332800F5E700BF742900202DE9F04790F82FA198
:103338000569BAF1000F4FD081468846FFF7D4FFE0
:10334800002849D0374E0024376818E06B69190502
:1033580051D4DA0455D4580559D4990441D4326863
:10336800D21B322A3DD8544507D9EA6D520704D1F9
:103378009B0555D4B8F1000F52D005F0B7FF54455E
:10338800E4D8EA6D500702F00703DFD413E099F898
:10339800A5200133022442F48062042B2A661ED041
:1033A8008A4503F1010309EB01020ED992F8A52021
:1033B800042B2A66CAD00121002CE8D0214601330B
:1033C80001348A4509EB0102F0D8B8F1000FBDD0ED
:1033D8004FF400732B66B9E70420BDE8F087012499
:1033E800B4E72B694FF40072042043F440732B6157
:1033F8002A66BDE8F0872B69042043F440732B61EB
:10340800EBE72B69052043F440732B61E5E72B6953
:103418004FF40072022043F440732B612A66DCE704
:103428000020DAE774290020F8B506690446D6F8C2
:10343800145115F4706301D0C6F81431A8070BD5E0
:10344800D6F8702111043DD50023012184F8A2305B
:10345800234484F8A3109A76EA0710D594F83071BB
:10346800F7B194F82E7194F82F31BB4226D97B1C02
:10347800274484F82E3197F8A530C6F86031AB059B
:103488000DD594F8A30018B1D4F83C3103B198478E
:103498000023A4F8A230A4F82E3184F83031F8BD06
:1034A800D4F8383103B19847002384F82E3101232A
:1034B80084F8303194F82F31BB42D8D80023C6F8AD
:1034C8006031DCE794F8A330872BC5D8591CC9B202
:1034D800BEE700BF0148FFF7A7BF00BFD80D002017
:1034E8000148FFF7A1BF00BF180F00200148FFF7F0
:1034F8009BBF00BF5810002010B4144C0022036971
:10350800A1421A6114D8124C012012494FF43032EA
:103518009C6458629962DA629C6C00204FF0011139
:1035280001221C6518625DF8044B99651A617047A1
:103538000948814207D9094C09480A499C645A62DA
:103548009862D962E8E7084C0848F6E77F1A06004F
:103558003B372819B80B05053F420F000A09070435
:1035680060090101007F05001C1A120C100E0202EE
:1035780001210D2008B504F07FFB01210D2004F086
:103588003FFB322004F0BEFA00210D2004F038FB86
:10359800322004F0B7FA01210D2004F031FB32206B
:1035A80004F0B0FA00210D2004F02AFB40F252305A
:1035B80004F0A8FAE1E700BF704700BF704700BFFA
:1035C800704700BF704700BF704700BF704700BF1B
:1035D80082B0836AADF8041013B1019802B018479D
:1035E80002B070472DE9F04385B0446A6B4683E822
:1035F80006001CB193E80300A04740BBDFF86090C9
:10360800009ED9F800409DF80550BDF80470F4B14B
:103618000DF1080801E06468CCB1237B0296AB4247
:10362800ADF80C70F7D12368204698E806005B696E
:1036380098470028EFD0A3684BB19968626849B1F0
:103648004C60C3E90124C4E9013132B1936005B08B
:10365800BDE8F083C9F80040F3E7C9F80430F6E79D
:10366800AC1D0020034B10B50446036002F08EF930
:10367800204610BDA8040020054B10B50446036081
:1036880002F084F90821204604F0D0FB204610BD42
:10369800A8040020043000F00FBC00BF38B5244B4C
:1036A8000025244C4FF47A7203F108012C3365602D
:1036B8002160A360E560C4E9042504F077FA226973
:1036C80044F21A13E561801AC4E9050304F06EFA9E
:1036D800194BA26904F15401E362801A236503F1CE
:1036E800340204F15C03E0610120A366134B6263BA
:1036F800186004F1380004F13003E166A56225631F
:10370800A563A4F84C506565A4F870500C49C4E949
:103718001625C4E91103C4E908552046094AC4E935
:103728000F55C4E91855BDE8384005F0F9BE00BF8B
:10373800B4040020241E002040070020981C00200C
:1037480049150000A01100200E4B10B503F1080226
:1037580004462C3350302260A36002F06BF804F169
:103768002C0002F067F8084A2046084B226040F80F
:10377800083F02F00BF9064B2046236001F0A0FF3A
:10378800204610BDB404002070050020A8040020C5
:103798001804002038B5104B05460446483003F19C
:1037A80008022C3340F8502C45F8083902F042F84A
:1037B80004F1240002F03EF8084A094B204644F878
:1037C800082C236002F0E2F8064B284644F8083C2F
:1037D80001F076FF284638BDB404002070050020AB
:1037E800A804002018040020104B10B503F10802AB
:1037F80004462C3350302260A36002F01BF804F119
:103808002C0002F017F80A4A20460A4B226040F8BA
:10381800083F02F0BBF8084B2046236001F050FF38
:103828002046742104F002FB204610BDB404002099
:1038380070050020A80400201804002038B5124B99
:103848000446A0F1080503F108022C3340F8082CBF
:1038580040F8483B01F0EEFF04F1240001F0EAFFD4
:103868000A4A0B4B204644F8082C236002F08EF8D5
:10387800084B284644F8083C01F022FF28467421EA
:1038880004F0D4FA284638BDB4040020700500209E
:10389800A8040020180400200A460B462DE9F04130
:1038A800C2F3074286B0046AC1F307208DF81320DB
:1038B8000A0E8DF8120003F0F0039DF811008DF840
:1038C8001420CAB2019162F303008DF810308DF80C
:1038D800110024B10846A04760B99DF81030B02BFC
:1038E8000BD003F0EF02802A47D0D02B00F0A28043
:1038F800C02B6DD006B0BDE8F0819DF81230792B51
:1039080000F0C3807B2B00F0E680DFF8F481D8F864
:103918000040002CEED004AE784F03AD236831464A
:1039280020469B699847236802462946DB69201D83
:10393800ADF80C20BB4279D100F0BEFA0346204610
:103948002A463146002B6CD023685B6998470028CB
:1039580067D02369002BCDD01969E268002900F0EF
:10396800B780CC60C3E90324C4E90331002A00F01E
:10397800AC80136106B0BDE8F081DFF89081D8F81B
:103988000040002CB6D004AE5C4F03AD0EE000F052
:1039980093FA034620462A46314623B123685B69D9
:1039A80098470028D5D1E468002CA3D02368314675
:1039B80020469B699847236802462946DB69201DF3
:1039C800ADF80C20BB42E2D0204698470346E1E719
:1039D800DFF83C81D8F80040002C8BD004AE474F6C
:1039E80003AD0FE0201D00F067FA2A4630B12368C6
:1039F800204631465B6998470028AAD1E468002C24
:103A08003FF478AF2368314620469B69984723687E
:103A18002946ADF80C00DB69BB42E3D02046984745
:103A2800E3E7E468002C7FF479AF63E72046984722
:103A3800034684E7DFF8D080D8F80040002C3FF434
:103A480059AF04AE2D4F03AD10E0201D00F034FA3D
:103A58002A4638B12368204631465B6998470028D2
:103A68007FF477AFE468002C3FF444AF2368314615
:103A780020469B69984723682946ADF80C00DB6906
:103A8800BB42E2D020469847E2E71D4B1C6854B180
:103A98001C4D01E0E46834B12368DB68AB42F9D01F
:103AA80020469847F6E7184B1C68002C3FF422AFD5
:103AB800144D03E0E468002C3FF41CAF2368DB6876
:103AC800AB42F7D020469847F4E7C8F8043011E72E
:103AD800C8F8004046E70D4B1C68002C3FF40AAFBD
:103AE800084D03E0E468002C3FF404AF2368DB686A
:103AF800AB42F7D020469847F4E700BF9514000082
:103B0800941D0020C1130000B41D0020A41D002036
:103B18009C1D002070B50446C06882B010B100201A
:103B280002B070BD6368002BFAD100F081FA054637
:103B3800C0B104F12C01204604F15006019101F0B6
:103B480063F9019905F1080001F06CF904F1080026
:103B5800314601F067F92846314601F055F9012050
:103B680002B070BDFFF704FD70B50546FFF7D2FF40
:103B78000C2003F01FFE02F001F8474B1C6834B11B
:103B8800236820469B6898476468002CF8D100F0A9
:103B9800ABF9424B1C6864B1414E01E0E46844B1A2
:103BA80023689B68B342F9D020469847E468002C04
:103BB800F6D13C4B1C6864B1394E01E0E46844B16D
:103BC80023689B68B342F9D020469847E468002CE4
:103BD800F6D1354B1C6864B1314E01E0E46844B15C
:103BE80023689B68B342F9D020469847E468002CC4
:103BF800F6D12E4B1C6864B1294E01E0E46844B14B
:103C080023689B68B342F9D020469847E468002CA3
:103C1800F6D1274B1C6864B1264E01E0646844B1B4
:103C280023689B68B342F9D0204698476468002C03
:103C3800F6D1214B1C6834B1236820469B6898470D
:103C48006468002CF8D11D4B1C6834B123682046E9
:103C58009B6898476468002CF8D1194B1C6834B1EC
:103C6800236820469B6898476468002CF8D1154B58
:103C78001C6834B1236820469B6898476468002C08
:103C8800F8D103F093FF2B69C01A686103F08EFF27
:103C9800AB69C01AE86170BD641D0020941D002046
:103CA800BD1300009C1D0020B41D0020A41D002091
:103CB800AC1D0020C9130000741D00205C1D0020ED
:103CC800541D00206C1D002038B5284B1C6864B1B9
:103CD800274D01E0E46844B123681B69AB42F9D081
:103CE80020469847E468002CF6D1224B1C6864B142
:103CF8001F4D01E0E46844B123681B69AB42F9D069
:103D080020469847E468002CF6D11B4B1C6864B128
:103D1800174D01E0E46844B123681B69AB42F9D050
:103D280020469847E468002CF6D1144B1C6864B10F
:103D38000F4D01E0E46844B123681B69AB42F9D038
:103D480020469847E468002CF6D10D4B1C6864B1F6
:103D58000C4D01E0646844B123681B69AB42F9D09B
:103D6800204698476468002CF6D138BD941D002081
:103D7800C5130000A41D0020B41D00209C1D0020B8
:103D8800AC1D0020CD1300001C4B2DE9F0411D682F
:103D9800002D30D000231A4E1A4F14E09C420BD04D
:103DA80013B11B685B6A984723682046DB6998470C
:103DB80023681B6ABB421BD12B6828469B6898471F
:103DC8006D6823466DB1EC6818463268A242E5D0AA
:103DD800E268002AE2D12269002ADFD16D68002D4D
:103DE800F1D143B11A681846BDE8F041536A184743
:103DF80020469847E0E7BDE8F08100BF7C1D002021
:103E08008C1D0020B913000038B5054601F0D2FE1C
:103E18001D4B1C6834B123682046DB6898476468EA
:103E2800002CF8D103F0C2FED5E90423C01A904251
:103E38001CD2164B1C6834B123682046DB689847AF
:103E48006468002CF8D12846FFF73EFF03F0AEFE69
:103E5800D5E90623C01A904204D313442846EB61DF
:103E6800FFF792FFBDE8384001F096BE08491344B9
:103E78000C686B61002CDCD023682046DB6898470F
:103E88006468002CF8D1D4E7741D0020641D00205C
:103E98005C1D002008B5054B1B68DB0703D5044BE8
:103EA800044A1A6008BDFFF7F9FBF8E7981C0020E0
:103EB800881D0020241E00200B78024613F0010004
:103EC80011D092F800C01CF001000CD083EA0C035A
:103ED80013F0FE0F06D148785378C01AB0FA80F074
:103EE8004009704700207047054B10B51C6834B175
:103EF800236820469B699847E468002CF8D110BDD8
:103F08008C1D0020704700BF704700BF704700BF7E
:103F180082B00368C1F30722ADF80410C9B25B6B25
:103F280002B018478C46C1F307220B0E30B50CF0CF
:103F3800F0050C4685B08646B02DC4F307440391BE
:103F4800C9B208D9E02D06D00468E46AA44605B0D1
:103F5800BDE83040604700932346DEF800407046D5
:103F6800A46AA04705B030BD10B582B002AB03E922
:103F780006009DF804209DF8053042B1012A08D0BA
:103F88000468246BA44602B0BDE81040604702B044
:103F980010BDFFF7EDFA00BF70B51E4A04461E4D6E
:103FA80002F140012B68816002601C4963B39C42A6
:103FB80027D004F110020D68194BAA422361D4E9F5
:103FC800053000D0D3B108B1436063694E68B2428E
:103FD80008BF486003B19860AA4208BF0B60114A45
:103FE8002046114B226040F8083F01F0CFFC0F4BF0
:103FF8002046236001F064FB204670BD0028E3D111
:10400800EDE700232B60D4E74B68002BD1D0103BA1
:10401800CDE700BF3C040020841D0020641D002063
:10402800F403002070050020A804002018040020D4
:10403800044B186800B17047034B58680028FAD041
:1040480010387047841D0020641D0020C36970B5B6
:1040580000F1080682B05A680446D97930460192C0
:1040680000F0F0FE054610B9284602B070BD304693
:10407800019900F02FFF206A0028F5D00368034A51
:104088001B689342F0D021469847EDE7051D0000D4
:10409800F0B5044683B0E1696E4604F108070B6881
:1040A80030461B6898479DF80510384600F0CAFE50
:1040B800054610B9284603B0F0BD384696E8060014
:1040C80000F0C2FF206A0028F4D00368034A5B6846
:1040D8009342EFD021469847ECE700BF091D000046
:1040E80090F8243070B5044682B033B903689B6BEE
:1040F8009847034684F8240040B304F10805174E96
:1041080009E0012B1DD0236820469B6B9847034686
:1041180084F82400D0B1022B1AD0032BF1D1E36923
:1041280028461B89ADF80430019901F00DF9206A81
:104138000028E8D003689B68B342E4D0214698473A
:10414800E1E72046FFF782FF0028DCD102B070BD0E
:104158002046FFF79DFF0028D5D1F7E70D1D000089
:10416800A0F11000FFF7BCBF006910B103689B699C
:1041780018477047406910B103689B681847704733
:10418800C06810B103689B681847704701F0070CB6
:10419800012310B503FA0CF34FEAD10C62B10F29D1
:1041A800DBB21CD884449CF820E043EA0E038CF868
:1041B8002030006970B910BD0F296FEA03030ED8CB
:1041C80084449CF820E00EEA03038CF82030006950
:1041D8000028F0D00368BDE810405B691847FFF776
:1041E800C7F900BF10B5006986B00191002839D021
:1041F8000368234A9B68934238D19DF804E09DF8F0
:1042080005C09DF806109DF8072000698DF808E0A4
:104218008DF809C08DF80A108DF80B2010B30468CA
:10422800A4689C4220D100698DF80CE08DF80DC07F
:104238008DF80E108DF80F20A0B103689B68A3427B
:1042480018D100698DF810E08DF811C08DF81210A2
:104258008DF8132030B10268049992689A420BD104
:10426800FFF7C0FF06B010BD0299234606B0BDE8AF
:10427800104018470399F9E706B0BDE81040104709
:10428800ED210000836930B504468DB018680191AE
:1042980008B1FFF7F7FF2368524ADB69934240F001
:1042A80082809DF804C09DF805109DF806209DF8B1
:1042B800073020698DF80CC08DF80D108DF80E2090
:1042C8008DF80F3000286CD00468A568464CA542CC
:1042D8006FD100698DF810C08DF811108DF812207B
:1042E8008DF8133000285CD00568AD68A54266D10A
:1042F80000698DF814C08DF815108DF816208DF80A
:10430800173000284DD00568AD68A5425DD1006919
:104318008DF818C08DF819108DF81A208DF81B30FB
:1043280000283ED00568AD68A54251D100698DF8D6
:104338001CC08DF81D108DF81E208DF81F3080B31D
:104348000568AD68A5423DD100698DF820C08DF89B
:1043580021108DF822208DF8233010B30568AD6840
:10436800A54238D100698DF824C08DF825108DF844
:1043780026208DF82730A0B10568AD68A5422DD15B
:1043880000698DF828C08DF829108DF82A208DF83D
:104398002B3030B103680A999B68A34205D1FFF717
:1043A80021FF0DB030BD019920460DB0BDE8304069
:1043B800184703992B460DB0BDE8304018470499BB
:1043C8002B46F2E707992B46EFE705992B46ECE7D2
:1043D80006992B46E9E708992B46E6E709992B4603
:1043E800E3E700BF89220000ED21000010B5006955
:1043F8008CB00191039100283AD00468214AA4683E
:10440800944238D100690B460491002830D00468E2
:10441800A46894422FD10069059148B30468A46840
:10442800944228D10069069110B30468A4689442A4
:1044380021D100690791D8B101688C68944219D1DB
:1044480000690893A0B101688C68944218D100698A
:10445800099368B101688C68944211D100690A9384
:1044680030B101688C681946944204D1FFF7BAFE4E
:104478000CB010BD079923460CB0BDE81040184792
:104488001946F8E7ED21000010B500698CB00191DC
:104498000291002842D00468254AA468944240D179
:1044A80000690B460391002838D00468A468944238
:1044B80037D100690491002830D00468A468944278
:1044C8002FD10069059148B30468A468944228D1A3
:1044D8000069069110B301688C68944226D100697E
:1044E8000793D8B101688C68944219D10069089380
:1044F800A0B101688C68944212D10069099368B12F
:1045080001688C6894420BD100690A9330B1016844
:104518008C681946944204D1FFF764FE0CB010BDB4
:10452800194623460CB0BDE8104018470699F8E72D
:10453800ED21000030B58BB000696B4683E80600BA
:10454800002835D00168234ACC68944233D10099B9
:104558009DF804209DF80530006902918DF80C2023
:104568008DF80D3020B30568ED68A5422AD10069A1
:1045780004918DF814208DF81530C8B10468E468EA
:10458800AC4217D1056906918DF81C208DF81D30B5
:1045980075B12B6806AADB68A34218D108AB92E86C
:1045A800030083E80300284693E80600FFF7C2FFEC
:1045B8000BB030BD04AB93E8060023460BB0BDE852
:1045C8003040184702AB93E806002B46F6E728462A
:1045D80006CAF3E74525000030B5836995B004465F
:1045E8006D46186885E8060018B195E80600FFF7DB
:1045F800F3FF2368514A1B6A93426ED100999DF8D4
:1046080004209DF80530206902918DF80C208DF862
:104618000D3000285FD00468E568494CA54263D195
:10462800006904918DF814208DF81530002852D0B7
:104638000568ED68A5425FD1006906918DF81C20D8
:104648008DF81D30002846D00568ED68A5425DD17B
:10465800006908918DF824208DF8253000283AD07B
:104668000568ED68A54256D100690A918DF82C209D
:104678008DF82D3078B30568ED68A54241D1006901
:104688000C918DF834208DF8353020B30568ED682D
:10469800A54245D100690E918DF83C208DF83D303A
:1046A800C8B10568ED68A5423FD1056910918DF83C
:1046B80044208DF8453075B12B6810AADB68A342F9
:1046C80038D112AB92E8030083E80300284693E848
:1046D8000600FFF72FFF15B030BD95E8060020460D
:1046E80015B0BDE83040184702AB93E806002B46EA
:1046F80015B0BDE83040184704AB93E806002B46D8
:10470800EEE70AAB93E806002B46E9E706AB93E829
:1047180006002B46E4E708AB93E806002B46DFE7E4
:104728000CAB93E806002B46DAE70EAB93E80600DD
:104738002B46D5E7284606CAD2E700BF89260000DF
:104748004525000030B595B004696B460DF1080C9D
:1047580083E8060093E803008CE80500002C64D089
:104768002268484BD5689D4261D105469DF80C10DA
:104778009DF80D20206904958DF814108DF81520EA
:10478800002852D00468E4689C4258D10069069514
:104798008DF81C108DF81D20002846D00468E468A8
:1047A8009C4251D1006908958DF824108DF8252078
:1047B80000283AD00468E4689C424AD100690A9506
:1047C8008DF82C108DF82D2078B30468E4689C428D
:1047D80044D100690C958DF834108DF8352020B33C
:1047E8000468E4689C423ED100690E958DF83C103F
:1047F8008DF83D20C8B10468E4689C4238D104694A
:1048080010958DF844108DF8452074B12268D5684C
:104818009D4232D110AA12AB92E8030083E803004C
:10482800204693E80600FFF785FE15B030BD9CE8EA
:10483800060020462B4615B0BDE83040184704ABAB
:1048480093E806002346F6E706AB93E806002346FE
:10485800F1E708AB93E806002346ECE70AAB93E8D8
:1048680006002346E7E70CAB93E806002346E2E799
:104878000EAB93E806002346DDE710AB204693E82D
:104888000600D7E74525000030B597B004696B46A8
:104898000DF1080C83E8060093E803008CE8050096
:1048A800002C70D02268514BD5689D426DD10546C9
:1048B8009DF80C109DF80D20206904958DF81410B2
:1048C8008DF8152000285ED00468E4689C4264D105
:1048D800006906958DF81C108DF81D20002852D00F
:1048E8000468E4689C425DD1006908958DF824103D
:1048F8008DF82520002846D00468E4689C4256D1EB
:1049080000690A958DF82C108DF82D2000283AD0D2
:104918000468E4689C424FD100690C958DF8341006
:104928008DF8352078B30468E4689C4249D1006961
:104938000E958DF83C108DF83D2020B30468E4688E
:104948009C4243D1006910958DF844108DF845209C
:10495800C8B10468E4689C423DD1046912958DF899
:104968004C108DF84D2074B12268D5689D4237D11E
:1049780012AA14AB92E8030083E80300204693E8E8
:104988000600FFF7D7FD17B030BD9CE806002046AB
:104998002B4617B0BDE83040184704AB93E8060033
:1049A8002346F6E706AB93E806002346F1E708AB93
:1049B80093E806002346ECE70AAB93E80600234693
:1049C800E7E70CAB93E806002346E2E70EAB93E873
:1049D80006002346DDE710AB93E806002346D8E738
:1049E80012AB204693E80600D2E700BF4525000039
:1049F80010B5006986B0ADF8041068B303681F4AA3
:104A08001B6993422AD19DF804109DF8052000697E
:104A18008DF808108DF80920F0B1046824699C42CB
:104A280021D100698DF80C108DF80D20A0B1036814
:104A38001B69A3421AD100698DF810108DF8112056
:104A480050B1026812699A4212D1BDF81030ADF81F
:104A580014300599FFF7CCFF06B010BD019906B0D8
:104A6800BDE81040184702992346F8E70399F6E78E
:104A7800049906B0BDE81040104700BFAD290000FA
:104A8800836910B504468CB01868ADF8041010B1ED
:104A98000199FFF7F5FF2368424A5B6A934261D1A7
:104AA8009DF804209DF8053020698DF80C208DF8BC
:104AB8000D30002854D004683B4924698C4257D1F2
:104AC80000698DF810208DF81130002848D004684E
:104AD80024698C4252D100698DF814208DF8153064
:104AE80000283DD0046824698C424DD100698DF8B6
:104AF80018208DF81930002832D0046824698C42B7
:104B080045D100698DF81C208DF81D3040B304682C
:104B180024698C4235D100698DF820208DF8213028
:104B2800F0B1046824698C4234D100698DF82420DE
:104B38008DF82530A0B1046824698C422DD1006914
:104B48008DF828208DF8293050B103681B698B42F5
:104B580026D1BDF82830ADF82C300B99FFF748FF67
:104B68000CB010BD019920460CB0BDE810401847A4
:104B7800039923460CB0BDE8104018470499234612
:104B8800F2E707992346EFE705992346ECE70699EC
:104B98002346E9E708992346E6E709992346E3E728
:104BA8000A99E1E7A92A0000AD29000010B50069BB
:104BB8008CB0ADF80410ADF80C10002858D002687D
:104BC800384B12699A4255D19DF80C109DF80D206A
:104BD80000698DF810108DF81120002848D004685D
:104BE80024699C424BD100698DF814108DF815206A
:104BF80000283DD0046824699C4246D100698DF89C
:104C080018108DF81920002832D0046824699C42B5
:104C18003DD100698DF81C108DF81D2040B3046843
:104C280024699C4235D100698DF820108DF8212027
:104C3800F0B1046824699C422DD100698DF82410D4
:104C48008DF82520A0B1046824699C4225D100690B
:104C58008DF828108DF8292050B1026812699A42FF
:104C68001DD1BDF82830ADF82C300B99FFF7C0FEE8
:104C78000CB010BD03990CB0BDE810401047049962
:104C880023460CB0BDE8104018470599F8E7069987
:104C9800F6E70799F4E70899F2E70999F0E70A991E
:104CA800E9E700BFAD29000010B500698CB0ADF888
:104CB8000410ADF80810002863D002683E4B126952
:104CC8009A4260D19DF808109DF8092000698DF876
:104CD8000C108DF80D20002853D0046824699C42DC
:104CE80056D100698DF810108DF81120002848D091
:104CF800046824699C4251D100698DF814108DF81C
:104D0800152000283DD0046824699C4248D10069D8
:104D18008DF818108DF81920002832D004682469FD
:104D28009C423FD100698DF81C108DF81D2040B3BE
:104D3800046824699C4237D100698DF820108DF8E9
:104D48002120F0B1046824699C422FD100698DF8B4
:104D580024108DF82520A0B1046824699C4227D12D
:104D680000698DF828108DF8292050B10268126961
:104D78009A421FD1BDF82830ADF82C300B99FFF7B7
:104D880037FE0CB010BD02990CB0BDE810401047BA
:104D9800039923460CB0BDE8104018470499F8E77A
:104DA8000599F6E70699F4E70799F2E70899F0E715
:104DB8000999EEE70A99E7E7AD29000001F0070233
:104DC8004FEAD10C08B501239340DBB20F2919D85B
:104DD80000EB0C0292F820201A400FD1806900687D
:104DE80050B100EB0C0E9EF820E013EA0E0F07D12D
:104DF800826910680028E9D1012008BD002008BD9B
:104E0800104608BDFEF7B4FB08B543681BB1184649
:104E18005B68002BFBD10B6913B90861416008BDC1
:104E2800FEF7A6FB08B5436823B11846DB68002BDC
:104E3800FBD108304B6913B94861416008BDFEF7E2
:104E480097FB00BF4268002A3DD00F2910B54FEAF2
:104E5800D10E3CD801F00703012002EB0E0C00FA3A
:104E680003F39CF820C0DCB213EA0C0329D1926941
:104E780012682AB302EB0E0C9CF820C014EA0C0C42
:104E88001FD193691B68DBB103EB0E0292F8202057
:104E9800224016D19B691B6893B103EB0E0090F872
:104EA800200004420DD19B691B6873B19E449EF893
:104EB8002020144205D19B69186830B1FFF77EFFA6
:104EC80010BD002010BD01207047012010BDFEF765
:104ED8004FFB00BF70B544688EB00191002C63D0C1
:104EE800A26903911568002D4DD0AA690491106834
:104EF80008B1FFF7C7F92B68514EDB690499B34233
:104F080040F098802869059100283DD003689A6888
:104F18004C4B9A4240F0878000690691002833D0B4
:104F2800026892689A427ED10069079100282BD0C6
:104F3800026892689A4276D10069089120B30268A3
:104F480092689A426FD100690991E8B10268926843
:104F58009A4272D100690A91B0B1026892689A4285
:104F680061D100690B9178B1026892689A425AD16E
:104F780000690C9140B1026892689A4253D10D9130
:104F8800FFF730F900E02E4E23680399DB69B3423E
:104F98004BD12069059138B102682A4B92689A4230
:104FA8003DD10069069108B90EB070BD02689268DB
:104FB8009A4234D1006907910028F5D002689268B6
:104FC8009A422CD1006908910028EDD002689268B5
:104FD8009A4224D1006909910028E5D002689268B4
:104FE8009A421BD100690A910028DDD002689268B4
:104FF8009A4214D100690B910028D5D002689268B2
:105008009A420CD100690C910028CDD002689268B0
:105018009A4204D10D91FFF7E5F8C5E709990EB05A
:10502800BDE8704010479047AEE720460EB0BDE897
:105038007040184728469847A6E709999047A3E77C
:1050480089220000ED2100002DE9F04198B0446864
:105058006B4683E80600002C00F0BA80A66902AD12
:1050680093E80300366885E80500002E00F0938079
:10507800B3690DF1100895E803001B6888E805007E
:1050880023B1184698E80600FFF7A6FA3368A44F3C
:105098001B6ABB4240F00381DDF810C09DF8141074
:1050A8009DF815203069CDF818C08DF81C108DF8C2
:1050B8001D20002870D00368DE689A4B9E4240F09D
:1050C80002810069CDF820C08DF824108DF82520C4
:1050D800002861D00668F6689E4240F0FE800069AC
:1050E800CDF828C08DF82C108DF82D20002853D02D
:1050F8000668F6689E4240F0DC800069CDF830C052
:105108008DF834108DF83520002845D00668F668EB
:105118009E4240F0EC800069CDF838C08DF83C1014
:105128008DF83D20002837D00668F6689E4240F08A
:10513800E8800069CDF840C08DF844108DF845200E
:1051480050B30668F6689E4240F0E0800069CDF8EA
:1051580048C08DF84C108DF84D20E8B10668F66807
:105168009E4240F0E7808DF855200269CDF850C086
:105178008DF8541082B11168CE689E4240F0DE80EE
:1051880014A916AB03C983E80300104693E8060088
:10519800FFF7D0F900E0624F23681B6ABB4272D167
:1051A800029D9DF80C109DF80D20206906958DF83C
:1051B8001C108DF81D2058B10368DC68594B9C42BF
:1051C80068D1006908958DF824108DF8252010B94C
:1051D80018B0BDE8F0810468E4689C426ED10069AB
:1051E8000A958DF82C108DF82D200028F0D0046831
:1051F800E4689C426CD100690C958DF834108DF8E8
:1052080035200028E4D00468E4689C424CD1006949
:105218000E958DF83C108DF83D200028D8D00468F4
:10522800E4689C425ED1006910958DF844108DF8B1
:1052380045200028CCD00468E4689C425CD1006911
:1052480012958DF84C108DF84D200028C0D00468B8
:10525800E4689C425FD1046914958DF854108DF868
:105268005520002CB4D02268D5689D425CD114AA80
:1052780016AB92E8030083E80300204693E8060093
:10528800FFF758F9A4E795E80600204618B0BDE8EE
:10529800F041184706AB93E806002346F6E7304688
:1052A80098E80600984777E70CAB93E80600234692
:1052B800ECE70AAB93E80600B0476DE708AB93E864
:1052C80006002346E2E706AB93E80600B04763E72B
:1052D8000AAB93E806002346D8E708AB93E8060034
:1052E800B04759E70EAB93E806002346CEE70CAB70
:1052F80093E80600B0474FE710AB93E80600234653
:10530800C4E70EAB93E80600B04745E710AB93E857
:105318000600B04740E712AB93E806002346B5E71E
:10532800892600004525000014AB204693E80600B6
:105338002B46ABE7DDE91212B0472DE71046DDE951
:105348001412B04728E700BF70B544688EB0ADF8B6
:105358000410002C00F09780A369ADF80C101D68AC
:10536800002D76D0AB69ADF81010186810B104990B
:10537800FFF786FB2B688A4E5B6AB34240F0DC80FD
:105388009DF810109DF8112028698DF814108DF8DB
:10539800152000285ED003681D69824B9D4240F0AD
:1053A800D88000698DF818108DF81920002851D080
:1053B80005682D699D4240F0D28000698DF81C1067
:1053C8008DF81D20002845D005682D699D4240F0C4
:1053D800BA8000698DF820108DF82120002839D076
:1053E80005682D699D4240F0C08000698DF8241041
:1053F8008DF8252070B305682D699D4240F0BB806B
:1054080000698DF828108DF8292018B305682D69D2
:105418009D4240F0B38000698DF82C108DF82D2046
:10542800C0B105682D699D4240F0B38000698DF8D0
:1054380030108DF8312068B1026812699A4240F044
:10544800AB80BDF83030ADF834300D99FFF7D0FAA5
:1054580000E0534E23685B6AB34264D19DF80C1098
:105468009DF80D2020698DF814108DF8152050B185
:1054780004684C4B24699C425BD100698DF8181074
:105488008DF8192008B90EB070BD046824699C42D3
:105498005CD100698DF81C108DF81D200028F2D011
:1054A800046824699C4257D100698DF820108DF852
:1054B80021200028E7D0046824699C4240D1006973
:1054C8008DF824108DF825200028DCD00468246984
:1054D8009C4247D100698DF828108DF829200028B2
:1054E800D1D0046824699C4242D100698DF82C10FF
:1054F8008DF82D200028C6D0046824699C4240D12C
:1055080000698DF830108DF831200028BBD0026872
:1055180012699A4238D1BDF83030ADF834300D995F
:10552800FFF766FAAFE7039920460EB0BDE8704072
:10553800184705992346F8E704992846984789E7C4
:1055480008992346F1E70799A84783E70699234670
:10555800EBE70599A8477DE707992346E5E706990C
:10556800A84777E709992346DFE70899A84771E72D
:105578000A992346D9E70999A8476BE70A99A847E2
:1055880068E70B992346D0E70C990EB0BDE8704048
:1055980010470B99A8475DE70C9990475AE700BF59
:1055A800A92A0000AD290000026938B5002A5AD09E
:1055B800C1690C68A4B1536813B100251D61556019
:1055C800436843B100251D61456053681BB11A4605
:1055D8005B68002BFBD12369002B4BD122615460FF
:1055E8004269002A2FD083691968002934D053688A
:1055F80013B100245C615460C3684BB100245C6142
:10560800C460536823B11A46DB68002BFBD108320B
:105618004B69002B2ED103694A615160002B27D0BA
:105628005968426911B100240C615C60F2B1536899
:10563800E3B10024C1695C6154600B68D3B9836924
:105648001B68BBB938BD0369002BF6D05C68002C19
:10565800F3D022615A60F0E70369002BE7D059685C
:105668000029E0D1E3E74269002ABCD1C169E4E737
:105678004269DBE7FDF77CFFF8B54568FDB16E6868
:105688000446BEB177687FB1786838B1FFF7F4FF98
:105698007868FFF789FF00237B6077683846FFF753
:1056A80083FF002373606E683046FFF77DFF002399
:1056B8006B6065682846FFF777FF00236360F8BDD5
:1056C8002DE9F041194B0446456803605DB36E68E7
:1056D80036B37768F7B1D7F80480B8F1000F13D064
:1056E800D8F8040050B1FFF7C7FFD8F80400FFF757
:1056F8005BFF0023C8F80430D7F804804046FFF762
:1057080053FF00237B6077683846FFF74DFF00237F
:1057180073606E683046FFF747FF00236B6065686B
:105728002846FFF741FF2046BDE8F08188070020A2
:10573800F8B5456805B3EE680446C6B1F76887B1A1
:10574800F86840B10830FFF7F3FFF868FFF72CFF5F
:105758000023FB60F7683846FFF726FF0023F36055
:10576800EE683046FFF720FF0023EB6065682846A7
:10577800FFF71AFF00236360F8BD00BF38B5124B6E
:10578800A0F10805044603F1340240F8083C026021
:105798002846FFF709FF0D4B6068236028B10830E1
:1057A800FFF7C6FF6068FFF7FFFE094B54F8040CCB
:1057B80044F8083C28B1FFF75FFF54F8040CFFF7E2
:1057C800F3FE284638BD00BF40070020040400202F
:1057D8008807002038B5144BA0F10805044603F1EA
:1057E800340240F8083C02602846FFF7DDFE0F4B04
:1057F8006068236028B10830FFF79AFF6068FFF7F8
:10580800D3FE0B4B54F8040C44F8083C28B1FFF7BE
:1058180033FF54F8040CFFF7C7FE2846242102F092
:1058280005FB284638BD00BF4007002004040020BF
:1058380088070020F8B5264B044603F134020360BC
:105848008260FFF7B1FE234BE568A360EDB1EE6817
:10585800C6B1F76887B1F86840B10830FFF768FF4C
:10586800F868FFF7A1FE0023FB60F7683846FFF7EA
:105878009BFE0023F360EE683046FFF795FE002399
:10588800EB60E5682846FFF78FFE134B65682360D9
:10589800E5B16E68BEB177687FB1786838B1FFF757
:1058A800EBFE7868FFF780FE00237B607768384658
:1058B800FFF77AFE002373606E683046FFF774FEC8
:1058C80000236B6065682846FFF76EFE2046F8BD2A
:1058D800400700200404002088070020F8B5284B62
:1058E800044603F1340203608260FFF75DFE254B36
:1058F800E568A360EDB1EE68C6B1F76887B1F868EE
:1059080040B10830FFF714FFF868FFF74DFE002399
:10591800FB60F7683846FFF747FE0023F360EE6840
:105928003046FFF741FE0023EB60E5682846FFF7A5
:105938003BFE154B65682360E5B16E68BEB17768BC
:105948007FB1786838B1FFF797FE7868FFF72CFECB
:1059580000237B6077683846FFF726FE00237360D4
:105968006E683046FFF720FE00236B6065682846A6
:10597800FFF71AFE2046242102F058FA2046F8BD07
:105988004007002004040020880700202DE9F0418A
:105998001A4B04464568036065B3EE683EB3F76882
:1059A800FFB1D7F80C80B8F1000F14D0D8F80C006C
:1059B80058B10830FFF7BCFED8F80C00FFF7F4FD2B
:1059C8000023C8F80C30D7F80C804046FFF7ECFDF0
:1059D8000023FB60F7683846FFF7E6FD0023F36015
:1059E800EE683046FFF7E0FD0023EB606568284667
:1059F800FFF7DAFD2046BDE8F08100BF040400206F
:105A08002DE9F0411C4B04464568036065B3EE6818
:105A18003EB3F768FFB1D7F80C80B8F1000F14D087
:105A2800D8F80C0058B10830FFF782FED8F80C00FF
:105A3800FFF7BAFD0023C8F80C30D7F80C804046B1
:105A4800FFF7B2FD0023FB60F7683846FFF7ACFDAF
:105A58000023F360EE683046FFF7A6FD0023EB60F5
:105A680065682846FFF7A0FD2046082102F0DEF908
:105A78002046BDE8F08100BF04040020F8B506798F
:105A880004460D46F02E32D02B061DD423790BB9CF
:105A98000020F8BD94F89420C2BB03F0F002B02AAD
:105AA8003AD9A2F1E006B6FA86F67609A6BB82F0E4
:105AB8008002602A39D9F02BEAD1294604F10C007A
:105AC80000F042F83046F8BDF72D2BD82379002294
:105AD8002571F02B84F89420DAD10C34F721204674
:105AE80000F032F8204600F02BF80220F8BD00F153
:105AF8000C07384600F038F80028C5D1384600F0C1
:105B080017F83146384600F01FF8BDE7002301209A
:105B1800A57184F89430F8BD01230020657184F8DC
:105B28009430F8BD03202572F8BD01206571F8BDD9
:105B380000220123C0F8802080F88430704700BF1D
:105B4800002380F884307047D0F880207F2A09D855
:105B5800034610B4541C81540120C3F880405DF8FA
:105B6800044B70470020704790F88400704700BFCE
:105B7800704700BFD0F88000704700BF054B10B5D4
:105B88001C6834B1236820461B6B98476468002C56
:105B9800F8D110BD4C1D0020054B10B51C6834B160
:105BA800236820465B6B98476468002CF8D110BDC9
:105BB8004C1D0020054B10B51C6834B123682046E5
:105BC8009B6B98476468002CF8D110BD4C1D0020D1
:105BD800A1F1280330B5054683B0252B28D8DFE886
:105BE80003F052652424136B272727272727272705
:105BF800272727272727272727272727272727272D
:105C08002727272727273F3F4249003A424B434C43
:105C180018BF012248681B68A4FB03439B0C03FBC5
:105C280002F24B681B1A9A42FBD8012003B030BD20
:105C38003F295AD901F03F03E81890F82C00FF28B3
:105C4800F3D011F0300F5CD0102B5ED002F002F8C8
:105C580003460120003B18BF012385F82730E5E7FC
:105C68000192002A43D101F03F0401212C4494F809
:105C78002C0002F001F8019A94F82C00114601F06A
:105C8800BFFF0120D2E72B35012405E00F2A26D8D3
:105C980001F0F2FF0134E4B215F8013F621E012160
:105CA800FF2B1846F2D1162CF4D1BEE7104601F0AE
:105CB80029FF012003B030BD174C032A1549174BA3
:105CC8004868226834BF05240224A3FB0232920CE0
:105CD80004FB02F24B681B1A9A42FBD8A5E7022183
:105CE80001F0CAFF162CD5D19FE700209EE701F0EE
:105CF8003F0302212B4493F82C0001F0BDFF012043
:105D080094E7114601F07CFF8FE7019003F0EEFA6B
:105D180001989BE7001000E0640D002083DE1B4320
:105D280080F8371080F8382080F83930704700BF85
:105D3800A1F1140C38B50446BCF10C0F08D8DFE803
:105D48000CF015070709220F0707070707070D00BB
:105D5800002038BD19461548FDF724FA012038BD42
:105D680001211248FDF7E0FA012038BD83692BB9FB
:105D780003680F4A5B7B02FB03F383610B4803F064
:105D880023FE012038BD094D81692846FDF7B4FB83
:105D980094F82420012302F0FE02184685F83031D9
:105DA80085F8A52085F82F3138BD00BFD80D002013
:105DB800A086010003682DE9F043064683B090F8F9
:105DC8005090002490F8515093F8118000E0336807
:105DD8001B7C2A46F76C002104FB03FC0134304687
:105DE80001354FEACC0CE4B21FFA8CFCEDB2BC448E
:105DF800CDF800C001F070F8A14501D9A845E6D852
:105E080003B0BDE8F08300BF0268002190F850306D
:105E1800127CC06C12FB03F2D20003F095BB00BFEA
:105E280010B50446FFF7C6FF2046BDE8104001F054
:105E38008DB800BF836C10B5044680F851101B68FC
:105E48009847A36C20465B68BDE81040184700BF20
:105E580010B590F8AB3004462BB920460021BDE8B8
:105E68001040FFF7E7BF0268002190F85030127C1D
:105E7800C06C12FB03F2D20003F066FB204600213F
:105E8800BDE81040FFF7D6BF38B50446FFF792FFCC
:105E980094F8515094F8503022681D44517CEDB26A
:105EA800A94211D994F8AB1029B920462946FFF721
:105EB800C1FF012038BD127C0021E06C12FB03F207
:105EC800D20003F041FBF0E7204601F03FF8002044
:105ED80038BD00BF2DE9F8439DF824501C46814683
:105EE8000F46EB079046BDF8206007D4A90715D4E4
:105EF8002A0725D46B0735D4BDE8F883B21A611890
:105F080092B289B200F0B0FCF21B04EB08014846DB
:105F180092B289B200F0A8FCA907E9D5A6EB08025D
:105F2800E11B484692B289B200F09EFCF21BA4EB3A
:105F38000801484692B289B200F096FC2A07D9D5E2
:105F480006EB0802E119484692B289B200F08CFCCF
:105F5800BA1904EB0801484692B289B200F084FCF1
:105F68006B07C9D506EB0802E11B484692B289B215
:105F780000F07AFCBA19A4EB0801484692B289B23B
:105F8800BDE8F84300F070BC2DE9F0479DF82460A7
:105F98001D4680460C46F3071746BDF8209007D4E7
:105FA800B1071AD432072ED473073ED4BDE8F08760
:105FB800531C6918A9EB02029BB292B289B200F095
:105FC8004BFC631CA9EB0402E9199BB2404689B259
:105FD80092B200F041FCB107E4D57B1CA9EB0702A3
:105FE800291B40469BB292B289B200F035FC631C73
:105FF800A9EB0402E91B9BB2404692B289B200F0B9
:106008002BFC3207D0D57B1C29194A4640469BB247
:1060180089B200F021FC631CE9194A469BB240464C
:1060280089B200F019FC7307C0D57B1C291B4A46AE
:1060380040469BB289B200F00FFC631CE91B4A463C
:1060480040469BB289B2BDE8F04700F005BC00BFEE
:106058002DE9F04F1D46531C83B090462B440F4644
:10606800521B82469BB29DF830B092B200936B1CD3
:106078000B44491B9BB289B200F012FC10B903B063
:10608800BDE8F08FC5EBC539C5F101063B462A4688
:106098004FEA49090021504636B20FFA89F9CDE98D
:1060A800008BFFF717FF002DE9D0002409F1020348
:1060B800002EB1B205F1FF3216FA83F603DB95B272
:1060C800B1B20FFA83F901343B462A465046A4B2CE
:1060D80001EB44062146CDE9008B0136FFF7FAFEB5
:1060E800AC4236B2E2D303B0BDE8F08F2DE9F04FF1
:1060F8001D46531C83B090462B440F46521B8246C4
:106108009BB29DF830B092B200936B1C0B44491BB4
:106118009BB289B200F0C4FB10B903B0BDE8F08FA0
:10612800C5EBC539C5F101063B462A464FEA490980
:106138000021504636B20FFA89F9CDE9008BFFF7F6
:1061480023FF002DE9D0002409F10203002EB1B28B
:1061580005F1FF3216FA83F603DB95B2B1B20FFAF6
:1061680083F901343B462A465046A4B201EB440663
:106178002146CDE9008B0136FFF706FFAC4236B267
:10618800E2D303B0BDE8F08F10B50446FFF760FE18
:106198002046FFF779FE0028FAD101462046BDE8DF
:1061A8001040FFF747BE00BF30B51C4685B0134608
:1061B80005460A4A00940C46094900F0D9FE0DF13B
:1061C8000F0000F0F1FE074B01469DF80F2028460E
:1061D800009400F065FC05B030BD00BF754A0000B2
:1061E8002D4C0000FD4600004218435C507800EB3F
:1061F800032080B2704700BF00207047012B05D0F4
:10620800022B09D02BB1411A88B27047014488B2D9
:106218007047024490B27047821A90B2704700BF2C
:10622800012B05D0022B09D02BB1024490B2704744
:10623800821A90B27047014488B27047411A88B2F6
:10624800704700BF2DE9F04F87B004460E4690F81E
:10625800807090F881B005920FE094F885100029BD
:1062680049D0F319AE420BF1010BA3EB0A033AD361
:106278005FFA8BFB002703F0FF0694F882A04FFA21
:1062880087FC31464FFA8BF9AAEB070594F888305A
:106298004A46B4F87C00EDB2B4F87E80CDF80CC064
:1062A800AE4228BF294604916146FFF7B9FF02466E
:1062B8000399404690464A46FFF7A0FF05990246D3
:1062C8000029CAD00093414694F886C02046049B12
:1062D8000BF1010B84F8AAC000F040FAF319AE42A2
:1062E800A3EB0A03C4D23E4484F8819084F880600A
:1062F80007B0BDE8F08F0093414694F88700049BEF
:1063080084F8AA00204600F029FAAAE72DE9F04F00
:10631800044690F89000002385B00728A16784F808
:1063280084300D7840F24E81A0F108030131DBB2D0
:10633800A1674FF0FF3294F8916084F8843082406E
:1063480025EA0205F2186DB2D2B284F88250072A03
:10635800087840FA03F000F22781C3B24FF0FF300B
:1063680084F88420B04094F8926023EA000394F8FB
:10637800AA0084F88600B0FA80F04FFA83F9400941
:1063880084F8839084F88700B0180F78C0B217415A
:10639800072800F2F6805FFA87FE94F893C084F825
:1063A80084000CEB00020F78D2B20741072A00F2F2
:1063B800D880F8B294F894A084F884200AEB0208F4
:1063C80091F800B05FFA88F84BFA02FBB8F1070FB2
:1063D80000F2B8805FFA8BF74FF0FF3284F88480C0
:1063E8000121002D0AEB020802FA0AFA5FFA88F87E
:1063F80027EA0A0701FA08F8A7EB08074FFA87FB0C
:1064080040F39C800CEB020802FA0CFCB240013EFF
:1064180020EA0C0C5FFA88F02EEA020EF6B201FAB6
:1064280000F2B4F87C00B140D21A94F88830AEEB90
:106438000101A2EB0C0249B252B202910392FFF79A
:10644800EFFEA4F87C000646B4F87E00DDE90212EF
:10645800FFF7D4FE0246A4F87E00032B00F2EC807E
:10646800DFE803F0B2B8C102C5F10103411C0344DF
:1064780089B29AB206EB09039BB2009120463146D5
:1064880000F00EFA002859D0002294F884304FF01A
:10649800FF38A4F8802094F88E50A16FEA18087885
:1064A800D2B21841072A00F2B880C6B294F88F0019
:1064B80008FA05F584F88420831891F800C026EAC4
:1064C8000506DBB24CFA02FC072B00F299805FFA52
:1064D8008CF508FA00F084F8843025EA0005314686
:1064E80020460022FFF7AEFE012229462046FFF78C
:1064F800A9FE94F88420A76F531CC2F108003978CC
:10650800A2F1070EDBB207F1010A1141C0B2072B55
:10651800CAB207D9C4F878A05FFA8EF37A788240B5
:106528000A43D2B2D20784F88430D8D494F98120AF
:106538004A45B0DB94F8863084F8AA30584605B04E
:10654800BDE8F08F4F1CC2F10802A8F10808D2B2CA
:10655800A7674F785FFA88F8974047EA0B07FFB2BA
:106568003AE701F10108C0F10800083AC0B2C4F8DE
:1065780078804978D2B201FA00F041463843C0B277
:1065880018E701F1010CC2F108020838D2B2C4F8C8
:1065980078C091F801E0C0B261460EFA02FE4EEAF8
:1065A800070E5FFA8EFEF8E64F1CC3F10803083A9F
:1065B800DBB2A7674978D2B201FA03F3394603433D
:1065C800DBB2CBE60346B4E6731900EB09019BB2D4
:1065D80089B252E74119C9F10100731C304489B2EC
:1065E8009BB286B249E7C5F10101C9F10100731CEC
:1065F800314410449BB28EB2511C82B289B23CE73E
:106608004D1CC2F10802083BD2B2A5674D78DBB237
:10661800954045EA0C05EDB25BE701F1010CC3F1C9
:106628000803083ADBB2C4F878C04E78D2B26146A3
:106638009E400643F6B239E7014633461DE700BFE0
:1066480070B5FF29046F0D4604F117040ED86029B0
:1066580030D9B0F8A0301C44607830B12378AB4210
:106668002ED0044460780028F8D170BDB0F8A2306C
:106678001C44264600213046FFF7B6FD034602219A
:1066880030461C44FFF7B0FD854206F10406F1D8F8
:10669800208840BA80B20028E7D0854208D0A37885
:1066A8001C44208840BA80B20028DED08542F6D14A
:1066B800E01C70BD4029D5D9B0F89E301C44D1E704
:1066C800A01C70BD70B50E46194690F8883082B08F
:1066D80004461546032B09D8DFE803F0251E0217E8
:1066E800436F01919847281A019985B22046A4F86A
:1066F8007C60A4F87E50FFF7A3FF20B10146204636
:10670800FFF704FE80B202B070BD436F0191984755
:106718003044019986B2E9E7436F01919847301AEE
:10672800019986B2E2E7436F01919847284401999D
:1067380085B2DBE7014B4367704700BFF93F0000B4
:1067480010B49DF804400194B0F85640121B446CF4
:1067580092B2A4465DF8044B604700BF30B590F88C
:10676800A4409DF80CC004B103B930BD012B05D07D
:10677800BCF1020F2CD0BCF1030F5CD01CF0010F50
:1067880029D0B0F860408C42EFD8B0F862408C4213
:10679800EBD91344B0F86450B0F866401FFA83FC94
:1067A800944505D294424AD904F1FF3C1FFA8CFC67
:1067B8009442DAD96545D8D2AA4238BF2A466445F8
:1067C80094BFC2EB0403C2EB0C0301249BB22BE081
:1067D8000131C91A89B2B0F864409442C5D8B0F8FA
:1067E80066409442C1D90B44B0F86050B0F862E0FA
:1067F8001FFA83FC8C4505D28E4522D90EF1FF3C49
:106808001FFA8CFC6545B0D28E458CBF002401244C
:10681800002CAAD1A94238BF2946E64594BFC1EB4E
:106828000E03C1EB0C039BB20394846CA468A446CA
:10683800BDE8304060470132D21A92B2A1E72A4639
:10684800B6E72946DEE700BF10B5002482B0009401
:10685800FFF784FF02B010BD10B5012482B0009488
:10686800FFF77CFF02B010BD10B5B0F8644082B0ED
:1068780094420CD8B0F86640944208D9B0F8604009
:106888008E468C4203D8B0F862308B4201D802B0F1
:1068980010BD002401230094FFF760FF02B010BD73
:1068A80010B5B0F86640BDF808C09442B0F864E08E
:1068B80016D9E64504D3624594BF002201229AB155
:1068C800B0F86240B0F860208C420FD9994294BF6A
:1068D800002101219A422CBF084641F0010010BD59
:1068E800E64501D26245EBD8002010BD994294BF1D
:1068F800002001209A4228BF002010BD70B54FF03B
:10690800010C02F0070490F8AA500CFA04FC9DF858
:106918001060012D5FFA8CFC46D94FF0000E056817
:1069280022F007022D7C02FB05F54FF6F8722A408B
:106938001144C26C11449EB95A1E92B201320A44E3
:106948000B784EEA03038CEA030301F8013B9142FA
:10695800F6D170BD5FFA86FE5FFA85FC002BF8D091
:106968000A780134013B4FEA4E064EEA020214F05F
:1069780007049BB28CEA02024FEA4C050A70E9D17F
:1069880090F8AA20B0F85250012A294404D94FF0AF
:10699800010C002BE4D1DCE79646DFD04FF0010C68
:1069A800E646002BDCD1D4E7E646B8D14FF0000C20
:1069B800B5E700BF10B49DF8044001945DF8044B9E
:1069C800FFF7BEBE10B5B0F86E1082B0B0F86A30EE
:1069D8000446B0F86C200091B0F86810FFF760FF2B
:1069E80018B984F8A40002B010BDB4F868300121C9
:1069F800B4F8602084F8A4109A42B4F8622038BF32
:106A0800A4F86030B4F86A309A42B4F8642088BFB9
:106A1800A4F86230B4F86C309A42B4F8662038BFF3
:106A2800A4F86430B4F86E309A4288BFA4F866308F
:106A380002B010BD4FF0000CB0F85C10826DA0F8E9
:106A480060C0A0F862104266FFF7BCBF90F850C063
:106A580001684FEACC0310B5A0F854300A7CD20084
:106A6800A0F8522090F85120D4009444A0F8564041
:106A780091F811E0F44506DD92B2AEEB020E4FEA52
:106A8800CE0E1FFA8EF3B1F814C02344CA8AA0F8B8
:106A98005840A0F85A30A0F85CC0A0F85E2010BD9D
:106AA80038B5436440F2011300250446A0F8AA3023
:106AB800049B80F85020C16480F8515080F88550BC
:106AC80080F8A55080F8A950836405671B6898472B
:106AD800A26C064B2046C4E91A33536898472046EF
:106AE800FFF728FE84F8885038BD00BF0000FFFF7C
:106AF80019B10A2901D088B270474FF6FF70704764
:106B0800002380F82630704710B40C46134617212E
:106B180022460469A4465DF8044B604700B583B07B
:106B28000B4601210DF107028DF80730FFF7ECFF46
:106B380003B05DF804FB00BF10B4002304691821FA
:106B4800A4461A465DF8044B604700BF10B4002302
:106B580004691921A4461A465DF8044B604700BF32
:106B680030B5044683B001920091FFF7E5FF40215C
:106B78002046FFF7D3FF172120462569DDE90023CA
:106B8800A847204603B0BDE83040FFF7DFBF00BF8D
:106B980010B4C4680A4600231521A4465DF8044BC6
:106BA800604700BF10B4C4680A4600231621A446F3
:106BB8005DF8044B604700BF10B40C46134617211C
:106BC8002246C468A4465DF8044B604710B400230D
:106BD800C4681821A4461A465DF8044B604700BFF4
:106BE80010B40023C4681921A4461A465DF8044B62
:106BF800604700BF70B5054682B00C4694F800C0E7
:106C0800BCF1190F13D8BCF1170F2BD80DF10702DF
:106C18004FF00101284617D1637802348DF8073008
:106C2800FFF7CAFF94F800C0BCF1190FEBD9BCF10B
:106C3800FE0F4FF02901284609D1627802348DF8F9
